:100000000C94E20A0C94F22D0C94080B0C94080B3F
:100010000C9489210C9489210C94080B0C940A0BE4
:100020000C94080B0C94080B0C94080B0C94080B04
:100030000C94080B0C9482140C94080B0C94080B71
:100040000C94080B0C94080B0C94080B0C94080BE4
:100050000C94080B0C94080B0C94080B0C94080BD4
:100060000C94080B0C94080B2530326868753A25FF
:100070003032686875256300257320253032686842
:1000800075202573203230253032686875008D1454
:100090002000AF25750000F8F8F8F80000C3C3C3CE
:1000A000C300001F1F1F1F00FEFFFF0F0707070FE2
:1000B000FFFFFE7FFFFFF0E0E0E0F0FFFF7F0000CA
:1000C000181C1EFFFFFF0000000000000000FFFFE3
:1000D000FF0000001E1F1F070787C7E7FF7F3EF0D6
:1000E000F8FCFEEFE7E3E1E0E0E00E0F0F07078723
:1000F000C7EFFF7F3E70F0F0E0E0E1E3F7FFFE7C4A
:10010000C0E0F0783C1EFFFFFF00001F1F1F1C1CFB
:100110001CFFFFFF1C1CFFFFFFC7C7C7C7C7C78760
:100120000771F1F1E1E1E1E1F3FF7F3FFEFFFF8FB6
:10013000878787878F8F0E7FFFFFE3E3E3E3E3FF8C
:10014000FF7F0F0F0F07070787C7FFFF7FE0F078DC
:100150003C1E0F07030100007EFFFFC7878787C78C
:10016000FFFF7E7EFFFFE3E1E1E1E3FFFF7EFEFFB5
:10017000FFC7C7C7C7C7FFFFFE78F9F9E1E1E1E1B3
:10018000E1FFFF7FFEFFFFFFFF0F0F0F0F0F0F0FAE
:100190000F0FFFFFFFFFFEFFFFFFFFFF000000004C
:1001A0000000000000FFFFFFFFFF7FFFFFFFFFF0E9
:1001B000F0F0F0F0F0F0F0F0FFFFFFFF7F00000044
:1001C000000000203CFFFFFFFFFF000000000000D8
:1001D0000000000000000000FFFFFFFFFF00000024
:1001E0000000000000000000000000FFFFFFFFFF14
:1001F00000000000000000FEFFFFFFFF0F0F0F0FC9
:100200000F0F0F0FFFFFFFFFFE0000000000008038
:10021000C0E0F0F8FC7E3F1F0F070301E0F0F8FCA0
:10022000FEFFFFFFF7F3F1F0F0F0F0F0F0F0F0FE7A
:10023000FFFFFFFF0F0F0F0F0F0F0F0F0FFFFFFF3E
:10024000FFFE00000000000000081C1C3E3E7E7FF8
:10025000F7F7F7E3E37FFFFFFFFFF0F0F0F0F0F0D8
:10026000F0F0F0FFFFFFFF7F000000000080E0F0F3
:10027000FCFF7F1F0F03010000000080C0F0FCFEA8
:10028000FF3F0F0301000000FFFFFFFF00000F0F03
:100290000F0F0F0F0F0F0F0F0F0F0FFFFFFFFF0FAE
:1002A0000FFFFFFFFFFF0F0F0F0F0F0F0F0F0F0FAE
:1002B0000F0F0F0F1F1F1F1F1F1E1E1E1E1E1E1E95
:1002C0001E1EFEFEFEFEFC7FFFFFFFFFF0F0F0F0C3
:1002D000F0F0F0F0F0FFFFFFFF7FFEFFFFFFFF0FEA
:1002E0000F0F0F0F0F0F0F0F7F7F7F7F7EFFFFFF1F
:1002F000FFFF3C3C3C3C3C3C3C3C3CFCFCFCFCF8FC
:100300007FFFFFFFFFF0F0F0F0F0F0F0F0F0FFFF04
:10031000FFFF7F7F7F7F7F7F0F0F0F0F0F0F0F0F6D
:10032000CFFFFFFFFF1F0000000000000000008063
:10033000F0FCFFFF3F0F030000000000000080E022
:10034000F8FEFFFF1F07010000000000FEFFFFFF97
:10035000FF0F0F0F0F0F0F0F0F0FFFFFFFFFFEC35A
:10036000E7E7F7FF7E3E3E3C1C3C3E3E7EFFF7E764
:10037000E7C37FFFFFFFFFF0F0F0F0F0F0F0F0F0E8
:10038000FFFFFFFF7FFEFFFFFFFF0F0F0F0F0F0F9E
:100390000F0F0FFFFFFFFFFE1F3F3F3F3F3C3C3C67
:1003A0003C3C3C3C3C3CFFFFFFFFFF7EFEFEFEFE74
:1003B000F0F0F0F0F0F0F0F0F0FFFFFFFF7F000052
:1003C000000000005F0000000007000700147F1419
:1003D0007F14242A7F2A1223130864623649552287
:1003E0005000050300001C2241000041221C0000B7
:1003F000082A1C2A0808083E0808A0600000000817
:1004000008080808606000000020100804023E513F
:1004100049453E00427F40006251494946224149D8
:1004200049361814127F1027454545393C4A494939
:100430003001710905033649494936064949291EE3
:10044000003636000000AC6C000008142241001495
:1004500014141414412214080002015109063249EF
:1004600079413E7E0909097E7F494949363E41412D
:1004700041227F4141221C7F494949417F090909A5
:10048000013E414151727F0808087F417F410000D1
:100490002040413F017F081422417F404040407F7F
:1004A000020C027F7F0408107F3E4141413E7F09DC
:1004B0000909063E4151215E7F091929462649490D
:1004C000493201017F01013F4040403F1F20402051
:1004D0001F3F4038403F631408146303047804034B
:1004E00061514945437F4141000002040810204109
:1004F000417F0000040201020480808080800102AC
:1005000004000020545454787F484444383844440C
:100510002800384444487F3854545418087E09024F
:100520000018A4A4A47C7F08040478007D000000C7
:1005300080847D00007F10284400417F4000007CC3
:10054000041804787C08047C003844443800FC24F7
:10055000241800182424FC00007C0804004854548B
:100560002400047F4400003C40407C001C204020CC
:100570001C3C4030403C44281028441CA0A07C0077
:100580004464544C440836410000007F00000041A0
:10059000360800000201010201020505020060C0E8
:1005A000F0381C0010189C72301000FF81BDBDBDDA
:1005B000BDBDBDBDBDBDBDBD81FF3CFF81BDBDBDE0
:1005C000BDBDBDBDBD81818181FF3CFF81BDBDBD84
:1005D000BD8181818181818181FF3CFF81BD8181DC
:1005E000818181818181818181FF3C10387C38103B
:1005F000101814345656D0D01038101C06030101C0
:1006000001010101010101010101010101010101DA
:1006100001010101010101010101010103061C3871
:1006200060C08080808080808080808080808080AA
:1006300080808080808080808080808080808080BA
:10064000C060380000000000000000C0E03030183A
:100650001808CCCC0818183030E0C00000000000AA
:1006600000000000000000000018FFC300000000B0
:1006700000000F1F3060C080000083FF18000000E2
:10068000000000000000000000000003070C0C1830
:10069000101030301010180D0C070300000000007F
:1006A000000000000000000000000000000000004A
:1006B000000000000000000000000000000000003A
:1006C0000000000080C0C0C0C0C0C0C0C0C0C0C06A
:1006D000C0C0C0C0C0C0C0C0C0C0C0C0C0C0C0C01A
:1006E000C0800000FFFF007E1E0E06020200000018
:1006F00000000000000000000000000000000000FA
:10070000FFFF0000FFFF00000000000000000000ED
:100710000000000000000000000000606060600059
:10072000FFFF0000010303030303030303030303A9
:100730000303030303030303030303030303030389
:10074000030100000000000080C0E0F0F0F87878BD
:100750003C3C3C3C3C3C7878F8F0F0E0C0000000C9
:100760000000000C1C7CFCFEFFFFFF7F3C0C000027
:10077000000000000000000000000101C0C0C00037
:100780000000000000000003030380800000000060
:100790000000000000000000303CFEFFFFFF7F3F34
:1007A0003E3C3000000000000003070F0F1F1E1E1C
:1007B0003C3C3C3C3C3C1E1E1F0F0F07030100004D
:1007C0000000000000000000000000000000000029
:1007D0000000000000000000000000000000000019
:1007E0000000000000000000000000000000000009
:1007F00000000000000000000000000000000000F9
:1008000000000000000000000000000000000000E8
:1008100000000000000000000000000000000000D8
:100820000000000000000000000000000000001EAA
:100830003F313D3D313F1E00000000000000000040
:1008400000000000000000000000000000000000A8
:100850000000000000000000000000000000000098
:100860000000000000000000000000000000000088
:100870000000000000000000000000000000000078
:1008800000000000000000000000003C7E627A3A98
:100890003A3A3A3A3A3A3A7A627E3C00000000002C
:1008A0000000000000000000000000000000001E2A
:1008B0003F313D3D313F1E000000000000000000C0
:1008C0000000000000000000000000000000000028
:1008D0000000000000000000000000000000000018
:1008E0000000000000000078FCC4F4747474747498
:1008F0007474747474747474747474F4C4FC7800D0
:1009000000000000000000000000003C7E627A3A17
:100910003A3A3A3A3A3A3A7A627E3C0000000000AB
:100920000000000000000000000000000000001EA9
:100930003F313D3D313F1E0000000000000000003F
:1009400000000000F0F888E8E8E8E8E8E8E8E8E80F
:10095000E8E8E8E8E8E8E8E8E8E8E8E8E8E8E88877
:10096000F8F0000000010178FCC4F474747474742D
:100970007474747474747474747474F4C4FC78014E
:1009800001000000000000000000003C7E627A3A96
:100990003A3A3A3A3A3A3A7A627E3C00000000002B
:1009A0000000000000000000000000000000001E29
:1009B0003F313D3D313F1E000000000000000000BF
:1009C000000000000080E0F0F8F8FCFC7C7C3CBCFF
:1009D0009EDEDEDEDEDEFEBC3CF8F8F0F0E0C000BD
:1009E00000000000E0FFFFFF7F7F7D0030F8F8F19E
:1009F000F1E3C3E7FFFF7F7F7F7F7F03031FFFFFDD
:100A0000FEF00000073FFFFFF8E0C0E0F0F97F3F95
:100A10001F0F0FF3FDFC786001071F9FDFFFFFFF33
:100A2000FFFF00000000000103070F1F1F3C3C3CBC
:100A30007878787F7F7F7F7F7E7E7F7F7F3F1F0FED
:100A4000070300000080E0F0F8383C3C7C7C3898DC
:100A500090C0C0C0C0C0C080000000000000000006
:100A60000000000000071F3F7C7C7C0030F8F8F19C
:100A7000F1E3C3870F1F3F7F7F7E7C0000000000F3
:100A8000000000000000000000000000000103075B
:100A90000F0F0FF3FDFC786001071F1FDFFFFEFC47
:100AA000F8F000000000000000000000000000005E
:100AB000000000070F1F3F7F7E7E7C7C7F3F1F0F63
:100AC000070300FFFFFFFFFFEFCF8F0F0F0F0F0F89
:100AD0000F0F0F0F0F0F0F0F0F0F0F0F0F0F0FFF36
:100AE000FFFFFFFFFFFFFFFFFFFFFFFFFE040C1CE8
:100AF0003C7CFCFCFCFCFCFCFC000000000000FF5B
:100B0000FFFFFFFFFFFFFFFFFFFFFFFFFFC0C0C0B2
:100B1000C0C0C0C1C3C7CFDFFFC08000000000FF5E
:100B2000FFFFFFFFFFFFFFFFFFFFFFFFFFFFFFFFD5
:100B3000FFFFFFFFFFFFFFFFFFFFFFFFFEFCF8FFD0
:100B4000FFFFFF00000000000000000000000000A8
:100B50000000000000000000000000000000000095
:100B600000000000000000000000000000C0F0F8DD
:100B7000381C1C1C1C38F8F0C000000000000000ED
:100B800000000000000000000000000000030F1F34
:100B90001C383838381C1F0F03000000000000000C
:100BA0000000000000000000000000000000000045
:100BB0000000000000000000000000000000000035
:100BC0000000000000000000000000000000000025
:100BD0000000FEFE00000000000000000000000019
:100BE00000000000000000000000000000C0F0F85D
:100BF000381C1C1C1C38F8F0C0000000000000006D
:100C00000000000000000000000080C0C0030F1FB3
:100C10001C383838381C1F0F03C0C080000000008B
:100C200000000000000000000607030100000000B3
:100C300000000000000000000000010307060000A3
:100C4000000000000000000060E0C0800000000024
:100C50000000000000000000000080C0E060000014
:100C600000000000000000000000010303C0F0F8D5
:100C7000381C1C1C1C38F8F0C003030100000000E5
:100C80000000000000000000000080C0C0030F1F33
:100C90001C383838381C1F0F03C0C080000000000B
:100CA0000000000000000000060703010000000033
:100CB0000000000000000000000001030706000023
:100CC000000000000000000060E0C08000000000A4
:100CD0000000FEFE00000000000080C0E060000098
:100CE00000000000808080808080810303C0F0F8D5
:100CF000381C1C1C1C38F8F0C003038180808080E5
:100D00008080000001010101010181C0C0030F1FAB
:100D10001C383838381C1F0F03C0C0810101010185
:100D200001010000000000000607030100000000B0
:100D300000007F7F000000000000010307060000A4
:100D40000000000000000080808080800000000023
:100D50000000000000000000000080808080800013
:100D600000000000E0F89C9F07079F9FFCFCFCFC34
:100D7000FCFCFCFCFCFCFCFCFCFC9F9F67679F9C54
:100D8000F8E000F8FFFFFFFFFE7E3F1F3124243113
:100D90001F0F0F0F0F1F312424311F3F7EFEFFFF57
:100DA000FFFFF80001010101000000000000000049
:100DB0000000000000000000000000000000010131
:100DC0000101000000000000000000000000000021
:100DD00080C0E0E00000000080000070E0C0800003
:100DE00000000000F0F8F8F8F8F8F8F8F8FCFEFF5A
:100DF000FFFFFFFF00003CF8C1071FFCF0031FFED0
:100E0000F00000000F1F1F1F1F1F1F1F1F3F7FFF2E
:100E1000FFFFFFFF00003C1F83E0F83F0FC0F87F9B
:100E20000F000000000000000000000000000000B3
:100E300001030707000000000100000E0703010086
:100E400000000000000000000000000000000000A2
:100E500000000000000000000000000484E4741C96
:100E60000C00000000000000000000000000000076
:100E7000000383C3F33B1F070300000303020202C6
:100E80000200000000070787C7E7F77F3F1F0F003A
:100E90000006070706060606060000000000000020
:100EA000000000003C3E3F3F3B39383838383800BE
:100EB0000000000000000000000000000000000032
:100EC0000000000080C0C00000F8F8C00000F8F882
:100ED000C0C00000F8F8C0C0C080000000000000E2
:100EE000000000FFFFFF3F3E3F3F3FBFBFBE3FBF91
:100EF000BFBFBEBEFFFFFF7F7F3FB8307070F0E026
:100F0000C08000FFFFFF806C6C6C006D6D6D006D2C
:100F10006D6DFFFFF7890002061C7800000008C312
:100F2000FFFF3E0001030303030303030303030363
:100F30000303030303070F0E0E0E0F0E0E0E07071B
:100F40000301000080C0C0C0C0C0C0C0C0C0C0C0DD
:100F5000C0C0C0C0C0C0C0C0800000000000000011
:100F600000000000FFFF0100000000000000000082
:100F7000000000808080818F8F80808C9CB8F0E0A2
:100F8000C0800000FFFF80000000000000000000A3
:100F900000000001010181F1F1010131391D0F074C
:100FA000030100000103030303030303030303031B
:100FB0000303030303030303010000000000000018
:100FC00000000000000000000000000000C0F8F079
:100FD0000000000000000000000000000000000011
:100FE0000000000080808080808080C0FC3F013F46
:100FF000FE80000000000000000000000000000073
:1010000000000000010101010101010101000000D7
:1010100007FFE080F83C0C0C0C0C0C0C0C0C0C0CBE
:101020000C0C0000000000000000000000000000A8
:1010300000010F0F0300000000000000000000008E
:101040000000000000000040E0F0E0E0C080C0C010
:10105000E0FEFEFEFEE0C0C080C0E0E0F0E0400048
:1010600000000000C0C0C0C0E1FBFF1F07E3F1F9B2
:101070007C3C1C1C3C7CF9F1E3071FFFFBE1C0C07A
:10108000C0C000000303030387DFFFF8E0C78F9FA2
:101090003E3C38383C3E9F8FC7E0F8FFDF870303B4
:1010A0000303000000000002070F0707030103030A
:1010B000077F7F7F7F070303010307070F070200F6
:1010C0000000000000000000000000000000000020
:1010D0000000000000000000000000000000000010
:1010E000000000C0E0F0F0F0F0F0F0F0F0F0F0F010
:1010F000F0F0F0F0F0F0F8F8FCFCFCFCFCFC00B0C8
:1011000090988803070F0F0F0F0F0F0F0F0F0F0F80
:101110000F0F0F0F0F0F1F1F3F3F3F3F3F3F000DB0
:10112000091911000000000000000000000000008C
:1011300000000000000000000000000000000000AF
:10114000000000000060F0F8F8F0E06060B03018D7
:101150001818F8D818181830B06060E0F0F8F8F0F7
:101160006000000000F07C0F130100000000000090
:101170000000FFFF000000000000000001130F7CD2
:10118000F0000000077FF282400000000000000035
:10119000000003070E1C3870E0C08000004082F29F
:1011A0007F07000000000103060C1830306860C0A3
:1011B000C0C0F0C0C0C0C060683131180C06030167
:1011C00000000000000070783C9ECE6F6737331A35
:1011D0001818F8D818181A3337676FCE9E3C7870F5
:1011E0000000000000F07C0E030100000000000081
:1011F0000000FFFF000000000000000001030E7C63
:10120000F0000000077FF2820303030303030303DC
:10121000030303030000000000000000000082F24E
:101220007F07000000000103060C1830306060C02A
:10123000C0C0F0C0C0C0C060603030180C060301F0
:10124000000000000000000080E0F0F8FCFCFC3E24
:101250001E1E1E1E1E3E7CFCFCF8F0E080000000FE
:101260000000000000000000010101010101000078
:10127000000080C0E0F0F8FFFFFF7F3F0F0000009C
:101280000000000000000000000000000000007CE2
:101290007E7F7F7F7F0F03010100000000000000C0
:1012A0000000000000000000000000000000007EC0
:1012B0007E7E7E7E7E0000000000000000000000B8
:1012C0000000000F0102016F909060011F01007883
:1012D0008080780F0402040FF8A8A8011F0100F80D
:1012E0002020F81F050500F828689012150900F065
:1012F0002828F012150900788080783C42819DA151
:1013000081423C060F1F3E1F0F064A616E00466574
:1013100062004D617200417072004D6179004A7542
:101320006E004A756C0041756700536570004F632D
:1013300074004E6F7600446563004D6F6E00547507
:101340006500576564005468750046726900536112
:10135000740053756E004D545754465353006070DB
:10136000501030F0F030105070600303070707256D
:10137000750057494E210047414D454F5645522172
:101380000040F8EC2C2C38F010D030E84C4C9CF09D
:10139000021F3734341C0F080B0C173232390F017F
:1013A0000101010101010125750047414D454F56DD
:1013B0004552210053636F72653A0048696768734C
:1013C000636F72653A00214E45572048494748539C
:1013D000434F524521002575002575004261636B1E
:1013E000003C20444941474E4F5354494353203E0B
:1013F0000046572020202020312E31203134313139
:1014000031350054656D70657261747572652025A3
:101410006868642E2568687543004261747465725B
:10142000792020202025756D560053686F7720465F
:101430005053253963003C20444953504C415920B6
:101440003E004272696768746E65737300496E7618
:1014500065727400526F7461746500416E696D61EC
:1014600074696F6E73003C2047414D4553203E0028
:10147000427265616B6F75740043617220446F64E2
:101480006765003C204D41494E204D454E55203E5C
:1014900000416C61726D7300466C6173686C6967C2
:1014A00068740053746F7077617463680047616D8E
:1014B00065730053657474696E677300446961678E
:1014C0006E6F73746963730045786974003C2041E2
:1014D0004C41524D53203E00253032686875002043
:1014E0002530326868753A25303268687525632082
:1014F000003C2053455454494E4753203E00546904
:101500006D652026206461746500536C656570000C
:10151000536F756E6400446973706C6179003C2090
:10152000534C454550203E0025686875530054696A
:101530006D656F7574003C20534F554E44203E003E
:10154000554900416C61726D7300486F757220627D
:1015500065657073003C2054494D45202620444168
:101560005445203E00536176656400536176650002
:101570002530326868750020202025303268687573
:1015800020257320323025303268687500202020F5
:10159000256868756872202530326868753A25308C
:1015A000326868752563001F1C1F1E1F1E1F1F1E2B
:1015B0001F1E1F2530326868753A253032686875FD
:1015C0002563000011241FBECFEFD8E0DEBFCDBFE2
:1015D00014BE88E10FB6F89480936000109260000A
:1015E0000FBE11E0A0E0B1E0ECE1FAE602C0059028
:1015F0000D92A431B107D9F716E0A4E1B1E001C022
:101600001D92A631B107E1F70E9437210C940C35E9
:101610000C9400000F928F939F930FB68091B300AC
:1016200086508093B3008091080690910906019638
:1016300090930906809308060FBE9F918F910F909B
:1016400018952CE3829FC00111249C01260F311DA7
:1016500080EA95E0489FB001499F700D1124260F44
:10166000371F822F932F0895ACE0B0E0EAE3FBE050
:101670000C9415300E94F02B882394F080E18D8328
:101680008E8383EC91E198878F8380E289878A87B4
:101690001B861C86CE0105960E943C190E944119AA
:1016A0000E94532D60E04FE424E10E94201A6091D3
:1016B0000E0670E0660F771F660F771F665C7C4E24
:1016C000CE0101960E94E931CE01019660E046E527
:1016D00024E20E94201A80E02C96E2E00C94313043
:1016E000CF93CDE18C2F90E08050904060E00E943D
:1016F0002134C150B8F7CF910895282F30E0C901A7
:10170000880F991F280F391F20503040CB01B90195
:1017100043E050E00C94F533A7E0B0E0E2E9FBE0F1
:101720000C94073080910C068B8380910D068C837E
:10173000CE01019660E00E947D2D60910B066F5FE7
:101740008B8140910E067DDF6C010F2EF9E0AF2EEC
:10175000F02DEE24EA94FE2C55245A940F2EF6E038
:101760004F2EF02D8A2DBE016B5F7F4FC6DF8F811C
:10177000882334F5082F10E08D809E80709014012E
:10178000B42C6A2CC8010B2C02C0959587950A943D
:10179000E2F780FF0FC0882D692D4B2D52DF8C1989
:1017A0009D0912F4815A984D8E159F0518F47B2CD3
:1017B0007C01562CBA948FEFB812E4CF70921401CA
:1017C000AA948FEFA812CECF509215012796E0E190
:1017D0000C942330A1DF80911701909118010E9491
:1017E000C01760911B0170911C0140911D01509127
:1017F0001E018091190190911A015FD78091ED012E
:101800000E946C1785E060E00E94BB2C83E07CD3D3
:101810001092160181E008957FCF0895BC01809158
:1018200015018F3F19F069DF81E0089580E0089588
:10183000809114010895282F30E0C901880F991F65
:10184000280F391F20503040CB01B90143E050E050
:101850000E94123461CFA7E0B0E0E1E3FCE00C9419
:1018600014301091160180910C068B8380910D0627
:101870008C83CE01019660E00E947D2DCE010596FD
:10188000CDDF882309F45AC08F8190E000900E06C6
:1018900002C0959587950A94E2F780FF4FC09D811D
:1018A0008B8198134BC09E8180910B06981346C084
:1018B00080910A06811147C081E08093160143C0E0
:1018C000111129C084E39BE00E94C0179093180176
:1018D0008093170180E060E070E0DED690931A01FB
:1018E0008093190181E06AEE7BE0D6D690931C01CB
:1018F00080931B0182E060E070E0CED690931E01E1
:1019000080931D0185E061E00E94BB2C8EE390E096
:1019100062E043E0E9D20E94D416811118C081E050
:1019200090910A01913009F480E080930A0166E900
:101930004FEF0E94B3160BC04DDF09C08091160116
:101940008111FACF04C0809116018111B9CF279679
:10195000E3E00C943030E0CE089580911F0188239D
:10196000E1F18091200190912301992399F0843035
:1019700010F48F5F09C0883010F48D5F05C080318E
:1019800010F48B5F01C0885F8034B0F010921F01AB
:1019900080E012C08C3F10F08F5F09C0883F10F0CC
:1019A0008D5F05C0803F10F08B5F01C0885F8A307B
:1019B00018F410921F0180E08093200180911F0194
:1019C00081110BC0E0912101F0912201309729F0A3
:1019D0000995109222011092210108952091EE01A3
:1019E000222389F021E020931F01662311F020E0DB
:1019F00001C020EC209320019093220180932101CB
:101A0000609323010895009711F0FC010995089552
:101A100080911F0108959091230181E08927089505
:101A200080912001089510922701109228011092B0
:101A3000290110922A010E94F02B90932601809395
:101A4000250181E0089588EB97E161E0C7DF81E03F
:101A5000089580912401813039F41092240184E0AA
:101A600060E00E94BB2C09C0811107C081E0809317
:101A7000240184E061E00E94BB2C0E94F02B909333
:101A800026018093250181E00895A8E0B0E0EBE411
:101A9000FDE00C940B30E4D4C0902701D0902801D5
:101AA000E0902901F0902A01C701B60128EE33E049
:101AB00040E050E00E94E32F49015A0180E8C81637
:101AC0008EEED80686E3E806F104D0F4C701B6012D
:101AD00028EE33E040E050E00E94E32F2AE030E0BF
:101AE00040E050E00E94E32F122FC501B4012CE327
:101AF00030E040E050E00E94E32FE62EC22E1EC0F0
:101B00000F2EFCE3CF2ED12CE12CF12CF02DCA01AD
:101B1000B901A70196010E94E32F162FCA01B9014E
:101B2000A70196010E94E32FE62EC501B40120E132
:101B30003EE040E050E00E94E32FC22E81E0898326
:101B40000F2EF4E1FF2EF02DFA828C2D0E94212120
:101B50000F2EF9E3DF2EF02DD89EC0011124AC0129
:101B60004C575E4F5C834B8383E18D8308E10E838A
:101B70001F821886CE0101960E943C190E944119CD
:101B800009838C2D0E942921D89EC00111249C011B
:101B90002C573E4F3C832B830E9441198CE3898351
:101BA0008E2D0E942121D89EC00111249C012C570A
:101BB0003E4F3C832B830E94411983E589838E2D00
:101BC0000E942921D89EC00111248C579E4F9C83CE
:101BD0008B830E94411988E689838CE18A838BE09C
:101BE0008D8380E18E83812F0E9421210F2EF6E1CB
:101BF000EF2EF02DE89EC00111249C0128553F4F87
:101C00003C832B830E94411984E78983812F0E94A2
:101C10002921E89EC001112488559F4F9C838B8306
:101C20000E94411981E38983FA8286E08D830E83C5
:101C300086E990E09C838B830E9441190E94532D7A
:101C400060E040E320E00E94201A81E02896ECE06A
:101C50000C9427300E941F2385E49DE00E94C0174A
:101C600083E19DE069E27DE043E25DE026C581E03D
:101C700090912401913009F080E008958091240131
:101C8000813099F50E94F02B209125013091260199
:101C9000AC01421B530B9A0140912701509128013E
:101CA0006091290170912A01420F531F611D711D1E
:101CB00040932701509328016093290170932A01D2
:101CC000909326018093250141155A42654775413D
:101CD00060F08FEF99E2A5E7B5E18093270190933B
:101CE0002801A0932901B0932A01089540912B0166
:101CF00050912C01443F81E05807B8F49A01369581
:101D00002795ABE7B4E10E94B02F96958795019691
:101D100062E3689F9001699F300D1124420F531FA9
:101D200050932C0140932B0104C010922C0110926F
:101D30002B0181E008958091ED010E946C170E94B3
:101D4000B81781E0089580912B0190912C01892B87
:101D500019F10E94F02B20912D0130912E01AC0140
:101D6000421B530B20912B0130912C01421753073A
:101D700000F190932E0180932D0190912F0181E02D
:101D8000892780932F010E946C1780912F0164E1B5
:101D90004FEFE9D781E0089581E00E946C1781E060
:101DA00064E64FEFE0D780E064E64FEFDCD780E0F9
:101DB000089581E008950E941F2310922C01109233
:101DC0002B0183EA9EE00E94C0178BE99EE066E744
:101DD0007EE0AC0172C487E080937A0080E4809357
:101DE0007C0080E880BFE4E6F0E080818160808351
:101DF0000895E4E6F0E090819E7F90838F70806488
:101E000080937C00EAE7F0E08081806C80838081B1
:101E100086FDFDCF2091780030917900EAE7F0E06F
:101E200080818F778083E4E6F0E080818160808329
:101E3000822F932F08958CEE91E06FE170E047E0E0
:101E400050E00C94123481E08093EC011092ED018B
:101E50008093EE018093EF018093F0011092F101E5
:101E60008FEF8093F201E7DF3BCC8EE190E00E94A0
:101E700005348E3441F48CEE91E06FE170E047E080
:101E800050E00C94F5338EE190E06EE40E94333420
:101E9000DACF0F931F93CF9340913401842F90E0BA
:101EA000880F991F20913101309132014F5F40938B
:101EB0003401820F931F0E940D34C82F823069F0C5
:101EC000692F409133012091300109E41FE084D44F
:101ED000C11106C01092300103C010923401D9DF45
:101EE000CF911F910F91089520913001421758F022
:101EF000409330019093320180933101609333011C
:101F000010923401C6CF08950F931F93282F80E0BD
:101F100060E040E000E010E05FD4109230011F91DB
:101F20000F910895FB019081811103C0903428F036
:101F30000895993318F0915001C09F5FFB01908381
:101F400081E00895A0E0B0E0E8EAFFE00C940F30F3
:101F5000EC013D81DF800A811B818C81839FC00160
:101F6000112499230CF40796959587959595879557
:101F7000959587957C01FF24F801869FE00DF11D62
:101F80001124FB83EA83222329F0DD2019F0FFEFDF
:101F9000DF1204C01F820E94411918C0C62ECA94C5
:101FA0008FEFC81201C0C42E8D2D8450831B8F83E8
:101FB0000E944119DF82CE9CC001CF9C900D11245C
:101FC000800F911F9B838A830E944119DF821B83AC
:101FD0000A83CDB7DEB7E8E00C942B30A1E3B0E084
:101FE000E4EFFFE00C940F306E012EE2C20ED11C24
:101FF00060910E0670E0660F771F660F771F665CB4
:102000007C4EC6010E94E9317E018AE2E80EF11C95
:102010006091100670E0660F771F660F771F665F8E
:102020007C4EC7010E94E9318E01085E1F4FEDB75B
:10203000FEB71283018388E790E094838383D6827E
:10204000C58280910F0687831086F286E186809193
:102050001106838714860E940932C80160E04CE0B3
:1020600020E00E94201A8091EE01882309F4C0C06C
:1020700090910A0680913501981709F45EC010927C
:1020800036011092370181E08093380180910C066F
:102090000E942121182F809139010E94212191E075
:1020A000181301C090E090933A0180910C060E94B1
:1020B0002921182F809139010E94292191E01813BC
:1020C00001C090E090933B0180910B060E9421217A
:1020D000182F80913F010E94212191E0181301C027
:1020E00090E090933C0180910B060E942921182FCB
:1020F00080913F010E94292191E0181301C090E0D6
:1021000090933D0180910A060E942121182F809111
:1021100035010E94212191E0181301C090E09093B5
:102120003E0180910C068093390180910B068093CB
:102130003F0180910A068093350180913801882300
:1021400009F464C080913601843020F48F5F80935D
:10215000360117C0873020F48D5F8093360111C09F
:10216000813120F48B5F809336010BC0873120F4DE
:102170008D5F8093360105C08D3118F48F5F809399
:102180003601809136018C3118F08FEF8093360143
:1021900080913701823020F48F5F809337010BC02C
:1021A0008E3020F48D5F8093370105C0853118F49F
:1021B0008F5F8093370180913701843120F08FEF5A
:1021C0008093370102C0853108F1809136018D314D
:1021D000E8F01092360110923701109238018AE32C
:1021E00091E060E070E045E050E00E9402320EC0F5
:1021F0001092360110923701109238018AE391E073
:1022000060E070E045E050E00E94023288E6888F8E
:102210008CE1898F88EA90E09B8F8A8F8BE08C8F8E
:1022200080E18D8F1E8E809137018F8FCE01489671
:102230000E943C190AE016E0F80180810E942121E9
:10224000682FCE01489645E020913E017BDE84E771
:10225000888FF80180810E942921682FCE0148963D
:1022600049E0209138016EDE84E1898F83E18C8F13
:102270000F2EF8E1FF2EF02DFD8E84E891E09B8F6C
:102280008A8F809136018F8F8CE3888F0BE016E068
:10229000F80180810E942121682FCE01489645E0F7
:1022A00020913C014FDE83E5888FF80180810E94F8
:1022B0002921682FCE01489649E020913D0142DE58
:1022C00081E0888F0CE016E0F80180810E942121D6
:1022D000682FCE01489645E020913A0133DEF88E12
:1022E000F80180810E942921682FCE01489649E09B
:1022F00020913B0127DE4A990CC081E3888F86E953
:1023000090E09B8F8A8F86E08C8F88E18D8F1F8E67
:10231000B8D780910D068AA71BA6CE018A9660E0E9
:1023200048E624E10E94201AF090380199D084E117
:102330008D8787E38E872BEE35E0388B2F8780E102
:10234000898B88E08A8B1B8A1C8ACE010D9694D7D4
:1023500089B183FB882780F96BE071E0E3DD882396
:1023600039F080910B018E878CD78D858C5E8D879F
:1023700088E0898B89B18295817091E089276CE032
:1023800071E0D0DD882359F023EA35E0388B2F87C0
:1023900080910C018E8775D78D85845F8D8788E34A
:1023A0008E8765DC882341F02BEF32E1388B2F8755
:1023B00068D78D85845F8D87CE0145962FDA882377
:1023C000E1F18D898CA78E898BA780E28DA7CE0144
:1023D0008A966091F1010E947D2D8E01085E1F4F4B
:1023E000EDB7FEB71283018328E630E03483238300
:1023F0008CA5858316828BA5878310868DA5818702
:1024000012860E940932C80160E04D8528E30E94CF
:10241000201A8D859DA5903211F493E201C09AE2B5
:10242000890F8D8705DAF8E08F9FC00111249C0188
:102430002D533D4E388B2F8724D78F2DE196E8E022
:102440000C942B308EEE9FE09BD580E090E06EEFF9
:1024500071E240E050E031D180E090E060E0BECA3F
:10246000A8E0B0E0E6E3F2E10C9415305FD08038EC
:102470002CE0920750F084372EE0920748F0803A23
:102480009F4048F48BEB95E008C08BED95E005C0CC
:102490008BEC95E002C08BEA95E0198228E32A8351
:1024A0009C838B8380E18D8388E08E831F821886D6
:1024B000CE010196E1D6E5D62896E2E00C943130C3
:1024C000389A409808958093400180910A0680933D
:1024D00041010895409A80E991E00197F1F786E083
:1024E00088DC40989C01A8E6B0E10E94B02F2BE563
:1024F00033E040E050E00E94E32F3093430120930B
:102500004201089580910A0690914101891769F06E
:102510008093410180914001882321F08150809374
:102520004001089585E0CFDFD5CF08958091420125
:10253000909143010895882339F090E0282F21706D
:10254000920F8695D9F701C090E0892F0895A3E0F6
:10255000B0E0EDEAF2E10C9411300E94F02B909182
:102560005F01282F291B2A3008F466C080935F0181
:1025700086B18270898386B184708A8386B18870BF
:102580008B836894FF24F1F8EE24E3942F2D30E040
:102590008901000F111F000F111F000F111F020FE3
:1025A000131F0C5B1E4FE1E0F0E0EC0FFD1FE20F8C
:1025B000F31F9081D80113968C911397880F13966F
:1025C0008C93139791112EC0816013968C93B3DF77
:1025D000843070F1F8018281811108C00E94F02BD3
:1025E000D80111969C938E931296EC92F8018481F7
:1025F00081111EC00580F681E02D3097C9F0099544
:102600008823B1F0D8011496EC92149717968D9107
:102610009C9118976E2D4E2D67DC8E2D62E34FEF47
:10262000A2D306C088DF853018F4F8011282148224
:10263000FA94FFEFFF12AACF2396E6E00C942D3018
:1026400039983A983B98419A429A439A0895F8DF0C
:1026500086E390E090934C0180934B018EE290E0F2
:10266000909355018093540186E290E090935E012F
:1026700080935D01ECE6F0E080818E608083E8E687
:10268000F0E0808182608083089541984298439869
:10269000399A3A9A3B9A089590E0FC01EE0FFF1F99
:1026A000EE0FFF1FEE0FFF1FE80FF91FEC5BFE4F51
:1026B0008581968176836583089590934A018093FE
:1026C0004901709353016093520150935C01409310
:1026D0005B0108951F93CF93DF932091EC01222398
:1026E00019F188E893E1289FE001299FD00D11247A
:1026F00012E00E94F02B212F30E0F901EE0FFF1FB6
:10270000EE0FFF1FEE0FFF1F2E0F3F1FF901EC5BB7
:10271000FE4F20813181821B930B8C179D0730F077
:10272000115038F780E003C081E001C081E0DF9103
:10273000CF911F910895FF920F931F93CF93DF9333
:1027400012E001E06894FF24F2F8812F90E0EC01A0
:10275000CC0FDD1FCC0FDD1FCC0FDD1FC80FD91F25
:10276000CC5BDE4F0C830A83FB820E94F02B9983A3
:102770008883115050F7CDB7DEB7E5E00C942E30CA
:10278000E0E8F0E080818F738083E4E6F0E0808110
:1027900088608083109263011092600180E060E0A5
:1027A0000C94BB2C82E08093800081E180938100B7
:1027B00080E092E0909389008093880080E094E02C
:1027C0009093870080938600E4E6F0E08081886043
:1027D0008083219A29980895EF92FF920F931F9377
:1027E000CF93DF93E82ED62FF42EC22F9091600165
:1027F000291708F46CC0611102C0C2DF68C080E014
:1028000061E00E94BB2CC0936001109362010093B1
:102810006101E09263010E94F02B80936401D1304A
:1028200059F4E0E8F0E080818F738083E4E6F0E023
:102830008081886080834BC042E0F41651F053E001
:10284000F51669F081E0F81210C06091F201637032
:102850000DC06091F20166956695637007C0609146
:10286000F20162956F70637001C062E06150633085
:1028700070F52D2F30E0220F331F220F331F220F50
:10288000331F80E290E0AC0102C0559547956A95F0
:10289000E2F7BA01C9010E94BC2FC901861B970B40
:1028A000E4E6F0E04081477F408316BAEFE6F0E0CF
:1028B0004081416040831092850010928400909383
:1028C0008900809388003093870020938600CDB7DD
:1028D000DEB7E6E00C942D3080916301882389F007
:1028E0000E94F02B90916401891B909163018917DC
:1028F00040F046DFE0916101F0916201309709F00C
:10290000099508951F920F920FB60F9211248F937D
:10291000EF93FF93E0E8F0E08081806C8083109279
:102920006F00FF91EF918F910F900FBE0F901F904E
:102930001895982F92959F70990F292F220F220F8B
:10294000920F8F70890F0895EF92FF920F931F934C
:10295000CF93DF93C82F8B01F42E3FD680ED6DD639
:10296000811102C067D629C08C2F67D6811102C0A1
:1029700061D623C032D681ED60D6811102C05AD60D
:102980001CC0FA9479F0E02EC02FD12FCE0161E067
:1029900073D6811102C04ED610C021968C2F8E198D
:1029A0008F15A0F3C8018F0D911D60E065D68111D0
:1029B00002C040D602C022D681E0CDB7DEB7E6E045
:1029C0000C942D30CF93DF93C82FD62F06D680EDF1
:1029D00034D6811102C02ED60EC08C2F2ED6811176
:1029E00002C028D608C08D2F28D6811102C022D659
:1029F00002C004D681E0DF91CF910895CF93DF9399
:102A0000C82F0E942121D82F8C2F0E94292190E1CC
:102A1000D99F800D1124DF91CF910895A1E0B0E0FE
:102A2000E4E1F5E10C941430182F8EE0BE016F5FE5
:102A30007F4F41E089DF69816B7B113011F480E4C5
:102A400001C084E0682B69838EE0BCDF2196E3E05F
:102A50000C943030A1E0B0E0E0E3F5E10C941530E7
:102A60008EE0BE016F5F7F4F41E06EDF6981677668
:102A700069838EE0A7DF8FE0BE016F5F7F4F41E08B
:102A800063DF6981647F69838FE09CDF81E0C6DF5B
:102A90002196E2E00C943130A7E0B0E0E2E5F5E108
:102AA0000C9411308C01BE016F5F7F4F87E0FB01FA
:102AB00011928A95E9F780E047E046DF898139DFA6
:102AC000F80180838A8135DFF80181838B8131DFD2
:102AD000F8018283EC80E4828D812BDFF80185830D
:102AE0008E8127DFF82EF80186838F8122DFF8019F
:102AF0008783EE2011F0EA94E482FF2019F0FA9423
:102B0000F801F6822796E6E00C942D30CF93DF9300
:102B1000EC01888173DF682F80E054DF89816EDFEC
:102B2000682F81E04FDF8A8169DF682F82E04ADF0A
:102B30006C816F5F83E046DF8D8160DF682F84E00A
:102B400041DF8E818F5F5ADF682F85E03BDF8F8109
:102B500055DF682F86E036DFDF91CF91089581E160
:102B600065E671E042E0F0CE65E671E042E050E0FB
:102B70000C94F931A1E0B0E0E0ECF5E10C941430F4
:102B80008FE0BE016F5F7F4F41E0DEDE6981162F6F
:102B9000117060FF04C06E7F69838FE013DF812FA7
:102BA0002196E3E00C943030A1E0B0E0EAEDF5E1ED
:102BB0000C9413308C01DEDF8EE0BE016F5F7F4F1F
:102BC00041E0C2DE01151105C1F087E060E0FADEE8
:102BD000F801818113DF682F88E0F4DEF80180813D
:102BE0000DDF682F89E0EEDEF801628160648AE023
:102BF000E9DE89818160898303C089818E7F898331
:102C00008EE06981DFDE2196E4E00C942F30A1E0B4
:102C1000B0E0EDE0F6E10C9414308FE0BE016F5FA0
:102C20007F4F41E091DE698161FB112710F961FF5F
:102C300004C06D7F69838FE0C5DE812F2196E3E0BC
:102C40000C943030A1E0B0E0E8E2F6E10C941330EF
:102C50008C01DDDF8EE0BE016F5F7F4F41E074DEEF
:102C600001151105C1F0F8018181C8DE682F8BE0E4
:102C7000A9DEF8018081C2DE682F60688CE0A2DEE8
:102C8000F8018281BBDE682F60688DE09BDE898160
:102C90008260898303C089818D7F89838EE0698109
:102CA00091DE2196E4E00C942F300F931F93CF9385
:102CB000DF93EC01162F042F8881882371F00E9486
:102CC000F02B9981891B9881891738F08BB10823E3
:102CD0000BB984B5182314BD18828881DF91CF9178
:102CE0001F910F910895CF92DF92EF920F931F9350
:102CF000CF93DF93EC01142F690168830E94F02BBE
:102D00008983812F81508E3F78F084B50095082308
:102D100004BD1F3F21F48BB1E82AEBB80FC08BB183
:102D2000E094E822EBB80AC0E4E6F0E080818F7D11
:102D3000808384B5082B04BDF6011083DF91CF9109
:102D40001F910F91EF90DF90CF90089583E084BDA5
:102D500085BDE4E6F0E0808180628083559A569AD2
:102D60005D985E980895EF920F93882319F0813053
:102D7000A1F40AC087E691E027E430E000E8689417
:102D8000EE24E6F8B0DF09C089E691E028E430E0FF
:102D900000E26894EE24E5F8A6DF81E061E00E949D
:102DA000BB2C0F91EF90089580916701811109C0AC
:102DB00081E090E020916901211105C080E090E060
:102DC000089581E090E00895CF9387E691E06FE762
:102DD0004FEB6BDFC82F89E691E06FED4FED65DFBC
:102DE000C1110BC0811109C0E4E6F0E0808180626E
:102DF000808381E060E00E94BB2CCF91089581E048
:102E000060E040E0B0DF80E060E040E0ACDFDCCFDD
:102E1000CF93DF93D82FC62F289850D42A98DEBDA1
:102E20000DB407FEFDCFCEBD0DB407FEFDCF2A9A2F
:102E30004BD4DF91CF910895CF93C82F28983ED4DB
:102E40002A98CEBD0DB407FEFDCF2A9A3DD4CF916E
:102E50000895289833D42A9882E28EBD0DB407FED7
:102E6000FDCF1EBC0DB407FEFDCF87E08EBD0DB4B7
:102E700007FEFDCF81E28EBD0DB407FEFDCF1EBC67
:102E80000DB407FEFDCF8FE78EBD0DB407FEFDCF5D
:102E90002A9A1AD4289A12D42A98E3EFF1E083EF01
:102EA00095E02081119232E03A95F1F700C03DB5EE
:102EB0002EBDE817F907A9F784E08A95F1F700C05D
:102EC0008DB52A9A01C4813011F48FEA01C08EEACF
:102ED000B3CF682F81E89CCF882311F087EA01C027
:102EE00086EAAACF882319F081EA68EC91CF80EABC
:102EF00060EC8ECF229A209A5F9A579A80ED97E0E5
:102F0000FC013197F1F75F98FC013197F1F75F9A77
:102F10000197F1F72898D2D32A9880E090E0FC013D
:102F2000E257FF4FE491EEBD0DB407FEFDCF0196D1
:102F300085309105A1F72A9AC7D38091EF01D2DF9E
:102F40009091F201929596959695937085E5989F4C
:102F5000802D1124BEDF8091ED01BEDF80ED97E072
:102F60000197F1F776CF90936C0180936B010895F0
:102F7000E0916B01F0916C01309709F0099508958B
:102F800030916D0120916E0190936E0180936D01DF
:102F9000832F922F0895ABE0B0E0E1EDF7E10C94C0
:102FA0000B300E94F02BF82E80916F019F2D981B03
:102FB00080917001981728F482E061E00E94BB2C98
:102FC00032C1F0926F010E94AD0CE0916D01F09161
:102FD0006E01309759F080917601811104C0809183
:102FE00072018111D8C00995D82E01C0D12C8091D1
:102FF0007601882309F4CDC0E0907101C09074017E
:1030000080917301811127C080917201882331F072
:1030100023E0E20E3FE13E1538F036C08DEFE80EBA
:103020009FE19E15A0F030C081E080937301689409
:10303000882482F86894EE24E5F800E010E0912CF2
:103040000F2EF0E8AF2EF3E0BF2EF02D23C010922C
:103050007601E12C9AC080917501882321F0EAEF76
:10306000CE0E92F4DAC0FAE0CF0E72F41092730131
:103070006894CC24C7F803C010927601C12C91E06B
:10308000811190E0909375018E2C8694869486949D
:10309000A1F619C0C8018D509E4F60E070E040E875
:1030A00050E00E940232C501801B910B8D509E4F53
:1030B00060E070E040E850E00E94023293940058D3
:1030C0001F4F981438F3EE2DE770A9F180E8889E21
:1030D000900111248FEF90E0182F0E2E01C0110FD8
:1030E0000A94EAF70E2E02C0959587950A94E2F7A6
:1030F00061E070E00E2E01C0660F0A94EAF740E826
:1031000050E002C055954795EA95E2F7F901ED5078
:10311000FE4FA3EFB5E0A21BB30B2D583D4F90819E
:103120009123962B91939E919823942B9C93E21735
:10313000F307A9F72AC0EE2041F120E82C192695C3
:1031400080E48E19869586958695E0E88E9FC0016D
:103150001124820F911D8D509E4F61E070E04C2D27
:1031600050E00E940232F0E2EF1679F020E8829EF1
:10317000C00111242FE7FC01E20FF11DED50FE4FBD
:103180003081316030832150B0F7E0927101C092FC
:103190007401D11007C080917601811106C00E9490
:1031A000080D05C081E090E002C081E090E0E82ECB
:1031B0008091F0018823F1F00E94F02B8E01095FCD
:1031C0001F4FEDB7FEB71283018323E930E034834C
:1031D00023838F19682F6D5F88EE93E070E00E9463
:1031E000D02F768365830E940932C80160E04BE6E8
:1031F00028E326D1C6D1E11008C082E060E00E9439
:10320000BB2C88E2809370010EC082E061E00E94D6
:10321000BB2C80E18093700106C0909172019111E6
:103220002BCFC12C2CCF2B96ECE00C942730909117
:10323000EE01911103C0109276010895813061F47E
:10324000109272018093730180E280937101109259
:103250007501109274010CC081E08093720110928C
:103260007301109271018093750180E8809374015D
:1032700081E080937601089590937801809377019F
:103280000895A7E0B0E0E7E4F9E10C940530E0919F
:103290007701F09178014080B180F280D380848002
:1032A0002580E68097800E94100DB80E1B2D1919FD
:1032B000A22CA694A694A6940F2EF7E0CF2EF02D64
:1032C000C1222B0C2982AA2009F4B6C0012F085F65
:1032D000682C712C4F2D5D2DD12CF82CF40C242C46
:1032E00088E090E02C014C1851083981232F30E000
:1032F0003D832C838B2D90E09B838A83AE2D992078
:1033000049F10B1508F491C0013408F08EC0998181
:10331000911708F48AC01B1558F48A819B81811B80
:103320009109EE24EA9401C0EE0C8A95EAF717C0E1
:103330002981201790F4802F90E02C813D81821B01
:10334000930BEFEFF0E002C0F595E7958A95E2F771
:10335000EE2E05C0EE24EA9402C0EE24EA94812FFA
:10336000869586958695F0E88F9FC0011124C1103F
:103370001CC01034D0F4882009F457C0FA01222D63
:103380007A2F222364F0349171113095DC01A20F61
:10339000B11DAD50BE4F3E216C91362B3C932F5F3B
:1033A00031962F11EECFA72F40C0602F66956695FE
:1033B000669520E8629FB00111248820B1F1FA01DE
:1033C000AE839C012F828F81882344F184919E815A
:1033D000911180958E21103478F4D9019F81A90F25
:1033E000B11DAD50BE4F382E0C2C01C0330C0A94C9
:1033F000EAF79C9193299C93003480F4DB019F8130
:10340000A90FB11DAD50BE4F90E0042C02C09595A0
:1034100087950A94E2F79C91892B8C938F818F5F1B
:103420008F8331968F11CFCFAE81D394085F185F11
:10343000460D571DDA1063CF2796E2E10C94213038
:10344000A8E0B0E0E6E2FAE10C940C308C01A62E84
:10345000B42EE22EC0907701D090780119822A8391
:103460001C821B8285E08D8388E08E836F831886A3
:10347000CE01019601DFD801EC91EE23C1F1E69473
:10348000E694E694B0E8EB9E700111240F5F1F4FA5
:1034900099249A94B982E052F0E0CF01880F991FE5
:1034A000880F991FE80FF91FE254FC4FFC83EB8350
:1034B000E8DEAA20A9F0BB2059F08B2D8150F7013E
:1034C000E80FF11DED50FE4F90828AE78B1540F01A
:1034D0008B2D8B5FF701E80FF11DED50FE4F9082B1
:1034E000D801ED918D01B7E0BB0EE111D3CFD092A1
:1034F0007801C09277012896EBE00C942830A0E088
:10350000B0E0E5E8FAE10C940C307C01962EA42E94
:10351000B22ECDB6DEB60E94F031992701962DB7B6
:103520003EB7281B390B0FB6F8943EBF0FBE2DBF18
:103530000DB71EB70F5F1F4F802F912FB7010E944D
:10354000E931802F912F692D4A2D2B2D79DF0FB670
:10355000F894DEBE0FBECDBEEBE00C94283066952D
:103560006695669520E8629FB00111249B01280FA3
:10357000311DC9018D509E4F60E070E050E00C9409
:10358000023267CC0895ECEBF0E080818B7F808382
:103590003C98449A80ED97E00197F1F734990EC07A
:1035A00040E420ED37E050E2C9010197F1F788B11E
:1035B000852788B9349902C04150B1F73C9A3D9AA9
:1035C000449A459A089582E08093B800DCDFE4E6EF
:1035D000F0E08081806880830895E4E6F0E08081F7
:1035E0008F77808382E08093B80084EA8093BC0068
:1035F000ECEBF0E080818823ECF70895ECEBF0E051
:1036000084E98083808184FD0AC09FEF2DE0822FB2
:103610008A95F1F7808184FD02C09150C1F7ECEBEF
:10362000F0E080818B7F8083E4E6F0E08081806839
:1036300080830895E3DF80E008958093BB0084E8F1
:103640008093BC00ECEBF0E080818823ECF72091C4
:10365000B900287F283149F0283251F081E090E00C
:10366000203441F080E090E005C081E090E002C0AD
:1036700081E090E081700895ECEBF0E020816195AD
:1036800060742F7B622B60832081206820832081DF
:103690002223ECF72091B900287F203511F028353E
:1036A00031F42091BB00FC01208381E0089580E08B
:1036B000089580E58CBD81E08DBD0895E4E6F0E0DD
:1036C00080818B7F8083F5CFE4E6F0E080818460A9
:1036D00080830895229A239A259A2C9A2A9AE9DFC0
:1036E000F3CF81E08093790180E0089582E08093B8
:1036F000790180E00895A9E1B0E0E1E8FBE10C94F4
:10370000053080918D0190918E01803A910548F4A9
:1037100081E090E020918C012F3F29F080E090E043
:1037200002C081E090E0282F2170298F10918F0135
:1037300080917901813011F41D5F03C0823009F45A
:103740001350109279011B3F20F4153718F014E73D
:1037500001C010E01F8388E388878EE593E19A8794
:1037600089878CE08B8788E08C871D861E86CE013A
:10377000079682DD86DD10938F01498D41112CC0A3
:103780000AE711E0F80160817181828193812091C3
:1037900082013091830140918401509185010E9402
:1037A000022EF80160837183828393830EE711E018
:1037B000F80160817181828193812091860130912D
:1037C000870140918801509189010E94022EF801E1
:1037D000608371838283938360917A0170917B010E
:1037E00080917C0190917D010E94CE2E6F8B609123
:1037F0007E0170917F0180918001909181010E94F2
:10380000CE2E688FA12CB12C212C20E0689444246A
:1038100043F8512CFF898F2E912C462F50E05E8B60
:103820004D8B4DC0C32CD12CE0918A01F0918B01BE
:10383000EC0DFD1D8081811131C08A149B0474F14F
:10384000861497045CF58D899E898E159F0534F149
:10385000C7010496ED89FE89E817F907FCF484E6B0
:103860006AEF41E021E000E010E00E94EC1381E00B
:1038700062E34FEF78DA80918A0190918B01FC012D
:10388000EC0DFD1D81E0808380918D0190918E0172
:10389000019690938E0180938D0121E03394F4E0A2
:1038A000EF0EF11C4CE1E416F10409F0BBCF55E03A
:1038B000250E84E0A80EB11C90EA291639F0322CAE
:1038C00072013501E4E06E0E711CACCFFF89FF3749
:1038D00010F1F13F48F010927A0110927B011092A2
:1038E0007C0110927D010CC080E090E0ACEFB2E46E
:1038F00080937A0190937B01A0937C01B0937D012A
:10390000E2E8F1E080819181A281B381B0588083A7
:103910009183A283B383498D4111A1C0588D5C333B
:1039200008F42CC1503F08F029C180918F019F8974
:10393000981708F423C1492F50E090E00C968417A3
:1039400095070CF41BC188EC64E641E021E000E03F
:1039500010E00E94EC1380E090E0A0E7B2E48093D6
:103960007E0190937F01A0938001B0938101C0906C
:103970008601D0908701E0908801F0908901C7010D
:10398000B60120E030E0A9010E94882F181664F4E7
:10399000F7FAF094F7F8F094C0928601D09287017C
:1039A000E0928801F09289010E94DB31BC018827F6
:1039B00077FD8095982F0E94FC2E20E03CEF4FE78A
:1039C00056E40E94662E20E030E040E85FE30E946B
:1039D000012E609382017093830180938401909300
:1039E00085013DC02111CFC03AC0E88DE13F88F08C
:1039F00088EC68EC41E021E000E010E00E94EC136C
:103A000010927E0110927F0110928001109281012C
:103A10001BC0211119C088EC6AEF41E021E000E0F1
:103A200010E00E94EC1380E090E0ACE7B2E48093F9
:103A30007E0190937F01A0938001B09381018091DA
:103A40008C01815080938C01E6E8F1E080819181C6
:103A5000A281B381B05880839183A283B3838AE625
:103A600093E19A87898782E08B8760917A017091D0
:103A70007B0180917C0190917D010E94CE2E6F830D
:103A800060917E0170917F01809180019091810110
:103A90000E94CE2E6887F5DB8CE693E19A878987B2
:103AA00083E08B87E12C00E06894DD24D3F815C017
:103AB000E0918A01F0918B01EF0DF11D8081811160
:103AC00003C0EF821887DDDBF3941C5F1C3181F7A4
:103AD0000B5FF4E0EF0E003A19F0F02E1D2DE8CF49
:103AE0007E012FE0E20EF11CEDB7FEB7F282E1821B
:103AF0008FE693E19483838380918D0190918E0171
:103B0000968385830E940932C70160E040E020E08F
:103B100097DC80918C018F3FC9F083E093E19A8715
:103B2000898787E08B8781E0888780918C01882353
:103B300069F010E0812F880F880F880F88598F83D4
:103B4000A0DB1F5F80918C011817A0F380918D017D
:103B500090918E01803A910530F082E793E160E028
:103B600042E320E2CCDC80918C018F3F89F487E72F
:103B700093E160E042E220E2C2DC0AC0F88DFF334C
:103B800008F033CF2FCF288D213F08F45DCF30CF01
:103B900081E06996E2E10C94213051D50E94F02B2E
:103BA0000E94DE318BE79BE1EBD981E79BE164E288
:103BB0007EE146E75BE10E945D131092790180E0AF
:103BC00090E0A0E8B2E480937A0190937B01A09307
:103BD0007C01B0937D0180E090E0A8E5B2E48093A1
:103BE0007E0190937F01A0938001B093810180E0DA
:103BF00090E0A0E8BFEB8093820190938301A093B3
:103C00008401B09385018DEC9CECACE8BFEB809314
:103C1000860190938701A0938801B093890180EA7F
:103C200090E061E070E00E943C3080938A019093C4
:103C30008B0183E080938C0110928E0110928D0194
:103C40008AE380938F01089580918A0190918B017E
:103C50000E94F33080918C018F3F11F49EDF05C0EC
:103C600088EB97E161E00E94EE0C81E0089582E02C
:103C700080939D0181E0089581E080939D010895E6
:103C8000A4E1B0E0E6E4FEE10C940A3080919D01ED
:103C9000813041F48091A001833068F48F5F80937C
:103CA000A00109C0823039F48091A001882319F065
:103CB00081508093A00110929D019091A001929556
:103CC000907F8091A101981720F482508093A101E8
:103CD00005C0891718F48E5F8093A10180919E0121
:103CE0008F3F09F401C100E911E00F2EF2E9EF2E38
:103CF000F1E0FF2EF02D0F2EF9E9CF2EF1E0DF2EAF
:103D0000F02D6894BB24B7F8D8018C91F70190810D
:103D1000891B982F995C963210F08C931AC0D801A9
:103D2000BC920E94DB31F701319783709078992320
:103D300024F401978C6F9F6F01968295807F80831A
:103D400080919B0190919C01019690939C0180939E
:103D50009B010D5F1F4FB3E0EB0EF11C0C151D0511
:103D600099F60F2EF1E9EF2EF1E0FF2EF02D80E90C
:103D700091E0470100E0AE2CBF2CC12C27C00117F9
:103D8000D1F0D4013C912081321315C0DC016C913B
:103D90009F0121503109D901DC90D61660F470E002
:103DA0002D2D30E0215F3F4F6217730724F42D2D36
:103DB000205FDA012C931F5F3396133001F70F5FFA
:103DC000B3E08B0E911C0396033029F0EA2DFB2DF6
:103DD0001C2DAC01D4CF80919F01811185C00F2E85
:103DE000FAE9CF2EF1E0DF2EF02D0F2EF1EAAF2E03
:103DF000F1E0BF2EF02D0F2EFFE98F2EF1E09F2E68
:103E0000F02D77247394F701319780818F3008F07B
:103E100064C0F70180818E5FD5012C912E5F8217DF
:103E200048F0682F70E0422F50E0445F5F4F461724
:103E300057076CF490E00C9630E0821793070CF46F
:103E40004CC0245F3F4F281739070CF446C0F401DB
:103E500070820E94F02B9093A3018093A201809125
:103E60009E01815080939E018F3F51F580919B016F
:103E700090919C012091990130919A01281739075E
:103E800078F47092A40190939A018093990189E942
:103E900091E06EE770E042E050E00E94123402C010
:103EA0001092A40180E06AEF4FEF0E94B3168AEFF0
:103EB0006AEF472D272D00E010E00E94EC130DC0A3
:103EC00080E06EE14FEF0E94B31684E66AEF472D63
:103ED000272D00E010E00E94EC13F3E0EF0EF11C40
:103EE000EC14FD0409F08FCF0E94F02B8C0180911F
:103EF0009F018823E1F08091A2019091A301980194
:103F0000281B390BC901883E33E0930708F4F9C038
:103F100010929F010CC08091A501823021F48EEF98
:103F20008093A50106C082E08093A50102C0109293
:103F3000A5011F829091A5018091A101890F888719
:103F400021E833E13A8729878FE08B8780E18C87EE
:103F50001D861E86CE0107968FD980919F018823EA
:103F600009F006FD8ED980919E018F3F09F479C03A
:103F700012E0812F90E0FC01EE0FFF1FE80FF91F08
:103F8000E057FE4F80818F839091A5018181890F39
:103F9000888777D9115068F78FE993E19A878987E5
:103FA00088E08B878C870DE011E00F2EF0E1EF2E7B
:103FB000F1E0FF2EF02D6894DD24D7F8F801808120
:103FC000982F9658973718F08650808301C0D0827A
:103FD0000F5F1F4F80818F838091A501805F88874D
:103FE00050D98091A501805E88874BD98091A50129
:103FF000805D888746D90E151F0501F78E01015F88
:104000001F4FEDB7FEB71283018387EA93E19483D4
:10401000838380919B0190919C01968385830E946C
:104020000932C80160E04DE521E00ADA83E093E15E
:104030009A87898787E08B8781E0888780919E01B6
:10404000882309F463C010E0812F880F880F880F40
:10405000805E8F8316D91F5F80919E011817A0F391
:1040600055C08AEA93E160E044E120E048DA84EB5D
:1040700093E160E044E120E142DA8BEB93E160E020
:1040800044E120E23CDA8091A401882331F086ECFF
:1040900093E160E044E120E332DA8E01015F1F4FDB
:1040A000ADB7BEB712961C930E93119786ED93E1B0
:1040B00014969C938E93139780919B0190919C01F1
:1040C00016969C938E9315970E940932C80160E062
:1040D00040E620E1B5D9EDB7FEB71283018389ED43
:1040E00093E1948383838091990190919A019683BF
:1040F00085830E940932C80160E040E620E2A0D931
:1041000005C08E35914008F406CF11CF81E064964A
:10411000EDE00C942630CF9392D20E94F02B0E94B7
:10412000DE3180E49EE10E94C0178CE39EE167E3EC
:104130007EE147EC50E20E945D131092910181E014
:104140008093920180E88093900190E19093940194
:1041500092E0909395018093930190E29093970160
:10416000C3E0C09398018093960189E991E06EE7DE
:1041700070E042E050E00E94F53310929C011092F2
:104180009B0110929D01C0939E01CF910895809153
:104190009E018F3F11F4BFDF05C088EB97E161E01E
:1041A0000E94EE0C81E008955C9AE8E6F0E08081E0
:1041B00084608083EDE6F0E08081886080832E9AC1
:1041C0002F9A0895CF93DF930E94F02B9091A60130
:1041D000282F291B263990F18093A601C9B1C870F8
:1041E000D9B1D295D17081E0D8278091A701C817A5
:1041F00069F0C093A701CC2319F082E790E002C0D8
:1042000086E690E061E041E00E94740F8091A80191
:10421000D817A1F0D093A801D11110C0CC2371F010
:1042200088E590E061E041E00E94740F89EA91E046
:104230006AE076E044E050E00E94F931DF91CF91EE
:1042400008959DEC899F812D1124869586958695EC
:1042500008959DEC899F912D11249695969596959C
:10426000990F292F220F220F920F891B08959CDF8F
:10427000E4E6F0E0808182608083589A599A2ADAD5
:10428000A2D90E94EB0E0E94350F0E94A6160E9432
:10429000D2130E9460120E9427130E94E62B0E94F4
:1042A0002A150E94FA2B0E94C12D0E940C0C0E941C
:1042B0007A17789488EC6DE741E021E000E010E0A7
:1042C0000E94EC1381E062E34FEF0E94B31682E29A
:1042D00092E10E94B3170E94B8170E94DC2D0E9441
:1042E000C12C882321F00E9482120E94A7120E94F2
:1042F0006C140E94E4160E943E0E64DF0E94C12CE2
:10430000882321F00E942B0C0E94CB170E94022CC4
:10431000E4CF18958093AE016093AF014093AD0157
:10432000E0910406F0910506309711F0862F09956B
:1043300008955091F6054091F505242F30E0852F22
:1043400090E007962817390714F0465003C0541719
:1043500008F4452F4093F60508958CEF95E060E052
:1043600070E04AE050E00C940232E0910606F091D1
:104370000706309711F00995089512C4A8E1B0E03E
:10438000E4ECF1E20C9411308E010F5F1F4FC80175
:1043900060E270E048E150E00E940232E090F905EE
:1043A000F090FA05C7010E94F03196958795980123
:1043B000281B390BC9010996B7010E94E931C801D0
:1043C00060E040E020E03CD86896E6E00C942D30B8
:1043D000CF93DF93EC018091F805882361F00E9470
:1043E000080D882321F00E940B0D882321F02097CF
:1043F00011F0FE010995DF91CF9108950E94080DFB
:10440000882321F00E940B0D882381F08091F8050C
:10441000811105C081E08093F805C2D307C0E09107
:10442000FE05F091FF05309709F0099581E00895A8
:104430008091000690910106CBDF81E00895809184
:10444000FC059091FD05C4DF81E00895A8E0B0E08F
:10445000ECE2F2E20C940E308091FB0581112EC04B
:104460008DDFE090F6058091F705883008F087E051
:10447000B82EBE0CEB1408F0D6C0DE2CF12C05EFE4
:1044800015E04D2D50E04E195F094F5F5F4FC42E70
:10449000CC0CCC0CCC0CF8018081D81207C082E186
:1044A00091E060E040E02C2D0E94201A82E06D2D0A
:1044B0004C2D30DFD394DB1420F3B5C02091F505EB
:1044C00030ED3203C0011124805C9F4F2091EE013A
:1044D000222309F44AC020911001309111012817BC
:1044E000390704F5AC01421B530B12F44D5F5F4FCB
:1044F00055954795559547954F5F413108F040E1F7
:10450000240F311D281739073CF4309311012093F3
:104510001001CC24C39430C09093110180931001FA
:10452000C12C2AC08217930734F5A901481B590BE7
:1045300012F44D5F5F4F55954795559547954F5FE1
:10454000413108F040E1241B3109821793073CF404
:104550003093110120931001CC24C3940DC090938B
:10456000110180931001C12C07C090931101809319
:104570001001C12C01C0C12C00911001109111013A
:10458000FDDE8EE289838EE08A832BEF35E03C836B
:104590002B8384E28D8388E08E831F821886CE0170
:1045A00001960E943C190E9441198AE28A832FE1F8
:1045B00036E03C832B830E9441198091F7058823C4
:1045C000C1F0015F1F4FD12C0F2EF7EFEF2EF5E05A
:1045D000FF2EF02D0F39110528F4402F4F5180E0A8
:1045E0006D2D98DED394005D1F4FF7019081D91691
:1045F00088F381E06091F50540E08CDEE0910206F1
:10460000F09103063097B1F0C11009C0099521E07F
:1046100030E0811102C020E030E0C90102C081E039
:1046200090E0C82E07C0E0910206F0910306309793
:1046300069F7C12C8C2D2896E9E00C942A308DDE88
:104640001092F80510920706109206060C94B817FF
:1046500020910606309107062617370719F0FC014E
:1046600032832183FC0180818093F50570930706D6
:104670006093060608954091F50550E02091F705F6
:1046800030E02150310981E04217530709F080E002
:104690000895CF93DF93EC01EEDF811104C0809188
:1046A000F505888307C0188289819A81909307064F
:1046B00080930606DF91CF91089561E00C94EE0C93
:1046C000A8E0B0E0E6E6F3E20C9415309091AF017B
:1046D00098133DC08091AE018130F1F028F0823016
:1046E00011F18330A1F527C08091AD01898380E16C
:1046F0008A834115510511F443E452E15C834B83F5
:1047000080E28D838E831F821886CE0101960E94DF
:104710003C190E9441191BC0CB0160E040E028E336
:104720000E94201A14C0CB0160E046E02091AD0148
:104730000E94201A0CC02115310549F08091AD016D
:10474000882319F0C901B9DF02C0F901099528963B
:10475000E2E00C943130A8E1B0E0E1EBF3E20C943C
:1047600010307A018901D090AF01D8120BC0CE0170
:1047700001960E94E9318D2DBE016F5F7F4FA70129
:1047800098019EDF6896E7E00C942C308091F70545
:1047900081506CED73E143E45FE025EB31E2DBCF68
:1047A00060E00C94EE0C0F931F93CF93DF93082FD0
:1047B000162FEA01D2DD1092F6051092F5050F5F73
:1047C0000093F7051093FB05D093FA05C093F90504
:1047D000DF91CF911F910F9108959093FD058093E4
:1047E000FC057093FF056093FE055093010640930E
:1047F000000630930506209304060895E5EFF5E0E2
:1048000080818F5F80839091F705891710F0109257
:10481000F5058FCDE5EFF5E08081815080839091A3
:10482000F705891718F091509093F50582CD482F20
:1048300083E06091F5056ECDE0EFF1E0908181E0DD
:104840008927808308950E94AF150E94821284E018
:1048500060E041EE53E1A7DF8EEF93E26AE074E29D
:104860004AEB54E22DE334E2B8DF80EB91E063E2FF
:1048700074E2EEDE80E090E093CFA2E2B0E0E3E409
:10488000F4E20C941330813071F120F0823009F0A1
:1048900061C042C0CE0181960E94B4158AA18823CE
:1048A00014F020E001C025E086FD2E5F8E01075F39
:1048B0001F4FEDB7FEB71283018383E094E1948329
:1048C000838389A1992787FD909596838583278384
:1048D00010860E94093280E0B80140E050E02FEAE3
:1048E00035E1EEDE40C00E9496128E01075F1F4F39
:1048F000EDB7FEB7128301832AE134E134832383C9
:10490000968385830E94093281E0B80140E050E03F
:1049100027EB34E2D5DE27C08091F001882311F027
:1049200029E501C02EE48E01075F1F4FEDB7FEB7EA
:10493000128301838AE294E1948383832583168220
:104940000E94093282E0B80140E050E02CE134E2FC
:10495000B7DE09C083E061EF73E140E050E020E0A2
:1049600030E0F9DE13DFA296E4E00C942F300C94D3
:104970006A12089580EB91E08CDE7DDE58CFEEEE7A
:10498000F1E0908181E089278083089584E061E0EF
:1049900046E354E108DF8EEF93E268E375E24AE014
:1049A00054E22CED34E219DF83EB91E066EC74E223
:1049B0004FDE80E090E0F4CE4091F20142954695C2
:1049C0004695437080E8489FA00111244D5B544FE9
:1049D00080E062E474E12DE135E2BDDE81E06DE46A
:1049E00074E143EC5AE025E135E2B5DE82E064E5AE
:1049F00074E143E457E02DE035E2ADDE4091EE0195
:104A000080E8489FA00111244D53564F83E06BE589
:104A100074E12FEB34E29FDEB9CEEFEEF1E090814E
:104A200081E0892780830C947217EDEEF1E090818C
:104A300081E0892780830C946C178091F201829524
:104A40008695869583708F5F843008F080E0E2EF72
:104A5000F1E0282F2295220F220F207C90819F7356
:104A6000922B908395E5899F802D11240C946917D2
:104A7000CF9301DEC82F81110E941B0F83EB91E0C1
:104A800008DE8C2FD4DECF91089582E060E046E608
:104A900054E189DE8EEF93E26AE074E24CE655E27F
:104AA0002BE535E29ADE86EB91E065E475E2D0DD38
:104AB00080E090E075CE80E060E774E140E050E097
:104AC0002DEC3DE148DE81E069E774E140E050E033
:104AD0002BE830E240DE5ACE86EB91E0DADD81E071
:104AE000A6CE86E292E20E94C0178FE192E26EEFBC
:104AF00071E248E152E20E945D1386E061E043E822
:104B000054E151DE8EEF93E26BEC75E24AE054E241
:104B100023E935E262DE89EB91E061E775E298DD39
:104B200080E090E03DCE80E061E974E143EC51E14A
:104B300023E236E210DE81E068E974E143EC50E103
:104B40002BED3EE008DE82E063EA74E143E451E1EC
:104B50002AE23EE000DE83E06DEA74E143E45DE0DA
:104B600025E435E2F8DD84E063EB74E143E450E1F1
:104B700020E438E2F0DD85E06CEB74E143EC5FE0CB
:104B800023E234E2E8DD86E068EC74E143E45FE0D0
:104B90002FE133E2E0CD89EB91E07BDD81E047CE90
:104BA00080E090E06EEF71E240E050E00E945D1323
:104BB00081E795E282CD8091F305823021F0833048
:104BC00041F48BE308958091F101813021F48CE070
:104BD000089581E0089587E10895CF93E4EFF5E02B
:104BE000C081CF5FC083E7DF8C1710F41092F4050B
:104BF0008091F305823059F48091F101813039F4CC
:104C00008091F405811103C081E08093F405CF9178
:104C10000895E4EFF5E08081815080839091F30561
:104C2000923049F49091F101913029F4811103C03F
:104C30008CE08093F405BFDF9091F405891710F4A0
:104C40008093F40508958AE060E04DEC54E1ABDD1B
:104C50008EEF93E26AE074E24BE358E229E336E236
:104C6000BCDD8CEB91E063E276E2F2DC80E090E088
:104C700097CDA2E2B0E0EFE3F6E20C941430182FE7
:104C80008A3008F062C08091F305882321F080917A
:104C9000F505811739F0812FBE01605E7F4F0E94BC
:104CA0007D0B08C0CE0180966FEB71E043E050E0D1
:104CB0000E94F93188A18E8F80E28F8FCE014C96B1
:104CC0006091F1011AD79E01245F3F4FEDB7FEB707
:104CD000328321832FED34E1348323838E8D8583CA
:104CE000168289A1878310868F8D818712860E9404
:104CF00009328AA1882314F480E801C08EE28B87F0
:104D00001B8E6AA170E0DE01549620E030E0AB011A
:104D1000022E02C0559547950A94E2F740FF05C060
:104D2000F901EA5AFC4EE49101C0EDE2ED932F5FE8
:104D30003F4F2730310559F7812FBE01655F7F4F07
:104D400040E050E02AEA36E2BBDC20DDA296E3E058
:104D50000C943030A4E0B0E0E0EBF6E20C941330B9
:104D600089E096E26DEE75E24BE358E229E336E224
:104D700034DD8CEB97E2909303068093020640911A
:104D8000F305433009F45EC028F44130D9F008F04F
:104D900040C007C0443009F470C04C3008F0E8C08F
:104DA00087C08091F5056FEB71E00E947D0B81E07B
:104DB0008093F3058091C10187FB882780F9809358
:104DC000F405D6C091E08091F405811101C090E016
:104DD000E1ECF1E0808190FB87F9808382E08093B1
:104DE000F3050FEB11E0F80180818B8380E28C8367
:104DF000CE0101966091F10180D68B818093F405FC
:104E000081E0F80190819C3008F480E08093C20139
:104E1000AFC08091F4059091F101913009F0A3C0E9
:104E200097C081E48C83CE01019660E066D68B81C9
:104E30008093BF0183E08093F3058091C00180934C
:104E4000F40596C08091F4058093C0018091F10132
:104E5000813041F484E08093F3058091C201809316
:104E6000F40508C085E08093F3058091C10181704D
:104E70008093F4051092C3017BC08091BF018B83A6
:104E80008091F405882311F080E501C081E48C83D2
:104E9000CE01019660E031D68B818093BF0185E021
:104EA0008093F3058091C10181708093F40560C007
:104EB0008091F405882379F0E1ECF1E081E090E065
:104EC0000090C30102C0880F991F0A94E2F79081F5
:104ED000892B80830FC0E1ECF1E081E090E000904D
:104EE000C30102C0880F991F0A94E2F78095908150
:104EF000892380838091C3018F5F8093C3012091B8
:104F0000C10130E0B90102C0759567958A95E2F755
:104F1000CB0181708093F4054B3021F04F5F4093BB
:104F2000F30526C08091F5056FEB71E00E941B0C24
:104F30001092F3058EEF93E26AE074E24BE358E2DD
:104F400029E336E24ADC109203061092020610C0F2
:104F50008D3008F08CE08B838091C201882309F4A6
:104F600060CF80E55FCF883108F462CF87E160CF02
:104F70002496E4E00C942F30AAE0B0E0E2ECF7E2F3
:104F80000C9413301886E091F305E330D1F130F43E
:104F9000E13069F0E23009F06AC006C0E43091F017
:104FA000EC3008F064C019C005E14BE02CC08091E2
:104FB000F405882311F080E801C08EE28F8307E0BA
:104FC00045E021C08091F405882311F080E501C0FF
:104FD00081E48F8308E345E016C0E5500E2F000FF3
:104FE000000F000F0E1B0A5B8091F405882329F047
:104FF000F0E0EA5AFC4EE49101C0EDE2EF8345E0B7
:1050000002C00AE24BE02091F50530E08091F60500
:10501000281B31092F5F3F4F122F110F110F110F56
:10502000802F612F0E94AF1A8091F3058250823049
:10503000B8F4FE013796ADB7BEB71296FC93EE9367
:105040001197E8EDF4E11496FC93EE931397809199
:10505000F40515968C93159716961C920E940932AA
:10506000CE01079661E0402F212F0E94201A80E098
:105070002A96E4E0F4C78CEB91E00BDBFCDAD7CBAB
:1050800084E061E041EF54E18EDB8EEF93E267E76D
:1050900078E24AE054E226E538E29FDB84EC91E0D6
:1050A00060E478E2D5DA80E090E07ACB80E06EEFE1
:1050B00074E143EC5EE026EF39E24DDB81E06AE02B
:1050C00075E143E45EE025E838E245DB82E060E13B
:1050D00075E143EC5DE028E139E23DDB83E066E128
:1050E00075E143EC56E026EC34E235DB4FCB84EC43
:1050F00091E0CFDA81E09BCB8091EC018F5F8D3026
:1051000008F080E08093EC01089581E061E04EE1D9
:1051100055E149DB8EEF93E266ED78E24AE054E236
:105120002DEC38E25ADB81EA98E2909303068093F3
:10513000020687EC91E065E878E28ADA80E090E0A8
:105140002FCBAAE0B0E0E6EAF8E26DC78091F50562
:1051500081111FC08E01095F1F4FEDB7FEB712838B
:10516000018388E295E1948383838091EC0190E050
:105170009C01220F331F220F331F820F931F968330
:1051800085830E940932C80160E048E328E20E945A
:10519000201A80E02A96E4E062C780E06EE275E1C2
:1051A00043E456E02CE738E2D6DAF0CACF9363DA6C
:1051B000C82F81110E941B0F87EC91E06ADA8C2FB7
:1051C00036DBCF9108958091F20183708F5F843038
:1051D00008F080E0E2EFF1E0837090819C7F892B02
:1051E000808308958091F2018695869583708F5F04
:1051F000843008F080E0E2EFF1E08370880F880FE0
:105200009081937F892B808308958091F20182950C
:105210008F7083708F5F843008F080E0E2EFF1E000
:1052200083708295807F90819F7C892B80830895F5
:1052300083E061E046E355E1B6DA8EEF93E264E69F
:1052400079E24AE054E22EE239E2C7DA8AEC91E0F0
:1052500068E179E2FDD980E090E0A2CACF93DF93C4
:10526000C2EFD1E04881437080E8489FA00111243B
:105270004D53584F80E060E475E123EE38E26BDA7D
:10528000488146954695437080E8489FA0011124C7
:105290004D53584F81E063E475E122EF38E25BDA69
:1052A000488142954F70437080E8489FA0011124C7
:1052B0004D53584F82E06AE475E125E039E24BDA5C
:1052C00065DADF91CF910895CF93D5D9C82F811199
:1052D0000E941B0F8AEC91E0DCD98C2FA8DACF91C9
:1052E00008958091F305843061F028F4813049F00D
:1052F000823099F408C0863061F088F0873069F414
:105300000AC081E008958091D501813051F48CE08C
:1053100008958BE0089583E608958BE308958FE167
:10532000089587E10895CF93E4EFF5E0C081CF5F62
:10533000C083D7DF8C1710F41092F4058091F30529
:10534000823029F48091D501813051F402C085303A
:1053500039F48091F405811103C081E08093F40554
:105360001092D601CF910895E4EFF5E0808181504D
:105370008083811111C08091F305823041F48091C6
:10538000D501813081F48CE08093F40505C085302F
:1053900051F48FE18093F405A4DF9091F40589170F
:1053A00010F48093F4051092D601089584EB99E2ED
:1053B00063E979E249EC5BE22CE13AE20EDA8AEC4D
:1053C0009AE2909303068093020608951092F305E3
:1053D0008BED9BE260ED7BE249EC5BE22CE13AE293
:1053E000FCD9109203061092020608958DEC91E00C
:1053F0006AE076E048E050E0FCD78091F1018093CC
:10540000D5011092D60186E060E045E555E1CBD9A3
:105410008BED9BE260ED7BE249EC5BE22CE13AE252
:10542000DCD987ED91E066EF79E212D981E08093D3
:10543000F50580E090E0B4C9A2E2B0E0E1E2FAE272
:10544000F0C57E018FE1E80EF11C6091D30170E0A0
:10545000660F771F660F771F665F7C4EC701B9D74F
:105460008E01035F1F4FEDB7FEB71283018387E7FD
:1054700095E1948383838091D20185831682F0869F
:10548000E7828091D40181871286C3D781E0B80179
:1054900040E050E026E83AE213D92091D0012032D2
:1054A00011F03CE001C038E18E01035F1F4FEDB702
:1054B000FEB7128301838DE895E19483838335835E
:1054C00016828091CF01878310868091CE018187DB
:1054D0001286238714869DD783E0B80140E050E010
:1054E0002EE53BE2EDD88091D601882319F065E6E0
:1054F00075E102C06BE675E185E040E050E025EB28
:105500003BE229D943D9A296E6E0A7C54FDF8091B7
:10551000F305853061F08630E1F081112FC085E020
:105520008093F3058091D2018093F40508958091D2
:10553000F405882319F08093D20103C081E08093A1
:10554000D20186E08093F3058091D3018093F40526
:1055500008958091F4058093D3016091D40190D295
:105560009091D201891710F48093D20187E0809343
:10557000F3058091D4018093F40508958091F4059A
:105580008093D4016091D3014091D20144D28093A1
:10559000D1011CCFABE0B0E0EFECFAE242C5809164
:1055A000F305843019F138F48230C1F0D8F4813039
:1055B00009F080C00FC08630E9F020F0873009F094
:1055C00079C004C04EE010E10CE117C04EE010E1DC
:1055D0000BE513C04CE110E20BE10FC04EE010E20E
:1055E0000FE30BC04EE010E204E507C04EE010E20E
:1055F00002E603C041E110E101E3802F612F0E9428
:10560000AF1AEDB6FEB69091F305963071F4E091C5
:10561000F405F0E0EE0FFF1FEE0FFF1FBF01665F06
:105620007C4ECE010796D5D637C0943051F4809188
:10563000F405882311F081E401C080E58F8318868A
:105640002BC0913099F48091F405882329F081E3EF
:105650008F8382E3888704C082E38F8384E3888713
:1056600088E6898782E78A871B8616C0FE013796FF
:10567000ADB7BEB71296FC93EE931197E0E7F5E154
:105680001496FC93EE9313978091F40515968C93E2
:10569000159716961C92BDD6CE01079661E0402F55
:1056A000212F0E94201A8E2D9F2D0FB6F8949EBF99
:1056B0000FBE8DBF80E02B96E6E0CFC4CF93DF9383
:1056C00075DE8091F305813079F030F08230D9F0C9
:1056D000833009F03DC023C081E08093F3058091C1
:1056E000D5018093F4053EC0C4EFD5E06881609396
:1056F000D5018DEC91E001D28091CF01888382E0C9
:105700008093F3052FC0E4EFF5E080818093CF0113
:105710008091CE01808383E08093F30523C0809144
:10572000F4058093CE018091D501813061F484E04D
:105730008093F30581E09091D001913409F080E0ED
:105740008093F4050FC080E28093D0013FDE0AC051
:105750008091F405882311F081E401C080E58093F5
:10576000D00134DEDF91CF9108958091D5018093EF
:10577000F1010E941B0F8DEC91E00BD28DEC91E0BA
:105780006AE076E048E050E034D681E08093D601CC
:10579000089587ED91E00E9449230E943B2347C86A
:1057A00039D88091F505882321F0823011F08430BA
:1057B00009F430C8089522D88091F505882321F096
:1057C000823011F0843009F419C8089583E0809381
:1057D000B10082E0809370008AEF8093B300089557
:1057E0008FB7F89420910806309109068FBF822F59
:1057F000932F08951092DA011092DB0183B7817F15
:1058000083BF0895CF930E949612803F2AE09207AB
:1058100090F54B9930C0892B71F10E9445138FEFA1
:105820000E94840F0E94FF1680E00E946317DFD061
:1058300083B7817F846083BFF89483B7816083BF1F
:1058400085B7806685BF8F7D85BF7894889583B73F
:105850008E7F83BF0E946A124B9905C00E949612E8
:10586000803F9A4028F37AD10E9420130E949B1314
:1058700081E00E94631785E0C0E021E0E82FF0E0BE
:10588000E452FE4F9081923009F473C0913009F4D4
:10589000C22F815098F70E946A13C11103C0811171
:1058A00062C020C09091DA01913041F4882331F038
:1058B00081E00E9417191092DA015BC080916400A8
:1058C0008F3A29F483B7817F866083BF03C083B793
:1058D000817F83BF83B7816083BF889583B78E7FC5
:1058E00083BF47C08091DA01811107C081E08093B6
:1058F000DA0180E00E9417193CC0813009F039C0FC
:105900008091DB01811106C081E08093DB0180E0A2
:105910000E94631782E08093DA0183B7817F8460FD
:1059200083BF35D0F89483B7816083BF85B7806625
:1059300085BF8F7D85BF7894889583B78E7F83BF21
:105940001092DA010BD18130A1F01092DB010E949C
:105950009B1381E00E94171981E00E94631783E086
:105960000E94631206C08091DA01813009F0A6CF4F
:105970009FCFCF910895E82FF0E0E452FE4F60836F
:10598000089581E09091DB01911180E00895A3E0FA
:10599000B0E0ECECFCE249C380E00E940E15CE01C1
:1059A00001960E940E0C882349F00E94180C8F5F0C
:1059B0008B83CE0101960E94D41504C080E090E054
:1059C0000E94D4158091F201807341F01A821982ED
:1059D0001B82CE0101960E94221604C080E090E056
:1059E0000E9422161092E2012396E2E03AC380E080
:1059F0000E940E1580E090E00E94D41580E090E0B7
:105A00000E9422161092E2010895982F937081E06F
:105A100009F080E008956F5F90E09C012053384FBB
:105A2000633028F4E22F9C012153384F02C0E22F4B
:105A3000E25057E1659FC001112469E070E0B0D2E7
:105A40004E0FFB01E40FF11D3496C9019595879522
:105A500095958795E80FF91FC90164E670E0A0D21B
:105A6000E61BF70BC90160E971E09AD2CF01860FFE
:105A7000971F67E070E094D2815008F486E00895A3
:105A8000CF93E82FF0E0E955FA4EC491813031F41C
:105A9000862FBBDF811104C08C2F03C08C2F01C067
:105AA0008DE1CF910895ADB7BEB71A970FB6F894B0
:105AB000BEBF0FBEADBF83EE91E0EDB7FEB79283E0
:105AC000818383EB95E19483838380910C068583A6
:105AD000168280910B068783108680910D06818740
