:100000000C94EB0A0C94F72C0C94110B0C94110B20
:100010000C946C210C946C210C94110B0C94492BB6
:100020000C94110B0C94110B0C94110B0C94110BE0
:100030000C94110B0C9479140C94110B0C94110B5F
:100040000C94110B0C94110B0C94110B0C94110BC0
:100050000C94110B0C94110B0C94110B0C94110BB0
:100060000C94110B0C94110BDB26EC2601270627B0
:1000700017271C272D2731273127312731273127F3
:10008000312731272530326868753A253032686863
:10009000752563002530326868753A253032686806
:1000A000752563002530326868753A2530326868F6
:1000B000750025732025303268687520257320323D
:1000C00030253032686875008D142000AF2575002A
:1000D00000F8F8F8F80000C3C3C3C300001F1F1FD7
:1000E0001F00FEFFFF0F0707070FFFFFFE7FFFFF49
:1000F000F0E0E0E0F0FFFF7F0000181C1EFFFFFFB4
:100100000000000000000000FFFFFF0000001E1FB5
:100110001F070787C7E7FF7F3EF0F8FCFEEFE7E326
:10012000E1E0E0E00E0F0F070787C7EFFF7F3E70AB
:10013000F0F0E0E0E1E3F7FFFE7CC0E0F0783C1E89
:10014000FFFFFF00001F1F1F1C1C1CFFFFFF1C1CCC
:10015000FFFFFFC7C7C7C7C7C7870771F1F1E1E155
:10016000E1E1F3FF7F3FFEFFFF8F878787878F8F58
:100170000E7FFFFFE3E3E3E3E3FFFF7F0F0F0F07D4
:10018000070787C7FFFF7FE0F0783C1E0F070301DA
:1001900000007EFFFFC7878787C7FFFF7E7EFFFFC8
:1001A000E3E1E1E1E3FFFF7EFEFFFFC7C7C7C7C78B
:1001B000FFFFFE78F9F9E1E1E1E1E1FFFF7FFEFFFA
:1001C000FFFFFF0F0F0F0F0F0F0F0F0FFFFFFFFFAF
:1001D000FEFFFFFFFFFF000000000000000000FF27
:1001E000FFFFFFFF7FFFFFFFFFF0F0F0F0F0F0F008
:1001F000F0F0FFFFFFFF7F000000000000203CFF49
:10020000FFFFFFFF000000000000000000000000F2
:100210000000FFFFFFFFFF000000000000000000E3
:100220000000000000FFFFFFFFFF000000000000D3
:1002300000FEFFFFFFFF0F0F0F0F0F0F0F0FFFFF4E
:10024000FFFFFE00000000000080C0E0F0F8FC7E30
:100250003F1F0F070301E0F0F8FCFEFFFFFFF7F37D
:10026000F1F0F0F0F0F0F0F0F0FEFFFFFFFF0F0F05
:100270000F0F0F0F0F0F0FFFFFFFFFFE000000001B
:10028000000000081C1C3E3E7E7FF7F7F7E3E37F8B
:10029000FFFFFFFFF0F0F0F0F0F0F0F0F0FFFFFFF5
:1002A000FF7F000000000080E0F0FCFF7F1F0F03D5
:1002B000010000000080C0F0FCFEFF3F0F030100C2
:1002C0000000FFFFFFFF00000F0F0F0F0F0F0F0FBA
:1002D0000F0F0F0F0FFFFFFFFF0F0FFFFFFFFFFFBE
:1002E0000F0F0F0F0F0F0F0F0F0F0F0F0F0F1F1FFE
:1002F0001F1F1F1E1E1E1E1E1E1E1E1EFEFEFEFE9B
:10030000FC7FFFFFFFFFF0F0F0F0F0F0F0F0F0FF07
:10031000FFFFFF7FFEFFFFFFFF0F0F0F0F0F0F0FFE
:100320000F0F7F7F7F7F7EFFFFFFFFFF3C3C3C3C4A
:100330003C3C3C3C3CFCFCFCFCF87FFFFFFFFFF03E
:10034000F0F0F0F0F0F0F0F0FFFFFFFF7F7F7F7F35
:100350007F7F0F0F0F0F0F0F0F0FCFFFFFFFFF1F3D
:1003600000000000000000000080F0FCFFFF3F0FD5
:10037000030000000000000080E0F8FEFFFF1F0700
:10038000010000000000FEFFFFFFFF0F0F0F0F0F27
:100390000F0F0F0FFFFFFFFFFEC3E7E7F7FF7E3EE4
:1003A0003E3C1C3C3E3E7EFFF7E7E7C37FFFFFFF7E
:1003B000FFF0F0F0F0F0F0F0F0F0FFFFFFFF7FFE55
:1003C000FFFFFFFF0F0F0F0F0F0F0F0F0FFFFFFFAD
:1003D000FFFE1F3F3F3F3F3C3C3C3C3C3C3C3C3CE9
:1003E000FFFFFFFFFF7EFEFEFEFEF0F0F0F0F0F0FC
:1003F000F0F0F0FFFFFFFF7F0000000000005F0053
:1004000000000007000700147F147F14242A7F2AAD
:100410001223130864623649552250000503000078
:100420001C2241000041221C0000082A1C2A080846
:10043000083E0808A060000000080808080860607E
:1004400000000020100804023E5149453E00427F52
:100450004000625149494622414949361814127FE9
:100460001027454545393C4A494930017109050382
:100470003649494936064949291E003636000000EA
:10048000AC6C00000814224100141414141441220E
:100490001408000201510906324979413E7E0909DA
:1004A000097E7F494949363E414141227F414122EF
:1004B0001C7F494949417F090909013E4141517267
:1004C0007F0808087F417F4100002040413F017FB5
:1004D000081422417F404040407F020C027F7F048D
:1004E00008107F3E4141413E7F090909063E4151C6
:1004F000215E7F09192946264949493201017F01B8
:10050000013F4040403F1F2040201F3F4038403FB8
:100510006314081463030478040361514945437F5D
:1005200041410000020408102041417F0000040204
:100530000102048080808080010204000020545465
:1005400054787F4844443838444428003844444868
:100550007F3854545418087E09020018A4A4A47CBF
:100560007F08040478007D00000080847D00007F07
:1005700010284400417F4000007C041804787C0867
:10058000047C003844443800FC2424180018242437
:10059000FC00007C0804004854542400047F4400FC
:1005A000003C40407C001C2040201C3C4030403C33
:1005B00044281028441CA0A07C004464544C4408E7
:1005C00036410000007F00000041360800000201B3
:1005D000010201020505020060C0F0381C0010187D
:1005E0009C72301000FF81BDBDBDBDBDBDBDBDBD98
:1005F000BDBD81FF3CFF81BDBDBDBDBDBDBDBD81DC
:10060000818181FF3CFF81BDBDBDBD818181818133
:10061000818181FF3CFF81BD8181818181818181D7
:10062000818181FF3C10387C3810101814345656E4
:10063000D0D01038101C0603010101010101010195
:10064000010101010101010101010101010101019A
:1006500001010101010103061C3860C08080808017
:10066000808080808080808080808080808080808A
:1006700080808080808080808080C0603800000022
:100680000000000000C0E03030181808CCCC08187A
:10069000183030E0C0000000000000000000000042
:1006A00000000018FFC30000000000000F1F3060B2
:1006B000C080000083FF1800000000000000000060
:1006C000000000000003070C0C1810103030101050
:1006D000180D0C07030000000000000000000000DF
:1006E000000000000000000000000000000000000A
:1006F000000000000000000000000000000080C0BA
:10070000C0C0C0C0C0C0C0C0C0C0C0C0C0C0C0C0E9
:10071000C0C0C0C0C0C0C0C0C0C0C0800000FFFF1B
:10072000007E1E0E06020200000000000000000015
:1007300000000000000000000000FFFF0000FFFFBD
:1007400000000000000000000000000000000000A9
:1007500000000000006060606000FFFF0000010317
:100760000303030303030303030303030303030359
:100770000303030303030303030303010000000057
:10078000000080C0E0F0F0F878783C3C3C3C3C3C19
:100790007878F8F0F0E0C00000000000000C1C7C4D
:1007A000FCFEFFFFFF7F3C0C00000000000000008B
:1007B000000000000101C0C0C000000000000000F7
:1007C0000003030380800000000000000000000020
:1007D0000000303CFEFFFFFF7F3F3E3C300000004A
:1007E00000000003070F0F1F1E1E3C3C3C3C3C3C1E
:1007F0001E1E1F0F0F070301000000000000000075
:1008000000000000000000000000000000000000E8
:1008100000000000000000000000000000000000D8
:1008200000000000000000000000000000000000C8
:1008300000000000000000000000000000000000B8
:1008400000000000000000000000000000000000A8
:100850000000000000000000000000000000000098
:100860000000000000000000001E3F313D3D313F10
:100870001E0000000000000000000000000000005A
:100880000000000000000000000000000000000068
:100890000000000000000000000000000000000058
:1008A0000000000000000000000000000000000048
:1008B0000000000000000000000000000000000038
:1008C00000000000003C7E627A3A3A3A3A3A3A3AFC
:1008D0003A7A627E3C000000000000000000000048
:1008E0000000000000000000001E3F313D3D313F90
:1008F0001E000000000000000000000000000000DA
:1009000000000000000000000000000000000000E7
:1009100000000000000000000000000000000000D7
:100920000078FCC4F474747474747474747474749F
:100930007474747474F4C4FC780000000000000047
:1009400000000000003C7E627A3A3A3A3A3A3A3A7B
:100950003A7A627E3C0000000000000000000000C7
:100960000000000000000000001E3F313D3D313F0F
:100970001E00000000000000000000000000F0F871
:1009800088E8E8E8E8E8E8E8E8E8E8E8E8E8E8E847
:10099000E8E8E8E8E8E8E8E8E888F8F000000001BE
:1009A0000178FCC4F474747474747474747474741E
:1009B0007474747474F4C4FC7801010000000000C5
:1009C00000000000003C7E627A3A3A3A3A3A3A3AFB
:1009D0003A7A627E3C000000000000000000000047
:1009E0000000000000000000001E3F313D3D313F8F
:1009F0001E00000000000000000000000000008059
:100A0000E0F0F8F8FCFC7C7C3CBC9EDEDEDEDEDE4A
:100A1000FEBC3CF8F8F0F0E0C00000000000E0FF91
:100A2000FFFF7F7F7D0030F8F8F1F1E3C3E7FFFFC0
:100A30007F7F7F7F7F03031FFFFFFEF00000073FE4
:100A4000FFFFF8E0C0E0F0F97F3F1F0F0FF3FDFC60
:100A5000786001071F9FDFFFFFFFFFFF000000001E
:100A6000000103070F1F1F3C3C3C7878787F7F7F95
:100A70007F7F7E7E7F7F7F3F1F0F07030000008008
:100A8000E0F0F8383C3C7C7C389890C0C0C0C0C0D6
:100A9000C08000000000000000000000000000070F
:100AA0001F3F7C7C7C0030F8F8F1F1E3C3870F1F17
:100AB0003F7F7F7E7C0000000000000000000000FF
:100AC000000000000000000103070F0F0FF3FDFC02
:100AD000786001071F1FDFFFFEFCF8F00000000038
:100AE00000000000000000000000000000070F1FD1
:100AF0003F7F7E7E7C7C7F3F1F0F070300FFFFFF51
:100B0000FFFFEFCF8F0F0F0F0F0F0F0F0F0F0F0FF5
:100B10000F0F0F0F0F0F0F0F0FFFFFFFFFFFFFFF55
:100B2000FFFFFFFFFFFFFE040C1C3C7CFCFCFCFCF9
:100B3000FCFCFC000000000000FFFFFFFFFFFFFFC8
:100B4000FFFFFFFFFFFFFFC0C0C0C0C0C0C1C3C7E1
:100B5000CFDFFFC08000000000FFFFFFFFFFFFFFAF
:100B6000FFFFFFFFFFFFFFFFFFFFFFFFFFFFFFFF95
:100B7000FFFFFFFFFFFFFEFCF8FFFFFFFF0000008D
:100B80000000000000000000000000000000000065
:100B90000000000000000000000000000000000055
:100BA00000000000000000C0F0F8381C1C1C1C38BD
:100BB000F8F0C0000000000000000000000000008D
:100BC00000000000000000030F1F1C383838381CDC
:100BD0001F0F0300000000000000000000000000E4
:100BE0000000000000000000000000000000000005
:100BF00000000000000000000000000000000000F5
:100C0000000000000000000000000000FEFE0000E8
:100C100000000000000000000000000000000000D4
:100C200000000000000000C0F0F8381C1C1C1C383C
:100C3000F8F0C0000000000000000000000000000C
:100C40000000000080C0C0030F1F1C383838381C5B
:100C50001F0F03C0C0800000000000000000000063
:100C60000000060703010000000000000000000073
:100C70000000000001030706000000000000000063
:100C8000000060E0C08000000000000000000000E4
:100C90000000000080C0E0600000000000000000D4
:100CA00000000000010303C0F0F8381C1C1C1C38B5
:100CB000F8F0C00303010000000000000000000085
:100CC0000000000080C0C0030F1F1C383838381CDB
:100CD0001F0F03C0C08000000000000000000000E3
:100CE00000000607030100000000000000000000F3
:100CF00000000000010307060000000000000000E3
:100D0000000060E0C080000000000000FEFE000067
:100D10000000000080C0E060000000000000808053
:100D200080808080810303C0F0F8381C1C1C1C38B4
:100D3000F8F0C00303818080808080800000010182
:100D40000101010181C0C0030F1F1C383838381C55
:100D50001F0F03C0C081010101010101000000005B
:100D60000000060703010000000000007F7F000074
:100D70000000000001030706000000000000000062
:100D800000808080808000000000000000000000E3
:100D90000000000080808080800000000000E0F8FB
:100DA0009C9F07079F9FFCFCFCFCFCFCFCFCFCFCE4
:100DB000FCFCFCFC9F9F67679F9CF8E000F8FFFF2E
:100DC000FFFFFE7E3F1F312424311F0F0F0F0F1F27
:100DD000312424311F3F7EFEFFFFFFFFF800010199
:100DE0000101000000000000000000000000000001
:100DF00000000000000000000101010100000000EF
:100E00000000000000000000000080C0E0E00000E2
:100E1000000080000070E0C0800000000000F0F8DA
:100E2000F8F8F8F8F8F8F8FCFEFFFFFFFFFF000005
:100E30003CF8C1071FFCF0031FFEF00000000F1F6D
:100E40001F1F1F1F1F1F1F3F7FFFFFFFFFFF000010
:100E50003C1F83E0F83F0FC0F87F0F000000000048
:100E60000000000000000000000001030707000070
:100E700000000100000E0703010000000000000058
:100E80000000000000000000000000000000000062
:100E900000000000000484E4741C0C00000000004A
:100EA00000000000000000000000000383C3F33BCB
:100EB0001F070300000303020202020000000007F4
:100EC0000787C7E7F77F3F1F0F00000607070606E3
:100ED00006060600000000000000000000003C3E86
:100EE0003F3F3B39383838383800000000000000F8
:100EF000000000000000000000000000000080C0B2
:100F0000C00000F8F8C00000F8F8C0C00000F8F811
:100F1000C0C0C080000000000000000000FFFFFF14
:100F20003F3E3F3F3FBFBFBE3FBFBFBFBEBEFFFF55
:100F3000FF7F7F3FB8307070F0E0C08000FFFFFFA0
:100F4000806C6C6C006D6D6D006D6D6DFFFFF789D1
:100F50000002061C7800000008C3FFFF3E000103EA
:100F6000030303030303030303030303030303074D
:100F70000F0E0E0E0F0E0E0E07070301000080C0AD
:100F8000C0C0C0C0C0C0C0C0C0C0C0C0C0C0C0C061
:100F9000C0C0800000000000000000000000FFFF53
:100FA00001000000000000000000000000808080C0
:100FB000818F8F80808C9CB8F0E0C0800000FFFFA4
:100FC000800000000000000000000000000101019E
:100FD00081F1F1010131391D0F0703010000010307
:100FE00003030303030303030303030303030303D1
:100FF00003030100000000000000000000000000EA
:1010000000000000000000C0F8F000000000000038
:1010100000000000000000000000000000008080D0
:101020008080808080C0FC3F013FFE800000000087
:1010300000000000000000000000000000000101AE
:101040000101010101010100000007FFE080F83CFF
:101050000C0C0C0C0C0C0C0C0C0C0C0C0000000000
:101060000000000000000000000000010F0F03005E
:101070000000000000000000000000000000000070
:101080000040E0F0E0E0C080C0C0E0FEFEFEFEE018
:10109000C0C080C0E0E0F0E0400000000000C0C040
:1010A000C0C0E1FBFF1F07E3F1F97C3C1C1C3C7C4A
:1010B000F9F1E3071FFFFBE1C0C0C0C0000003035C
:1010C000030387DFFFF8E0C78F9F3E3C38383C3E84
:1010D0009F8FC7E0F8FFDF870303030300000000D2
:1010E0000002070F070703010303077F7F7F7F07C6
:1010F0000303010307070F070200000000000000C0
:1011000000000000000000000000000000000000DF
:1011100000000000000000000000000000C0E0F03F
:10112000F0F0F0F0F0F0F0F0F0F0F0F0F0F0F0F0BF
:10113000F8F8FCFCFCFCFCFC00B090988803070F5E
:101140000F0F0F0F0F0F0F0F0F0F0F0F0F0F0F0FAF
:101150001F1F3F3F3F3F3F3F000D09191100000097
:10116000000000000000000000000000000000007F
:10117000000000000000000000000000000000600F
:10118000F0F8F8F0E06060B030181818F8D81818C7
:101190001830B06060E0F0F8F8F06000000000F097
:1011A0007C0F13010000000000000000FFFF0000A2
:1011B00000000000000001130F7CF0000000077F1A
:1011C000F2824000000000000000000003070E1C37
:1011D0003870E0C08000004082F27F07000000000D
:1011E0000103060C1830306860C0C0C0F0C0C0C039
:1011F000C060683131180C060301000000000000D7
:1012000070783C9ECE6F6737331A1818F8D81818C4
:101210001A3337676FCE9E3C78700000000000F0F4
:101220007C0E03010000000000000000FFFF000032
:1012300000000000000001030E7CF0000000077FAA
:10124000F282030303030303030303030303000006
:10125000000000000000000082F27F070000000094
:101260000103060C1830306060C0C0C0F0C0C0C0C0
:10127000C060603030180C06030100000000000060
:10128000000080E0F0F8FCFCFC3E1E1E1E1E1E3E10
:101290007CFCFCF8F0E08000000000000000000092
:1012A00000000101010101010000000080C0E0F028
:1012B000F8FFFFFF7F3F0F0000000000000000006C
:1012C0000000000000000000007C7E7F7F7F7F0F19
:1012D0000301010000000000000000000000000009
:1012E0000000000000000000007E7E7E7E7E7E000A
:1012F000000000000000000000000000000F0102DC
:10130000016F909060011F0100788080780F0402C7
:10131000040FF8A8A8011F0100F82020F81F0505F8
:1013200000F828689012150900F02828F012150915
:1013300000788080783C42819DA181423C060F1F4D
:101340003E1F0F064A616E00466562004D617200E5
:10135000417072004D6179004A756E004A756C00EB
:1013600041756700536570004F6374004E6F7600DF
:10137000446563004D6F6E005475650057656400E9
:1013800054687500467269005361740053756E00AD
:101390004D545754465353006070501030F0F030A5
:1013A00010507060030307070725750057494E2149
:1013B0000047414D454F564552210040F8EC2C2C3A
:1013C00038F010D030E84C4C9CF0021F3734341CFD
:1013D0000F080B0C173232390F0101010101010115
:1013E0000125750047414D454F5645522100536335
:1013F0006F72653A004869676873636F72653A0097
:10140000214E4557204849474853434F52452100F4
:101410002575002575004261636B003C20444941FD
:10142000474E4F5354494353203E004657202020F7
:10143000312E312032303134303633300054656D46
:10144000706572617475726520256868642E256800
:1014500068754300426174746572792020202025EC
:10146000756D560053686F772046505325396300D9
:101470003C20444953504C4159203E004272696718
:1014800068746E65737300496E7665727400526F8E
:101490007461746500416E696D6174696F6E73008B
:1014A0003C2047414D4553203E00427265616B6FC1
:1014B00075740043617220646F646765003C204D61
:1014C00041494E204D454E55203E00416C61726DA4
:1014D0007300466C6173686C696768740053746F5D
:1014E0007077617463680047616D6573005365745C
:1014F00074696E677300446961676E6F73746963C2
:10150000730045786974003C20414C41524D532092
:101510003E00202530326868753A2530326868759B
:10152000256320003C2053455454494E4753203EE8
:101530000054696D652026206461746500536C65F4
:10154000657000536F756E6400446973706C6179E7
:10155000003C20534C454550203E0025686875539B
:101560000054696D656F7574003C20534F554E44AF
:10157000203E00554900416C61726D7300486F75E3
:1015800072206265657073003C2054494D452026E9
:101590002044415445203E0053617665002568682B
:1015A0007500253373253032686875202573203225
:1015B000302530326868750025367325303268680A
:1015C000753A253032686875001F1C1F1E1F1E1FCC
:1015D0001F1E1F1E1F0011241FBECFEFD8E0DEBF4D
:1015E000CDBF14BE88E10FB6F894809360001092CE
:1015F00060000FBE11E0A0E0B1E0E2E3F8E602C057
:1016000005900D92A032B107D9F716E0A0E2B1E043
:1016100001C01D92A431B107E1F70E941A210C9478
:1016200017340C9400002CE3829FC00111249C010C
:10163000260F311D80EA95E0489FB001499F700D4B
:101640001124260F371F822F932F08958091230195
:10165000909124010E94A1176091270170912801A7
:101660004091290150912A018091250190912601F4
:101670000E945D138091EE010E944D1785E060E0AD
:101680000E94E52B83E056D41092220181E0089558
:10169000AAE1B0E0EEE4FBE00C94182F0E943A2B94
:1016A000882394F080E18B8B8C8B8DEF91E19E8B66
:1016B0008D8B80E28F8B888F198E1A8ECE01439688
:1016C0000E941D190E94221980910B068B87CE0162
:1016D0000B960E94CA2C8E01045F1F4FEDB7FEB718
:1016E0001283018324E830E0348323839B85958330
:1016F000168290910A0697831086818712860E942F
:101700001431C80160E04FE424E10E94011A6091A5
:101710000C0670E0660F771F660F771F6C587C4EC3
:10172000C8010E94F430C80160E046E524E20E944E
:10173000011A80E06A96E4E00C94342FCF93CDE157
:101740008C2F90E08050904060E00E942C33C1507C
:10175000B8F7CF910895282F30E0C901880F991F5D
:10176000280F391F20503040CB01B90143E050E031
:101770000C940033A3E0B0E0E0ECFBE00C940C2F01
:1017800060910A066F5F80910B0640910C064BDF5B
:101790006C010F2EF9E0AF2EF02DEE24EA94FE2C12
:1017A00055245A940F2EF6E04F2EF02D8A2DBE01AF
:1017B0006F5F7F4FD0DF8B81882334F5082F10E0D7
:1017C00089809A8070902001B42C6A2CC8010B2C5F
:1017D00002C0959587950A94E2F780FF0FC0882D87
:1017E000692D4B2D20DF8C199D0912F4815A984DDB
:1017F0008E159F0518F47B2C7C01562CBA948FEF24
:10180000B812E4CF70922001AA948FEFA812CECF25
:10181000509221012396E0E10C94282FABCF08953C
:10182000BC01809121018F3F19F095DF81E008957F
:1018300080E00895809120010895282F30E0C901AB
:10184000880F991F280F391F20503040CB01B90154
:1018500043E050E00E941D338DCFA3E0B0E0E3E30E
:10186000FCE00C94192F10912201CE010196D8DFD3
:10187000882309F45CC08B8190E000900C0602C0C4
:10188000959587950A94E2F780FF51C099818091E0
:101890000B0698134CC09A8180910A06981347C092
:1018A00080910906811148C081E08093220162DFA6
:1018B00043C0111129C088E49BE00E94A1179093B6
:1018C00024018093230180E060E070E0EAD69093E9
:1018D00026018093250181E066E27BE0E2D69093C9
:1018E00028018093270182E060E070E0DAD69093CF
:1018F0002A018093290185E061E00E94E52B8EE3B7
:1019000090E062E043E006D30E94BD16811118C04A
:1019100081E090910A01913009F480E080930A01FE
:1019200066E94FEF0E949C160BC090DE09C08091C3
:101930002201882329F0F9CF809122018111B9CFAA
:101940002396E3E00C94352F15CF089580912B0159
:101950008823E1F180912C0190912F01992399F036
:10196000843010F48F5F09C0883010F48D5F05C09B
:10197000803110F48B5F01C0885F8034B0F010922A
:101980002B0180E012C08C3F10F08F5F09C0883FB0
:1019900010F08D5F05C0803F10F08B5F01C0885F45
:1019A0008A3018F410922B0180E080932C018091F2
:1019B0002B0181110BC0E0912D01F0912E01309788
:1019C00029F0099510922E0110922D010895209171
:1019D000EF01222389F021E020932B01662311F0EF
:1019E00020E001C020EC20932C0190932E018093E5
:1019F0002D0160932F010895009711F0FC010995C6
:101A0000089580912B01089590912F0181E08927FD
:101A1000089580912C0108951092330110923401A1
:101A200010923501109236010E943A2B90933201A8
:101A30008093310181E0089589E997E161E0C7DF92
:101A400081E0089580913001813039F410923001A5
:101A500084E060E00E94E52B09C0811107C081E0AD
:101A60008093300184E061E00E94E52B0E943A2BD4
:101A7000909332018093310181E00895AAE1B0E0B2
:101A8000E4E4FDE00C94102FF2D4C0903301D09028
:101A90003401E0903501F0903601C701B60128EE1F
:101AA00033E040E050E00E94E82E49015A0180E80E
:101AB000C8168EEED80686E3E806F104D0F4C70116
:101AC000B60128EE33E040E050E00E94E82E2AE024
:101AD00030E040E050E00E94E82E122FC501B40132
:101AE0002CE330E040E050E00E94E82EE62EC22ECB
:101AF0001EC00F2EFCE3CF2ED12CE12CF12CF02DAB
:101B0000CA01B901A70196010E94E82E162FCA0149
:101B1000B901A70196010E94E82EE62EC501B40185
:101B200020E13EE040E050E00E94E82EC22E81E03D
:101B30008B870F2EF4E1FF2EF02DFC868C2D0E945A
:101B400004210F2EF9E3DF2EF02DD89EC0011124C1
:101B5000AC0142545E4F5E874D8783E18F8708E179
:101B6000088B198A1A8ACE010B960E941D190E94B1
:101B700022190B878C2D0E940C21D89EC0011124A4
:101B80009C0122543E4F3E872D870E9422198CE3F0
:101B90008B878E2D0E940421D89EC00111249C01A8
:101BA00022543E4F3E872D870E94221983E58B8762
:101BB0008E2D0E940C21D89EC001112482549E4F6C
:101BC0009E878D870E94221988E68B878CE18C87FF
:101BD0008BE08F8780E1888B812F0E9404210F2E5C
:101BE000F6E1EF2EF02DE89EC00111249C012E514C
:101BF0003F4F3E872D870E94221984E78B87812FD4
:101C00000E940C21E89EC00111248E519F4F9E8797
:101C10008D870E94221981E38B87FC8686E08F875F
:101C2000088B80ED90E09E878D870E94221980911D
:101C30000B068B8BCE0143960E94CA2C7E0194E149
:101C4000E90EF11CEDB7FEB7F282E18224E930E043
:101C5000348323839B899583168290910A06978308
:101C60001086818712860E941431C70160E040E32C
:101C700020E00E94011A81E06A96ECE00C942C2F7F
:101C80000E9402238EE39DE00E94A1178CE09DE05C
:101C900062E27DE04CE15DE010C581E090913001B1
:101CA000913009F080E0089580913001813099F5FC
:101CB0000E943A2B2091310130913201AC01421B3C
:101CC000530B9A01409133015091340160913501D9
:101CD00070913601420F531F611D711D40933301F6
:101CE0005093340160933501709336019093320123
:101CF0008093310141155A426547754160F08FEF7D
:101D000099E2A5E7B5E18093330190933401A09364
:101D10003501B09336010895409137015091380153
:101D2000443F81E05807B8F49A0136952795ABE710
:101D3000B4E10E94B52E96958795019662E3689F5F
:101D40009001699F300D1124420F531F50933801A9
:101D50004093370104C0109238011092370181E09E
:101D600008958091EE010E944D170E94991781E01D
:101D700008958091370190913801892B19F10E94C3
:101D80003A2B2091390130913A01AC01421B530B9F
:101D900020913701309138014217530700F1909399
:101DA0003A018093390190913B0181E0892780932A
:101DB0003B010E944D1780913B0164E14FEFBCD77E
:101DC00081E0089581E00E944D1781E064E64FEFC5
:101DD000B3D780E064E64FEFAFD780E0089581E0AD
:101DE00008950E940223109238011092370189EB66
:101DF0009EE00E94A11781EB9EE06CE87EE0AC01C2
:101E00005CC487E080937A0080E480937C0080E863
:101E100080BFE4E6F0E08081816080830895E4E69D
:101E2000F0E090819E7F90838F70806480937C002F
:101E3000EAE7F0E08081806C8083808186FDFDCFC1
:101E40002091780030917900EAE7F0E080818F7787
:101E50008083E4E6F0E0808181608083822F932F8D
:101E600008958DEE91E06FE170E047E050E00C9452
:101E70001D3381E08093ED011092EE018093EF011C
:101E80008093F0018093F1011092F2018FEF809323
:101E9000F301E7DF53CC8EE190E00E9410338E34E3
:101EA00041F48DEE91E06FE170E047E050E00C947A
:101EB00000338EE190E06EE40E943E33DACF0F9360
:101EC0001F93CF9340914001842F90E0880F991F7A
:101ED00020913D0130913E014F5F40934001820FC0
:101EE000931F0E941833C82F823069F0692F4091E8
:101EF0003F0120913C010FE51FE065D4C11106C0F0
:101F000010923C0103C010924001D9DFCF911F9184
:101F10000F91089520913C01421758F040933C01E5
:101F200090933E0180933D0160933F0110924001E8
:101F3000C6CF08950F931F93282F80E060E040E004
:101F400000E010E040D410923C011F910F910895E1
:101F5000FB019081811103C0903428F008959933DA
:101F600018F0915001C09F5FFB01908381E00895BC
:101F7000A0E0B0E0EEEBFFE00C94142FEC013D810B
:101F8000DF800A811B818C81839FC00111249923EA
:101F90000CF40796959587959595879595958795D2
:101FA0007C01FF24F801869FE00DF11D1124FB83C5
:101FB000EA83222329F0DD2019F0FFEFDF1204C0AD
:101FC0001F820E94221918C0C62ECA948FEFC81211
:101FD00001C0C42E8D2D8450831B8F830E94221933
:101FE000DF82CE9CC001CF9C900D1124800F911FE9
:101FF0009B838A830E942219DF821B830A83CDB7C9
:10200000DEB7E8E00C94302FA0E3B0E0EAE0F0E1C6
:102010000C94142F6E012CE2C20ED11C60910C06A0
:1020200070E0660F771F660F771F6C587C4EC601F5
:102030000E94F4307E0188E2E80EF11C60910E06E9
:1020400070E0660F771F660F771F6C5B7C4EC701D1
:102050000E94F4308E01085E1F4FEDB7FEB7128369
:10206000018382EB90E094838383D682C582809142
:102070000D0687831086F286E18680910F0683879E
:1020800014860E941431C80160E04CE020E00E94F8
:10209000011A8091EF01882309F4C0C090910906CC
:1020A00080914101981709F45EC01092420110928C
:1020B000430181E08093440180910B060E9404213A
:1020C000182F809145010E94042191E0181301C04E
:1020D00090E09093460180910B060E940C21182FEE
:1020E000809145010E940C2191E0181301C090E0FD
:1020F0009093470180910A060E940421182F809135
:102100004B010E94042191E0181301C090E09093CC
:10211000480180910A060E940C21182F80914B01E2
:102120000E940C2191E0181301C090E090934901A6
:10213000809109060E940421182F809141010E947C
:10214000042191E0181301C090E090934A0180911E
:102150000B068093450180910A0680934B01809184
:1021600009068093410180914401882309F464C0E9
:1021700080914201843020F48F5F8093420117C028
:10218000873020F48D5F8093420111C0813120F4AB
:102190008B5F809342010BC0873120F48D5F809369
:1021A000420105C08D3118F48F5F80934201809108
:1021B00042018C3118F08FEF8093420180914301EE
:1021C000823020F48F5F809343010BC08E3020F467
:1021D0008D5F8093430105C0853118F48F5F809334
:1021E000430180914301843120F08FEF80934301BC
:1021F00002C0853108F1809142018D31E8F01092E2
:102200004201109243011092440186E491E060E0A3
:1022100070E045E050E00E940D310EC01092420186
:10222000109243011092440186E491E060E070E076
:1022300045E050E00E940D3188E6888F8CE1898F5F
:1022400082EE90E09B8F8A8F8BE08C8F80E18D8F68
:102250001E8E809143018F8FCE014896EED709E004
:1022600016E0F80180810E940421682FCE01489673
:1022700045E020914A017CDE84E7888FF801808167
:102280000E940C21682FCE01489649E0209144011C
:102290006FDE84E1898F83E18C8F0F2EF8E1FF2EB2
:1022A000F02DFD8E8EEB91E09B8F8A8F8091420105
:1022B0008F8F8CE3888F0AE016E0F80180810E94FE
:1022C0000421682FCE01489645E02091480150DE58
:1022D00083E5888FF80180810E940C21682FCE0150
:1022E000489649E02091490143DE80910B0688AB76
:1022F000CE01C0960E94CA2C182F81E0888F88A931
:102300000E940421682FCE01489645E020914601A5
:102310002FDEF88E88A90E940C21682FCE014896E6
:1023200049E02091470124DE4A990CC081E3888F5F
:1023300020ED30E03B8F2A8F86E08C8F88E18D8FF7
:102340001F8E80D718A719A6CE01889660E048E6B0
:1023500024E10E94011AF090440189D084E18D8724
:1023600087E38E8725E236E0388B2F8780E1898BE3
:1023700088E08A8B1B8A1C8ACE010D965ED789B1B4
:1023800083FB882780F96BE071E0E2DD882339F078
:1023900080910B018E8756D78D858C5E8D8788E066
:1023A000898B89B18295817091E089276CE071E019
:1023B000CFDD882359F02DED35E0388B2F878091C4
:1023C0000C018E873FD78D85845F8D8788E38E874C
:1023D00064DC882341F025E333E1388B2F8732D743
:1023E0008D85845F8D87CE0145961ADA882361F149
:1023F0008D8988ABCE01C0960E94CA2C8E01085EE2
:102400001F4FEDB7FEB71283018324EA30E0348317
:10241000238388A9858316828E89878310860E94EC
:102420001431C80160E04D8528E3EBD78D858D5DC3
:102430008D8700DAF8E08F9FC00111249C012350A2
:102440003D4E388B2F87FED68F2DE096E8E00C941A
:10245000302F84E090E175D580E090E061EE71E28C
:1024600040E050E02AD180E090E060E0B0CAA8E00F
:10247000B0E0EDE3F2E10C941A2F64D080382CE048
:10248000920750F084372EE0920748F0803A9F4040
:1024900048F485EF95E008C085E196E005C085E049
:1024A00096E002C085EE95E0198228E32A839C839A
:1024B0008B8380E18D8388E08E831F821886CE0116
:1024C0000196BBD6BFD62896E2E00C94362F389AF8
:1024D0004098089590910906890F8C3318F48093E1
:1024E0004C0103C08C5380934C0110924D01089510
:1024F0009091090680914C01981719F010924D01A6
:10250000089580914D0181111CC081E080934D019F
:1025100010924C01409A80E991E00197F1F786E032
:102520007EDC9C01A8E6B0E10E94B52E2BE533E0ED
:1025300040E050E00E94E82E30934F0120934E017E
:102540004098089580914E0190914F0108958823FD
:1025500039F090E0282F2170920F8695D9F701C0AD
:1025600090E0892F089539983A983B98419A429A79
:10257000439AECE6F0E080818E60808386E390E011
:1025800090935701809356018EE290E090935F0103
:1025900080935E0186E290E09093670180936601EC
:1025A000E8E6F0E08081826080830895A3E0B0E0F7
:1025B000ECEDF2E10C94162F0E943A2B90916801F9
:1025C000282F291B2A3008F468C08093680196B12F
:1025D00081E0969591709827998396B192FB9927FF
:1025E00090F998279A8396B193FB992790F98927B8
:1025F0008B836894FF24F1F8EE24E3942F2D30E0D0
:102600008901000F111F000F111F000F111F005B28
:102610001E4FE1E0F0E0EC0FFD1FE20FF31F908191
:10262000D80112968C911297880F12968C9312975C
:10263000992331F1816012968C9389DF843048F1BF
:102640000E943A2BF801918380838381811121C0FC
:102650000480F581E02D3097E1F009958823C9F0D9
:10266000D8011396EC92139716968D919C9117971B
:102670006E2D4E2D4FDC8E2D62E34FEF5DD309C0E2
:10268000880FF801828363DF833018F4D801139632
:102690001C92FA94BFEFFB12B1CF2396E6E00C94A4
:1026A000322F28E0829FC0011124FC01E05BFE4F25
:1026B00084819581758364830895909355018093F7
:1026C000540170935D0160935C01509365014093E8
:1026D000640108951F93CF93DF932091ED0122238E
:1026E000F9F088E893E1289FE001299FD00D11249B
:1026F00012E00E943A2BE12FF0E0EE0FFF1FEE0FE9
:10270000FF1FEE0FFF1FE05BFE4F20813181821B18
:10271000930B8C179D0730F0115058F780E003C0E1
:1027200081E001C081E0DF91CF911F910895FF9278
:102730000F931F93CF93DF9312E0FF24F39404E0F1
:10274000C12FD0E0CC0FDD1FCC0FDD1FCC0FDD1F64
:10275000C05BDE4FFB820A830E943A2B99838883F9
:10276000115070F7CDB7DEB7E5E00C94332FE0E8F9
:10277000F0E080818F738083E4E6F0E08081886000
:10278000808310926C011092690180E060E00C94EB
:10279000E52B82E08093800081E18093810080E0DE
:1027A00092E0909389008093880080E094E0909379
:1027B000870080938600E4E6F0E080818860808373
:1027C000219A29980895EF92FF920F931F93CF9328
:1027D000DF93E82ED62FF42EC22F9091690129178E
:1027E00008F46CC0611102C0C2DF68C080E061E023
:1027F0000E94E52BC093690110936B0100936A015D
:10280000E0926C010E943A2B80936D01D13059F413
:10281000E0E8F0E080818F738083E4E6F0E080817F
:10282000886080834BC042E0F41651F053E0F51607
:1028300069F081E0F81210C06091F30163700DC07F
:102840006091F30166956695637007C06091F3012E
:1028500062956F70637001C062E06150633070F523
:102860002D2F30E0220F331F220F331F220F331F73
:1028700080E290E0AC0102C0559547956A95E2F779
:10288000BA01C9010E94C12EC901861B970BE4E65B
:10289000F0E04081477F408316BAEFE6F0E04081E8
:1028A00041604083109285001092840090938900CB
:1028B000809388003093870020938600CDB7DEB7E1
:1028C000E6E00C94322F80916C01882389F00E94FD
:1028D0003A2B90916D01891B90916C01891740F002
:1028E00046DFE0916A01F0916B01309709F009959C
:1028F00008951F920F920FB60F9211248F93EF93AA
:10290000FF93E0E8F0E08081806C808310926F009C
:10291000FF91EF918F910F900FBE0F901F90189520
:10292000982F92959F70990F292F220F220F920FA7
:102930008F70890F0895EF92FF920F931F93CF939B
:10294000DF93C82F8B01F42E29D680ED57D6811145
:1029500002C051D629C08C2F51D6811102C04BD64E
:1029600023C01CD681ED4AD6811102C044D61CC0BA
:10297000FA9479F0E02EC02FD12FCE0161E05DD620
:10298000811102C038D610C021968C2F8E198F1558
:10299000A0F3C8018F0D911D60E04FD6811102C0D8
:1029A0002AD602C00CD681E0CDB7DEB7E6E00C94A3
:1029B000322FCF93DF93C82FD62FF0D580ED1ED6C0
:1029C000811102C018D60EC08C2F18D6811102C0FA
:1029D00012D608C08D2F12D6811102C00CD602C0AB
:1029E000EED581E0DF91CF910895CF93DF93C82F8B
:1029F0000E940421D82F8C2F0E940C2190E1D99F96
:102A0000800D1124DF91CF910895A1E0B0E0EBE0BB
:102A1000F5E10C94192F182F8EE0BE016F5F7F4FE8
:102A200041E089DF69816B7B113011F480E401C0E2
:102A300084E0682B69838EE0BCDF2196E3E00C9490
:102A4000352FA1E0B0E0E7E2F5E10C941A2F8EE01B
:102A5000BE016F5F7F4F41E06EDF698167766983FA
:102A60008EE0A7DF8FE0BE016F5F7F4F41E063DF45
:102A70006981647F69838FE09CDF81E0C6DF2196F6
:102A8000E2E00C94362F1F93CF93DF93EC0180E0AC
:102A9000BE0147E050DF888143DF8883898140DFC2
:102AA00089838A813DDF8A838C813ADF8C838D81A3
:102AB00037DF182F8D838E8133DF8E838B818823C0
:102AC00011F081508B83112311F011501D83DF9180
:102AD000CF911F910895CF93DF93EC01888185DF1B
:102AE000682F80E066DF898180DF682F81E061DF09
:102AF0008A817BDF682F82E05CDF6B816F5F83E020
:102B000058DF8C8172DF682F84E053DF8D818F5F07
:102B10006CDF682F85E04DDF8E8167DF682F86E0F0
:102B200048DFDF91CF91089581E16EE671E042E0E8
:102B300002CF6EE671E042E050E00C940431A1E077
:102B4000B0E0E5EAF5E10C94192F8FE0BE016F5F6C
:102B50007F4F41E0F0DE6981162F117060FF04C0E5
:102B60006E7F69838FE025DF812F2196E3E00C944F
:102B7000352FA1E0B0E0EFEBF5E10C94182F8C01BC
:102B8000DEDF8EE0BE016F5F7F4F41E0D4DE0115D6
:102B90001105C1F087E060E00CDFF801818125DFDD
:102BA000682F88E006DFF80180811FDF682F89E049
:102BB00000DFF801628160648AE0FBDE8981816068
:102BC000898303C089818E7F89838EE06981F1DEEC
:102BD0002196E4E00C94342FA1E0B0E0E2EFF5E1BF
:102BE0000C94192F8FE0BE016F5F7F4F41E0A3DE91
:102BF000698161FB112710F961FF04C06D7F698352
:102C00008FE0D7DE812F2196E3E00C94352FA1E0F1
:102C1000B0E0EDE0F6E10C94182F8C01DDDF8EE0E2
:102C2000BE016F5F7F4F41E086DE01151105C1F0E7
:102C3000F8018181DADE682F8BE0BBDEF80180814C
:102C4000D4DE682F60688CE0B4DEF8018281CDDECE
:102C5000682F60688DE0ADDE89818260898303C062
:102C600089818D7F89838EE06981A3DE2196E4E0EE
:102C70000C94342F0F931F93CF93DF93EC01162FF7
:102C8000042F8881882371F00E943A2B9981891B37
:102C90009881891738F08BB108230BB984B51823B4
:102CA00014BD188281E09881911101C080E0DF910C
:102CB000CF911F910F910895CF92DF92EF920F93D2
:102CC0001F93CF93DF93EC01142F690168830E9457
:102CD0003A2B8983812F81508E3F78F084B50095FF
:102CE000082304BD1F3F21F48BB1E82AEBB80FC0C5
:102CF0008BB1E094E822EBB80AC0E4E6F0E0808112
:102D00008F7D808384B5082B04BDF6011083DF918D
:102D1000CF911F910F91EF90DF90CF90089583E0B6
:102D200084BD85BDE4E6F0E0808180628083559AB1
:102D3000569A5D985E980895EF920F93882319F044
:102D40008130A1F40AC080E791E027E430E000E898
:102D50006894EE24E6F8B0DF09C082E791E028E449
:102D600030E000E26894EE24E5F8A6DF81E061E05F
:102D70000E94E52B0F91EF900895809170018111D1
:102D800009C081E090E020917201211105C080E02E
:102D900090E002C081E090E081700895CF9380E7D9
:102DA00091E06FE74FEB66DFC82F82E791E06FEDB0
:102DB0004FED60DFC1110BC0811109C0E4E6F0E006
:102DC00080818062808381E060E00E94E52BCF916A
:102DD0000895CF93DF93D82FC62F289850D42A98E0
:102DE000DEBD0DB407FEFDCFCEBD0DB407FEFDCF99
:102DF0002A9A4BD4DF91CF910895CF93C82F28986A
:102E00003ED42A98CEBD0DB407FEFDCF2A9A3DD4FC
:102E1000CF910895289833D42A9882E28EBD0DB4BC
:102E200007FEFDCF1EBC0DB407FEFDCF87E08EBDB3
:102E30000DB407FEFDCF81E28EBD0DB407FEFDCFC0
:102E40001EBC0DB407FEFDCF8FE78EBD0DB407FE8F
:102E5000FDCF2A9A1AD4289A12D42A98E4EFF1E0E6
:102E600084EF95E02081119232E03A95F1F700C0AD
:102E70003DB52EBDE817F907A9F784E08A95F1F76B
:102E800000C08DB52A9A01C4813011F48FEA01C0C7
:102E90008EEAB3CF682F81E89CCF882311F087EAB0
:102EA00001C086EAAACF882319F081EA68EC91CFA5
:102EB00080EA60EC8ECF229A209A5F9A579A80ED32
:102EC00097E0FC013197F1F75F98FC013197F1F73A
:102ED0005F9A0197F1F72898D2D32A9880E090E082
:102EE000FC01E853FF4FE491EEBD0DB407FEFDCFAA
:102EF000019685309105A1F72A9AC7D38091F001F8
:102F0000D2DF9091F301929596959695937085E511
:102F1000989F802D1124BEDF8091EE01BEDF80EDF1
:102F200097E00197F1F776CF909375018093740144
:102F30000895E0917401F0917501309709F00995B9
:102F400008953091760120917701909377018093D5
:102F50007601832F922F0895ABE0B0E0E2EBF7E12A
:102F60000C94102F0E943A2BF82E809178019F2DFF
:102F7000981B80917901981728F482E061E00E9403
:102F8000E52B32C1F09278010E94A60CE091760107
:102F9000F0917701309759F080917F01811104C041
:102FA00080917B018111D8C00995D82E01C0D12C08
:102FB00080917F01882309F4CDC0E0907A01C09010
:102FC0007D0180917C01811127C080917B01882344
:102FD00031F023E0E20E3FE13E1538F036C08DEFD0
:102FE000E80E9FE19E15A0F030C081E080937C0147
:102FF0006894882482F86894EE24E5F800E010E0F4
:10300000912C0F2EF0E8AF2EF3E0BF2EF02D23C051
:1030100010927F01E12C9AC080917E01882321F0DB
:10302000EAEFCE0E92F4DAC0FAE0CF0E72F410920C
:103030007C016894CC24C7F803C010927F01C12C96
:1030400091E0811190E090937E018E2C869486947D
:103050008694A1F619C0C8018C509E4F60E070E0C4
:1030600040E850E00E940D31C501801B910B8C504F
:103070009E4F60E070E040E850E00E940D31939474
:1030800000581F4F981438F3EE2DE770A9F180E82F
:10309000889E900111248FEF90E0182F0E2E01C012
:1030A000110F0A94EAF70E2E02C0959587950A949F
:1030B000E2F761E070E00E2E01C0660F0A94EAF7B5
:1030C00040E850E002C055954795EA95E2F7F901CE
:1030D000EC50FE4FA4EFB5E0A21BB30B2C583D4FB4
:1030E00090819123962B91939E919823942B9C935E
:1030F000E217F307A9F72AC0EE2041F120E82C19C6
:10310000269580E48E19869586958695E0E88E9FB3
:10311000C0011124820F911D8C509E4F61E070E020
:103120004C2D50E00E940D31F0E2EF1679F020E8CE
:10313000829EC00111242FE7FC01E20FF11DEC502B
:10314000FE4F3081316030832150B0F7E0927A0138
:10315000C0927D01D11007C080917F01811106C00E
:103160000E94010D05C081E090E002C081E090E086
:10317000E82E8091F1018823F1F00E943A2B8E0114
:10318000095F1F4FEDB7FEB7128301832DEC30E0CE
:10319000348323838F19682F6D5F88EE93E070E08E
:1031A0000E94D52E768365830E941431C80160E0A9
:1031B0004BE628E326D1C6D1E11008C082E060E0EA
:1031C0000E94E52B88E2809379010EC082E061E0E5
:1031D0000E94E52B80E18093790106C090917B01EC
:1031E00091112BCFC12C2CCF2B96ECE00C942C2FD3
:1031F0009091EF01911103C010927F0108958130E9
:1032000061F410927B0180937C0180E280937A01CB
:1032100010927E0110927D010CC081E080937B01B1
:1032200010927C0110927A0180937E0180E8809355
:103230007D0181E080937F010895909381018093C7
:1032400080010895A7E0B0E0E8E2F9E10C940A2FCC
:10325000E0918001F09181014080B180F280D380C3
:1032600084802580E68097800E94090DB80E1B2D72
:103270001919A22CA694A694A6940F2EF7E0CF2E8F
:10328000F02DC1222B0C2982AA2009F4B6C0012FEF
:10329000085F682C712C4F2D5D2DD12CF82CF40C6F
:1032A000242C88E090E02C014C1851083981232F00
:1032B00030E03D832C838B2D90E09B838A83AE2D61
:1032C000992049F10B1508F491C0013408F08EC023
:1032D0009981911708F48AC01B1558F48A819B8143
:1032E000811B9109EE24EA9401C0EE0C8A95EAF75D
:1032F00017C02981201790F4802F90E02C813D8108
:10330000821B930BEFEFF0E002C0F595E7958A95ED
:10331000E2F7EE2E05C0EE24EA9402C0EE24EA9411
:10332000812F869586958695F0E88F9FC0011124A0
:10333000C1101CC01034D0F4882009F457C0FA0121
:10334000222D7A2F222364F0349171113095DC0103
:10335000A20FB11DAC50BE4F3E216C91362B3C9359
:103360002F5F31962F11EECFA72F40C0602F6695AB
:103370006695669520E8629FB00111248820B1F11E
:10338000FA01AE839C012F828F81882344F18491BE
:103390009E81911180958E21103478F4D9019F81FE
:1033A000A90FB11DAC50BE4F382E0C2C01C0330CF0
:1033B0000A94EAF79C9193299C93003480F4DB01F2
:1033C0009F81A90FB11DAC50BE4F90E0042C02C0EC
:1033D000959587950A94E2F79C91892B8C938F8120
:1033E0008F5F8F8331968F11CFCFAE81D394085FDB
:1033F000185F460D571DDA1063CF2796E2E10C9453
:10340000262FA8E0B0E0E7E0FAE10C94112F8C0140
:10341000A62EB42EE22EC0908001D0908101198298
:103420002A831C821B8285E08D8388E08E836F83D4
:103430001886CE01019601DFD801EC91EE23C1F18F
:10344000E694E694E694B0E8EB9E700111240F5FD9
:103450001F4F99249A94B982E052F0E0CF01880F6F
:10346000991F880F991FE80FF91FE850FC4FFC8344
:10347000EB83E8DEAA20A9F0BB2059F08B2D815008
:10348000F701E80FF11DEC50FE4F90828AE78B1593
:1034900040F08B2D8B5FF701E80FF11DEC50FE4FD4
:1034A0009082D801ED918D01B7E0BB0EE111D3CF31
:1034B000D0928101C09280012896EBE00C942D2FD0
:1034C000A0E0B0E0E6E6FAE10C94112F7C01962E24
:1034D000A42EB22ECDB6DEB60E94FB3099270196FF
:1034E0002DB73EB7281B390B0FB6F8943EBF0FBE61
:1034F0002DBF0DB71EB70F5F1F4F802F912FB70144
:103500000E94F430802F912F692D4A2D2B2D79DFC9
:103510000FB6F894DEBE0FBECDBEEBE00C942D2F9F
:1035200066956695669520E8629FB00111249B011F
:10353000280F311DC9018C509E4F60E070E050E0B3
:103540000C940D3167CC0895ECEBF0E080818B7F1B
:1035500080833C98449A80ED97E00197F1F7349985
:103560000EC040E420ED37E050E2C9010197F1F7C9
:1035700088B1852788B9349902C04150B1F73C9A87
:103580003D9A449A459A089582E08093B800DCDF22
:10359000E4E6F0E08081806880830895E4E6F0E06E
:1035A00080818F77808382E08093B80084EA809363
:1035B000BC00ECEBF0E080818823ECF70895ECEBA5
:1035C000F0E084E98083808184FD0AC09FEF2DE0D4
:1035D000822F8A95F1F7808184FD02C09150C1F756
:1035E000ECEBF0E080818B7F8083E4E6F0E080818B
:1035F000806880830895E3DF80E008958093BB00B6
:1036000084E88093BC00ECEBF0E080818823ECF749
:103610002091B900287F283149F0283251F081E00B
:1036200090E0203441F080E090E005C081E090E03F
:1036300002C081E090E081700895ECEBF0E0208121
:10364000619560742F7B622B6083208120682083CA
:1036500020812223ECF72091B900287F203511F03A
:10366000283531F42091BB00FC01208381E00895CE
:1036700080E0089580E58CBD81E08DBD0895E4E68D
:10368000F0E080818B7F8083F5CFE4E6F0E08081FD
:10369000846080830895229A239A259A2C9A2A9AE4
:1036A000E9DFF3CF81E08093820180E0089582E03A
:1036B0008093820180E00895A9E1B0E0E2E6FBE1B9
:1036C0000C940A2F8091960190919701803A910570
:1036D00048F481E090E0209195012F3F29F080E0AF
:1036E00090E002C081E090E0282F2170298F109196
:1036F000980180918201813011F41D5F03C08230F6
:1037000009F41350109282011B3F20F4153718F072
:1037100014E701C010E01F8388E3888788E993E1FC
:103720009A8789878CE08B8788E08C871D861E8628
:10373000CE01079682DD86DD10939801498D4111F7
:103740002CC003E811E0F8016081718182819381CE
:1037500020918B0130918C0140918D0150918E010F
:103760000E94072DF801608371838283938307E8A9
:1037700011E0F801608171818281938120918F0134
:103780003091900140919101509192010E94072D3A
:10379000F8016083718382839383609183017091C8
:1037A000840180918501909186010E94D32D6F8BB9
:1037B00060918701709188018091890190918A01BF
:1037C0000E94D32D688FA12CB12C212C20E068946D
:1037D000442443F8512CFF898F2E912C462F50E022
:1037E0005E8B4D8B4DC0C32CD12CE0919301F09199
:1037F0009401EC0DFD1D8081811131C08A149B0460
:1038000074F1861497045CF58D899E898E159F0549
:1038100034F1C7010496ED89FE89E817F907FCF435
:1038200084E66AEF41E021E000E010E00E94E3134B
:1038300081E062E34FEF80DA8091930190919401EF
:10384000FC01EC0DFD1D81E080838091960190913B
:1038500097010196909397018093960121E033940C
:10386000F4E0EF0EF11C4CE1E416F10409F0BBCFDB
:1038700055E0250E84E0A80EB11C90EA291639F017
:10388000322C72013501E4E06E0E711CACCFFF8961
:10389000FF3710F1F13F48F010928301109284013C
:1038A00010928501109286010CC080E090E0ACEF90
:1038B000B2E48093830190938401A0938501B09337
:1038C0008601EBE8F1E080819181A281B381B0585B
:1038D00080839183A283B383498D4111A1C0588D08
:1038E0005C3308F42CC1503F08F029C18091980145
:1038F0009F89981708F423C1492F50E090E00C9657
:10390000841795070CF41BC188EC64E641E021E0C4
:1039100000E010E00E94E31380E090E0A0E7B2E452
:103920008093870190938801A0938901B0938A01C5
:10393000C0908F01D0909001E0909101F0909201A1
:10394000C701B60120E030E0A9010E948D2E1816B3
:1039500064F4F7FAF094F7F8F094C0928F01D092E3
:103960009001E0929101F09292010E94E630BC0138
:10397000882777FD8095982F0E94012E20E03CEF4C
:103980004FE756E40E946B2D20E030E040E85FE313
:103990000E94062D60938B0170938C0180938D01A2
:1039A00090938E013DC02111CFC03AC0E88DE13F18
:1039B00088F088EC68EC41E021E000E010E00E9433
:1039C000E3131092870110928801109289011092DE
:1039D0008A011BC0211119C088EC6AEF41E021E087
:1039E00000E010E00E94E31380E090E0ACE7B2E476
:1039F0008093870190938801A0938901B0938A01F5
:103A000080919501815080939501EFE8F1E08081EC
:103A10009181A281B381B05880839183A283B383C3
:103A200084EA93E19A87898782E08B87609183019A
:103A30007091840180918501909186010E94D32D1F
:103A40006F836091870170918801809189019091C5
:103A50008A010E94D32D6887F5DB86EA93E19A8775
:103A6000898783E08B87E12C00E06894DD24D3F81C
:103A700015C0E0919301F0919401EF0DF11D80814B
:103A8000811103C0EF821887DDDBF3941C5F1C31CA
:103A900081F70B5FF4E0EF0E003A19F0F02E1D2DC8
:103AA000E8CF7E012FE0E20EF11CEDB7FEB7F28207
:103AB000E18289EA93E194838383809196019091D6
:103AC0009701968385830E941431C70160E040E02E
:103AD00020E097DC809195018F3FC9F08DE393E161
:103AE0009A87898787E08B8781E088878091950115
:103AF000882369F010E0812F880F880F880F88597C
:103B00008F83A0DB1F5F809195011817A0F3809130
:103B1000960190919701803A910530F08CEA93E1FB
:103B200060E042E320E2CCDC809195018F3F89F494
:103B300081EB93E160E042E220E2C2DC0AC0F88D52
:103B4000FF3308F033CF2FCF288D213F08F45DCF0E
:103B500030CF81E06996E2E10C94262F53D50E9484
:103B60003A2B0E94E9308CE59BE1EBD982E59BE1A1
:103B700065E07EE147E55BE10E945D131092820102
:103B800080E090E0A0E8B2E4809383019093840108
:103B9000A0938501B093860180E090E0A8E5B2E4AF
:103BA0008093870190938801A0938901B0938A0143
:103BB00080E090E0A0E8BFEB80938B0190938C01B4
:103BC000A0938D01B0938E018DEC9CECACE8BFEB23
:103BD00080938F0190939001A0939101B0939201F3
:103BE00080EA90E061E070E00E94472F80939301AB
:103BF0009093940183E08093950110929701109225
:103C000096018AE3809398010895809193019091A1
:103C100094010E94FE2F809195018F3F11F49EDF49
:103C200005C089E997E161E00E94E70C81E0089511
:103C300082E08093A60181E0089581E08093A6014F
:103C40000895A4E1B0E0E7E2FEE10C940F2F80912B
:103C5000A601813041F48091A901833068F48F5F1F
:103C60008093A90109C0823039F48091A901882389
:103C700019F081508093A9011092A6019091A90199
:103C80009295907F8091AA01981720F4825080939A
:103C9000AA0105C0891718F48E5F8093AA0180914C
:103CA000A7018F3F09F401C109E911E00F2EFBE9DB
:103CB000EF2EF1E0FF2EF02D0F2EF2EACF2EF1E0E5
:103CC000DF2EF02D6894BB24B7F8D8018C91F70152
:103CD0009081891B982F995C963210F08C931AC0B2
:103CE000D801BC920E94E630F7013197837090783A
:103CF000992324F401978C6F9F6F01968295807FA2
:103D000080838091A4019091A50101969093A501D3
:103D10008093A4010D5F1F4FB3E0EB0EF11C0C1557
:103D20001D0599F60F2EFAE9EF2EF1E0FF2EF02D8A
:103D300089E991E0470100E0AE2CBF2CC12C27C0DF
:103D40000117D1F0D4013C912081321315C0DC0160
:103D50006C919F0121503109D901DC90D61660F495
:103D600070E02D2D30E0215F3F4F6217730724F480
:103D70002D2D205FDA012C931F5F3396133001F74E
:103D80000F5FB3E08B0E911C0396033029F0EA2DF0
:103D9000FB2D1C2DAC01D4CF8091A801811185C0D1
:103DA0000F2EF3EACF2EF1E0DF2EF02D0F2EFAEAE0
:103DB000AF2EF1E0BF2EF02D0F2EF8EA8F2EF1E09E
:103DC0009F2EF02D77247394F701319780818F30E7
:103DD00008F064C0F70180818E5FD5012C912E5FC1
:103DE000821748F0682F70E0422F50E0445F5F4F29
:103DF000461757076CF490E00C9630E08217930753
:103E00000CF44CC0245F3F4F281739070CF446C010
:103E1000F40170820E943A2B9093AC018093AB0125
:103E20008091A70181508093A7018F3F51F5809128
:103E3000A4019091A5012091A2013091A30128171E
:103E4000390778F47092AD019093A3018093A20199
:103E500082EA91E06EE770E042E050E00E941D339C
:103E600002C01092AD0180E06AEF4FEF0E949C16F5
:103E70008AEF6AEF472D272D00E010E00E94E31340
:103E80000DC080E06EE14FEF0E949C1684E66AEF61
:103E9000472D272D00E010E00E94E313F3E0EF0E22
:103EA000F11CEC14FD0409F08FCF0E943A2B8C0119
:103EB0008091A8018823E1F08091AB019091AC0141
:103EC0009801281B390BC901883E33E0930708F499
:103ED000F9C01092A8010CC08091AE01823021F48B
:103EE0008EEF8093AE0106C082E08093AE0102C0E7
:103EF0001092AE011F829091AE018091AA01890FAC
:103F000088872BEB33E13A8729878FE08B8780E125
:103F10008C871D861E86CE0107968FD98091A801B9
:103F2000882309F006FD8ED98091A7018F3F09F4FF
:103F300079C012E0812F90E0FC01EE0FFF1FE80F27
:103F4000F91FE756FE4F80818F839091AE018181EA
:103F5000890F888777D9115068F789ED93E19A879F
:103F6000898788E08B878C870DE011E00F2EF0E1C8
:103F7000EF2EF1E0FF2EF02D6894DD24D7F8F80144
:103F80008081982F9658973718F08650808301C00B
:103F9000D0820F5F1F4F80818F838091AE01805F41
:103FA000888750D98091AE01805E88874BD98091F7
:103FB000AE01805D888746D90E151F0501F78E0179
:103FC000015F1F4FEDB7FEB71283018381EE93E1CE
:103FD000948383838091A4019091A5019683858326
:103FE0000E941431C80160E04DE521E00ADA8DE35A
:103FF00093E19A87898787E08B8781E08887809122
:10400000A701882309F463C010E0812F880F880F6F
:10401000880F805E8F8316D91F5F8091A7011817C4
:10402000A0F355C084EE93E160E044E120E048DA7B
:104030008EEE93E160E044E120E142DA85EF93E126
:1040400060E044E120E23CDA8091AD01882331F068
:1040500080E094E160E044E120E332DA8E01015F28
:104060001F4FADB7BEB712961C930E93119780E108
:1040700094E114969C938E9313978091A401909150
:10408000A50116969C938E9315970E941431C80132
:1040900060E040E620E1B5D9EDB7FEB712830183B9
:1040A00083E194E1948383838091A2019091A301A1
:1040B000968385830E941431C80160E040E620E2C7
:1040C000A0D905C08E35914008F406CF11CF81E00C
:1040D0006496EDE00C942B2FCF9394D20E943A2B50
:1040E0000E94E93081E29EE10E94A1178DE19EE1EC
:1040F00068E17EE148EA50E20E945D1310929A0165
:1041000081E080939B0180E88093990190E19093F6
:104110009D0192E090939E0180939C0190E2909388
:10412000A001C3E0C093A10180939F0182EA91E0C6
:104130006EE770E042E050E00E9400331092A5016B
:104140001092A4011092A601C093A701CF910895E7
:104150008091A7018F3F11F4BFDF05C089E997E186
:1041600061E00E94E70C81E008955C9AE8E6F0E0E7
:10417000808184608083EDE6F0E0808188608083C8
:104180002E9A2F9A0895CF93DF930E943A2B909105
:10419000AF01282F291B2639A0F18093AF01C9B1A7
:1041A000C3FBCC27C0F9D9B1D295D17081E0D82713
:1041B0008091B001C81769F0C093B001CC2319F009
:1041C00082E790E002C086E690E061E041E00E9474
:1041D0008A0F8091B101D817A1F0D093B101D1110C
:1041E00010C0CC2371F088E590E061E041E00E94CE
:1041F0008A0F82EB91E069E076E047E050E00E94B0
:104200000431DF91CF9108959DEC899F812D112478
:1042100086958695869508959DEC899F912D11240C
:10422000969596959695990F292F220F220F920F0A
:10423000891B08959ADFE4E6F0E080818260808344
:10424000589A599A28DAA0D90E94010F0E944B0F60
:104250000E948F160E94C9130E9467120E94B31217
:104260000E94302B0E9421150E94652B0E94382C41
:104270000E940E0C0E945B17789488EC6DE741E079
:1042800021E000E010E00E94E31381E062E34FEFE1
:104290000E949C1689E292E10E9494170E9499174D
:1042A0000E94E12C0E94EB2B882321F00E947812BF
:1042B0000E94D6120E9463140E94CE160E94540ED1
:1042C00062DF0E94EB2B882321F00E942D0C0E94BC
:1042D000AC170E946D2BE4CF18958093BA016093C0
:1042E000BB014093B901E0910506F09106063097B5
:1042F00011F0862F099508955091F7054091F60524
:10430000242F30E0852F90E007962817390714F006
:10431000465003C0541708F4452F4093F7050895FD
:104320008DEF95E060E070E04AE050E00C940D31D4
:10433000E0910706F0910806309711F0099508956D
:1043400045C4A8E1B0E0E7EAF1E20C94162F8E0133
:104350000F5F1F4FC80160E270E048E150E00E942B
:104360000D31E090FA05F090FB05C7010E94FB308B
:10437000969587959801281B390BC9010996B701B5
:104380000E94F430C80160E040E020E03AD868962E
:10439000E6E00C94322FCF93DF93EC018091F90586
:1043A000882361F00E94010D882321F00E94040DF2
:1043B000882321F0209711F0FE010995DF91CF911C
:1043C00008950E94010D882321F00E94040D882386
:1043D00081F08091F905811105C081E08093F90594
:1043E000F5D307C0E091FF05F0910006309709F082
:1043F000099581E008958091010690910206CBDF36
:1044000081E008958091FD059091FE05C4DF81E073
:104410000895A8E0B0E0EFE0F2E20C94132F809151
:10442000FC0581112EC08DDFE090F7058091F80525
:10443000883008F087E0B82EBE0CEB1408F0D6C028
:10444000DE2CF12C06EF15E04D2D50E04E195F09E2
:104450004F5F5F4FC42ECC0CCC0CCC0CF80180818C
:10446000D81207C082E191E060E040E02C2D0E946C
:10447000011A82E06D2D4C2D30DFD394DB1420F334
:10448000B5C02091F60530ED3203C0011124805CE7
:104490009F4F2091EF01222309F44AC0209110017F
:1044A000309111012817390704F5AC01421B530B59
:1044B00012F44D5F5F4F55954795559547954F5F62
:1044C000413108F040E1240F311D281739073CF431
:1044D0003093110120931001CC24C39430C09093E9
:1044E000110180931001C12C2AC08217930734F563
:1044F000A901481B590B12F44D5F5F4F5595479525
:10450000559547954F5F413108F040E1241B310933
:10451000821793073CF43093110120931001CC24AF
:10452000C3940DC09093110180931001C12C07C05A
:104530009093110180931001C12C01C0C12C0091F6
:10454000100110911101FDDE8EE289838EE08A83D5
:1045500025E336E03C832B8384E28D8388E08E83E1
:104560001F821886CE0101960E941D190E942219F1
:104570008AE28A8329E536E03C832B830E94221954
:104580008091F8058823C1F0015F1F4FD12C0F2EB9
:10459000F8EFEF2EF5E0FF2EF02D0F39110528F47E
:1045A000402F4F5180E06D2D98DED394005D1F4F5A
:1045B000F7019081D91688F381E06091F60540E01B
:1045C0008CDEE0910306F09104063097B1F0C11043
:1045D00009C0099521E030E0811102C020E030E0FF
:1045E000C90102C081E090E0C82E07C0E091030637
:1045F000F0910406309769F7C12C8C2D2896E9E0DC
:104600000C942F2F8DDE1092F9051092080610924F
:1046100007060C9499172091070630910806261773
:10462000370719F0FC0132832183FC0180818093DC
:10463000F605709308066093070608954091F60505
:1046400050E02091F80530E02150310981E0421717
:10465000530709F080E00895CF93DF93EC01EEDF7C
:10466000811104C08091F605888307C01882898172
:104670009A819093080680930706DF91CF91089561
:104680001F93CF93DF93EC01162F8881C5DDE5EFF3
:10469000F5E09081990F292F220F220F920F980F8A
:1046A000988380831093F405DF91CF911F91089533
:1046B000FC0150813DEC539F312D112436953695E8
:1046C0003695330F532F550F550F350F5091F50574
:1046D000350F631708F4362FFC0130832093F5055E
:1046E0004093F405089561E00C94E70CA8E0B0E075
:1046F000ECE7F3E20C941A2F9091BB0198133DC0A4
:104700008091BA018130F1F028F0823011F18330CC
:10471000A1F527C08091B901898380E18A83411581
:10472000510511F44DE752E15C834B8380E28D83A8
:104730008E831F821886CE0101960E941D190E9449
:1047400022191BC0CB0160E040E028E30E94011A5F
:1047500014C0CB0160E046E02091B9010E94011A2B
:104760000CC02115310549F08091B901882319F059
:10477000C901B9DF02C0F90109952896E2E00C945D
:10478000362FA8E1B0E0E7ECF3E20C94152F7A01A4
:104790008901D090BB01D8120BC0CE0101960E94B6
:1047A000F4308D2DBE016F5F7F4FA70198019EDF12
:1047B0006896E7E00C94312F8091F805815066E10E
:1047C00074E14DE75FE028E931E2DBCF60E00C9473
:1047D000E70C0F931F93CF93DF93082F162FEA0157
:1047E0009FDD1092F7051092F6050F5F0093F80514
:1047F0001093FC05D093FB05C093FA05DF91CF9190
:104800001F910F9108959093FE058093FD0570937D
:1048100000066093FF055093020640930106309313
:104820000606209305060895E6EFF5E080818F5F88
:1048300080839091F805891710F01092F6055CCDF1
:10484000E6EFF5E08081815080839091F80589172B
:1048500018F091509093F6054FCD482F83E060916A
:10486000F6053BCDE1EFF1E0908181E0892780837F
:1048700008950E9494150E94781284E060E04BE154
:1048800054E1A7DF84E194E260E274E240ED54E297
:1048900023E534E2B8DF8CEB91E069E374E2BBDE40
:1048A00080E090E093CFA2E2B0E0E9E5F4E20C947E
:1048B000182F813071F120F0823009F061C042C0C0
:1048C000CE0181960E9499158AA1882314F020E0D8
:1048D00001C025E086FD2E5F8E01075F1F4FEDB7FB
:1048E000FEB7128301838DE394E19483838389A1CE
:1048F000992787FD909596838583278310860E944C
:10490000143180E0B80140E050E024E935E1EEDE0A
:1049100040C00E94A2128E01075F1F4FEDB7FEB785
:104920001283018324E534E13483238396838583D2
:104930000E94143181E0B80140E050E02DEC34E2F7
:10494000D5DE27C08091F101882311F029E501C04F
:104950002EE48E01075F1F4FEDB7FEB71283018370
:1049600084E694E194838383258316820E94143124
:1049700082E0B80140E050E022E334E2B7DE09C053
:1049800083E06BE274E140E050E020E030E0F9DEEB
:1049900013DFA296E4E00C94342F80E00C946A12AA
:1049A0008CEB91E059DE4ADE58CFEFEEF1E09081DA
:1049B00081E089278083089584E061E040E754E145
:1049C00008DF84E194E26EE475E240E254E222EF13
:1049D00034E219DF8FEB91E06CED74E21CDE80E0D5
:1049E00090E0F4CE4091F301429546954695437090
:1049F00080E8489FA00111244358544F80E06CE7A1
:104A000074E123E335E2BDDE81E067E874E14DEF58
:104A10005AE02BE235E2B5DE82E06EE874E14DE764
:104A200057E023E235E2ADDE4091EF0180E8489F98
:104A3000A00111244350564F83E065E974E125ED50
:104A400034E29FDEB9CEE0EFF1E0908181E089278A
:104A500080830C945317EEEEF1E0908181E089277A
:104A600080830C944D178091F301829586958695ED
:104A700083708F5F843008F080E0E3EFF1E0282F4F
:104A80002295220F220F207C90819F73922B90837E
:104A900095E5899F802D11240C944A17CF93CEDD84
:104AA000C82F81110E94310F8FEB91E0D5DD8C2F43
:104AB000D4DECF91089582E060E040EA54E189DEDF
:104AC00084E194E260E274E242E855E221E735E2F3
:104AD0009ADE82EC91E06BE575E29DDD80E090E08E
:104AE00075CE80E06AEA74E140E050E02EEA3DE1F4
:104AF00048DE81E063EB74E140E050E02CE630E218
:104B000040DE5ACE82EC91E0A7DD81E0A6CE89E0BE
:104B100092E20E94A11782E092E261EE71E24BEF15
:104B200051E20E945D1386E061E04DEB54E151DEFD
:104B300084E194E261EE75E240E254E229EA35E272
:104B400062DE85EC91E067E875E265DD80E090E08B
:104B50003DCE80E06BEC74E14DEF51E12DE336E2A8
:104B600010DE81E062ED74E14DEF50E121EF3EE0B7
:104B700008DE82E06DED74E14DE751E120E43EE0B6
:104B800000DE83E067EE74E14DE75DE02BE535E2A2
:104B9000F8DD84E06DEE74E14DE750E12EEE37E292
:104BA000F0DD85E066EF74E14DEF5FE029E334E28C
:104BB000E8DD86E062E075E14DE75FE022E033E2A8
:104BC000E0CD85EC91E048DD81E047CE80E090E0EB
:104BD00061EE71E240E050E00E945D1387E895E2EB
:104BE00082CD8091CB018C3020F4845F8093CB0107
:104BF00008958C508093CB0108958091F405833003
:104C000041F018F4823069F406C0843061F08530D8
:104C100041F489E008958091F201811106C082E09B
:104C2000089581E0089585E0089581E00895CF9387
:104C30008091F405863059F0E5EFF5E0C081CF5F53
:104C4000C083DBDF8C1720F41092F50501C0C9DFAB
:104C5000CF910895CF938091F405863059F0E5EF18
:104C6000F5E0C081C150C083C8DF8C1720F4809369
:104C7000F50501C0B6DFCF9108958AE060E047E016
:104C800055E1A7DD84E194E260E274E249EE57E287
:104C900023E536E2B8DD88EC91E06DE376E2BBDC3B
:104CA00080E090E093CDAFE1B0E0E9E5F6E20C946E
:104CB000192F182F8A3008F05DC08091F4058823E1
:104CC00021F08091F605811739F0812FBE01645ED5
:104CD0007F4F0E94AB0B08C0CE014C966BEC71E08D
:104CE00043E050E00E9404318C8D8F8FCE014F96AF
:104CF00051D69E01245F3F4FEDB7FEB7328321832B
:104D000022E135E1348323839F8D958316829D8D27
:104D100097831086818712860E9414318E8D882396
:104D200014F480E801C08EE28B871B8E6E8D70E0DC
:104D3000DE01549620E030E0AB01022E02C0559512
:104D400047950A94E2F740FF05C0F901E057FC4E91
:104D5000E49101C0EDE2ED932F5F3F4F2730310525
:104D600059F7812FBE01655F7F4F40E050E02FEB88
:104D700036E2BCDC21DD6F96E3E00C94352FCF9357
:104D80008AE296E267E176E249EE57E223E536E20F
:104D90003ADD82E897E290930406809303064091FF
:104DA000F405E42FF0E0EE30F10508F0A9C0EC5C6A
:104DB000FF4F0C94412F8091F6056BEC71E00E943F
:104DC000AB0B81E08093F4058091CD0187FB8827B0
:104DD00080F98093F50594C091E08091F5058111EB
:104DE00001C090E0EDECF1E0808190FB87F98083D9
:104DF00082E08093F4058091CB0106DA8093F5057B
:104E00007FC08BEC91E063E03BDC7AC08091F201E3
:104E1000811102C0C7E101C0CCE08091CC01F4D97E
:104E2000282F8BEC91E06C2F44E042DC69C08CECC5
:104E300091E065E025DC64C08091F201811102C03F
:104E400047E001C046E02091CD0121708CEC91E05B
:104E50006BE32EDC1092CE0153C087E08093F40503
:104E60004FC08091F505882379F0EDECF1E081E009
:104E700090E00090CE0102C0880F991F0A94E2F7DB
:104E80009081892B80830FC0EDECF1E081E090E010
:104E90000090CE0102C0880F991F0A94E2F7809516
:104EA0009081892380838091CE018F5F8093CE0192
:104EB0002091CD0130E0B90102C0759567958A95C2
:104EC000E2F7CB0181708093F5054D3021F04F5F03
:104ED0004093F40515C08091F6056BEC71E00E94DB
:104EE0001D0C1092F40584E194E260E274E249EE54
:104EF00057E223E536E287DC10920406109203069F
:104F0000CF910895A3E0B0E0E7E8F7E291C71A82F5
:104F1000E091F405E63030F4E230A0F4E13009F03D
:104F200054C006C0E630E9F0EE3008F04EC022C0B2
:104F30008091F505882311F080E801C08EE2898315
:104F400017E02AC08E2F8F5F182F110F110F110F2E
:104F5000181BE43008F0195F8091F505805D8983A6
:104F60001BC08091CB018B83CE01039613D589831F
:104F700018E312C0E7501E2F110F110F110F1E1B47
:104F80001A5B8091F505882329F0F0E0E057FC4E8C
:104F9000E49101C0EDE2E9832091F60530E08091D3
:104FA000F705281B31092F5F3F4F022F000F000F1D
:104FB000000F812F602F45E00E94901ACE010196CC
:104FC00061E0412F202F0E94011A80E02396E4E047
:104FD0004BC788EC91E040DB31DB3FCC84E061E003
:104FE00044E255E1F6DB84E194E265E278E240E2F6
:104FF00054E224E038E207DC8FEC91E06EEE77E2D9
:105000000ADB80E090E0E2CB80E061E375E14DEF08
:105010005EE020E539E2B5DB81E06DE375E14DE767
:105020005EE023E338E2ADDB82E063E475E14DEF5F
:105030005DE026EC38E2A5DB83E069E475E14DEF45
:1050400056E02CED34E29DDBB7CB8FEC91E004DB36
:1050500081E003CC8091ED018F5F8D3008F080E01E
:105060008093ED01089581E061E041E555E1B1DB18
:1050700084E194E264E878E240E254E22BE738E22B
:10508000C2DB8FE498E2909304068093030682EDDE
:1050900091E063E378E2BFDA80E090E097CBAAE0AA
:1050A000B0E0E4E5F8E2C4C68091F60581111FC0C6
:1050B0008E01095F1F4FEDB7FEB7128301838BE5A9
:1050C00095E1948383838091ED0190E09C01220F10
:1050D000331F220F331F820F931F968385830E94F5
:1050E0001431C80160E048E328E20E94011A80E020
:1050F0002A96E4E0B9C680E061E675E14DE756E046
:105100002AE238E23EDB58CBCF9398DAC82F8111E0
:105110000E94310F82ED91E09FDA8C2F9EDBCF91C0
:1051200008958091F30183708F5F843008F080E0F0
:10513000E3EFF1E0837090819C7F892B8083089559
:105140008091F3018695869583708F5F843008F097
:1051500080E0E3EFF1E08370880F880F9081937F08
:10516000892B808308958091F30182958F708370DD
:105170008F5F843008F080E0E3EFF1E08370829588
:10518000807F90819F7C892B8083089583E061E0FC
:1051900049E655E11EDB84E194E262E179E240E216
:1051A00054E22CED38E22FDB85ED91E066EC78E2FD
:1051B00032DA80E090E00ACBCF93DF93C3EFD1E007
:1051C0004881437080E8489FA00111244350584F04
:1051D00080E063E775E121E938E2D3DA488146955A
:1051E0004695437080E8489FA00111244350584FD2
:1051F00081E066E775E120EA38E2C3DA488142954A
:105200004F70437080E8489FA00111244350584FCD
:1052100082E06DE775E123EB38E2B3DACDDADF91B6
:10522000CF910895CF930ADAC82F81110E94310FD0
:1052300085ED91E011DA8C2F10DBCF9108958091EC
:10524000F405833089F018F4813061F405C08530AD
:1052500029F0873039F404C082E0089583E008958E
:105260008BE0089589E0089585E00895CF93E5EFF8
:10527000F5E0C081CF5FC083E2DF8C1710F410929D
:10528000F505CF910895CF93E5EFF5E0C081C150CA
:10529000C083D5DF8C1710F48093F505CF91089566
:1052A00088ED91E069E076E047E050E0ADD786E038
:1052B00060E048E855E18DDA85E29BE26AE17BE255
:1052C00045E15BE220E739E29EDA8FED91E060E5AF
:1052D00079E2A1D981E08093F60580E090E076CA7A
:1052E000A5E2B0E0E5E7F9E29FC56E0182E2C80EF3
:1052F000D11C6091DD0170E0660F771F660F771F8C
:105300006C5B7C4EC60170D78E01035F1F4FEDB7FB
:10531000FEB71283018382EA95E1948383830F2E83
:10532000F3E1EF2EF1E0FF2EF02DF682E582809181
:10533000DC0187831086D286C1868091DE01838757
:10534000148672D781E0B80140E050E028E13AE2EB
:10535000CDD9EDB7FEB71283018388EB95E1948335
:105360008383F682E5828091DA01878310868091BB
:10537000D9018187128658D783E0B80140E050E018
:105380002FEC39E2B3D985E068E975E140E050E0FF
:1053900022E13BE2F6D910DAA596E8E061C583E4A4
:1053A00099E266E379E245E15BE220E739E22BDA54
:1053B00084EE9AE290930406809303068091F405AC
:1053C000813081F028F0823089F08330E9F418C010
:1053D00081E08093F4058091DA010E94042180939A
:1053E000F50508958AED91E062E04AC98091D901FE
:1053F0000E940421282F8AED91E067E143E058C91B
:1054000089ED91E064E03CC989ED91E06BE340E017
:1054100020E04ED985E29BE26AE17BE245E15BE276
:1054200020E739E2F0D9109204061092030608959D
:1054300083E499E266E379E245E15BE220E739E261
:10544000E2D981E99AE29093040680930306809161
:10545000F4058630D9F030F4882351F0853009F016
:105460003FC010C0873009F1883009F039C034C01E
:1054700085E08093F4058091DC010E9404218093F3
:10548000F50508958CED91E066E0FAC88CED91E0A9
:105490006FE147E02091DD010BD98091DC018111A2
:1054A0003FC081E08093DC0108958091F5058093F1
:1054B000DD016091DE015BD29091DC01891710F46F
:1054C0008093DC0188E08093F4058091DE010E94E6
:1054D00004218093F50508958EED91E069E0D0C830
:1054E0008EED91E063E640E020E0E2D88091DE01BD
:1054F00090E06091DD016F5F8053984F4091DC0137
:1055000003D28093DB0185E29BE26AE17BE245E125
:105510005BE220E739E277D9109204061092030685
:105520000895AAE0B0E0E6E9FAE283C48091F405C8
:10553000873079F030F4853049F0863009F040C08A
:1055400011C0883049F08930D9F509C045E01CE127
:105550000BC041E111E308C045E01BE505C045E093
:1055600012E602C045E013E2812F60E10E94901A2A
:105570008091F405873089F09E01295F3F4FEDB798
:10558000FEB7328321832DE935E134832383809173
:10559000F5058583168248D60CC06091F50570E04C
:1055A000660F771F660F771F6C5B7C4ECE010796E8
:1055B0001BD6CE01079661E0412F20E10E94011A1F
:1055C00080E02A96E3E051C4A2E0B0E0E9EEFAE21E
:1055D00030C48091F405823079F018F48130F1F410
:1055E00005C0833029F08430C9F404C011E305C03C
:1055F00016E403C01DE401C018E3812F60E245E01A
:105600000E94901A8091F505805D89831A82CE01EF
:10561000019661E0412F20E20E94011A80E022966B
:10562000E3E023C488ED91E02BC18FED91E014D825
:1056300005D813C905D98091F605882321F0823059
:1056400011F0843009F4FCC80895EED88091F60575
:10565000882321F0823011F0843009F4E5C80895E0
:1056600083E08093B10082E0809370008AEF8093A2
:10567000B3000895E0E7F0E080818D7F8083209182
:10568000E2013091E301808182608083822F932F39
:1056900008951F920F920FB60F9211248F939F932C
:1056A0008091B30086508093B3008091E201909185
:1056B000E30101969093E3018093E2019F918F9122
:1056C0000F900FBE0F901F9018951092E40110924A
:1056D000E50183B7817F83BF0895CF9385E0C0E064
:1056E00021E0E82FF0E0EA51FE4F9081923009F47A
:1056F0006AC0913009F4C22F815098F70E946A1352
:10570000C11103C0811159C014C09091E4019130BE
:1057100041F4882331F081E00E94F8181092E401EE
:1057200052C083B7816083BF889583B78E7F83BF64
:105730004AC08091E401811107C081E08093E401B7
:1057400080E00E94F8183FC0813009F03CC0809191
:10575000E501811106C081E08093E50180E00E94AF
:10576000441782E08093E40183B7817F846083BF24
:105770003CD0F89483B7816083BF85B7806685BFCE
:105780008F7D85BF7894889583B78E7F83BF109275
:10579000E4015BD0813069F01092E5010E9497131B
:1057A00081E00E94F81881E00E94441783E00E9483
:1057B0006A1283B7817F83BF06C08091E401813084
:1057C00009F0AFCFA8CFCF910895E82FF0E0EA51CC
:1057D000FE4F6083089581E09091E501911180E092
:1057E000089589E096E00C944315A3E0B0E0EAEF59
:1057F000FBE220C380E00E940515CE0101960E94C5
:10580000100C882349F00E941A0C8F5F8B83CE0105
:1058100001960E94B91504C080E090E00E94B9157D
:105820008091F301807341F01A8219821B82CE01AC
:1058300001960E94071604C080E090E00E940716BF
:105840001092EC012396E2E011C3CF93CADF81E00E
:105850000E9405150E949F15C82F0E94EC15CC23AD
:1058600029F0882311F083E001C082E0CF910895F0
:105870005A9AE9E6F0E0808182608083E89AE5CF79
:10588000CF93DF93EC01188289E096E0BE0147E0F8
:1058900050E0BAD4CE010E946B150E94A40CDF9197
:1058A000CF910895482F50E04053584FCA0183705C
:1058B0009927892B11F59A01AFEAB7E456D2281B34
:1058C000390B36952795820F931F929582958F708D
:1058D00089279F70892769E1689F9001699F300D32
:1058E00011244217530761F44F70552781E090E06F
:1058F000452B41F080E090E005C080E090E002C0E0
:1059000081E090E081700895CF93C62FE1E0F0E050
:10591000633010F0E0E0F0E09C012E1B3F0BC9016A
:105920000AF40396FC01F595E795F595E795E20FE6
:10593000F31FC90164E670E038D2E61BF70BC9011A
:1059400060E971E032D2CF01860F971FEC2FF0E0B3
:10595000ED5EFE4F2081820F911D840F911D67E047
:1059600070E023D2815008F486E0CF910895CF9360
:10597000E82FF0E0E753FA4EC491813031F4862FDE
:1059800091DF811104C08C2F03C08C2F01C08DE1E9
:10599000CF9108952091F201222379F0FC0120811A
:1059A0002C3020F02C50208380E50895211107C071
:1059B0002CE0FC01208381E4089580E2089581E4D5
:1059C00008958091EC01882389F01092EC0109DFA1
:1059D0008091090681110AC080910A06811106C0D2
:1059E00080E590E063E042E00C948A0F08951F92F6
:1059F0000F920FB60F9211248F9381E08093EC01E8
:105A00008F910F900FBE0F901F9018955058BB2785
:105A1000AA270ED048C139D130F03ED120F031F460
:105A20009F3F11F41EF42EC10EF4E095E7FB24C154
:105A3000E92F4AD180F3BA176207730784079507E5
:105A400018F071F49EF562C10EF4E0950B2EBA2F9A
:105A5000A02D0B01B90190010C01CA01A001112474
:105A6000FF27591B99F0593F50F4503E68F11A1620
:105A7000F040A22F232F342F4427585FF3CF4695B1
:105A800037952795A795F0405395C9F77EF41F16D3
:105A9000BA0B620B730B840BBAF09150A1F0FF0F9D
:105AA000BB1F661F771F881FC2F70EC0BA0F621F89
:105AB000731F841F48F4879577956795B795F79579
:105AC0009E3F08F0B3CF9395880F08F09927EE0F0B
:105AD0009795879508950CD0E6C0DED040F0D5D0DC
