:100000000C94330C0C94432F0C94590C0C94590CF5
:100010000C94DA220C94DA220C94590C0C945B0C9C
:100020000C94590C0C94590C0C94590C0C94590CBC
:100030000C94590C0C94D3150C94590C0C94590C29
:100040000C94590C0C94590C0C94590C0C94590C9C
:100050000C94590C0C94590C0C94590C0C94590C8C
:100060000C94590C0C94590C2530326868753A255B
:100070003032686875256300257320253032686842
:1000800075202573203230253032686875008D1454
:100090002000AF25750000F8F8F8F80000C3C3C3CE
:1000A000C300001F1F1F1F00FEFFFF0F0707070FE2
:1000B000FFFFFE7FFFFFF0E0E0E0F0FFFF7F0000CA
:1000C000181C1EFFFFFF0000000000000000FFFFE3
:1000D000FF0000001E1F1F070787C7E7FF7F3EF0D6
:1000E000F8FCFEEFE7E3E1E0E0E00E0F0F07078723
:1000F000C7EFFF7F3E70F0F0E0E0E1E3F7FFFE7C4A
:10010000C0E0F0783C1EFFFFFF00001F1F1F1C1CFB
:100110001CFFFFFF1C1CFFFFFFC7C7C7C7C7C78760
:100120000771F1F1E1E1E1E1F3FF7F3FFEFFFF8FB6
:10013000878787878F8F0E7FFFFFE3E3E3E3E3FF8C
:10014000FF7F0F0F0F07070787C7FFFF7FE0F078DC
:100150003C1E0F07030100007EFFFFC7878787C78C
:10016000FFFF7E7EFFFFE3E1E1E1E3FFFF7EFEFFB5
:10017000FFC7C7C7C7C7FFFFFE78F9F9E1E1E1E1B3
:10018000E1FFFF7FFEFFFFFFFF0F0F0F0F0F0F0FAE
:100190000F0FFFFFFFFFFEFFFFFFFFFF000000004C
:1001A0000000000000FFFFFFFFFF7FFFFFFFFFF0E9
:1001B000F0F0F0F0F0F0F0F0FFFFFFFF7F00000044
:1001C000000000203CFFFFFFFFFF000000000000D8
:1001D0000000000000000000FFFFFFFFFF00000024
:1001E0000000000000000000000000FFFFFFFFFF14
:1001F00000000000000000FEFFFFFFFF0F0F0F0FC9
:100200000F0F0F0FFFFFFFFFFE0000000000008038
:10021000C0E0F0F8FC7E3F1F0F070301E0F0F8FCA0
:10022000FEFFFFFFF7F3F1F0F0F0F0F0F0F0F0FE7A
:10023000FFFFFFFF0F0F0F0F0F0F0F0F0FFFFFFF3E
:10024000FFFE00000000000000081C1C3E3E7E7FF8
:10025000F7F7F7E3E37FFFFFFFFFF0F0F0F0F0F0D8
:10026000F0F0F0FFFFFFFF7F000000000080E0F0F3
:10027000FCFF7F1F0F03010000000080C0F0FCFEA8
:10028000FF3F0F0301000000FFFFFFFF00000F0F03
:100290000F0F0F0F0F0F0F0F0F0F0FFFFFFFFF0FAE
:1002A0000FFFFFFFFFFF0F0F0F0F0F0F0F0F0F0FAE
:1002B0000F0F0F0F1F1F1F1F1F1E1E1E1E1E1E1E95
:1002C0001E1EFEFEFEFEFC7FFFFFFFFFF0F0F0F0C3
:1002D000F0F0F0F0F0FFFFFFFF7FFEFFFFFFFF0FEA
:1002E0000F0F0F0F0F0F0F0F7F7F7F7F7EFFFFFF1F
:1002F000FFFF3C3C3C3C3C3C3C3C3CFCFCFCFCF8FC
:100300007FFFFFFFFFF0F0F0F0F0F0F0F0F0FFFF04
:10031000FFFF7F7F7F7F7F7F0F0F0F0F0F0F0F0F6D
:10032000CFFFFFFFFF1F0000000000000000008063
:10033000F0FCFFFF3F0F030000000000000080E022
:10034000F8FEFFFF1F07010000000000FEFFFFFF97
:10035000FF0F0F0F0F0F0F0F0F0FFFFFFFFFFEC35A
:10036000E7E7F7FF7E3E3E3C1C3C3E3E7EFFF7E764
:10037000E7C37FFFFFFFFFF0F0F0F0F0F0F0F0F0E8
:10038000FFFFFFFF7FFEFFFFFFFF0F0F0F0F0F0F9E
:100390000F0F0FFFFFFFFFFE1F3F3F3F3F3C3C3C67
:1003A0003C3C3C3C3C3CFFFFFFFFFF7EFEFEFEFE74
:1003B000F0F0F0F0F0F0F0F0F0FFFFFFFF7F000052
:1003C000000000005F0000000007000700147F1419
:1003D0007F14242A7F2A1223130864623649552287
:1003E0005000050300001C2241000041221C0000B7
:1003F000082A1C2A0808083E0808A0600000000817
:1004000008080808606000000020100804023E513F
:1004100049453E00427F40006251494946224149D8
:1004200049361814127F1027454545393C4A494939
:100430003001710905033649494936064949291EE3
:10044000003636000000AC6C000008142241001495
:1004500014141414412214080002015109063249EF
:1004600079413E7E0909097E7F494949363E41412D
:1004700041227F4141221C7F494949417F090909A5
:10048000013E414151727F0808087F417F410000D1
:100490002040413F017F081422417F404040407F7F
:1004A000020C027F7F0408107F3E4141413E7F09DC
:1004B0000909063E4151215E7F091929462649490D
:1004C000493201017F01013F4040403F1F20402051
:1004D0001F3F4038403F631408146303047804034B
:1004E00061514945437F4141000002040810204109
:1004F000417F0000040201020480808080800102AC
:1005000004000020545454787F484444383844440C
:100510002800384444487F3854545418087E09024F
:100520000018A4A4A47C7F08040478007D000000C7
:1005300080847D00007F10284400417F4000007CC3
:10054000041804787C08047C003844443800FC24F7
:10055000241800182424FC00007C0804004854548B
:100560002400047F4400003C40407C001C204020CC
:100570001C3C4030403C44281028441CA0A07C0077
:100580004464544C440836410000007F00000041A0
:10059000360800000201010201020505020060C0E8
:1005A000F0381C02015109060201510906020151ED
:1005B0000906020151090602015109060201510909
:1005C00006020151090602015109060201510906FC
:1005D00002015109060201510906020151090602F0
:1005E00001510906020151090602015109060201E1
:1005F0005109060201510906020151090602015181
:1006000009060201510906020151090602015109B8
:1006100006020151090602015109060201510906AB
:10062000020151090602015109060201510906029F
:100630000151090602015109060201510906020190
:100640005109060201510906020151090602015130
:100650000906020151090602015109060201510968
:10066000060201510906020151090602015109065B
:10067000020151090602015109060201510906024F
:100680000151090602015109060201510906020140
:1006900051090602015109060201510906020151E0
:1006A0000906020151090602015109060201510918
:1006B000060201510906020151090602015109060B
:1006C00002015109060201510906020151090602FF
:1006D00001510906020151090602015109067E1164
:1006E00011117E7F494949337F494949367F0101CC
:1006F0000103E0514F41FF7F4949494177087F0895
:100700007741494949367F1008047F7C2112097CD2
:100710007F0814224120413F017F7F020C027F7F2E
:100720000808087F3E4141413E7F0101017F7F096A
:100730000909063E4141412201017F01014728107C
:1007400008071C227F221C63140814637F4040406A
:10075000FF070808087F7F407F407F7F407F40FF82
:10076000017F4848307F4830007F007F4848302272
:100770004149493E7F083E413E462919097F2054A0
:100780005454783C4A4A49317C545428007C04042F
:10079000040CE0544C44FC38545454186C107C1035
:1007A0006C44445454287C2010087C7C4122117CE9
:1007B0007C1028440020443C047C7C0810087C7C8D
:1007C0001010107C38444444387C0404047C7C14AD
:1007D000141408384444442004047C04040C50508D
:1007E000503C3048FC483044281028447C4040406D
:1007F000FC0C1010107C7C407C407C7C407C40FCDD
:10080000047C5050207C5050207C7C50502000288C
:10081000445454387C10384438085434147C001044
:10082000189C72301000FF81BDBDBDBDBDBDBDBDFA
:10083000BDBDBD81FF3CFF81BDBDBDBDBDBDBDBD5D
:1008400081818181FF3CFF81BDBDBDBD81818181F1
:1008500081818181FF3CFF81BD8181818181818195
:1008600081818181FF3C10387C3810101814345677
:1008700056D0D01038101C060301010101010101FE
:100880000101010101010101010101010101010158
:100890000101010101010103061C3860C080808054
:1008A0008080808080808080808080808080808048
:1008B0008080808080808080808080C06038000060
:1008C000000000000000C0E03030181808CCCC0850
:1008D00018183030E0C000000000000000000000E8
:1008E0000000000018FFC30000000000000F1F30D0
:1008F00060C080000083FF180000000000000000BE
:1009000000000000000003070C0C1810103030101D
:1009100010180D0C0703000000000000000000008C
:1009200000000000000000000000000000000000C7
:100930000000000000000000000000000000008037
:10094000C0C0C0C0C0C0C0C0C0C0C0C0C0C0C0C0A7
:10095000C0C0C0C0C0C0C0C0C0C0C0C0800000FF18
:10096000FF007E1E0E0602020000000000000000D4
:100970000000000000000000000000FFFF0000FF7A
:10098000FF00000000000000000000000000000068
:100990000000000000006060606000FFFF000001D8
:1009A0000303030303030303030303030303030317
:1009B0000303030303030303030303030100000012
:1009C00000000080C0E0F0F0F878783C3C3C3C3C13
:1009D0003C7878F8F0F0E0C00000000000000C1C4B
:1009E0007CFCFEFFFFFF7F3C0C00000000000000CD
:1009F00000000000000101C0C0C0000000000000B5
:100A000000000303038080000000000000000000DD
:100A1000000000303CFEFFFFFF7F3F3E3C30000007
:100A20000000000003070F0F1F1E1E3C3C3C3C3C17
:100A30003C1E1E1F0F0F07030100000000000000F6
:100A400000000000000000000000000000000000A6
:100A50000000000000000000000000000000000096
:100A60000000000000000000000000000000000086
:100A70000000000000000000000000000000000076
:100A80000000000000000000000000000000000066
:100A90000000000000000000000000000000000056
:100AA000000000000000000000001E3F313D3D310D
:100AB0003F1E0000000000000000000000000000D9
:100AC0000000000000000000000000000000000026
:100AD0000000000000000000000000000000000016
:100AE0000000000000000000000000000000000006
:100AF00000000000000000000000000000000000F6
:100B00000000000000003C7E627A3A3A3A3A3A3AF3
:100B10003A3A7A627E3C00000000000000000000CB
:100B2000000000000000000000001E3F313D3D318C
:100B30003F1E000000000000000000000000000058
:100B400000000000000000000000000000000000A5
:100B50000000000000000000000000000000000095
:100B6000000078FCC4F474747474747474747474D1
:100B7000747474747474F4C4FC7800000000000091
:100B80000000000000003C7E627A3A3A3A3A3A3A73
:100B90003A3A7A627E3C000000000000000000004B
:100BA000000000000000000000001E3F313D3D310C
:100BB0003F1E00000000000000000000000000F0E8
:100BC000F888E8E8E8E8E8E8E8E8E8E8E8E8E8E8F5
:100BD000E8E8E8E8E8E8E8E8E8E888F8F000000095
:100BE000010178FCC4F4747474747474747474744F
:100BF000747474747474F4C4FC780101000000000F
:100C00000000000000003C7E627A3A3A3A3A3A3AF2
:100C10003A3A7A627E3C00000000000000000000CA
:100C2000000000000000000000001E3F313D3D318B
:100C30003F1E000000000000000000000000000057
:100C400080E0F0F8F8FCFC7C7C3CBC9EDEDEDEDE66
:100C5000DEFEBC3CF8F8F0F0E0C00000000000E070
:100C6000FFFFFF7F7F7D0030F8F8F1F1E3C3E7FF7E
:100C7000FF7F7F7F7F7F03031FFFFFFEF0000007E2
:100C80003FFFFFF8E0C0E0F0F97F3F1F0F0FF3FDDB
:100C9000FC786001071F9FDFFFFFFFFFFF000000E0
:100CA00000000103070F1F1F3C3C3C7878787F7FD2
:100CB0007F7F7F7E7E7F7F7F3F1F0F0703000000C7
:100CC00080E0F0F8383C3C7C7C389890C0C0C0C0D4
:100CD000C0C0800000000000000000000000000014
:100CE000071F3F7C7C7C0030F8F8F1F1E3C3870FED
:100CF0001F3F7F7F7E7C000000000000000000009E
:100D000000000000000000000103070F0F0FF3FDBB
:100D1000FC786001071F1FDFFFFEFCF8F0000000F9
:100D20000000000000000000000000000000070FAD
:100D30001F3F7F7E7E7C7C7F3F1F0F070300FFFFEE
:100D4000FFFFFFEFCF8F0F0F0F0F0F0F0F0F0F0FC3
:100D50000F0F0F0F0F0F0F0F0F0FFFFFFFFFFFFF03
:100D6000FFFFFFFFFFFFFFFE040C1C3C7CFCFCFCB4
:100D7000FCFCFCFC000000000000FFFFFFFFFFFF89
:100D8000FFFFFFFFFFFFFFFFC0C0C0C0C0C0C1C367
:100D9000C7CFDFFFC08000000000FFFFFFFFFFFFA5
:100DA000FFFFFFFFFFFFFFFFFFFFFFFFFFFFFFFF53
:100DB000FFFFFFFFFFFFFFFEFCF8FFFFFFFF00004C
:100DC0000000000000000000000000000000000023
:100DD0000000000000000000000000000000000013
:100DE0000000000000000000C0F0F8381C1C1C1CB3
:100DF00038F8F0C000000000000000000000000013
:100E00000000000000000000030F1F1C38383838B5
:100E10001C1F0F0300000000000000000000000085
:100E200000000000000000000000000000000000C2
:100E300000000000000000000000000000000000B2
:100E400000000000000000000000000000FEFE00A6
:100E50000000000000000000000000000000000092
:100E60000000000000000000C0F0F8381C1C1C1C32
:100E700038F8F0C000000000000000000000000092
:100E8000000000000080C0C0030F1F1C3838383835
:100E90001C1F0F03C0C08000000000000000000005
:100EA0000000000607030100000000000000000031
:100EB0000000000000010307060000000000000021
:100EC00000000060E0C080000000000000000000A2
:100ED000000000000080C0E0600000000000000092
:100EE0000000000000010303C0F0F8381C1C1C1CAB
:100EF00038F8F0C00303010000000000000000000B
:100F0000000000000080C0C0030F1F1C38383838B4
:100F10001C1F0F03C0C08000000000000000000084
:100F200000000006070301000000000000000000B0
:100F300000000000000103070600000000000000A0
:100F400000000060E0C080000000000000FEFE0025
:100F5000000000000080C0E0600000000000008091
:100F60008080808080810303C0F0F8381C1C1C1C2A
:100F700038F8F0C003038180808080808000000109
:100F8000010101010181C0C0030F1F1C383838382E
:100F90001C1F0F03C0C081010101010101000000FD
:100FA000000000060703010000000000007F7F0032
:100FB0000000000000010307060000000000000020
:100FC00000008080808080000000000000000000A1
:100FD000000000000080808080800000000000E0B1
:100FE000F89C9F07079F9FFCFCFCFCFCFCFCFCFCA6
:100FF000FCFCFCFCFC9F9F67679F9CF8E000F8FFEF
:10100000FFFFFFFE7E3F1F312424311F0F0F0F0F04
:101010001F312424311F3F7EFEFFFFFFFFF8000138
:1010200001010100000000000000000000000000BD
:1010300000000000000000000001010101000000AC
:10104000000000000000000000000080C0E0E000A0
:1010500000000080000070E0C0800000000000F090
:10106000F8F8F8F8F8F8F8F8FCFEFFFFFFFFFF00CB
:10107000003CF8C1071FFCF0031FFEF00000000F4A
:101080001F1F1F1F1F1F1F1F3F7FFFFFFFFFFF00AF
:10109000003C1F83E0F83F0FC0F87F0F0000000006
:1010A000000000000000000000000001030707002E
:1010B0000000000100000E07030100000000000016
:1010C0000000000000000000000000000000000020
:1010D0000000000000000484E4741C0C0000000008
:1010E0000000000000000000000000000383C3F3C4
:1010F0003B1F07030000030302020202000000007E
:10110000070787C7E7F77F3F1F0F0000060707069F
:101110000606060600000000000000000000003C7B
:101120003E3F3F3B39383838383800000000000077
:10113000000000000000000000000000000000802F
:10114000C0C00000F8F8C00000F8F8C0C00000F807
:10115000F8C0C0C080000000000000000000FFFFD9
:10116000FF3F3E3F3F3FBFBFBE3FBFBFBFBEBEFF13
:10117000FFFF7F7F3FB8307070F0E0C08000FFFF5E
:10118000FF806C6C6C006D6D6D006D6D6DFFFFF719
:10119000890002061C7800000008C3FFFF3E000122
:1011A000030303030303030303030303030303030F
:1011B000070F0E0E0E0F0E0E0E0707030100008024
:1011C000C0C0C0C0C0C0C0C0C0C0C0C0C0C0C0C01F
:1011D000C0C0C0800000000000000000000000FF50
:1011E000FF010000000000000000000000008080FF
:1011F00080818F8F80808C9CB8F0E0C0800000FFE1
:10120000FF8000000000000000000000000001015D
:101210000181F1F1010131391D0F070301000001C6
:10122000030303030303030303030303030303038E
:1012300003030301000000000000000000000000A4
:101240000000000000000000C0F8F00000000000F6
:10125000000000000000000000000000000000800E
:10126000808080808080C0FC3F013FFE80000000C5
:10127000000000000000000000000000000000016D
:10128000010101010101010100000007FFE080F8F8
:101290003C0C0C0C0C0C0C0C0C0C0C0C0C00000082
:1012A000000000000000000000000000010F0F031C
:1012B000000000000000000000000000000000002E
:1012C000000040E0F0E0E0C080C0C0E0FEFEFEFEB6
:1012D000E0C0C080C0E0E0F0E0400000000000C0DE
:1012E000C0C0C0E1FBFF1F07E3F1F97C3C1C1C3CC4
:1012F0007CF9F1E3071FFFFBE1C0C0C0C0000003A1
:1013000003030387DFFFF8E0C78F9F3E3C38383C7C
:101310003E9F8FC7E0F8FFDF870303030300000051
:10132000000002070F070703010303077F7F7F7F8A
:10133000070303010307070F070200000000000076
:10134000000000000000000000000000000000009D
:101350000000000000000000000000000000C0E0ED
:10136000F0F0F0F0F0F0F0F0F0F0F0F0F0F0F0F07D
:10137000F0F8F8FCFCFCFCFCFC00B090988803073B
:101380000F0F0F0F0F0F0F0F0F0F0F0F0F0F0F0F6D
:101390000F1F1F3F3F3F3F3F3F000D091911000046
:1013A000000000000000000000000000000000003D
:1013B000000000000000000000000000000000002D
:1013C00060F0F8F8F0E06060B030181818F8D8183D
:1013D000181830B06060E0F0F8F8F060000000002D
:1013E000F07C0F13010000000000000000FFFF0070
:1013F0000000000000000001130F7CF00000000757
:101400007FF2824000000000000000000003070E91
:101410001C3870E0C08000004082F27F07000000AE
:10142000000103060C1830306860C0C0C0F0C0C0B6
:10143000C0C060683131180C0603010000000000D4
:101440000070783C9ECE6F6737331A1818F8D8189A
:10145000181A3337676FCE9E3C787000000000008A
:10146000F07C0E03010000000000000000FFFF0000
:101470000000000000000001030E7CF000000007E7
:101480007FF2820303030303030303030303030045
:1014900000000000000000000082F27F0700000052
:1014A000000103060C1830306060C0C0C0F0C0C03E
:1014B000C0C060603030180C06030100000000005E
:1014C00000000080E0F0F8FCFCFC3E1E1E1E1E1E0C
:1014D0003E7CFCFCF8F0E080000000000000000012
:1014E0000000000101010101010000000080C0E0D6
:1014F000F0F8FFFFFF7F3F0F00000000000000003A
:10150000000000000000000000007C7E7F7F7F7FE5
:101510000F030101000000000000000000000000B7
:10152000000000000000000000007E7E7E7E7E7EC7
:1015300000000000000000000000000000001F018B
:101540001F00F820F8001F151B0008F808001F11E5
:101550001100F828380007041F0008F808001F01D0
:101560001F0008F808001F111100F8A8E8001F1557
:101570001B00F88888003C42819DA181423C060FF7
:101580001F3E1F0F06DFEDE200D4E5E200CCE0F0E5
:1015900000C0EFF000CCE0E900C8FEED00C8FEEBB3
:1015A00000C0E2E300D1E5ED00CEEAF200CDEEFFAF
:1015B00000C4E5EA00CFED0000C2F20000D1F00067
:1015C00000D7F20000CFF20000D1E10000C2F1002C
:1015D00000CFC2D1D7CFD1C2006070501030F0F030
:1015E00030105070600303070707257500CFCEC188
:1015F000C5C4C02100C8C3D0C020CECACECDD7C577
:10160000CDC0210040F8EC2C2C38F010D030E84C44
:101610004C9CF0021F3734341C0F080B0C1732326D
:10162000390F0101010101010101257500C8C3D075
:10163000C020CECACECDD7C5CDC02100D1F7E5F2AE
:101640003A00D0E5EAEEF0E43A0021CDCEC2DBC9A3
:1016500020D0C5CACED0C42100257500257500CD87
:10166000E0E7E0E4003C20C4C8C0C3CDCED1D2C87E
:10167000CAC0203E0046572020202020312E312095
:1016800031343131313500D2E5ECEFE5F0E0F2F301
:10169000F0E020256868642E256868754300C0EA7C
:1016A000EAF3ECF3EBFFF2EEF02025756D5600CF78
:1016B000EEEAE0E7E0F2FC20465053253963003CB7
:1016C00020DDCAD0C0CD203E00DFF0EAEEF1F2FC12
:1016D00000C8EDE2E5F0F2E8F0EEE2E0F2FC00CF67
:1016E000EEE2EEF0EEF200C0EDE8ECE0F6E8FF002E
:1016F0003C20C8C3D0DB203E00427265616B6F7531
:10170000740043617220446F646765003C20C3CB62
:10171000C0C2CDCEC520CCC5CDDE203E00C1F3E495
:10172000E8EBFCEDE8EA00D4EEEDE0F0E8EA00D109
:10173000E5EAF3EDE4EEECE5F000C8E3F0FB00CD04
:10174000E0F1F2F0EEE9EAE800C4E8E0E3EDEEF102
:10175000F2E8EAE000C2FBF5EEE4003C20C1D3C4AD
:10176000C8CBDCCDC8CA203E002530326868750081
:10177000202530326868753A2530326868752563EF
:1017800020003C20D3D1D2C0CDCEC2CAC8203E005A
:10179000C2F0E5ECFF20E820E4E0F2E000D1EEED5D
:1017A00000C7E2F3EA00DDEAF0E0ED003C20C7C04C
:1017B000D1DBCFC0D2DC203E00256868755300D253
:1017C000E0E9EC2DE0F3F2003C20C7C2D3CA203E92
:1017D00000554900C1F3E4E8EBFCEDE8EA00C2F093
:1017E000E5ECFF20D1E8E3EDE0EBE0003C20C2D0E7
:1017F000C5CCDF20C820C4C0D2C0203E00D1EEF549
:10180000F0E0EDE5EDEDFBE500D1EEF5F0E0EDE823
:10181000F2FC002530326868750020202025303227
:10182000686875202573203230253032686875006D
:101830002020202568687568722025303268687518
:101840003A2530326868752563001F1C1F1E1F1E55
:101850001F1F1E1F1E1F2530326868753A25303243
:1018600068687525630011241FBECFEFD8E0DEBF86
:10187000CDBF14BE88E10FB6F8948093600010923B
:1018800060000FBE11E0A0E0B1E0EEEBFCE602C0AC
:1018900005900D92A431B107D9F716E0A4E1B1E0AB
:1018A00001C01D92A631B107E1F70E9488220C9475
:1018B0005D360C9400000F928F939F930FB680912A
:1018C000B30086508093B30080910806909109067A
:1018D000019690930906809308060FBE9F918F9101
:1018E0000F9018952CE3829FC00111249C01260FB4
:1018F000311D80EA95E0489FB001499F700D112489
:10190000260F371F822F932F0895ACE0B0E0EBE84D
:10191000FCE00C9466310E94412D882394F080E114
:101920008D838E838EE394E198878F8380E289870D
:101930008A871B861C86CE0105960E948D1A0E94FE
:10194000921A0E94A42E60E04FE424E10E94711BD1
:1019500060910E0670E0660F771F660F771F6B545D
:101960007A4ECE0101960E943A33CE01019660E094
:1019700046E524E20E94711B80E02C96E2E00C9484
:101980008231CF93CDE18C2F90E08050904060E089
:101990000E947235C150B8F7CF910895282F30E0DA
:1019A000C901880F991F280F391F20503040CB01E3
:1019B000B90143E050E00C944635A7E0B0E0E3EE17
:1019C000FCE00C94583180910C068B8380910D06BD
:1019D0008C83CE01019660E00E94CE2E60910B06B2
:1019E0006F5F8B8140910E067DDF6C010F2EF9E059
:1019F000AF2EF02DEE24EA94FE2C55245A940F2E8F
:101A0000F6E04F2EF02D8A2DBE016B5F7F4FC6DFB3
:101A10008F81882334F5082F10E08D809E80709090
:101A20001401B42C6A2CC8010B2C02C09595879523
:101A30000A94E2F780FF0FC0882D692D4B2D52DFED
:101A40008C199D0912F4815A984D8E159F0518F432
:101A50007B2C7C01562CBA948FEFB812E4CF709295
:101A60001401AA948FEFA812CECF50921501279699
:101A7000E0E10C947431A1DF80911701909118017D
:101A80000E94111960911B0170911C0140911D0170
:101A900050911E018091190190911A015FD7809198
:101AA000ED010E94BD1885E060E00E940C2E83E0ED
:101AB0007CD31092160181E008957FCF0895BC0178
:101AC000809115018F3F19F069DF81E0089580E072
:101AD0000895809114010895282F30E0C901880FDE
:101AE000991F280F391F20503040CB01B90143E026
:101AF00050E00E94633561CFA7E0B0E0E2E8FDE08E
:101B00000C9465311091160180910C068B838091A5
:101B10000D068C83CE01019660E00E94CE2ECE0190
:101B20000596CDDF882309F45AC08F8190E000909C
:101B30000E0602C0959587950A94E2F780FF4FC084
:101B40009D818B8198134BC09E8180910B069813C9
:101B500046C080910A06811147C081E0809316013A
:101B600043C0111129C085E89CE00E94111990938F
:101B700018018093170180E060E070E0DED690935A
:101B80001A018093190181E06BE37DE0D6D6909332
:101B90001C0180931B0182E060E070E0CED6909340
:101BA0001E0180931D0185E061E00E940C2E8EE3F2
:101BB00090E062E043E0E9D20E942518811118C04C
:101BC00081E090910A01913009F480E080930A014C
:101BD00066E94FEF0E9404180BC04DDF09C08091E9
:101BE00016018111FACF04C0809116018111B9CF7D
:101BF0002796E3E00C948131E0CE089580911F0197
:101C00008823E1F18091200190912301992399F09B
:101C1000843010F48F5F09C0883010F48D5F05C0E8
:101C2000803110F48B5F01C0885F8034B0F0109277
:101C30001F0180E012C08C3F10F08F5F09C0883F09
:101C400010F08D5F05C0803F10F08B5F01C0885F92
:101C50008A3018F410921F0180E080932001809157
:101C60001F0181110BC0E0912101F09122013097F9
:101C700029F00995109222011092210108952091D6
:101C8000EE01222389F021E020931F01662311F049
:101C900020E001C020EC209320019093220180934A
:101CA0002101609323010895009711F0FC0109952B
:101CB000089580911F0108959091230181E0892763
:101CC0000895809120010895109227011092280113
:101CD0001092290110922A010E94412D9093260111
:101CE0008093250181E0089589E099E161E0C7DFF3
:101CF00081E0089580912401813039F4109224010B
:101D000084E060E00E940C2E09C0811107C081E0D0
:101D10008093240184E061E00E940C2E0E94412DFA
:101D2000909326018093250181E00895A8E0B0E01A
:101D3000ECE9FEE00C945C31E4D4C0902701D09033
:101D40002801E0902901F0902A01C701B60128EE90
:101D500033E040E050E00E94343149015A0180E80C
:101D6000C8168EEED80686E3E806F104D0F4C70163
:101D7000B60128EE33E040E050E00E9434312AE022
:101D800030E040E050E00E943431122FC501B40130
:101D90002CE330E040E050E00E943431E62EC22EC9
:101DA0001EC00F2EFCE3CF2ED12CE12CF12CF02DF8
:101DB000CA01B901A70196010E943431162FCA0148
:101DC000B901A70196010E943431E62EC501B40184
:101DD00020E13EE040E050E00E943431C22E81E03C
:101DE00089830F2EF4E1FF2EF02DFA828C2D0E94B4
:101DF00072220F2EF9E3DF2EF02DD89EC0011124A0
:101E0000AC014C575E4F5C834B8383E18D8308E1CB
:101E10000E831F821886CE0101960E948D1A0E94A1
:101E2000921A09838C2D0E947A22D89EC001112417
:101E30009C012C573E4F3C832B830E94921A8CE3CB
:101E400089838E2D0E947222D89EC00111249C018C
:101E50002C573E4F3C832B830E94921A83E5898343
:101E60008E2D0E947A22D89EC00111248C579E4F3D
:101E70009C838B830E94921A88E689838CE18A83F3
:101E80008BE08D8380E18E83812F0E9472220F2E42
:101E9000F6E1EF2EF02DE89EC00111249C0128559B
:101EA0003F4F3C832B830E94921A84E78983812FC2
:101EB0000E947A22E89EC001112488559F4F9C837E
:101EC0008B830E94921A81E38983FA8286E08D8354
:101ED0000E8386E990E09C838B830E94921A0E9475
:101EE000A42E60E040E320E00E94711B81E0289670
:101EF000ECE00C9478310E94702486E99EE00E9408
:101F0000111984E69EE06AE77EE044E75EE026C5BC
:101F100081E090912401913009F080E00895809152
:101F20002401813099F50E94412D209125013091A5
:101F30002601AC01421B530B9A014091270150919D
:101F400028016091290170912A01420F531F611DE0
:101F5000711D4093270150932801609329017093CC
:101F60002A01909326018093250141155A42654725
:101F7000754160F08FEF99E2A5E7B5E18093270105
:101F800090932801A0932901B0932A0108954091CC
:101F90002B0150912C01443F81E05807B8F49A017D
:101FA00036952795ABE7B4E10E9401319695879568
:101FB000019662E3689F9001699F300D1124420FE2
:101FC000531F50932C0140932B0104C010922C01FD
:101FD00010922B0181E008958091ED010E94BD18BF
:101FE0000E94091981E0089580912B0190912C01A4
:101FF000892B19F10E94412D20912D0130912E0144
:10200000AC01421B530B20912B0130912C01421744
:10201000530700F190932E0180932D0190912F0191
:1020200081E0892780932F010E94BD1880912F01A4
:1020300064E14FEFE9D781E0089581E00E94BD1887
:1020400081E064E64FEFE0D780E064E64FEFDCD755
:1020500080E0089581E008950E94702410922C0180
:1020600010922B0184EF9FE00E9411198CEE9FE0EB
:1020700067EC7FE0AC0172C487E080937A0080E473
:1020800080937C0080E880BFE4E6F0E0808181609E
:1020900080830895E4E6F0E090819E7F90838F70C6
:1020A000806480937C00EAE7F0E08081806C80832C
:1020B000808186FDFDCF2091780030917900EAE79C
:1020C000F0E080818F778083E4E6F0E080818160BA
:1020D0008083822F932F08958CEE91E06FE170E062
:1020E00047E050E00C94633581E08093EC0110925E
:1020F000ED018093EE018093EF018093F001109247
:10210000F1018FEF8093F201E7DF3BCC8EE190E0AD
:102110000E9456358E3441F48CEE91E06FE170E010
:1021200047E050E00C9446358EE190E06EE40E946A
:102130008435DACF0F931F93CF9340913401842FCE
:1021400090E0880F991F20913101309132014F5F4B
:1021500040933401820F931F0E945E35C82F823056
:1021600069F0692F40913301209130010AE910E1B3
:1021700084D4C11106C01092300103C01092340102
:10218000D9DFCF911F910F9108952091300142170F
:1021900058F0409330019093320180933101609365
:1021A000330110923401C6CF08950F931F93282F47
:1021B00080E060E040E000E010E05FD41092300189
:1021C0001F910F910895FB019081811103C09034FC
:1021D00028F00895993318F0915001C09F5FFB01DA
:1021E000908381E00895A0E0B0E0E9EFF0E10C9485
:1021F0006031EC013D81DF800A811B818C81839FEE
:10220000C001112499230CF407969595879595950F
:102210008795959587957C01FF24F801869FE00DB1
:10222000F11D1124FB83EA83222329F0DD2019F01C
:10223000FFEFDF1204C01F820E94921A18C0C62E40
:10224000CA948FEFC81201C0C42E8D2D8450831BF9
:102250008F830E94921ADF82CE9CC001CF9C900D8A
:102260001124800F911F9B838A830E94921ADF8220
:102270001B830A83CDB7DEB7E8E00C947C31A1E381
:10228000B0E0E5E4F1E10C9460316E012EE2C20EA3
:10229000D11C60910E0670E0660F771F660F771FE6
:1022A0006B547A4EC6010E943A337E018AE2E80EF0
:1022B000F11C6091100670E0660F771F660F771FA4
:1022C0006B577A4EC7010E943A338E01085E1F4F4A
:1022D000EDB7FEB71283018388E790E09483838390
:1022E000D682C58280910F0687831086F286E186AA
:1022F00080911106838714860E945A33C80160E0DA
:102300004CE020E00E94711B8091EE01882309F4CB
:10231000C0C090910A0680913501981709F45EC0FB
:10232000109236011092370181E08093380180913C
:102330000C060E947222182F809139010E9472228D
:1023400091E0181301C090E090933A0180910C063F
:102350000E947A22182F809139010E947A2291E0FE
:10236000181301C090E090933B0180910B060E94EE
:102370007222182F80913F010E94722291E018135F
:1023800001C090E090933C0180910B060E947A225C
:10239000182F80913F010E947A2291E0181301C00A
:1023A00090E090933D0180910A060E947222182FBE
:1023B000809135010E94722291E0181301C090E0D3
:1023C00090933E0180910C068093390180910B0619
:1023D00080933F0180910A068093350180913801F6
:1023E000882309F464C080913601843020F48F5F23
:1023F0008093360117C0873020F48D5F80933601BB
:1024000011C0813120F48B5F809336010BC087317E
:1024100020F48D5F8093360105C08D3118F48F5FF5
:1024200080933601809136018C3118F08FEF8093C4
:10243000360180913701823020F48F5F809337011D
:102440000BC08E3020F48D5F8093370105C085313D
:1024500018F48F5F8093370180913701843120F029
:102460008FEF8093370102C0853108F180913601EA
:102470008D31E8F010923601109237011092380138
:102480008AE391E060E070E045E050E00E94533361
:102490000EC01092360110923701109238018AE373
:1024A00091E060E070E045E050E00E94533388E640
:1024B000888F8CE1898F88EA90E09B8F8A8F8BE0F0
:1024C0008C8F80E18D8F1E8E809137018F8FCE0192
:1024D00048960E948D1A0AE016E0F80180810E9459
:1024E0007222682FCE01489645E020913E017BDEA6
:1024F00084E7888FF80180810E947A22682FCE01BC
:10250000489649E0209138016EDE84E1898F83E1AD
:102510008C8F0F2EF8E1FF2EF02DFD8E84E891E0D8
:102520009B8F8A8F809136018F8F8CE3888F0BE091
:1025300016E0F80180810E947222682FCE01489631
:1025400045E020913C014FDE83E5888FF8018081D2
:102550000E947A22682FCE01489649E020913D01E1
:1025600042DE81E0888F0CE016E0F80180810E9455
:102570007222682FCE01489645E020913A0133DE61
:10258000F88EF80180810E947A22682FCE01489649
:1025900049E020913B0127DE4A990CC081E3888FF6
:1025A00086E990E09B8F8A8F86E08C8F88E18D8F03
:1025B0001F8EB8D780910D068AA71BA6CE018A96DA
:1025C00060E048E624E10E94711BF090380199D048
:1025D00084E18D8787E38E8726E638E0388B2F8766
:1025E00080E1898B88E08A8B1B8A1C8ACE010D963C
:1025F00094D789B183FB882780F96BE071E0E3DD34
:10260000882339F080910B018E878CD78D858C5E65
:102610008D8788E0898B89B18295817091E08927C7
:102620006CE071E0D0DD882359F02EE138E0388B82
:102630002F8780910C018E8775D78D85845F8D875C
:1026400088E38E8765DC882341F026E735E1388B07
:102650002F8768D78D85845F8D87CE0145962FDAC9
:102660008823E1F18D898CA78E898BA780E28DA7C5
:10267000CE018A966091F1010E94CE2E8E01085EF5
:102680001F4FEDB7FEB71283018328E630E0348395
:1026900023838CA5858316828BA5878310868DA5C1
:1026A000818712860E945A33C80160E04D8528E375
:1026B0000E94711B8D859DA5903211F493E201C09B
:1026C0009AE2890F8D8705DAF8E08F9FC001112407
:1026D0009C01225C3A4E388B2F8724D78F2DE196B0
:1026E000E8E00C947C318FE391E19BD580E090E0B1
:1026F0006FE473E240E050E031D180E090E060E0D0
:10270000BECAA8E0B0E0E7E8F3E10C9466315FD020
:1027100080382CE0920750F084372EE0920748F082
:10272000803A9F4048F486E398E008C086E598E048
:1027300005C086E498E002C086E298E0198228E3AA
:102740002A839C838B8380E18D8388E08E831F8224
:102750001886CE010196E1D6E5D62896E2E00C94E3
:102760008231389A409808958093400180910A06FA
:10277000809341010895409A80E991E00197F1F733
:1027800086E088DC40989C01A8E6B0E10E94013117
:102790002BE533E040E050E00E94343130934301B8
:1027A00020934201089580910A0690914101891772
:1027B00069F08093410180914001882321F081508C
:1027C00080934001089585E0CFDFD5CF08958091B3
:1027D0004201909143010895882339F090E0282F19
:1027E0002170920F8695D9F701C090E0892F089546
:1027F000A3E0B0E0EEEFF3E10C9462310E94412DD2
:1028000090915F01282F291B2A3008F466C080931D
:102810005F0186B18270898386B184708A8386B1B4
:1028200088708B836894FF24F1F8EE24E3942F2DB5
:1028300030E08901000F111F000F111F000F111F41
:10284000020F131F0C5B1E4FE1E0F0E0EC0FFD1FC9
:10285000E20FF31F9081D80113968C911397880F84
:1028600013968C93139791112EC0816013968C93BD
:10287000B3DF843070F1F8018281811108C00E94B9
:10288000412DD80111969C938E931296EC92F801EB
:10289000848181111EC00580F681E02D3097C9F03A
:1028A00009958823B1F0D8011496EC9214971796E5
:1028B0008D919C9118976E2D4E2D67DC8E2D62E3C5
:1028C0004FEFA2D306C088DF853018F4F8011282DA
:1028D0001482FA94FFEFFF12AACF2396E6E00C943D
:1028E0007E3139983A983B98419A429A439A089592
:1028F000F8DF86E390E090934C0180934B018EE2E9
:1029000090E0909355018093540186E290E090937B
:102910005E0180935D01ECE6F0E080818E60808353
:10292000E8E6F0E0808182608083089541984298D3
:102930004398399A3A9A3B9A089590E0FC01EE0F39
:10294000FF1FEE0FFF1FEE0FFF1FE80FF91FEC5BDD
:10295000FE4F8581968176836583089590934A0121
:1029600080934901709353016093520150935C012D
:1029700040935B0108951F93CF93DF932091EC0167
:10298000222319F188E893E1289FE001299FD00DC7
:10299000112412E00E94412D212F30E0F901EE0FA9
:1029A000FF1FEE0FFF1FEE0FFF1F2E0F3F1FF9013E
:1029B000EC5BFE4F20813181821B930B8C179D07AE
:1029C00030F0115038F780E003C081E001C081E0B1
:1029D000DF91CF911F910895FF920F931F93CF9393
:1029E000DF9312E001E06894FF24F2F8812F90E079
:1029F000EC01CC0FDD1FCC0FDD1FCC0FDD1FC80F8E
:102A0000D91FCC5BDE4F0C830A83FB820E94412DD1
:102A100099838883115050F7CDB7DEB7E5E00C9469
:102A20007F31E0E8F0E080818F738083E4E6F0E0BE
:102A3000808188608083109263011092600180E041
:102A400060E00C940C2E82E08093800081E1809302
:102A5000810080E092E0909389008093880080E07C
:102A600094E09093870080938600E4E6F0E0808114
:102A700088608083219A29980895EF92FF920F939E
:102A80001F93CF93DF93E82ED62FF42EC22F909171
:102A90006001291708F46CC0611102C0C2DF68C070
:102AA00080E061E00E940C2EC093600110936201EF
:102AB00000936101E09263010E94412D80936401C3
:102AC000D13059F4E0E8F0E080818F738083E4E650
:102AD000F0E08081886080834BC042E0F41651F0C2
:102AE00053E0F51669F081E0F81210C06091F20130
:102AF00063700DC06091F20166956695637007C0C2
:102B00006091F20162956F70637001C062E0615084
:102B1000633070F52D2F30E0220F331F220F331F4B
:102B2000220F331F80E290E0AC0102C0559547951B
:102B30006A95E2F7BA01C9010E940D31C901861BED
:102B4000970BE4E6F0E04081477F408316BAEFE65A
:102B5000F0E0408141604083109285001092840033
:102B6000909389008093880030938700209386009B
:102B7000CDB7DEB7E6E00C947E3180916301882307
:102B800089F00E94412D90916401891B909163010D
:102B9000891740F046DFE0916101F09162013097C2
:102BA00009F0099508951F920F920FB60F92112404
:102BB0008F93EF93FF93E0E8F0E08081806C808357
:102BC00010926F00FF91EF918F910F900FBE0F90B9
:102BD0001F901895982F92959F70990F292F220F6B
:102BE000220F920F8F70890F0895EF92FF920F932B
:102BF0001F93CF93DF93C82F8B01F42E3FD680ED28
:102C00006DD6811102C067D629C08C2F67D681117D
:102C100002C061D623C032D681ED60D6811102C0D8
:102C20005AD61CC0FA9479F0E02EC02FD12FCE01D5
:102C300061E073D6811102C04ED610C021968C2F50
:102C40008E198F15A0F3C8018F0D911D60E065D618
:102C5000811102C040D602C022D681E0CDB7DEB7D6
:102C6000E6E00C947E31CF93DF93C82FD62F06D6A3
:102C700080ED34D6811102C02ED60EC08C2F2ED6F8
:102C8000811102C028D608C08D2F28D6811102C01C
:102C900022D602C004D681E0DF91CF910895CF9370
:102CA000DF93C82F0E947222D82F8C2F0E947A2285
:102CB00090E1D99F800D1124DF91CF910895A1E07B
:102CC000B0E0E5E6F6E10C946531182F8EE0BE0128
:102CD0006F5F7F4F41E089DF69816B7B113011F4B9
:102CE00080E401C084E0682B69838EE0BCDF21961C
:102CF000E3E00C948131A1E0B0E0E1E8F6E10C946E
:102D000066318EE0BE016F5F7F4F41E06EDF69810B
:102D1000677669838EE0A7DF8FE0BE016F5F7F4F2C
:102D200041E063DF6981647F69838FE09CDF81E03C
:102D3000C6DF2196E2E00C948231A7E0B0E0E3EA3E
:102D4000F6E10C9462318C01BE016F5F7F4F87E02A
:102D5000FB0111928A95E9F780E047E046DF89811F
:102D600039DFF80180838A8135DFF80181838B8127
:102D700031DFF8018283EC80E4828D812BDFF80162
:102D800085838E8127DFF82EF80186838F8122DFED
:102D9000F8018783EE2011F0EA94E482FF2019F015
:102DA000FA94F801F6822796E6E00C947E31CF93F0
:102DB000DF93EC01888173DF682F80E054DF898125
:102DC0006EDF682F81E04FDF8A8169DF682F82E044
:102DD0004ADF6C816F5F83E046DF8D8160DF682FA3
:102DE00084E041DF8E818F5F5ADF682F85E03BDF13
:102DF0008F8155DF682F86E036DFDF91CF91089510
:102E000081E165E671E042E0F0CE65E671E042E026
:102E100050E00C944A33A1E0B0E0E1E1F7E10C941A
:102E200065318FE0BE016F5F7F4F41E0DEDE69817B
:102E3000162F117060FF04C06E7F69838FE013DF6F
:102E4000812F2196E3E00C948131A1E0B0E0EBE228
:102E5000F7E10C9464318C01DEDF8EE0BE016F5F20
:102E60007F4F41E0C2DE01151105C1F087E060E04F
:102E7000FADEF801818113DF682F88E0F4DEF801C3
:102E800080810DDF682F89E0EEDEF80162816064E9
:102E90008AE0E9DE89818160898303C089818E7F30
:102EA00089838EE06981DFDE2196E4E00C94803135
:102EB000A1E0B0E0EEE5F7E10C9465318FE0BE01F2
:102EC0006F5F7F4F41E091DE698161FB112710F94F
:102ED00061FF04C06D7F69838FE0C5DE812F21967D
:102EE000E3E00C948131A1E0B0E0E9E7F7E10C9474
:102EF00064318C01DDDF8EE0BE016F5F7F4F41E00A
:102F000074DE01151105C1F0F8018181C8DE682F5A
:102F10008BE0A9DEF8018081C2DE682F60688CE05A
:102F2000A2DEF8018281BBDE682F60688DE09BDE47
:102F300089818260898303C089818D7F89838EE046
:102F4000698191DE2196E4E00C9480310F931F9308
:102F5000CF93DF93EC01162F042F8881882371F023
:102F60000E94412D9981891B9881891738F08BB176
:102F700008230BB984B5182314BD18828881DF910A
:102F8000CF911F910F910895CF92DF92EF920F93FF
:102F90001F93CF93DF93EC01142F690168830E9484
:102FA000412D8983812F81508E3F78F084B5009523
:102FB000082304BD1F3F21F48BB1E82AEBB80FC0F2
:102FC0008BB1E094E822EBB80AC0E4E6F0E080813F
:102FD0008F7D808384B5082B04BDF6011083DF91BB
:102FE000CF911F910F91EF90DF90CF90089583E0E4
:102FF00084BD85BDE4E6F0E0808180628083559ADF
:10300000569A5D985E980895EF920F93882319F071
:103010008130A1F40AC087E691E027E430E000E8BF
:103020006894EE24E6F8B0DF09C089E691E028E470
:1030300030E000E26894EE24E5F8A6DF81E061E08C
:103040000E940C2E0F91EF900895809167018111DD
:1030500009C081E090E020916901211105C080E064
:1030600090E0089581E090E00895CF9387E691E0A5
:103070006FE74FEB6BDFC82F89E691E06FED4FED07
:1030800065DFC1110BC0811109C0E4E6F0E0808169
:103090008062808381E060E00E940C2ECF910895D1
:1030A00081E060E040E0B0DF80E060E040E0ACDF85
:1030B000DCCFCF93DF93D82FC62F289850D42A98EF
:1030C000DEBD0DB407FEFDCFCEBD0DB407FEFDCFB6
:1030D0002A9A4BD4DF91CF910895CF93C82F289887
:1030E0003ED42A98CEBD0DB407FEFDCF2A9A3DD41A
:1030F000CF910895289833D42A9882E28EBD0DB4DA
:1031000007FEFDCF1EBC0DB407FEFDCF87E08EBDD0
:103110000DB407FEFDCF81E28EBD0DB407FEFDCFDD
:103120001EBC0DB407FEFDCF8FE78EBD0DB407FEAC
:10313000FDCF2A9A1AD4289A12D42A98E3EFF1E004
:1031400083EF95E02081119232E03A95F1F700C0CB
:103150003DB52EBDE817F907A9F784E08A95F1F788
:1031600000C08DB52A9A01C4813011F48FEA01C0E4
:103170008EEAB3CF682F81E89CCF882311F087EACD
:1031800001C086EAAACF882319F081EA68EC91CFC2
:1031900080EA60EC8ECF229A209A5F9A579A80ED4F
:1031A00097E0FC013197F1F75F98FC013197F1F757
:1031B0005F9A0197F1F72898D2D32A9880E090E09F
:1031C000FC01E257FF4FE491EEBD0DB407FEFDCFC9
:1031D000019685309105A1F72A9AC7D38091EF0116
:1031E000D2DF9091F201929596959695937085E530
:1031F000989F802D1124BEDF8091ED01BEDF80ED10
:1032000097E00197F1F776CF90936C0180936B0173
:103210000895E0916B01F0916C01309709F00995E8
:10322000089530916D0120916E0190936E0180930D
:103230006D01832F922F0895ABE0B0E0E2E2F9E157
:103240000C945C310E94412DF82E80916F019F2DCE
:10325000981B80917001981728F482E061E00E9429
:103260000C2E32C1F0926F010E94FE0DE0916D01B3
:10327000F0916E01309759F080917601811104C070
:10328000809172018111D8C00995D82E01C0D12C2E
:1032900080917601882309F4CDC0E0907101C0903F
:1032A000740180917301811127C08091720188237C
:1032B00031F023E0E20E3FE13E1538F036C08DEFED
:1032C000E80E9FE19E15A0F030C081E0809373016D
:1032D0006894882482F86894EE24E5F800E010E011
:1032E000912C0F2EF0E8AF2EF3E0BF2EF02D23C06F
:1032F00010927601E12C9AC080917501882321F00B
:10330000EAEFCE0E92F4DAC0FAE0CF0E72F4109229
:1033100073016894CC24C7F803C010927601C12CC5
:1033200091E0811190E0909375018E2C86948694A3
:103330008694A1F619C0C8018D509E4F60E070E0E0
:1033400040E850E00E945333C501801B910B8D5023
:103350009E4F60E070E040E850E00E945333939449
:1033600000581F4F981438F3EE2DE770A9F180E84C
:10337000889E900111248FEF90E0182F0E2E01C02F
:10338000110F0A94EAF70E2E02C0959587950A94BC
:10339000E2F761E070E00E2E01C0660F0A94EAF7D2
:1033A00040E850E002C055954795EA95E2F7F901EB
:1033B000ED50FE4FA3EFB5E0A21BB30B2D583D4FD0
:1033C00090819123962B91939E919823942B9C937B
:1033D000E217F307A9F72AC0EE2041F120E82C19E3
:1033E000269580E48E19869586958695E0E88E9FD1
:1033F000C0011124820F911D8D509E4F61E070E03D
:103400004C2D50E00E945333F0E2EF1679F020E8A3
:10341000829EC00111242FE7FC01E20FF11DED5047
:10342000FE4F3081316030832150B0F7E09271015E
:10343000C0927401D11007C080917601811106C03D
:103440000E94590E05C081E090E002C081E090E04A
:10345000E82E8091F0018823F1F00E94412D8E0129
:10346000095F1F4FEDB7FEB71283018323E930E0F8
:10347000348323838F19682F6D5F88EE93E070E0AB
:103480000E942131768365830E945A33C80160E02F
:103490004BE628E326D1C6D1E11008C082E060E007
:1034A0000E940C2E88E2809370010EC082E061E0E1
:1034B0000E940C2E80E18093700106C090917201F1
:1034C00091112BCFC12C2CCF2B96ECE00C947831A2
:1034D0009091EE01911103C0109276010895813010
:1034E00061F4109272018093730180E28093710104
:1034F00010927501109274010CC081E080937201EA
:1035000010927301109271018093750180E880938D
:10351000740181E0809376010895909378018093FF
:1035200077010895A7E0B0E0E8E9FAE10C9456319C
:10353000E0917701F09178014080B180F280D380F2
:1035400084802580E68097800E94610EB80E1B2D36
:103550001919A22CA694A694A6940F2EF7E0CF2EAC
:10356000F02DC1222B0C2982AA2009F4B6C0012F0C
:10357000085F682C712C4F2D5D2DD12CF82CF40C8C
:10358000242C88E090E02C014C1851083981232F1D
:1035900030E03D832C838B2D90E09B838A83AE2D7E
:1035A000992049F10B1508F491C0013408F08EC040
:1035B0009981911708F48AC01B1558F48A819B8160
:1035C000811B9109EE24EA9401C0EE0C8A95EAF77A
:1035D00017C02981201790F4802F90E02C813D8125
:1035E000821B930BEFEFF0E002C0F595E7958A950B
:1035F000E2F7EE2E05C0EE24EA9402C0EE24EA942F
:10360000812F869586958695F0E88F9FC0011124BD
:10361000C1101CC01034D0F4882009F457C0FA013E
:10362000222D7A2F222364F0349171113095DC0120
:10363000A20FB11DAD50BE4F3E216C91362B3C9375
:103640002F5F31962F11EECFA72F40C0602F6695C8
:103650006695669520E8629FB00111248820B1F13B
:10366000FA01AE839C012F828F81882344F18491DB
:103670009E81911180958E21103478F4D9019F811B
:10368000A90FB11DAD50BE4F382E0C2C01C0330C0C
:103690000A94EAF79C9193299C93003480F4DB010F
:1036A0009F81A90FB11DAD50BE4F90E0042C02C008
:1036B000959587950A94E2F79C91892B8C938F813D
:1036C0008F5F8F8331968F11CFCFAE81D394085FF8
:1036D000185F460D571DDA1063CF2796E2E10C9470
:1036E0007231A8E0B0E0E7E7FBE10C945D318C01BA
:1036F000A62EB42EE22EC0907701D09078011982C8
:103700002A831C821B8285E08D8388E08E836F83F1
:103710001886CE01019601DFD801EC91EE23C1F1AC
:10372000E694E694E694B0E8EB9E700111240F5FF6
:103730001F4F99249A94B982E052F0E0CF01880F8C
:10374000991F880F991FE80FF91FE254FC4FFC8363
:10375000EB83E8DEAA20A9F0BB2059F08B2D815025
:10376000F701E80FF11DED50FE4F90828AE78B15AF
:1037700040F08B2D8B5FF701E80FF11DED50FE4FF0
:103780009082D801ED918D01B7E0BB0EE111D3CF4E
:10379000D0927801C09277012896EBE00C947931B1
:1037A000A0E0B0E0E6EDFBE10C945D317C01962EEB
:1037B000A42EB22ECDB6DEB60E94413399270196D3
:1037C0002DB73EB7281B390B0FB6F8943EBF0FBE7E
:1037D0002DBF0DB71EB70F5F1F4F802F912FB70161
:1037E0000E943A33802F912F692D4A2D2B2D79DF9E
:1037F0000FB6F894DEBE0FBECDBEEBE00C9479316F
:1038000066956695669520E8629FB00111249B013C
:10381000280F311DC9018D509E4F60E070E050E0CF
:103820000C94533367CC0895ECEBF0E080818B7FF0
:1038300080833C98449A80ED97E00197F1F73499A2
:103840000EC040E420ED37E050E2C9010197F1F7E6
:1038500088B1852788B9349902C04150B1F73C9AA4
:103860003D9A449A459A089582E08093B800DCDF3F
:10387000E4E6F0E08081806880830895E4E6F0E08B
:1038800080818F77808382E08093B80084EA809380
:10389000BC00ECEBF0E080818823ECF70895ECEBC2
:1038A000F0E084E98083808184FD0AC09FEF2DE0F1
:1038B000822F8A95F1F7808184FD02C09150C1F773
:1038C000ECEBF0E080818B7F8083E4E6F0E08081A8
:1038D000806880830895E3DF80E008958093BB00D3
:1038E00084E88093BC00ECEBF0E080818823ECF767
:1038F0002091B900287F283149F0283251F081E029
:1039000090E0203441F080E090E005C081E090E05C
:1039100002C081E090E081700895ECEBF0E020813E
:10392000619560742F7B622B6083208120682083E7
:1039300020812223ECF72091B900287F203511F057
:10394000283531F42091BB00FC01208381E00895EB
:1039500080E0089580E58CBD81E08DBD0895E4E6AA
:10396000F0E080818B7F8083F5CFE4E6F0E080811A
:10397000846080830895229A239A259A2C9A2A9A01
:10398000E9DFF3CF81E08093790180E0089582E060
:103990008093790180E00895A9E1B0E0E2EDFCE1D7
:1039A0000C94563180918D0190918E01803A910551
:1039B00048F481E090E020918C012F3F29F080E0D5
:1039C00090E002C081E090E0282F2170298F1091B3
:1039D0008F0180917901813011F41D5F03C0823025
:1039E00009F41350109279011B3F20F4153718F099
:1039F00014E701C010E01F8388E3888789ED95E113
:103A00009A8789878CE08B8788E08C871D861E8645
:103A1000CE01079682DD86DD10938F01498D41111D
:103A20002CC00AE711E0F8016081718182819381E5
:103A30002091820130918301409184015091850150
:103A40000E94532FF80160837183828393830EE772
:103A500011E0F8016081718182819381209186015A
:103A60003091870140918801509189010E94532F24
:103A7000F801608371838283938360917A017091EE
:103A80007B0180917C0190917D010E941F306F8BA2
:103A900060917E0170917F01809180019091810100
:103AA0000E941F30688FA12CB12C212C20E068943B
:103AB000442443F8512CFF898F2E912C462F50E03F
:103AC0005E8B4D8B4DC0C32CD12CE0918A01F091BF
:103AD0008B01EC0DFD1D8081811131C08A149B0486
:103AE00074F1861497045CF58D899E898E159F0567
:103AF00034F1C7010496ED89FE89E817F907FCF453
:103B000084E66AEF41E021E000E010E00E943D150C
:103B100081E062E34FEF78DA80918A0190918B0126
:103B2000FC01EC0DFD1D81E0808380918D01909161
:103B30008E01019690938E0180938D0121E0339444
:103B4000F4E0EF0EF11C4CE1E416F10409F0BBCFF8
:103B500055E0250E84E0A80EB11C90EA291639F034
:103B6000322C72013501E4E06E0E711CACCFFF897E
:103B7000FF3710F1F13F48F010927A0110927B016B
:103B800010927C0110927D010CC080E090E0ACEFBF
:103B9000B2E480937A0190937B01A0937C01B0936F
:103BA0007D01E2E8F1E080819181A281B381B0588A
:103BB00080839183A283B383498D4111A1C0588D25
:103BC0005C3308F42CC1503F08F029C180918F016B
:103BD0009F89981708F423C1492F50E090E00C9674
:103BE000841795070CF41BC188EC64E641E021E0E2
:103BF00000E010E00E943D1580E090E0A0E7B2E414
:103C000080937E0190937F01A0938001B093810106
:103C1000C0908601D0908701E0908801F0908901E2
:103C2000C701B60120E030E0A9010E94D930181682
:103C300064F4F7FAF094F7F8F094C0928601D09209
:103C40008701E0928801F09289010E942C33BC0127
:103C5000882777FD8095982F0E944D3020E03CEF1B
:103C60004FE756E40E94B72F20E030E040E85FE3E2
:103C70000E94522F6093820170938301809384018C
:103C8000909385013DC02111CFC03AC0E88DE13F3E
:103C900088F088EC68EC41E021E000E010E00E9450
:103CA0003D1510927E0110927F01109280011092BA
:103CB00081011BC0211119C088EC6AEF41E021E0AD
:103CC00000E010E00E943D1580E090E0ACE7B2E437
:103CD00080937E0190937F01A0938001B093810136
:103CE00080918C01815080938C01E6E8F1E0808125
:103CF0009181A281B381B05880839183A283B383E1
:103D000085EE95E19A87898782E08B8760917A01B9
:103D100070917B0180917C0190917D010E941F3008
:103D20006F8360917E0170917F01809180019091FD
:103D300081010E941F306887F5DB87EE95E19A8745
:103D4000898783E08B87E12C00E06894DD24D3F839
:103D500015C0E0918A01F0918B01EF0DF11D80817A
:103D6000811103C0EF821887DDDBF3941C5F1C31E7
:103D700081F70B5FF4E0EF0E003A19F0F02E1D2DE5
:103D8000E8CF7E012FE0E20EF11CEDB7FEB7F28224
:103D9000E1828AEE95E19483838380918D019091F5
:103DA0008E01968385830E945A33C70160E040E00C
:103DB00020E097DC80918C018F3FC9F08EE795E180
:103DC0009A87898787E08B8781E0888780918C013B
:103DD000882369F010E0812F880F880F880F885999
:103DE0008F83A0DB1F5F80918C011817A0F3809157
:103DF0008D0190918E01803A910530F08DEE95E124
:103E000060E042E320E2CCDC80918C018F3F89F4BA
:103E100085EF95E160E042E220E2C2DC0AC0F88D65
:103E2000FF3308F033CF2FCF288D213F08F45DCF2B
:103E300030CF81E06996E2E10C94723151D50E9455
:103E4000412D0E942F338CEC9CE1EBD982EC9CE15C
:103E500065E77FE147EC5CE10E94AE1410927901C6
:103E600080E090E0A0E8B2E480937A0190937B0137
:103E7000A0937C01B0937D0180E090E0A8E5B2E4DE
:103E800080937E0190937F01A0938001B093810184
:103E900080E090E0A0E8BFEB8093820190938301E3
:103EA000A0938401B09385018DEC9CECACE8BFEB52
:103EB0008093860190938701A0938801B093890134
:103EC00080EA90E061E070E00E948D3180938A0189
:103ED00090938B0183E080938C0110928E0110925D
:103EE0008D018AE380938F01089580918A019091DA
:103EF0008B010E94443280918C018F3F11F49EDF30
:103F000005C089E099E161E00E943F0E81E00895DB
:103F100082E080939D0181E0089581E080939D017E
:103F20000895A4E1B0E0E7E9FFE10C945B318091F2
:103F30009D01813041F48091A001833068F48F5F4E
:103F40008093A00109C0823039F48091A0018823B8
:103F500019F081508093A00110929D019091A001D1
:103F60009295907F8091A101981720F482508093C0
:103F7000A10105C0891718F48E5F8093A10180917B
:103F80009E018F3F09F401C100E911E00F2EF2E913
:103F9000EF2EF1E0FF2EF02D0F2EF9E9CF2EF1E0FC
:103FA000DF2EF02D6894BB24B7F8D8018C91F7016F
:103FB0009081891B982F995C963210F08C931AC0CF
:103FC000D801BC920E942C33F7013197837090780E
:103FD000992324F401978C6F9F6F01968295807FBF
:103FE000808380919B0190919C01019690939C010C
:103FF00080939B010D5F1F4FB3E0EB0EF11C0C157E
:104000001D0599F60F2EF1E9EF2EF1E0FF2EF02DB0
:1040100080E991E0470100E0AE2CBF2CC12C27C005
:104020000117D1F0D4013C912081321315C0DC017D
:104030006C919F0121503109D901DC90D61660F4B2
:1040400070E02D2D30E0215F3F4F6217730724F49D
:104050002D2D205FDA012C931F5F3396133001F76B
:104060000F5FB3E08B0E911C0396033029F0EA2D0D
:10407000FB2D1C2DAC01D4CF80919F01811185C0F7
:104080000F2EFAE9CF2EF1E0DF2EF02D0F2EF1EA00
:10409000AF2EF1E0BF2EF02D0F2EFFE98F2EF1E0B5
:1040A0009F2EF02D77247394F701319780818F3004
:1040B00008F064C0F70180818E5FD5012C912E5FDE
:1040C000821748F0682F70E0422F50E0445F5F4F46
:1040D000461757076CF490E00C9630E08217930770
:1040E0000CF44CC0245F3F4F281739070CF446C02E
:1040F000F40170820E94412D9093A3018093A2014C
:1041000080919E01815080939E018F3F51F5809157
:104110009B0190919C012091990130919A0128175F
:10412000390778F47092A40190939A0180939901D1
:1041300089E991E06EE770E042E050E00E9463356B
:1041400002C01092A40180E06AEF4FEF0E940418B1
:104150008AEF6AEF472D272D00E010E00E943D1501
:104160000DC080E06EE14FEF0E94041884E66AEF14
:10417000472D272D00E010E00E943D15F3E0EF0EE3
:10418000F11CEC14FD0409F08FCF0E94412D8C012D
:1041900080919F018823E1F08091A2019091A30179
:1041A0009801281B390BC901883E33E0930708F4B6
:1041B000F9C010929F010CC08091A501823021F4BA
:1041C0008EEF8093A50106C082E08093A50102C016
:1041D0001092A5011F829091A5018091A101890FE4
:1041E000888724E036E13A8729878FE08B8780E152
:1041F0008C871D861E86CE0107968FD980919F01E0
:10420000882309F006FD8ED980919E018F3F09F425
:1042100079C012E0812F90E0FC01EE0FFF1FE80F44
:10422000F91FE057FE4F80818F839091A501818116
:10423000890F888777D9115068F782E296E19A87CB
:10424000898788E08B878C870DE011E00F2EF0E1E5
:10425000EF2EF1E0FF2EF02D6894DD24D7F8F80161
:104260008081982F9658973718F08650808301C028
:10427000D0820F5F1F4F80818F838091A501805F67
:10428000888750D98091A501805E88874BD980911D
:10429000A501805D888746D90E151F0501F78E019F
:1042A000015F1F4FEDB7FEB7128301838AE296E1EB
:1042B0009483838380919B0190919C019683858355
:1042C0000E945A33C80160E04DE521E00ADA8EE72A
:1042D00095E19A87898787E08B8781E0888780913D
:1042E0009E01882309F463C010E0812F880F880F96
:1042F000880F805E8F8316D91F5F80919E011817EB
:10430000A0F355C08DE296E160E044E120E048DA98
:104310008CE396E160E044E120E142DA82E496E158
:1043200060E044E120E23CDA8091A401882331F08E
:104330008AE496E160E044E120E332DA8E01015F35
:104340001F4FADB7BEB712961C930E93119789E518
:1043500096E114969C938E93139780919B01909174
:104360009C0116969C938E9315970E945A33C80110
:1043700060E040E620E1B5D9EDB7FEB712830183D6
:104380008CE596E1948383838091990190919A01C1
:10439000968385830E945A33C80160E040E620E29C
:1043A000A0D905C08E35914008F406CF11CF81E029
:1043B0006496EDE00C947731CF9392D20E94412D18
:1043C0000E942F3381E99FE10E9411198DE89FE13E
:1043D00068E87FE148E152E20E94AE141092910138
:1043E00081E08093920180E88093900190E1909326
:1043F000940192E0909395018093930190E29093C1
:104400009701C3E0C09398018093960189E991E0F8
:104410006EE770E042E050E00E94463510929C0149
:1044200010929B0110929D01C0939E01CF9108951F
:1044300080919E018F3F11F4BFDF05C089E099E1B3
:1044400061E00E943F0E81E008955C9AE8E6F0E0AA
:10445000808184608083EDE6F0E0808188608083E5
:104460002E9A2F9A0895CF93DF930E94412D909119
:10447000A601282F291B263990F18093A601C9B1E6
:10448000C870D9B1D295D17081E0D8278091A701A9
:10449000C81769F0C093A701CC2319F082E790E018
:1044A00002C086E690E061E041E00E94C510809184
:1044B000A801D817A1F0D093A801D11110C0CC2326
:1044C00071F088E590E061E041E00E94C51089EA62
:1044D00091E06AE076E044E050E00E944A33DF91E8
:1044E000CF9108959DEC899F812D11248695869505
:1044F000869508959DEC899F912D1124969596950A
:104500009695990F292F220F220F920F891B08953C
:104510009CDFE4E6F0E0808182608083589A599ABB
:104520002ADAA2D90E943C100E9486100E94F71736
:104530000E9423150E94B1130E9478140E94372D07
:104540000E947B160E944B2D0E94122F0E945D0D2F
:104550000E94CB18789488EC6DE741E021E000E000
:1045600010E00E943D1581E062E34FEF0E940418C5
:1045700083E793E10E9404190E9409190E942D2FDC
:104580000E94122E882321F00E94D3130E94F81358
:104590000E94BD150E9435180E948F0F64DF0E9493
:1045A000122E882321F00E947C0D0E941C190E946B
:1045B000532DE4CF18958093AE016093AF014093E3
:1045C000AD01E0910406F0910506309711F0862FB9
:1045D000099508955091F6054091F505242F30E096
:1045E000852F90E007962817390714F0465003C02E
:1045F000541708F4452F4093F60508958CEF95E085
:1046000060E070E04AE050E00C945333E09106061D
:10461000F0910706309711F00995089512C4A8E1AA
:10462000B0E0E5E1F3E20C9462318E010F5F1F4FC1
:10463000C80160E270E048E150E00E945333E0902E
:10464000F905F090FA05C7010E94413396958795C8
:104650009801281B390BC9010996B7010E943A330A
:10466000C80160E040E020E03CD86896E6E00C94A9
:104670007E31CF93DF93EC018091F805882361F0C0
:104680000E94590E882321F00E945C0E882321F09D
:10469000209711F0FE010995DF91CF9108950E94B6
:1046A000590E882321F00E945C0E882381F08091AE
:1046B000F805811105C081E08093F805C2D307C0D9
:1046C000E091FE05F091FF05309709F0099581E032
:1046D00008958091000690910106CBDF81E0089556
:1046E0008091FC059091FD05C4DF81E00895A8E06C
:1046F000B0E0EDE7F3E20C945F318091FB058111AE
:104700002EC08DDFE090F6058091F705883008F027
:1047100087E0B82EBE0CEB1408F0D6C0DE2CF12CCE
:1047200005EF15E04D2D50E04E195F094F5F5F4FCB
:10473000C42ECC0CCC0CCC0CF8018081D81207C054
:1047400082E191E060E040E02C2D0E94711B82E04C
:104750006D2D4C2D30DFD394DB1420F3B5C02091A8
:10476000F50530ED3203C0011124805C9F4F20918C
:10477000EE01222309F44AC0209110013091110169
:104780002817390704F5AC01421B530B12F44D5F97
:104790005F4F55954795559547954F5F413108F0C7
:1047A00040E1240F311D281739073CF430931101E3
:1047B00020931001CC24C39430C0909311018093B6
:1047C0001001C12C2AC08217930734F5A901481B98
:1047D000590B12F44D5F5F4F559547955595479589
:1047E0004F5F413108F040E1241B310982179307E4
:1047F0003CF43093110120931001CC24C3940DC0DC
:104800009093110180931001C12C07C09093110166
:1048100080931001C12C01C0C12C00911001109196
:104820001101FDDE8EE289838EE08A8326E738E07F
:104830003C832B8384E28D8388E08E831F821886DD
:10484000CE0101960E948D1A0E94921A8AE28A83F2
:104850002AE938E03C832B830E94921A8091F70565
:104860008823C1F0015F1F4FD12C0F2EF7EFEF2EE1
:10487000F5E0FF2EF02D0F39110528F4402F4F5190
:1048800080E06D2D98DED394005D1F4FF70190817D
:10489000D91688F381E06091F50540E08CDEE09167
:1048A0000206F09103063097B1F0C11009C00995D6
:1048B00021E030E0811102C020E030E0C90102C0F7
:1048C00081E090E0C82E07C0E0910206F091030657
:1048D000309769F7C12C8C2D2896E9E00C947B3138
:1048E0008DDE1092F80510920706109206060C94C1
:1048F000091920910606309107062617370719F087
:10490000FC0132832183FC0180818093F505709343
:1049100007066093060608954091F50550E0209142
:10492000F70530E02150310981E04217530709F0C3
:1049300080E00895CF93DF93EC01EEDF811104C096
:104940008091F505888307C0188289819A819093A8
:10495000070680930606DF91CF91089561E00C94DD
:104960003F0EA8E0B0E0E7EBF4E20C9466319091E2
:10497000AF0198133DC08091AE018130F1F028F075
:10498000823011F18330A1F527C08091AD01898378
:1049900080E18A834115510511F44EEB54E15C83AB
:1049A0004B8380E28D838E831F821886CE01019611
:1049B0000E948D1A0E94921A1BC0CB0160E040E059
:1049C00028E30E94711B14C0CB0160E046E02091F7
:1049D000AD010E94711B0CC02115310549F0809179
:1049E000AD01882319F0C901B9DF02C0F9010995A9
:1049F0002896E2E00C948231A8E1B0E0E2E0F5E232
:104A00000C9461317A018901D090AF01D8120BC0AA
:104A1000CE0101960E943A338D2DBE016F5F7F4F0C
:104A2000A70198019EDF6896E7E00C947D318091A4
:104A3000F70581506FE576E14EEB51E126E033E278
:104A4000DBCF60E00C943F0E0F931F93CF93DF9367
:104A5000082F162FEA01D2DD1092F6051092F50507
:104A60000F5F0093F7051093FB05D093FA05C093F1
:104A7000F905DF91CF911F910F9108959093FD0556
:104A80008093FC057093FF056093FE05509301062B
:104A90004093000630930506209304060895E5EF41
:104AA000F5E080818F5F80839091F705891710F082
:104AB0001092F5058FCDE5EFF5E080818150808380
:104AC0009091F705891718F091509093F50582CDD4
:104AD000482F83E06091F5056ECDE0EFF1E0908125
:104AE00081E08927808308950E9400170E94D313D4
:104AF00084E060E045E656E1A7DF8FE495E26BE5F0
:104B000075E24BE056E22EE835E2B8DF80EB91E04B
:104B100064E775E2EEDE80E090E093CFA2E2B0E0E1
:104B2000E4E9F5E20C946431813071F120F08230D7
:104B300009F061C042C0CE0181960E9405178AA18A
:104B4000882314F020E001C025E086FD2E5F8E0151
:104B5000075F1F4FEDB7FEB71283018387E896E129
:104B60009483838389A1992787FD90959683858374
:104B7000278310860E945A3380E0B80140E050E05D
:104B800020E037E1EEDE40C00E94E7138E01075FB0
:104B90001F4FEDB7FEB7128301832EE936E1348350
:104BA0002383968385830E945A3381E0B80140E0D5
:104BB00050E028E036E2D5DE27C08091F00188235E
:104BC00011F029E501C02EE48E01075F1F4FEDB7FC
:104BD000FEB7128301838FEA96E194838383258352
:104BE00016820E945A3382E0B80140E050E02DE680
:104BF00035E2B7DE09C083E065E776E140E050E0EA
:104C000020E030E0F9DE13DFA296E4E00C9480317E
:104C10000C94BB13089580EB91E08CDE7DDE58CFC1
:104C2000EEEEF1E0908181E089278083089584E0B1
:104C300061E04FEB56E108DF8FE495E269E876E248
:104C40004BE555E22DE236E219DF83EB91E067E1B7
:104C500076E24FDE80E090E0F4CE4091F2014295A2
:104C600046954695437080E8489FA0011124425420
:104C7000524F80E069EC76E12EE636E2BDDE81E05F
:104C800061ED76E14EE35DE026E636E2B5DE82E0F8
:104C90006FED76E14EEB59E02EE536E2ADDE409168
:104CA000EE0180E8489FA0011124425C534F83E04D
:104CB00067EE76E120E136E29FDEB9CEEFEEF1E07D
:104CC000908181E0892780830C94C318EDEEF1E098
:104CD000908181E0892780830C94BD188091F20136
:104CE00082958695869583708F5F843008F080E08A
:104CF000E2EFF1E0282F2295220F220F207C9081F5
:104D00009F73922B908395E5899F802D11240C949D
:104D1000BA18CF9301DEC82F81110E946C1083EB6B
:104D200091E008DE8C2FD4DECF91089582E060E020
:104D300040EF56E189DE8FE495E26BE575E24DEBDD
:104D400056E22CEA36E29ADE86EB91E066E976E2FC
:104D5000D0DD80E090E075CE80E069EF76E140E064
:104D600050E02EE13FE148DE81E062E077E140E0A3
:104D700050E02CED31E240DE5ACE86EB91E0DADDF8
:104D800081E0A6CE87E793E20E94111980E793E2C3
:104D90006FE473E249E653E20E94AE1486E061E0FC
:104DA0004CE057E151DE8FE495E26CE177E24BE5B0
:104DB00055E224EE36E262DE89EB91E062EC76E2C7
:104DC00098DD80E090E03DCE80E06DE177E14EE35C
:104DD00054E124E737E210DE81E067E277E14EE359
:104DE00053E12CE230E108DE82E06FE277E14EEB46
:104DF00053E12BE73FE000DE83E06AE377E14EEB2F
:104E00005FE026E936E2F8DD84E06FE377E14EEB20
:104E100052E121E939E2F0DD85E069E477E14EE332
:104E200052E124E735E2E8DD86E065E577E14EEB27
:104E300051E120E734E2E0CD89EB91E07BDD81E0D8
:104E400047CE80E090E06FE473E240E050E00E94E3
:104E5000AE1482EC96E282CD8091F305823021F08F
:104E6000833041F48BE308958091F101813021F486
:104E70008CE0089581E0089587E10895CF93E4EFF1
:104E8000F5E0C081CF5FC083E7DF8C1710F410928C
:104E9000F4058091F305823059F48091F10181305D
:104EA00039F48091F405811103C081E08093F40509
:104EB000CF910895E4EFF5E0808181508083909157
:104EC000F305923049F49091F101913029F4811168
:104ED00003C08CE08093F405BFDF9091F40589173F
:104EE00010F48093F40508958AE060E04BE557E103
:104EF000ABDD8FE495E26BE575E24CE859E22AE818
:104F000037E2BCDD8CEB91E064E777E2F2DC80E035
:104F100090E097CDA2E2B0E0E0E9F7E20C946531D1
:104F2000182F8A3008F062C08091F305882321F0A1
:104F30008091F505811739F0812FBE01605E7F4FAA
:104F40000E94CE0C08C0CE0180966FEB71E043E06A
:104F500050E00E944A3388A18E8F80E28F8FCE016D
:104F60004C966091F1011AD79E01245F3F4FEDB737
:104F7000FEB73283218320E737E1348323838E8D8C
:104F80008583168289A1878310868F8D81871286FB
:104F90000E945A338AA1882314F480E801C08EE26B
:104FA0008B871B8E6AA170E0DE01549620E030E012
:104FB000AB01022E02C0559547950A94E2F740FFD7
:104FC00005C0F901EF52FA4EE49101C0EDE2ED9314
:104FD0002F5F3F4F2730310559F7812FBE01655FA5
:104FE0007F4F40E050E02BEF37E2BBDC20DDA296A4
:104FF000E3E00C948131A4E0B0E0E1E0F8E20C944D
:1050000064318AE597E26EE377E24CE859E22AE8F8
:1050100037E234DD8DE099E2909303068093020637
:105020004091F305433009F45EC028F44130D9F0D3
:1050300008F040C007C0443009F470C04C3008F09C
:10504000E8C087C08091F5056FEB71E00E94CE0C3F
:1050500081E08093F3058091C10187FB882780F967
:105060008093F405D6C091E08091F405811101C0D0
:1050700090E0E1ECF1E0808190FB87F9808382E0B1
:105080008093F3050FEB11E0F80180818B8380E2C0
:105090008C83CE0101966091F10180D68B81809343
:1050A000F40581E0F80190819C3008F480E0809361
:1050B000C201AFC08091F4059091F101913009F0E7
:1050C000A3C097C081E48C83CE01019660E066D6D0
:1050D0008B818093BF0183E08093F3058091C001B1
:1050E0008093F40596C08091F4058093C00180916F
:1050F000F101813041F484E08093F3058091C20195
:105100008093F40508C085E08093F3058091C10188
:1051100081708093F4051092C3017BC08091BF0120
:105120008B838091F405882311F080E501C081E430
:105130008C83CE01019660E031D68B818093BF01D4
:1051400085E08093F3058091C10181708093F4051F
:1051500060C08091F405882379F0E1ECF1E081E012
:1051600090E00090C30102C0880F991F0A94E2F7F3
:105170009081892B80830FC0E1ECF1E081E090E029
:105180000090C30102C0880F991F0A94E2F780952E
:105190009081892380838091C3018F5F8093C301B5
:1051A0002091C10130E0B90102C0759567958A95DB
:1051B000E2F7CB0181708093F4054B3021F04F5F13
:1051C0004093F30526C08091F5056FEB71E00E94D6
:1051D0006C0D1092F3058FE495E26BE575E24CE8F7
:1051E00059E22AE837E24ADC1092030610920206DE
:1051F00010C08D3008F08CE08B838091C201882331
:1052000009F460CF80E55FCF883108F462CF87E191
:1052100060CF2496E4E00C948031AAE0B0E0E3E1B2
:10522000F9E20C9464311886E091F305E330D1F192
:1052300030F4E13069F0E23009F06AC006C0E430D1
:1052400091F0EC3008F064C019C005E14BE02CC0CF
:105250008091F405882311F080E801C08EE28F83ED
:1052600007E045E021C08091F405882311F080E536
:1052700001C081E48F8308E345E016C0E5500E2F9E
:10528000000F000F000F0E1B0A5B8091F4058823AE
:1052900029F0F0E0EF52FA4EE49101C0EDE2EF8325
:1052A00045E002C00AE24BE02091F50530E0809134
:1052B000F605281B31092F5F3F4F122F110F110FD9
:1052C000110F802F612F0E94001C8091F3058250E6
:1052D0008230B8F4FE013796ADB7BEB71296FC9394
:1052E000EE931197E9E6F7E11496FC93EE9313978A
:1052F0008091F40515968C93159716961C920E9432
:105300005A33CE01079661E0402F212F0E94711B76
:1053100080E02A96E4E0F4C78CEB91E00BDBFCDA4A
:10532000D7CB84E061E042E857E18EDB8FE495E281
:1053300068EC79E24BE555E227EA39E29FDB84EC41
:1053400091E061E979E2D5DA80E090E07ACB80E023
:1053500060E977E14EE351E127E43BE24DDB81E098
:105360006DE977E14EEB50E126ED39E245DB82E075
:1053700061EA77E14EE350E129E63AE23DDB83E082
:1053800066EA77E14EE359E027E136E235DB4FCBC1
:1053900084EC91E0CFDA81E09BCB8091EC018F5FD0
:1053A0008D3008F080E08093EC01089581E061E0A9
:1053B0004CEA57E149DB8FE495E267E27AE24BE59C
:1053C00055E22EE13AE25ADB82EF99E2909303062E
:1053D0008093020687EC91E066ED79E28ADA80E05C
:1053E00090E02FCBAAE0B0E0E7EFF9E26DC7809143
:1053F000F50581111FC08E01095F1F4FEDB7FEB784
:105400001283018389EB97E1948383838091EC017C
:1054100090E09C01220F331F220F331F820F931F36
:10542000968385830E945A33C80160E048E328E2EE
:105430000E94711B80E02A96E4E062C780E06FEB77
:1054400077E14EEB58E02DEC39E2D6DAF0CACF9393
:1054500063DAC82F81110E946C1087EC91E06ADA40
:105460008C2F36DBCF9108958091F20183708F5F8E
:10547000843008F080E0E2EFF1E0837090819C7F5F
:10548000892B808308958091F2018695869583709B
:105490008F5F843008F080E0E2EFF1E08370880FE6
:1054A000880F9081937F892B808308958091F201EA
:1054B00082958F7083708F5F843008F080E0E2EF18
:1054C000F1E083708295807F90819F7C892B80831F
:1054D000089583E061E048EC57E1B6DA8FE495E2A5
:1054E00065EB7AE24BE555E22FE73AE2C7DA8AEC60
:1054F00091E069E67AE2FDD980E090E0A2CACF931C
:10550000DF93C2EFD1E04881437080E8489FA0015B
:105510001124425C554F80E061ED77E124E33AE2EB
:105520006BDA488146954695437080E8489FA00114
:105530001124425C554F81E064ED77E123E43AE2C7
:105540005BDA488142954F70437080E8489FA00124
:105550001124425C554F82E06EED77E126E53AE298
:105560004BDA65DADF91CF910895CF93D5D9C82F63
:1055700081110E946C108AEC91E0DCD98C2FA8DAA2
:10558000CF9108958091F305843061F028F4813043
:1055900049F0823099F408C0863061F088F0873095
:1055A00069F40AC081E008958091D501813051F4F9
:1055B0008CE008958BE0089583E608958BE30895C9
:1055C0008FE1089587E10895CF93E4EFF5E0C0817E
:1055D000CF5FC083D7DF8C1710F41092F405809151
:1055E000F305823029F48091D501813051F402C055
:1055F000853039F48091F405811103C081E08093F6
:10560000F4051092D601CF910895E4EFF5E0808182
:1056100081508083811111C08091F305823041F463
:105620008091D501813081F48CE08093F40505C030
:10563000853051F48FE18093F405A4DF9091F40557
:10564000891710F48093F4051092D601089585E02F
:105650009BE264EE7AE24AE15DE22DE63BE20EDA9D
:105660008BE19CE2909303068093020608951092CA
:10567000F3058CE29DE261E27DE24AE15DE22DE626
:105680003BE2FCD9109203061092020608958DECBD
:1056900091E06AE076E048E050E0FCD78091F101CB
:1056A0008093D5011092D60186E060E04CEE57E180
:1056B000CBD98CE29DE261E27DE24AE15DE22DE63A
:1056C0003BE2DCD987ED91E067E47BE212D981E02F
:1056D0008093F50580E090E0B4C9A2E2B0E0E2E793
:1056E000FBE2F0C57E018FE1E80EF11C6091D30171
:1056F00070E0660F771F660F771F6B577A4EC701F2
:10570000B9D78E01035F1F4FEDB7FEB71283018338
:105710008AE198E1948383838091D2018583168204
:10572000F086E7828091D40181871286C3D781E019
:10573000B80140E050E027ED3BE213D92091D001C1
:10574000203211F03CE001C038E18E01035F1F4FB1
:10575000EDB7FEB71283018380E398E194838383DE
:10576000358316828091CF01878310868091CE0188
:1057700081871286238714869DD783E0B80140E095
:1057800050E02FEA3CE2EDD88091D601882319F051
:105790006DEF77E102C069E078E185E040E050E03C
:1057A00026E03DE229D943D9A296E6E0A7C54FDF1E
:1057B0008091F305853061F08630E1F081112FC0D2
:1057C00085E08093F3058091D2018093F4050895DC
:1057D0008091F405882319F08093D20103C081E001
:1057E0008093D20186E08093F3058091D30180936A
:1057F000F40508958091F4058093D3016091D4015C
:1058000090D29091D201891710F48093D20187E051
:105810008093F3058091D4018093F40508958091DD
:10582000F4058093D4016091D3014091D20144D218
:105830008093D1011CCFABE0B0E0E0E2FCE242C5D6
:105840008091F305843019F138F48230C1F0D8F436
:10585000813009F080C00FC08630E9F020F0873039
:1058600009F079C004C04EE010E10CE117C04EE031
:1058700010E10BE513C04CE110E20BE10FC04EE06C
:1058800010E20FE30BC04EE010E204E507C04EE06B
:1058900010E202E603C041E110E101E3802F612F35
:1058A0000E94001CEDB6FEB69091F305963071F49F
:1058B000E091F405F0E0EE0FFF1FEE0FFF1FBF01B8
:1058C0006B577A4ECE010796D5D637C0943051F437
:1058D0008091F405882311F081E401C080E58F8375
:1058E00018862BC0913099F48091F405882329F013
:1058F00081E38F8382E3888704C082E38F8384E31C
:10590000888788E6898782E78A871B8616C0FE011A
:105910003796ADB7BEB71296FC93EE931197E3E1BD
:10592000F8E11496FC93EE9313978091F405159685
:105930008C93159716961C92BDD6CE01079661E002
:10594000402F212F0E94711B8E2D9F2D0FB6F89492
:105950009EBF0FBE8DBF80E02B96E6E0CFC4CF93F5
:10596000DF9375DE8091F305813079F030F082307D
:10597000D9F0833009F03DC023C081E08093F30566
:105980008091D5018093F4053EC0C4EFD5E06881D5
:105990006093D5018DEC91E001D28091CF01888395
:1059A00082E08093F3052FC0E4EFF5E080818093DF
:1059B000CF018091CE01808383E08093F30523C0E3
:1059C0008091F4058093CE018091D501813061F4FE
:1059D00084E08093F30581E09091D001913409F047
:1059E00080E08093F4050FC080E28093D0013FDE19
:1059F0000AC08091F405882311F081E401C080E59C
:105A00008093D00134DEDF91CF9108958091D5014C
:105A10008093F1010E946C108DEC91E00BD28DEC23
:105A200091E06AE076E048E050E034D681E080938F
:105A3000D601089587ED91E00E949A240E948C245B
:105A400047C839D88091F505882321F0823011F0BC
:105A5000843009F430C8089522D88091F505882350
:105A600021F0823011F0843009F419C8089583E0E0
:105A70008093B10082E0809370008AEF8093B3003E
:105A800008958FB7F89420910806309109068FBFCA
:105A9000822F932F08951092DA011092DB0183B7C1
:105AA000817F83BF0895CF930E94E713803F2AE050
:105AB000920790F54B9930C0892B71F10E94961492
:105AC0008FEF0E94D5100E94501880E00E94B418F9
:105AD000DFD083B7817F846083BFF89483B7816010
