:100000000C94D90A0C9421300C94F60A0C94E52037
:100010000C94E5200C94F60A0C94F60A0C94812DAD
:100020000C94F60A0C94F60A0C94F60A0C94F60A50
:100030000C94F60A0C945C140C94F60A0C94F60AD0
:100040000C94F60A0C94F60A0C94F60A0C94F60A30
:100050000C94F60A0C94F60A0C94F60A0C94F60A20
:100060000C94F60A0C94F60A9526B326CE26EE26B4
:100070001627362758276C2781279627AA27BF27B8
:100080001F2829282F2835283B2841284B28552868
:100090005F28692873287D282530326868753A25DD
:1000A0003032686875002530326868753A2530321C
:1000B000686875002530326868753A25303268689E
:1000C000750025732025303268687520257320322D
:1000D000302530326868750025750000F8F8F8F8AA
:1000E0000000C3C3C3C300001F1F1F1F00FEFFFF8C
:1000F0000F0707070FFFFFFE7FFFFFF0E0E0E0F0D4
:10010000FFFF7F0000181C1EFFFFFF000000000023
:10011000000000FFFFFF0000001E1F1F070787C72A
:10012000E7FF7F3EF0F8FCFEEFE7E3E1E0E0E00E02
:100130000F0F070787C7EFFF7F3E70F0F0E0E0E1A9
:10014000E3F7FFFE7CC0E0F0783C1EFFFFFF0000FD
:100150001F1F1F1C1C1CFFFFFF1C1CFFFFFFC7C72E
:10016000C7C7C7C7870771F1F1E1E1E1E1F3FF7F9D
:100170003FFEFFFF8F878787878F8F0E7FFFFFE30D
:10018000E3E3E3E3FFFF7F0F0F0F07070787C7FFD7
:10019000FF7FE0F0783C1E0F07030100007EFFFFA9
:1001A000C7878787C7FFFF7E7EFFFFE3E1E1E1E3CB
:1001B000FFFF7EFEFFFFC7C7C7C7C7FFFFFE78F977
:1001C000F9E1E1E1E1E1FFFF7FFEFFFFFFFF0F0F3C
:1001D0000F0F0F0F0F0F0FFFFFFFFFFEFFFFFFFFC0
:1001E000FF000000000000000000FFFFFFFFFF7F96
:1001F000FFFFFFFFF0F0F0F0F0F0F0F0F0FFFFFF96
:10020000FF7F000000000000203CFFFFFFFFFF0019
:1002100000000000000000000000000000FFFFFFE1
:10022000FFFF0000000000000000000000000000D0
:10023000FFFFFFFFFF00000000000000FEFFFFFFC8
:10024000FF0F0F0F0F0F0F0F0FFFFFFFFFFE00003D
:100250000000000080C0E0F0F8FC7E3F1F0F0703A5
:1002600001E0F0F8FCFEFFFFFFF7F3F1F0F0F0F033
:10027000F0F0F0F0FEFFFFFFFF0F0F0F0F0F0F0F5B
:100280000F0FFFFFFFFFFE00000000000000081C32
:100290001C3E3E7E7FF7F7F7E3E37FFFFFFFFFF0B3
:1002A000F0F0F0F0F0F0F0F0FFFFFFFF7F00000053
:1002B000000080E0F0FCFF7F1F0F03010000000042
:1002C00080C0F0FCFEFF3F0F0301000000FFFFFFB6
:1002D000FF00000F0F0F0F0F0F0F0F0F0F0F0F0F5C
:1002E000FFFFFFFF0F0FFFFFFFFFFF0F0F0F0F0FAE
:1002F0000F0F0F0F0F0F0F0F0F1F1F1F1F1F1E1EA0
:100300001E1E1E1E1E1E1EFEFEFEFEFC7FFFFFFFAB
:10031000FFF0F0F0F0F0F0F0F0F0FFFFFFFF7FFEF5
:10032000FFFFFFFF0F0F0F0F0F0F0F0F0F7F7F7FCD
:100330007F7EFFFFFFFFFF3C3C3C3C3C3C3C3C3CA9
:10034000FCFCFCFCF87FFFFFFFFFF0F0F0F0F0F0AA
:10035000F0F0F0FFFFFFFF7F7F7F7F7F7F0F0F0FAA
:100360000F0F0F0F0FCFFFFFFFFF1F000000000058
:100370000000000080F0FCFFFF3F0F0300000000C2
:1003800000000080E0F8FEFFFF1F070100000000F2
:1003900000FEFFFFFFFF0F0F0F0F0F0F0F0F0FFFDD
:1003A000FFFFFFFEC3E7E7F7FF7E3E3E3C1C3C3EFF
:1003B0003E7EFFF7E7E7C37FFFFFFFFFF0F0F0F0BF
:1003C000F0F0F0F0F0FFFFFFFF7FFEFFFFFFFF0FF9
:1003D0000F0F0F0F0F0F0F0FFFFFFFFFFE1F3F3F0E
:1003E0003F3F3C3C3C3C3C3C3C3C3CFFFFFFFFFF78
:1003F0007EFEFEFEFEF0F0F0F0F0F0F0F0F0FFFF19
:10040000FFFF7F0000000000005F00000000070009
:100410000700147F147F14242A7F2A1223130864F0
:1004200062364955225000050300001C224100009D
:1004300041221C0000082A1C2A0808083E0808A0BF
:100440006000000008080808086060000000201034
:100450000804023E5149453E00427F400062514936
:10046000494622414949361814127F10274545450F
:10047000393C4A4949300171090503364949493631
:10048000064949291E003636000000AC6C00000801
:1004900014224100141414141441221408000201FF
:1004A000510906324979413E7E0909097E7F494951
:1004B00049363E414141227F4141221C7F49494901
:1004C000417F090909013E414151727F0808087FB7
:1004D000417F4100002040413F017F081422417FBD
:1004E000404040407F020C027F7F0408107F3E4165
:1004F00041413E7F090909063E4151215E7F0919AC
:100500002946264949493201017F01013F404040C7
:100510003F1F2040201F3F4038403F6314081463B2
:10052000030478040361514945437F4141000002BF
:100530000408102041417F00000402010204808071
:10054000808080010204000020545454787F484485
:1005500044383844442800384444487F385454547C
:1005600018087E09020018A4A4A47C7F080404785B
:10057000007D00000080847D00007F102844004141
:100580007F4000007C041804787C08047C00384418
:10059000443800FC24241800182424FC00007C08A3
:1005A00004004854542400047F4400003C40407C34
:1005B000001C2040201C3C4030403C442810284473
:1005C0001CA0A07C004464544C4408364100000048
:1005D0007F0000004136080000020101020102050F
:1005E0000502000010189C72301000FF81BDBDBDD7
:1005F000BDBDBDBDBDBDBDBD81FF3CFF81BDBDBDA0
:10060000BDBDBDBDBD81818181FF3CFF81BDBDBD43
:10061000BD8181818181818181FF3CFF81BD81819B
:10062000818181818181818181FF3C10387C3810FA
:10063000101814345656D0D01038101F0101010183
:10064000010101010101010101010101010101019A
:1006500001010101010101010101010101011FF875
:10066000808080808080808080808080808080808A
:10067000808080808080808080808080808080807A
:100680008080F80000000000000000C0E03030185A
:100690001808CCCC0818183030E0C000000000006A
:1006A00000000000000000000018FFC30000000070
:1006B00000000F1F3060C080000083FF18000000A2
:1006C000000000000000000000000003070C0C18F0
:1006D000101030301010180D0C070300000000003F
:1006E000000000000000000000000000000000000A
:1006F00000000000000000000000000000000000FA
:100700000000000080C0C0C0C0C0C0C0C0C0C0C029
:10071000C0C0C0C0C0C0C0C0C0C0C0C0C0C0C0C0D9
:10072000C0800000FFFF007E1E0E060202000000D7
:1007300000000000000000000000000000000000B9
:10074000FFFF0000FFFF00000000000000000000AD
:100750000000000000000000000000606060600019
:10076000FFFF000001030303030303030303030369
:100770000303030303030303030303030303030349
:10078000030100000000000080C0E0F0F0F878787D
:100790003C3C3C3C3C3C7878F8F0F0E0C000000089
:1007A0000000000C1C7CFCFEFFFFFF7F3C0C0000E7
:1007B000000000000000000000000101C0C0C000F7
:1007C0000000000000000003030380800000000020
:1007D0000000000000000000303CFEFFFFFF7F3FF4
:1007E0003E3C3000000000000003070F0F1F1E1EDC
:1007F0003C3C3C3C3C3C1E1E1F0F0F07030100000D
:1008000000000000000000000000000000000000E8
:1008100000000000000000000000000000000000D8
:1008200000000000000000000000000000000000C8
:1008300000000000000000000000000000000000B8
:1008400000000000000000000000000000000000A8
:100850000000000000000000000000000000000098
:100860000000000000000000000000000000001E6A
:100870003F313D3D313F1E00000000000000000000
:100880000000000000000000000000000000000068
:100890000000000000000000000000000000000058
:1008A0000000000000000000000000000000000048
:1008B0000000000000000000000000000000000038
:1008C00000000000000000000000003C7E627A3A58
:1008D0003A3A3A3A3A3A3A7A627E3C0000000000EC
:1008E0000000000000000000000000000000001EEA
:1008F0003F313D3D313F1E00000000000000000080
:1009000000000000000000000000000000000000E7
:1009100000000000000000000000000000000000D7
:100920000000000000000078FCC4F4747474747457
:100930007474747474747474747474F4C4FC78008F
:1009400000000000000000000000003C7E627A3AD7
:100950003A3A3A3A3A3A3A7A627E3C00000000006B
:100960000000000000000000000000000000001E69
:100970003F313D3D313F1E000000000000000000FF
:1009800000000000F0F888E8E8E8E8E8E8E8E8E8CF
:10099000E8E8E8E8E8E8E8E8E8E8E8E8E8E8E88837
:1009A000F8F0000000010178FCC4F47474747474ED
:1009B0007474747474747474747474F4C4FC78010E
:1009C00001000000000000000000003C7E627A3A56
:1009D0003A3A3A3A3A3A3A7A627E3C0000000000EB
:1009E0000000000000000000000000000000001EE9
:1009F0003F313D3D313F1E0000000000000000007F
:100A0000000000000080E0F0F8F8FCFC7C7C3CBCBE
:100A10009EDEDEDEDEDEFEBC3CF8F8F0F0E0C0007C
:100A200000000000E0FFFFFF7F7F7D0030F8F8F15D
:100A3000F1E3C3E7FFFF7F7F7F7F7F03031FFFFF9C
:100A4000FEF00000073FFFFFF8E0C0E0F0F97F3F55
:100A50001F0F0FF3FDFC786001071F9FDFFFFFFFF3
:100A6000FFFF00000000000103070F1F1F3C3C3C7C
:100A70007878787F7F7F7F7F7E7E7F7F7F3F1F0FAD
:100A8000070300000080E0F0F8383C3C7C7C38989C
:100A900090C0C0C0C0C0C0800000000000000000C6
:100AA0000000000000071F3F7C7C7C0030F8F8F15C
:100AB000F1E3C3870F1F3F7F7F7E7C0000000000B3
:100AC000000000000000000000000000000103071B
:100AD0000F0F0FF3FDFC786001071F1FDFFFFEFC07
:100AE000F8F000000000000000000000000000001E
:100AF000000000070F1F3F7F7E7E7C7C7F3F1F0F23
:100B0000070300FFFFFFFFFFEFCF8F0F0F0F0F0F48
:100B10000F0F0F0F0F0F0F0F0F0F0F0F0F0F0FFFF5
:100B2000FFFFFFFFFFFFFFFFFFFFFFFFFE040C1CA7
:100B30003C7CFCFCFCFCFCFCFC000000000000FF1A
:100B4000FFFFFFFFFFFFFFFFFFFFFFFFFFC0C0C072
:100B5000C0C0C0C1C3C7CFDFFFC08000000000FF1E
:100B6000FFFFFFFFFFFFFFFFFFFFFFFFFFFFFFFF95
:100B7000FFFFFFFFFFFFFFFFFFFFFFFFFEFCF8FF90
:100B8000FFFFFF0000000000000000000000000068
:100B90000000000000000000000000000000000055
:100BA00000000000000000000000000000C0F0F89D
:100BB000381C1C1C1C38F8F0C000000000000000AD
:100BC00000000000000000000000000000030F1FF4
:100BD0001C383838381C1F0F0300000000000000CC
:100BE0000000000000000000000000000000000005
:100BF00000000000000000000000000000000000F5
:100C000000000000000000000000000000000000E4
:100C10000000FEFE000000000000000000000000D8
:100C200000000000000000000000000000C0F0F81C
:100C3000381C1C1C1C38F8F0C0000000000000002C
:100C40000000000000000000000080C0C0030F1F73
:100C50001C383838381C1F0F03C0C080000000004B
:100C60000000000000000000060703010000000073
:100C70000000000000000000000001030706000063
:100C8000000000000000000060E0C08000000000E4
:100C90000000000000000000000080C0E0600000D4
:100CA00000000000000000000000010303C0F0F895
:100CB000381C1C1C1C38F8F0C003030100000000A5
:100CC0000000000000000000000080C0C0030F1FF3
:100CD0001C383838381C1F0F03C0C08000000000CB
:100CE00000000000000000000607030100000000F3
:100CF00000000000000000000000010307060000E3
:100D0000000000000000000060E0C0800000000063
:100D10000000FEFE00000000000080C0E060000057
:100D200000000000808080808080810303C0F0F894
:100D3000381C1C1C1C38F8F0C003038180808080A4
:100D40008080000001010101010181C0C0030F1F6B
:100D50001C383838381C1F0F03C0C0810101010145
:100D60000101000000000000060703010000000070
:100D700000007F7F00000000000001030706000064
:100D800000000000000000808080808000000000E3
:100D900000000000000000000000808080808000D3
:100DA00000000000E0F89C9F07079F9FFCFCFCFCF4
:100DB000FCFCFCFCFCFCFCFCFCFC9F9F67679F9C14
:100DC000F8E000F8FFFFFFFFFE7E3F1F31242431D3
:100DD0001F0F0F0F0F1F312424311F3F7EFEFFFF17
:100DE000FFFFF80001010101000000000000000009
:100DF00000000000000000000000000000000101F1
:100E000001010000000000000000000000000000E0
:100E100080C0E0E00000000080000070E0C08000C2
:100E200000000000F0F8F8F8F8F8F8F8F8FCFEFF19
:100E3000FFFFFFFF00003CF8C1071FFCF0031FFE8F
:100E4000F00000000F1F1F1F1F1F1F1F1F3F7FFFEE
:100E5000FFFFFFFF00003C1F83E0F83F0FC0F87F5B
:100E60000F00000000000000000000000000000073
:100E700001030707000000000100000E0703010046
:100E80000000000000000000000000000000000062
:100E900000000000000000000000000484E4741C56
:100EA0000C00000000000000000000000000000036
:100EB000000383C3F33B1F07030000030302020286
:100EC0000200000000070787C7E7F77F3F1F0F00FA
:100ED00000060707060606060600000000000000E0
:100EE000000000003C3E3F3F3B393838383838007E
:100EF00000000000000000000000000000000000F2
:100F00000000000080C0C00000F8F8C00000F8F841
:100F1000C0C00000F8F8C0C0C080000000000000A1
:100F2000000000FFFFFF3F3E3F3F3FBFBFBE3FBF50
:100F3000BFBFBEBEFFFFFF7F7F3FB8307070F0E0E5
:100F4000C08000FFFFFF806C6C6C006D6D6D006DEC
:100F50006D6DFFFFF7890002061C7800000008C3D2
:100F6000FFFF3E0001030303030303030303030323
:100F70000303030303070F0E0E0E0F0E0E0E0707DB
:100F80000301000080C0C0C0C0C0C0C0C0C0C0C09D
:100F9000C0C0C0C0C0C0C0C08000000000000000D1
:100FA00000000000FFFF0100000000000000000042
:100FB000000000808080818F8F80808C9CB8F0E062
:100FC000C0800000FFFF8000000000000000000063
:100FD00000000001010181F1F1010131391D0F070C
:100FE00003010000010303030303030303030303DB
:100FF00003030303030303030100000000000000D8
:1010000000000000000000000000000000C0F8F038
:1010100000000000000000000000000000000000D0
:101020000000000080808080808080C0FC3F013F05
:10103000FE80000000000000000000000000000032
:101040000000000001010101010101010100000097
:1010500007FFE080F83C0C0C0C0C0C0C0C0C0C0C7E
:101060000C0C000000000000000000000000000068
:1010700000010F0F0300000000000000000000004E
:101080000000000000000040E0F0E0E0C080C0C0D0
:10109000E0FEFEFEFEE0C0C080C0E0E0F0E0400008
:1010A00000000000C0C0C0C0E1FBFF1F07E3F1F972
:1010B0007C3C1C1C3C7CF9F1E3071FFFFBE1C0C03A
:1010C000C0C000000303030387DFFFF8E0C78F9F62
:1010D0003E3C38383C3E9F8FC7E0F8FFDF87030374
:1010E0000303000000000002070F070703010303CA
:1010F000077F7F7F7F070303010307070F070200B6
:1011000000000000000000000000000000000000DF
:1011100000000000000000000000000000000000CF
:10112000000000C0E0F0F0F0F0F0F0F0F0F0F0F0CF
:10113000F0F0F0F0F0F0F8F8FCFCFCFCFCFC00B087
:1011400090988803070F0F0F0F0F0F0F0F0F0F0F40
:101150000F0F0F0F0F0F1F1F3F3F3F3F3F3F000D70
:10116000091911000000000000000000000000004C
:10117000000000000000000000000000000000006F
:10118000000000000060F0F8F8F0E06060B0301897
:101190001818F8D818181830B06060E0F0F8F8F0B7
:1011A0006000000000F07C0F130100000000000050
:1011B0000000FFFF000000000000000001130F7C92
:1011C000F0000000077FF2824000000000000000F5
:1011D000000003070E1C3870E0C08000004082F25F
:1011E0007F07000000000103060C1830306860C063
:1011F000C0C0F0C0C0C0C060683131180C06030127
:1012000000000000000070783C9ECE6F6737331AF4
:101210001818F8D818181A3337676FCE9E3C7870B4
:101220000000000000F07C0E030100000000000040
:101230000000FFFF000000000000000001030E7C22
:10124000F0000000077FF28203030303030303039C
:10125000030303030000000000000000000082F20E
:101260007F07000000000103060C1830306060C0EA
:10127000C0C0F0C0C0C0C060603030180C060301B0
:10128000000000000000000080E0F0F8FCFCFC3EE4
:101290001E1E1E1E1E3E7CFCFCF8F0E080000000BE
:1012A0000000000000000000010101010101000038
:1012B000000080C0E0F0F8FFFFFF7F3F0F0000005C
:1012C0000000000000000000000000000000007CA2
:1012D0007E7F7F7F7F0F0301010000000000000080
:1012E0000000000000000000000000000000007E80
:1012F0007E7E7E7E7E000000000000000000000078
:101300000000000F0102016F909060011F01007842
:101310008080780F0402040FF8A8A8011F0100F8CC
:101320002020F81F050500F828689012150900F024
:101330002828F012150900788080783C42819DA110
:1013400081423C060F1F3E1F0F064A616E00466534
:1013500062004D617200417072004D6179004A7502
:101360006E004A756C0041756700536570004F63ED
:1013700074004E6F7600446563004D6F6E005475C7
:1013800065005765640054687500467269005361D2
:10139000740053756E006070501030F0F0301050D3
:1013A0007060030307070725750040F8EC2C2C3804
:1013B000F010D030E84C4C9CF0021F3734341C0F36
:1013C000080B0C173232390F010101010101010133
:1013D0002575002575002575004261636B0020208E
:1013E0003C20444941474E4F5354494353203E000B
:1013F00054656D70657261747572652025686864E6
:101400002E256868754300426174746572792020E6
:10141000202025756D560053686F77204650532065
:1014200020202020202020590053686F772046502C
:101430005320202020202020204E00202020203C4F
:1014400020444953504C4159203E0042726967681C
:10145000746E65737300496E7665727400526F74B2
:1014600061746500416E696D6174696F6E7300200F
:10147000202020203C2047414D4553203E00427211
:1014800065616B6F75740043617220646F6467659A
:10149000002020203C204D41494E204D454E5520F6
:1014A0003E00416C61726D7300466C6173686C69DB
:1014B0006768740053746F70776174636800476184
:1014C0006D65730053657474696E67730044696178
:1014D000676E6F73746963730045786974002020C8
:1014E00020203C20414C41524D53203E00202025DD
:1014F00030326868753A25303268687520002020DF
:10150000203C2053455454494E4753203E005469D3
:101510006D652026206461746500536C65657000FC
:10152000536F756E6400446973706C61790020209C
:1015300020203C20534C454550203E0054696D65A9
:101540006F75740025686875530020202020203CAA
:1015500020534F554E44203E00554900416C617266
:101560006D7300486F75722062656570730020208E
:101570003C2054494D4520262044415445203E00FE
:101580005361766500256868750025337325303210
:101590006868752025732032302530326868750000
:1015A0002536732530326868753A2530326868759B
:1015B000000011241FBECFEFD8E0DEBFCDBF11E089
:1015C000A0E0B1E0ECE4FEE602C005900D92A03789
:1015D000B107D9F716E0A0E7B1E001C01D92AF371F
:1015E000B107E1F70E947B200C9424370C94000093
:1015F0002CE3829FC00111249C01260F311D80EA3B
:1016000095E0489FB001499F700D1124260F371FA8
:10161000822F932F0895A0E0B0E0E1E1FBE00C946D
:101620002232609175066F5F409177068091760651
:10163000DFDF5C0150908E010F2EF9E06F2EF02D50
:10164000EE24EA94FE2C812C912C0F2EF6E04F2EE6
:10165000F02D062D10E0F801EE0FFF1FE00FF11F37
:10166000EE58FE4F808188236CF5F801EE0FFF1FC6
:10167000E00FF11FE059FE4FC281D0E0742C8F01C2
:101680006F018FEFC81AD80ACE01072C02C09595BA
:1016900087950A94E2F780FF11C0472DF60160811B
:1016A000F8018081A5DF8A199B0912F4815A984DAF
:1016B0008E159F0518F44801572C7C017A94FFEF92
:1016C0007F12E2CF6A948FEF6812C3CF50928E01DF
:1016D0009092900180928F01CDB7DEB7E0E10C943B
:1016E0003E3280919201909193010E94AE186091D8
:1016F00094017091950181E0D0D76091960170912D
:10170000970182E0CAD7609198017091990180E0B9
:10171000C4D780914A020E94EF1660E085E00E94E3
:10172000152E1092910181E00895AFE0B0E0EBE951
:10173000FBE00C942E320E94772D88236CF089E018
:10174000E1E2F1E0DE01179601900D928A95E1F752
:10175000CE0107960E94DF18809175061F928F9325
:10176000809176061F928F9388E990E09F938F93E4
:101770008E010F5F1F4F1F930F930E943C3424E193
:101780004FE460E0C8010E94BB196091770670E0E9
:10179000660F771F660F771F66587C4EC8010E9440
:1017A0001E3424E246E560E0C8010E94BB190FB672
:1017B000F894DEBF0FBECDBF80E02F96E4E00C941E
:1017C0004A324EE150E060E070E080E791E00E9434
:1017D000283621CF80E791E0089580918F01909184
:1017E0009001089580918E010895E82FF0E0E65D64
:1017F000FE4F808108954EE150E060E070E080E7A8
:1018000091E00E94383607CFCF93C0919101E091CB
:101810008F01F0919001309709F471C0828190E0BE
:101820000090770602C0959587950A94E2F780FFAD
:1018300066C0908180917606981361C091818091F5
:10184000750698135CC080917406811154C081E0C4
:1018500080939101E0DE4FC0C11124C085E99BE077
:101860000E94AE18909393018093920161E77BE010
:1018700081E013D7909395018093940160E070E02C
:1018800082E00BD7909397018093960160E070E01F
:1018900080E003D7909399018093980161E085E0FF
:1018A0000E94152EE4D781112AC080919A018823C5
:1018B00071F042E060E971E088EC6AD74FEF66E9C9
:1018C00081E00E944E1681E00E94EF160DC042E0BA
:1018D0006BE972E088EC5CD74FEF66E980E00E942C
:1018E0004E1680E00E94EF1690919A0181E08927C0
:1018F00080939A0104C0809191018111ADCFCF9165
:10190000089589CE089580919B018823E1F180910B
:101910009C0190919F01992399F0843010F48F5F7E
:1019200009C0883010F48D5F05C0803110F48B5FE2
:1019300001C0885F8034B0F010929B0180E012C03B
:101940008C3F10F08F5F09C0883F10F08D5F05C09D
:10195000803F10F08B5F01C0885F8A3018F41092CE
:101960009B0180E080939C0180919B0181110BC0C1
:10197000E0919D01F0919E01309729F00995109218
:101980009E0110929D01089520914B02222389F01F
:1019900021E020939B01662311F020E001C020ECA0
:1019A00020939C0190939E0180939D0160939F01E1
:1019B0000895009711F0FC010995089580919B010D
:1019C000089590919F0181E08927089580919C015D
:1019D00008951092A3011092A4011092A5011092F3
:1019E000A6010E94772D9093A2018093A10181E02E
:1019F00008958091A001813039F41092A00160E037
:101A000084E00E94152E09C0811107C081E08093F7
:101A1000A00161E084E00E94152E0E94772D909332
:101A2000A2018093A10181E0089561E085E19FE03A
:101A3000ABDF81E00895AFE0B0E0E1E2FDE00C94BF
:101A400026322FD5C090A301D090A401E090A5012B
:101A5000F090A601C701B60128EE33E040E050E067
:101A60000E94FE3149015A0180E8C8168EEED80660
:101A700086E3E806F104D0F4C701B60128EE33E0AE
:101A800040E050E00E94FE312AE030E040E050E0CB
:101A90000E94FE31122FC501B4012CE330E040E07A
:101AA00050E00E94FE31E62EB22E1EC00F2EFCE347
:101AB000CF2ED12CE12CF12CF02DCA01B901A701B8
:101AC00096010E94FE31162FCA01B901A7019601A5
:101AD0000E94FE31E62EC501B40120E13EE040E067
:101AE00050E00E94FE31B22E21E029830F2EF4E156
:101AF000FF2EF02DFA820F2EFDECDF2EF02DBD9C77
:101B0000A12C1124A694A694A6940F2EF9E3CF2E0F
:101B1000F02DCA9CC001112487539E4F9C838B8358
:101B200083E18D8308E10E832F8318861986CE0109
:101B300001960E94DF180983AA0C8A2D880F880F4E
:101B4000A80EBA18CB9C9001112427533E4F3C831A
:101B50002B83CE0101960E94DF188CE38983ED9CD4
:101B6000B12C1124B694B694B694CB9CC001112428
:101B700087539E4F9C838B83CE0101960E94DF1872
:101B800083E58983BB0C8B2D880F880FB80EEB186B
:101B9000CE9CB001112467537E4F7C836B83CE01B2
:101BA00001960E94DF1888E689838CE18A838BE0A6
:101BB0008D8380E18E831D9DD12C1124D694D694E3
:101BC000D6940F2EF6E1EF2EF02DED9C900111240E
:101BD00023513F4F3C832B83CE0101960E94DF1897
:101BE00084E78983DD0C8D2D880F880FD80E1D1991
:101BF000E19EC001112483519F4F9C838B83CE01B2
:101C000001960E94DF1881E38983FA8286E08D8342
:101C10000E838BED90E09C838B83CE0101960E9416
:101C2000DF18809175061F928F93809176061F9220
:101C30008F9386EA90E09F938F937E019AE0E90E5E
:101C4000F11CFF92EF920E943C3420E040E360E000
:101C5000C7010E94BB190FB6F894DEBF0FBECDBFFF
:101C600081E02F96ECE00C9442320E94B7228BE187
:101C70009DE00E94AE1865E17DE081E00ED569EE41
:101C80007CE082E00AD569EF7CE080E006C581E077
:101C90009091A001913009F080E008958091A00119
:101CA000813099F50E94772D2091A1013091A201F8
:101CB000AC01421B530B9A014091A3015091A40126
:101CC0006091A5017091A601420F531F611D711D06
:101CD0004093A3015093A4016093A5017093A601C2
:101CE0009093A2018093A10141155A426547754125
:101CF00060F08FEF99E2A5E7B5E18093A30190939F
:101D0000A401A093A501B093A60108954091A70155
:101D10005091A801443F81E05807B8F49A013695E4
:101D20002795ABE7B4E10E94DF3196958795019640
:101D300062E3689F9001699F300D1124420F531F89
:101D40005093A8014093A70104C01092A8011092DB
:101D5000A70181E0089580914A020E94EF1665D0A4
:101D600081E008958091A7019091A801892B19F134
:101D70000E94772D2091A9013091AA01AC01421B4C
:101D8000530B2091A7013091A8014217530700F18E
:101D90009093AA018093A9019091AB0181E08927DA
:101DA0008093AB010E94EF164FEF64E18091AB018D
:101DB00075D781E0089581E00E94EF164FEF64E649
:101DC00081E06CD74FEF64E680E068D780E008954B
:101DD00081E008950E94B7221092A8011092A701F5
:101DE00082EB9EE00E94AE1866E87EE081E055D46A
:101DF0006BEA7EE082E051D46BEA7EE080E04DC485
:101E000049E050E06EE170E087E492E00C942836FF
:101E100049E050E06EE170E087E492E00C943836DF
:101E20009093AD018093AC010895E091AC01F091E5
:101E3000AD01309709F0099508956F927F928F92C6
:101E4000AF92CF92EF92FF920F93CF93DF93CDB7E4
:101E5000DEB729970FB6F894DEBF0FBECDBFCA9C80
:101E6000F0011124FF230CF43796F595E795F595CD
:101E7000E795F595E7959FEF8916A9F189836A8320
:101E80003F017724C701E49F800D911D11249C839D
:101E90008B83CD82AE8281E08F83188619860023E2
:101EA00011F0811005C0CE0101960E94DF182AC0F2
:101EB000042F015008F4022F882D8A198450898735
:101EC000CE0101960E94DF188986069DC001079DFC
:101ED000900D1124E80EF91EFC82EB82CE010196D2
:101EE0000E94DF180FC089836A83E49FE00CF11C15
:101EF0001124FC82EB82CD82AE8281E08F83188632
:101F00001986D1CF29960FB6F894DEBF0FBECDBF8C
:101F1000DF91CF910F91FF90EF90CF90AF908F9086
:101F20007F906F900895611106C0FC0121812034DB
:101F300048F080E00895FC012181293330F02150E0
:101F4000218303C02F5FFC0121830E94DF1881E001
:101F500008956F927F928F92AF92CF92EF92FF92FD
:101F60000F931F93CF93DF93CDB7DEB7A5970FB62F
:101F7000F894DEBF0FBECDBF6091770670E0660FAC
:101F8000771F660F771F66587C4E8E010E5D1F4FC0
:101F9000C8010E941E346091790670E0660F771FB9
:101FA000660F771F665B7C4E7E012AE1E20EF11C14
:101FB000C7010E941E3480917A061F928F93FF9270
:101FC000EF92809178061F928F931F930F9382EC6C
:101FD00090E09F938F938E01065F1F4F1F930F9387
:101FE0000E943C3420E04CE060E0C8010E94BB1934
:101FF0000FB6F894DEBF0FBECDBF80914B02882391
:1020000009F4F0C0909174068091AE01981709F41C
:102010008EC01092B5011092B60121E02093B70155
:10202000309176062091B0014DEC349F612D112442
:10203000669566956695249F412D11244695469593
:10204000469551E0641301C050E05093B8014DEC47
:10205000349F512D1124569556955695550F652F41
:10206000660F660F560F351B249F412D1124469590
:1020700046954695440F542F550F550F450F241B79
:1020800041E0321301C040E04093B9013091750640
:102090002091AF014DEC349F612D1124669566951A
:1020A0006695249F412D112446954695469551E00D
:1020B000641301C050E05093BA014DEC349F512D90
:1020C0001124569556955695550F652F660F660F38
:1020D000560F351B249F412D112446954695469554
:1020E000440F542F550F550F450F241B41E0321359
:1020F00001C040E04093BB012DEC929F912D112433
:10210000969596959695829F812D11248695869514
:10211000869531E0981301C030E03093BC0147E070
:1021200050E064E776E08EEA91E00E9425348091E9
:10213000B701882309F464C08091B501843020F48C
:102140008F5F8093B50117C0873020F48D5F809337
:10215000B50111C0813120F48B5F8093B5010BC0B4
:10216000873120F48D5F8093B50105C08D3118F45F
:102170008F5F8093B5018091B5018C3118F08FEF9E
:102180008093B5018091B601823020F48F5F8093F7
:10219000B6010BC08E3020F48D5F8093B60105C070
:1021A000853118F48F5F8093B6018091B601843138
:1021B00020F08FEF8093B60102C0853108F1809145
:1021C000B5018D31E8F01092B5011092B601109270
:1021D000B70145E050E060E070E088EB91E00E94DC
:1021E0002E340EC01092B5011092B6011092B701B4
:1021F00045E050E060E070E088EB91E00E942E3412
:102200000F2EF4E76F2EF6E07F2EF02DF3014081C4
:102210001DEC419F412D1124469546954695809091
:10222000B6016894AA24A4F80F2EFBE0CF2EF02D5F
:102230000F2EFDEEEF2EF0E0FF2EF02D0091BC01F1
:1022400025E06CE188E6F9DDF3014081419F812DB5
:102250001124869586958695880F982F990F990F4A
:10226000890F481B8090B6010091B70129E06CE10D
:1022700084E7E3DD0F2EF5E76F2EF6E07F2EF02DDD
:10228000F3014081419F412D112446954695469585
:102290008090B5010F2EF8E1AF2EF02D0F2EF3E157
:1022A000CF2EF02D0F2EF9ECEF2EF1E0FF2EF02DBA
:1022B0000091BA0125E064E18CE3BFDDF3014081C8
:1022C000419F812D1124869586958695880F982F9C
:1022D000990F990F890F481B8090B5010091BB01A0
:1022E00029E064E183E5A9DD0F2EF6E76F2EF6E025
:1022F0007F2EF02DF3014081419F412D1124469501
:10230000469546958090B5010091B80125E064E1BD
:1023100081E093DDF3014081419F112D1124169539
:1023200016951695110F812F880F880F180F411BD6
:102330008090B5010091B90129E064E188E17DDD7B
:102340000E94B32E882399F081E3898384E18A83F4
:102350008BED90E09C838B8386E08D8388E18E8378
:1023600081E08F8318861986CE01019628D7E090E8
:10237000B70197D084E18093000163B166FB6627C3
:1023800060F980E091E0CFDD811105C00F2EF4E10E
:10239000FF2EF02D04C00F2EF8E2FF2EF02DF0924C
:1023A000090163B16095661F6627661F89E091E0A9
:1023B000BADD882311F0FCE0FF0E69DC882399F078
:1023C000FA8688E38B872BE333E13D872C8788E00F
:1023D0008E878F8781E0888B198A1A8ACE010A96A8
:1023E000EED62CE0F20EF9D9FC010097A1F1818123
:1023F0001F928F9380811F928F9324EB30E03F9345
:102400002F938E01065E1F4F1F930F930E943C3443
:1024100028E34F2D60E0C801AED78F2D8D5D8A87F0
:1024200088E38B87DFD9E8E08E9FC00111249C01EF
:102430002D5F3C4E3D872C8798E09E879F8781E0EB
:10244000888B198A1A8ACE010A96B9D60FB6F894E3
:10245000DEBF0FBECDBF8E2DA5960FB6F894DEBFA2
:102460000FBECDBFDF91CF911F910F91FF90EF90E5
:10247000CF90AF908F907F906F90089589EA9FE002
:102480006DD668E171E281E008D160E070E082E041
:1024900004D160E070E080E000D160E080E090E096
:1024A00073CAA9E0B0E0E7E5F2E10C9430326AD0FB
:1024B00080382CE0920750F084372EE0920748F0E5
:1024C000803A9F4048F48BEF95E008C08BE196E09E
:1024D00005C08BE096E002C08BEE95E0198228E300
:1024E0002A839C838B8380E18D8388E08E8381E0C7
:1024F0008F8318861986CE01019661D62996E2E06F
:102500000C944C32389A409887E080937A0086EC9D
:1025100080937C0080E880BFE4E6F0E08081816009
:1025200080830895409A80E991E00197F1F7E4E60D
:10253000F0E080818E7F8083EAE7F0E08081806C2C
:102540008083808186FDFDCF2091780030917900D5
:10255000A8E6B0E10E94DF312FEF33E040E050E029
:102560000E94FE313093BE012093BD01EAE7F0E006
:1025700080818F778083E4E6F0E0808181608083D2
:10258000409808958091BD019091BE0108953998B9
:102590003A983B98419A429A439AECE6F0E080815F
:1025A0008E608083E8E6F0E0808182608083089519
:1025B000A3E0B0E0EEEDF2E10C942C320E94772D16
:1025C0009091BF01282F291B2A3008F462C0809304
:1025D000BF0196B181E0969591709827998396B145
:1025E00093FB992790F998279A8396B192FB9927A4
:1025F00090F989278B836894FF24F1F8EE24E39403
:102600002F2D30E0E1E0F0E0EC0FFD1FE20FF31FB3
:1026100090818901000F111F200F311F8901000FC8
:10262000111F00541E4FD80112968C911297880FDB
:1026300012968C931297992311F1816012968C93C4
:102640008F3018F10E94772DF80191838083838168
:1026500081111BC00480F581E02D3097B1F0099500
:10266000882399F0D8011396EC924E2D64EF71E017
:1026700080E58ED04FEF62E38E2D10D306C0880F19
:10268000F8018283843008F41382FA94FFEFFF127A
:10269000B7CF2396E6E00C94483290E0FC01EE0FB1
:1026A000FF1F8E0F9F1FFC01EE0FFF1FE054FE4F18
:1026B000848195817583648308951F93CF93DF93FD
:1026C00020914902222309F188E893E1289FE00143
:1026D000299FD00D112412E00E94772D212F30E088
:1026E000F901EE0FFF1F2E0F3F1FF901EE0FFF1F25
:1026F000E054FE4F20813181821B930B8C179D0784
:1027000030F0115048F780E003C081E001C081E063
:10271000DF91CF911F910895FF920F931F93CF9355
:10272000DF9312E0FF24F3940FE0812F90E0EC019F
:10273000CC0FDD1F8C0F9D1FEC01CC0FDD1FC05493
:10274000DE4FFB820A830E94772D99838883115084
:1027500060F7CDB7DEB7E5E00C94493282E08093B4
:10276000800081E18093810080E092E09093890075
:102770008093880080E094E09093870080938600A7
:10278000E4E6F0E0808188608083219A29980895AA
:102790000F931F93CF93DF93EB01423041F043300F
:1027A00061F0413081F490914F0293700DC090918F
:1027B0004F0296959695937007C090914F0292950F
:1027C0009F70937001C092E0923091F09330E9F0E5
:1027D000913009F047C08E01000F111F9E01329504
:1027E00022952F7023273F702327021B130B17C03E
:1027F0008E01000F111F9E0136952795369527955E
:1028000036952795021B130B0AC08E01000F111F6E
:102810009E013695279536952795021B130B8093BD
:10282000D2010E94772D8093D301E4E6F0E080810D
:10283000877F808316BAEFE6F0E080818160808335
:1028400010928500109284001093890000938800F4
:10285000CC0FDD1FD0938700C093860061E080E03D
:102860000E94152EDF91CF911F910F91089581E065
:102870009091D201911101C080E008958091D20120
:102880008823C9F00E94772D9091D301891B9091E4
:10289000D201891780F0E0E8F0E080818F738083B7
:1028A000E4E6F0E08081886080831092D20160E0ED
:1028B00080E00C94152E08951F920F920FB60F9280
:1028C00011248F93EF93FF93E0E8F0E08081806C18
:1028D000808310926F00FF91EF918F910F900FBE48
:1028E0000F901F901895A0E0B0E0E9E7F4E10C9498
:1028F0002932C82F8B01D42EE6D580ED14D6811154
:1029000002C00ED62CC08C2F0ED6811102C008D664
:1029100026C0D9D581ED07D6882319F0D11003C080
:102920001CC0FED51CC0C0E0D0E0ED2CF12C81E035
:10293000E81AF108CC24C394B12C6C2DCE15DF0518
:102940000CF06B2DC8018C0F9D1F0CD6811102C09D
:10295000E7D505C02196CD1580F3C6D581E0CDB76A
:10296000DEB7E9E00C944532CF93DF93C82FD62F22
:10297000AAD580EDD8D5811102C0D2D50EC08C2F3A
:10298000D2D5811102C0CCD508C08D2FCCD58111F4
:1029900002C0C6D502C0A8D581E0DF91CF910895CD
:1029A000A1E0B0E0E6EDF4E10C942F32182F41E005
:1029B000BE016F5F7F4F8EE096DF112329F0898182
:1029C0008B7F8064898304C089818F7B8460898345
:1029D00069818EE0C9DF2196E3E00C944B32A1E0DF
:1029E000B0E0E5EFF4E10C94303241E0BE016F5FFE
:1029F0007F4F8EE078DF6981677669838EE0B4DF90
:102A000041E0BE016F5F7F4F8FE06DDF6981647FC2
:102A100069838FE0A9DF81E0C3DF2196E2E00C94B7
:102A20004C32CF93DF93EC0147E0BC0180E05BDFE9
:102A30008B81882311F081508B838D81882339F01D
:102A4000803119F081508D8302C089E08D83DF9140
:102A5000CF9108951F93CF93DF93EC011D811F5FEA
:102A60001A3009F410E1688180E07EDF698181E03D
:102A70007BDF6A8182E078DF6B816F5F83E074DFE8
:102A80006C8184E071DF612F85E06EDF6E8186E00E
:102A90006BDFDF91CF911F910895CF93DF93EB010F
:102AA00041E0BC0181E11FDF41E0BE0182E11BDFAB
:102AB000DF91CF910895A1E0B0E0E1E6F5E10C945B
:102AC0002F3241E0BE016F5F7F4F8FE00CDF6981E5
:102AD000162F117060FF04C06E7F69838FE044DFA2
:102AE000812F2196E3E00C944B32A1E0B0E0EBE7BC
:102AF000F5E10C942E328C01DEDF41E0BE016F5F08
:102B00007F4F8EE0F0DE01151105A1F060E087E057
:102B10002BDFF801618188E027DFF801608189E01F
:102B200023DFF801628160688AE01EDF89818160AD
:102B3000898303C089818E7F898369818EE014DF58
:102B40002196E4E00C944A32A1E0B0E0EAEAF5E133
:102B50000C942F3241E0BE016F5F7F4F8FE0C3DEE8
:102B6000698161FB112710F961FF04C06D7F6983E2
:102B70008FE0FADE812F2196E3E00C944B32A1E046
:102B8000B0E0E5ECF5E10C942E328C01DDDF41E0A4
:102B9000BE016F5F7F4F8EE0A6DE0115110591F03B
:102BA000F80161818BE0E0DEF801608160688CE013
:102BB000DBDEF801628160688DE0D6DE89818260AB
:102BC000898303C089818D7F898369818EE0CCDE12
:102BD0002196E4E00C944A320F931F93CF93DF9336
:102BE000EC01162F042F8881882371F00E94772D25
:102BF0009981891B9881891738F08BB108230BB90B
:102C000084B5182314BD188281E09881911101C008
:102C100080E0DF91CF911F910F910895CF92DF92C5
:102C2000EF920F931F93CF93DF93EC01142F690161
:102C300068830E94772D8983812F81508E3F78F0A1
:102C400084B50095082304BD1F3F21F48BB1E82A09
:102C5000EBB80FC08BB1E094E822EBB80AC0E4E611
:102C6000F0E080818F7D808384B5082B04BDF60160
:102C70001083DF91CF911F910F91EF90DF90CF9054
:102C8000089583E084BD85BDE4E6F0E08081806244
:102C90008083559A569A5D985E980895EF920F93A7
:102CA000882319F08130A1F40AC06894EE24E6F874
:102CB00000E827E430E084ED91E0B0DF09C06894DB
:102CC000EE24E5F800E228E430E086ED91E0A6DFAE
:102CD00061E081E00E94152E0F91EF900895CF934F
:102CE0004FEB6FE784ED91E077DFC82F4FED6FED8D
:102CF00086ED91E071DFC1110BC0811109C0E4E6DE
:102D0000F0E080818062808360E081E00E94152E87
:102D1000CF910895CF93C82F28984DD42A98CEBD2F
:102D20000DB407FEFDCF2A9A4CD4CF910895CF93CE
:102D3000DF93D82FC62F28983ED42A98DEBD0DB435
:102D400007FEFDCFCEBD0DB407FEFDCF2A9A39D4C4
:102D5000DF91CF91089528982ED42A9882E28EBDD3
:102D60000DB407FEFDCF1EBC0DB407FEFDCF87E0FE
:102D70008EBD0DB407FEFDCF81E28EBD0DB407FE02
:102D8000FDCF1EBC0DB407FEFDCF8FE78EBD0DB489
:102D900007FEFDCF2A9A15C4DEDF289A0CD42A98A4
:102DA000E0E5F2E080E596E02081119232E03A958C
:102DB000F1F700C03DB52EBDE817F907A9F784E08B
:102DC0008A95F1F700C08DB52A9AFBC3882311F0CC
:102DD0008FEA01C08EEA9ECF682F81E8A8CF8823B2
:102DE00011F087EA01C086EA95CF882321F081EAB5
:102DF00091DF88EC8FCF80EA8DDF80EC8BCF229A39
:102E0000209A5F9A579A84EF91E028EC30E0F9011C
:102E10003197F1F70197D9F75F9884EF91E028ECAB
:102E200030E0F9013197F1F70197D9F75F9A84EF14
:102E300091E028EC30E0F9013197F1F70197D9F7EB
:102E40008ADF6FE388EA73DF60E083ED70DF80E4A0
:102E500061DF80914D02C9DF62E18AED68DF909108
:102E60004F02929596959695937085E5989F802D43
:102E70001124B2DF84EA4EDF80914A02B0DF60E8BD
:102E800085ED55DF64E18DE852DF8FEA43DF60E0D6
:102E900080E24DDF80E49CE90197F1F77DDF80E27D
:102EA0009EE40197F1F70895A5E0B0E0EAE5F7E1C7
:102EB0000C9428320E94772DF82E8091D8019F2DF6
:102EC000981B8091D901981728F461E082E00E9454
:102ED000152E40C1F092D8010E94830CE091DA01D6
:102EE000F091DB01309759F08091E101811104C02C
:102EF0008091DD018111E9C00995E82E01C0E12C26
:102F00008091E101882309F4DEC08091DE01811106
:102F100020C08091DD01882341F0ECEDF1E080815B
:102F20008D5F8083803248F43CC0ECEDF1E080811D
:102F300083508083803240F434C080E28093DC018F
:102F400081E08093DE012DC01092DC011092E1013E
:102F500028C08091E001882341F0EFEDF1E09081FD
:102F6000965090839923ECF408C0EFEDF1E0908146
:102F7000965F90839923ACF407C01092DF01909183
:102F8000DD01911107C008C090E89093DF01109215
:102F9000DE0102C01092E10191E0811190E0909376
:102FA000E001A090DC01A694A694A69411F100E0A3
:102FB00010E0B12C0F2EF0E8CF2EF3E0DF2EF02D35
:102FC00040E850E060E070E0C801805B9D4F0E94E7
:102FD0002E34C601801B910B40E850E060E070E0A9
:102FE000805B9D4F0E942E34B39400581F4FBA103F
:102FF000E7CF8091DC01E82FE770A9F180E8A89E77
:10300000900111248FEF90E0182F0E2E01C0110FA8
:103010000A94EAF70E2E02C0959587950A94E2F776
:1030200061E070E00E2E01C0660F0A94EAF740E8F6
:1030300050E002C055954795EA95E2F7F901E05B4B
:10304000FD4FA0E5B6E0A21BB30B20533D4F90818E
:103050009123962B91939E919823942B9C93E21706
:10306000F307A9F730C0882371F14091DF0120E810
:10307000241B269590E4981B892F86958695869526
:1030800030E8839FC0011124820F911D50E061E060
:1030900070E0805B9D4F0E942E348091DC01803275
:1030A00091F086958695869520E8829FC00111242F
:1030B0002FE7FC01E20FF11DE05BFD4F3081316035
:1030C00030832150B0F7E11007C08091E1018111F8
:1030D00006C00E94DE0C05C081E090E002C081E0E5
:1030E00090E0E82E80914E02882311F10E94772D06
:1030F0008F19682F6D5F88EE93E070E00E94EB31CE
:103100007F936F9328ED30E03F932F938E010F5FF5
:103110001F4F1F930F930E943C3428E34BE660E05F
:10312000C80129D10F900F900F900F900F900F9022
:103130009ED1E11008C060E082E00E94152E88E276
:103140008093D90107C061E082E00E94152E80E1E2
:103150008093D9012596EAE00C9444323091DA014B
:103160002091DB019093DB018093DA01832F922F72
:10317000089590914B02911103C01092E1010895BE
:10318000882369F01092DD0181E08093DE0180E206
:103190008093DC011092E0011092DF010CC081E00D
:1031A0008093DD011092DE011092DC018093E0013A
:1031B00080E88093DF0181E08093E1010895A7E03A
:1031C000B0E0E5EEF8E10C942032FC014080B180E3
:1031D000F280D38084802580E78090840E94E60C72
:1031E000B80E1B2D1919A22CA694A694A6940F2EE6
:1031F000F7E0CF2EF02DC1222B0C2982AA2009F452
:10320000B6C0012F085F682C712C4F2D5D2DD12C7D
:10321000F82CF40C242C88E090E02C014C18510878
:103220003981232F30E03D832C838B2D90E09B83CD
:103230008A83AE2D992049F10B1508F491C0013411
:1032400008F08EC09981911708F48AC01B1558F4B4
:103250008A819B81811B9109EE24EA9401C0EE0CC6
:103260008A95EAF717C02981201790F4802F90E003
:103270002C813D81821B930BEFEFF0E002C0F595AE
:10328000E7958A95E2F7EE2E05C0EE24EA9402C097
:10329000EE24EA94812F869586958695F0E88F9F97
:1032A000C0011124C1101CC01034D0F4882009F4CE
:1032B00057C0FA01222D7A2F222364F03491711124
:1032C0003095DC01A20FB11DA05BBD4F3E216C917A
:1032D000362B3C932F5F31962F11EECFA72F40C096
:1032E000602F66956695669520E8629FB00111246F
:1032F0008820B1F1FA01AE839C012F828F8188234F
:1033000044F184919E81911180958E21103478F43E
:10331000D9019F81A90FB11DA05BBD4F382E0C2C88
:1033200001C0330C0A94EAF79C9193299C930034D2
:1033300080F4DB019F81A90FB11DA05BBD4F90E020
:10334000042C02C0959587950A94E2F79C91892BED
:103350008C938F818F5F8F8331968F11CFCFAE810A
:10336000D394085F185F460D571DDA1063CF279678
:10337000E2E10C943C328F929F92BF92CF92EF92F7
:10338000FF921F93CF93DF93CDB7DEB729970FB688
:10339000F894DEBF0FBECDBFC62E142F2A8335E0B2
:1033A0003D8338E03E8331E03F8368871986DC0146
:1033B000EC91EE23D1F1269526952695B0E82B9F2A
:1033C000700111244C012FEF821A920ABB24BA9487
:1033D0001983E052F0E0CF01880F991F880F991FE1
:1033E000E80FF91FED5FFB4FFC83EB83CE010196E5
:1033F000E6DECC20A1F0112351F0812F8150F7019E
:10340000E80FF11DE05BFD4FB0821B3740F4812FC8
:103410008B5FF701E80FF11DE05BFD4FB082D40137
:10342000ED914D01195FE111D3CF29960FB6F894B4
:10343000DEBF0FBECDBFDF91CF911F91FF90EF9008
:10344000CF90BF909F908F900895669566956695F2
:1034500020E8629FB00111249B01280F311DC90192
:1034600050E060E070E0805B9D4F0C942E3494CC73
:103470000895ECEBF0E080818B7F80833C98449A48
:1034800080ED97E00197F1F734990EC040E420ED0C
:1034900037E050E2C9010197F1F788B1852788B973
:1034A000349902C04150B1F73C9A3D9A449A459AEA
:1034B000089582E08093B800DCDFE4E6F0E08081EC
:1034C000806880830895E4E6F0E080818F778083D0
:1034D00082E08093B80084EA8093BC00ECEBF0E0DB
:1034E00080818823ECF70895ECEBF0E084E9808399
:1034F000808184FD0AC09FEF2DE0822F8A95F1F72D
:10350000808184FD02C09150C1F7ECEBF0E0808136
:103510008B7F8083E4E6F0E080818068808308957B
:10352000E3DF80E008958093BB0084E88093BC00D3
:10353000ECEBF0E080818823ECF72091B900287F44
:10354000283149F0283251F081E090E0203441F0F8
:1035500080E090E005C081E090E002C081E090E072
:1035600081700895662331F0ECEBF0E02081206457
:10357000208305C0ECEBF0E020812F7B2083ECEB77
:10358000F0E020812068208320812223ECF7209125
:10359000B900287F203511F0283531F42091BB0087
:1035A000FC01208381E0089580E0089580E58CBDD2
:1035B00081E08DBD0895E4E6F0E080818B7F80831B
:1035C000F5CFE4E6F0E08081846080830895229A5C
:1035D000239A259A2C9A2A9AE9DFF3CF81E08093E7
:1035E000E20180E0089582E08093E20180E00895A6
:1035F000A2E1B0E0EEEFFAE10C9420328091F60106
:103600009091F701803A910548F481E090E0209193
:10361000F5012F3F29F080E090E002C081E090E0CA
:10362000282F21702A8B1091F8018091E2018130BE
:1036300011F41D5F03C0823009F413501092E201AF
:103640001B3F20F4153718F014E701C010E0198370
:1036500088E38A8386E993E19C838B838CE08D8366
:1036600088E08E8381E08F8318861986CE010196CB
:10367000A6DD1093F8018A8981112CC003EE11E0B8
:103680002091EB013091EC014091ED015091EE0160
:10369000F80160817181828193810E943130F8014B
:1036A000608371838283938307EE11E02091EF01A1
:1036B0003091F0014091F1015091F201F8016081E7
:1036C0007181828193810E943130F801608371831E
:1036D000828393836091E3017091E4018091E5011D
:1036E0009091E6010E94FD30688B6091E701709136
:1036F000E8018091E9019091EA010E94FD30698B17
:10370000C12CD12C212C20E06894662463F8712C04
:10371000F889AF2EB12C462E512C43C0E32CF12C4E
:10372000E091F301F091F401EE0DFF1D8081811114
:103730002AC0AC14BD043CF1A814B90424F5401609
:1037400051060CF1C801049648165906E4F441E00C
:1037500068EE73E084E61CD84FEF62E381E09EDA06
:103760008091F3019091F401FC01EE0DFF1D81E0C9
:1037700080838091F6019091F70101969093F70173
:103780008093F60121E033940C5F1F4F0C3111053B
:1037900029F685E0280E94E0C90ED11CE0EA2E1629
:1037A00039F0322C83014601F4E08F0E911CB6CF24
:1037B00088898F3710F1813F48F01092E301109211
:1037C000E4011092E5011092E6010CC080E090E067
:1037D000ACEFB2E48093E3019093E401A093E501A0
:1037E000B093E601EBEEF1E080819181A281B3819B
:1037F000B05880839183A283B3839A8991119BC02F
:10380000E989EC3308F431C1E03F08F02EC1809122
:10381000F801F889F81708F428C14F2F50E090E01C
:103820000C96841795070CF420C141E060E971E023
:1038300088EC0E94C81380E090E0A0E7B2E4809397
:10384000E7019093E801A093E901B093EA01C090E9
:10385000EF01D090F001E090F101F090F20120E052
:1038600030E0A901C701B6010E94B731181664F40F
:10387000F7FAF094F7F8F094C092EF01D092F001CB
:10388000E092F101F092F2010E941034BC0188270D
:1038900077FD8095982F0E942B3120E03CEF4FE779
:1038A00056E40E94953020E030E040E85FE30E945B
:1038B00030306093EB017093EC018093ED019093B5
:1038C000EE0139C02111D6C036C08989813F78F018
:1038D00041E060E273E088EC0E94C8131092E701B7
:1038E0001092E8011092E9011092EA0119C0211129
:1038F00017C041E068EE73E088EC0E94C81380E0D6
:1039000090E0ACE7B2E48093E7019093E801A093E4
:10391000E901B093EA018091F50181508093F501AE
:10392000EFEEF1E080819181A281B381B058808374
:103930009183A283B38382EA93E19C838B8382E0A9
:103940008D836091E3017091E4018091E501909194
:10395000E6010E94FD3069836091E7017091E80102
:103960008091E9019091EA010E94FD306A83CE01C5
:10397000019625DC84EA93E19C838B8383E08D832D
:10398000E12CF12C6894DD24D3F819C0E091F30107
:10399000F091F401E00FF11D8081811105C0E982F1
:1039A0001A83CE0101960BDC0F5F1C5F1C3171F78F
:1039B00095E0F90EE4E0EE0EF0EAFF1619F00F2D97
:1039C0001D2DE4CF8091F7018F938091F6018F93A5
:1039D00087EA93E19F938F938E01065F1F4F1F939A
:1039E0000F930E943C3420E040E060E0C801C3DC5B
:1039F0000F900F900F900F900F900F908091F50106
:103A00008F3FD9F083E493E19C838B8387E08D83A0
:103A100081E08A838091F501882379F010E0812F7D
:103A2000880F880F880F88598983CE010196C7DBDC
:103A30001F5F8091F501181790F38091F601909126
:103A4000F701803A910530F020E242E360E08DE337
:103A500091E091DC8091F5018F3F89F420E242E210
:103A600060E082E491E087DC0AC089898F3308F046
:103A70002CCF28CF9989913F08F452CF29CF81E0EC
:103A80006296E2E10C943C3272D50E94772D0E943E
:103A9000133488EF9AE162DB62EA7DE181E00E9403
:103AA0004D136EEE7AE182E00E944D1363EF7AE1EE
:103AB00080E00E944D131092E20180E090E0A0E8C7
:103AC000B2E48093E3019093E401A093E501B09305
:103AD000E60180E090E0A8E5B2E48093E7019093EE
:103AE000E801A093E901B093EA0180E090E0A0E84A
:103AF000BFEB8093EB019093EC01A093ED01B093A9
:103B0000EE018DEC9CECACE8BFEB8093EF01909361
:103B1000F001A093F101B093F20161E070E080EA5E
:103B200090E00E9471328093F3019093F40183E05E
:103B30008093F5011092F7011092F6018AE38093C9
:103B4000F80108958091F3019091F4010E942833C7
:103B50008091F5018F3F11F497DF05C061E085E1A9
:103B60009FE00E94C40C81E0089582E080930602E9
:103B700081E0089581E0809306020895AFE0B0E00F
:103B8000E4ECFDE10C94243280910602813041F492
:103B900080910902833068F48F5F8093090209C025
:103BA000823039F480910902882319F08150809382
:103BB000090210920602909109029295907F8091DD
:103BC0000A02981720F4825080930A0205C08917D0
:103BD00018F48E5F80930A02809107028F3F09F4E8
:103BE000FAC009EF11E00F2EFBEFEF2EF1E0FF2EF0
:103BF000F02D0F2EF2E0CF2EF2E0DF2EF02D6894A4
:103C0000BB24B7F8D8018C91F7019081891B982FBC
:103C1000995C963210F08C931AC0D801BC920E9425
:103C20001034F701319783709078992324F4019729
:103C30008C6F9F6F01968295807F808380910402B4
:103C400090910502019690930502809304020D5F06
:103C50001F4FB3E0EB0EF11C0C151D0599F60AEF92
:103C600011E089EF91E03801E12CA02EB12EC12C9A
:103C700029C0E716D9F0D3013C912081321316C038
:103C8000DC016C919F0121503109D901DC90D616DD
:103C900068F4862E912C2D2D30E0215F3F4F821647
:103CA000930624F42D2D205FDA012C937F5F339649
:103CB0007330F9F6E394B3E06B0E711C0396E3E006
:103CC000EE1629F0EA2DFB2D7C2DAC01D2CF809190
:103CD0000802811180C00F2EF3E0EF2EF2E0FF2EDC
:103CE000F02D0F2EFAE0CF2EF2E0DF2EF02D0F2E6A
:103CF000F8E0AF2EF2E0BF2EF02D99249394F80156
:103D0000319780818F3008F060C0D8018C918E5F30
:103D1000F60120812E5F821748F0682F70E0422F55
:103D200050E0445F5F4F461757076CF490E00C96E5
:103D300030E0821793070CF448C0245F3F4F2817E8
:103D400039070CF442C0D5019C920E94772D9093C4
:103D50000C0280930B02809107028150809307022E
:103D60008F3F41F58091040290910502209102025B
:103D7000309103022817390778F490920D0290933E
:103D800003028093020242E050E067E270E082E0CA
:103D900092E00E94383602C010920D024FEF6AEF97
:103DA00080E00E944E16492D68EE73E08AEF0E9473
:103DB000C8130BC04FEF6EE180E00E944E16492DF4
:103DC00068EE73E084E60E94C8130D5F1F4F0E1566
:103DD0001F0509F094CF0E94772D2091080222231D
:103DE00009F4F7C020910B0230910C02FC01E21B98
:103DF000F30B9F01283EF3E03F0708F4E5C0109263
:103E00000802E7C020910E02223021F42EEF209309
:103E10000E02F6C022E020930E02F2C086FF03C01D
:103E2000CE010196CCD9809107028F3F09F481C061
:103E300012E0812F90E0FC01EE0FFF1FE80FF91F49
:103E4000E750FE4F8081898390910E028181890F16
:103E50008A83CE010196B3D9115058F788EC93E1CB
:103E60009C838B8388E08D838E8302E111E00F2E8B
:103E7000F5E1EF2EF1E0FF2EF02D6894BB24B7F8AA
:103E8000C12CF8018081982F9658973718F08650EA
:103E9000808301C0B0820F5F1F4F80818983DC2C3B
:103EA00080910E02805F8D0D8A83CE01019687D9A5
:103EB000B0E1DB0EE0E3DE12F3CF0E151F0509F7CC
:103EC000809105028F93809104028F9380ED93E19E
:103ED0009F938F938E01065F1F4F1F930F930E9436
:103EE0003C3421E04DE560E0C80145DA83E493E12C
:103EF0009C838B8387E08D8381E08A830F900F9072
:103F00000F900F900F900F9080910702882309F473
:103F10009EC010E0812F880F880F880F805E8983F4
:103F2000CE0101964CD91F5F80910702181790F3BC
:103F30008EC020E044E160E082E491E01CDA20E100
:103F400044E160E08CE491E016DA20E244E160E0D4
:103F500083E591E010DA80910D02882331F020E3AF
:103F600044E160E08EE591E006DA809105028F93EE
:103F7000809104028F9383ED93E19F938F938E0141
:103F8000065F1F4F1F930F930E943C3420E140E6D1
:103F900060E0C801F0D9809103028F938091020202
:103FA0008F9386ED93E19F938F931F930F930E94BE
:103FB0003C3420E240E660E0C801DDD90FB6F89459
:103FC000DEBF0FBECDBF43C02E35314008F41ACF3F
:103FD0002BC04091080210920E02198220910A0211
:103FE0002A832AEA33E13C832B832FE02D8320E1CF
:103FF0002E8321E02F831886198641110FCF10CF11
:10400000198230910A0220910E02230F2A832AEA94
:1040100033E13C832B832FE02D8320E12E8321E0AD
:104020002F8318861986FACE10920E0219822091DB
:104030000A022A832AEA33E13C832B832FE02D8373
:1040400020E12E8321E02F8318861986E7CE81E0B8
:104050002F96EEE00C944032CF9389D20E94772DB8
:104060000E9413348EEB9DE179D86EE670E281E018
:104070000E944D1365EB7DE182E00E944D136AEBD7
:104080007DE180E00E944D131092FA0181E080935F
:10409000FB0180E88093F90190E19093FD0192E0AB
:1040A0009093FE018093FC0190E290930002C3E0A4
:1040B000C09301028093FF0142E050E067E270E0AC
:1040C00082E092E00E9428361092050210920402CB
:1040D00010920602C0930702CF91089580910702C3
:1040E0008F3F11F4B9DF05C061E085E19FE00E94D8
:1040F000C40C81E0089590E080E80FB6F8948093B6
:104100006100909361000FBEE4E6F0E08081826080
:104110008083589A599A5B9A5C9A2F9AE8E6F0E065
:10412000808181608083EBE6F0E080818064808321
:104130004EDABFD90E94000F0E9441160E94AE13B2
:104140000E9482120E94EF140E94C7120E946B2DDF
:104150000E94982D0E94AB2E0E94E10B0E94FF1638
:10416000789441E064EF71E088EC0E94C8134FEF4F
:1041700062E381E00E944E168EE392E10E94100FEE
:104180000E94150FC4E7D6E00E944B2F182F0E9403
:104190001B2E882349F0112329F08881811102C048
:1041A0000E9492120E94D8120E943E140E946F1622
:1041B0000E944E0E0E941B2E882321F00E94040CA8
:1041C0000E9454170E94A02DDFCF189540915006F1
:1041D00050915106242F30E0852F90E00796281744
:1041E000390724F04650409351060895451710F4BE
:1041F00040935106089510926D0610926C0610922D
:1042000069061092680610926B0610926A06109268
:104210006F0610926E068091720690917306009759
:1042200011F00E94283310927306109272060895BE
:104230000E94DE0C882321F00E94E10C882381F08B
:1042400080915306811105C081E08093530686D486
:1042500007C0E0916C06F0916D06309709F0099562
:1042600081E0089580915306882379F00E94DE0C46
:10427000882321F00E94E10C882339F0E091680640
:10428000F0916906309709F0099581E008958091D1
:104290005306882379F00E94DE0C882321F00E94C7
:1042A000E10C882339F0E0916A06F0916B063097B3
:1042B00009F0099581E00895A9E0B0E0E2E6F1E2B5
:1042C0000C9424328091670681115CC020E040E0AC
:1042D00060E084E596E04FD880905106882D90E00C
:1042E0000091520610E00830110514F007E010E0CC
:1042F00011279C01200F311F821793070CF02BC14F
:10430000982C0F2EF0E5AF2EF6E0BF2EF02D0F2EDD
:10431000F2E7CF2EF6E0DF2EF02D0F2EF9E17F2E03
:10432000F02D0F2EF1E5EF2EF6E0FF2EF02D692C8B
:104330006818F501808189110AC0262D220F220FED
:10434000220F285F40E060E08EE691E014D8262D31
:10435000220F220F220F285FF6018081918146E013
:1043600060E0799C800D911D112405D89394292D2E
:1043700030E0F7018081A801480F511D241735074F
:10438000B4F2E9C02091500650ED5203C00111244F
:10439000805C9F4F20914B02222309F44AC0209158
:1043A0001501309116012817390704F5AC01421B9D
:1043B000530B12F44D5F5F4F5595479555954795B3
:1043C0004F5F413108F040E1240F311D28173907B4
:1043D0003CF43093160120931501BB24B39430C0F4
:1043E0009093160180931501B12C2AC08217930770
:1043F00034F5A901481B590B12F44D5F5F4F5595D9
:104400004795559547954F5F413108F040E1241B92
:104410003109821793073CF430931601209315015C
:10442000BB24B3940DC09093160180931501B12C59
:1044300007C09093160180931501B12C01C0B12CD7
:10444000009115011091160120E040E060E084E544
:1044500096E00E94BB198EE289838EE08A838BE30B
:1044600096E09C838B8384E28D8388E08E8381E059
:104470008F8318861986CE0101960E94DF188AE282
:104480008A838FE596E09C838B83CE0101960E9400
:10449000DF1880E18A8380E28D838E8380915206CB
:1044A0008823A1F1015F1F4FA12C0F2EF9E19F2E50
:1044B000F02D0F2EF3E8CF2EF2E1DF2EF02D0F2E90
:1044C000F2E5EF2EF6E0FF2EF02D0F391105B8F4CE
:1044D000802F8F518983E0917206F09173069A9C28
:1044E000E00DF11D1124258936892115310509F4C6
:1044F00096013C832B83CE0101960E94DF18A39482
:10450000005D1F4FF7018081A816F8F23091500628
:10451000809172069091730628E340E060E0F9E133
:104520003F9F800D911D11240E94BB19E0916E06E2
:10453000F0916F063097B1F0B11009C0099521E0F4
:1045400030E0811102C020E030E0C90102C081E00A
:1045500090E0B82E07C0E0916E06F0916F0630979C
:1045600069F7B12C8B2D2996EEE00C94403243DE96
:104570001092530610927106109270060C94150F4B
:1045800020917006309171062617370719F0FC014B
:1045900032832183FC0180818093500670937106E1
:1045A00060937006089520915006261719F0FC01BB
:1045B00020830895FC01108281819281909371067D
:1045C000809370060895E0917006F091710630971F
:1045D00011F009950895C2C261E00C94C40C60E02A
:1045E0000C94C40CA0E0B0E0E8EFF2E20C942832A6
:1045F000B82EEB01A42E6901FEDD10925106109237
:104600005006B0925206A0926706D0926D06C092F4
:104610006C061093690600936806F0926B06E092B0
:104620006A06BE0184E596E00E941E3469E170E0EE
:104630008B2D90E00E947132E2E7F6E08083918357
:10464000CDB7DEB7EAE00C944432EF92FF920F93BD
:104650001F93CF93DF937A01890199E1899FE0014C
:10466000112480917206909173068C0F9D1F0E94F9
:104670001E34E0917206F0917306EC0FFD1FF68A6E
:10468000E58A8091720690917306C80FD91F188F22
:104690000F8BCDB7DEB7E6E00C944832EF92FF9275
:1046A0000F931F93CF93DF937A01890199E1899F3B
:1046B000E001112480917206909173068C0F9D1F6A
:1046C0000E943534E0917206F0917306EC0FFD1FE5
:1046D000F68AE58A8091720690917306C80FD91FF9
:1046E000188F0F8BCDB7DEB7E6E00C944832E0E5CB
:1046F000F6E080818F5F808390915206891710F0D9
:104700001092500663CDE0E5F6E080818150808311
:1047100090915206891718F091509093500656CDFB
:1047200090915006E0917206F091730629E1929FF4
:10473000E00DF11D11240788F08DE02D309739F040
:10474000882321F061E0CF010C94C40C09950895F1
:1047500080914E02882319F067E174E102C069E29A
:1047600074E127EB33E240E050E082E06ECFEEE40C
:10477000F2E0908181E089278083EACFA6E1B0E072
:10478000E4ECF3E20C942E32BE016E5F7F4FCE015B
:1047900001960E944D159A81992314F080E001C082
:1047A00082E396FD875E9DEC899F812D112486957D
:1047B000869586958A831F928F9389811F928F9306
:1047C00080EF93E19F938F938E010D5F1F4F1F9397
:1047D0000F930E943C342EEB33E240E050E0B801EE
:1047E00080E05CDF0FB6F894DEBF0FBECDBF6696EB
:1047F000E4E00C944A32A4E1B0E0E1E0F4E20C948D
:104800002E320E9492120E94C2129F938F9387E0D1
:1048100094E19F938F938E010F5F1F4F1F930F9310
:104820000E943C342BEF33E240E050E0B80181E0DD
:1048300035DF0F900F900F900F900F900F906496B0
:10484000E4E00C944A32EF92FF920F931F930F2EE5
:10485000F7E7EF2EF3E2FF2EF02D03E813E22EE44C
:1048600034E240E06EED73E184E0BCDE87DFC3DF5D
:104870006FDF23EE32E240E050E069ED73E183E068
:10488000E4DE63E274E28FE092E07ADE80E090E0C2
:10489000A6DE1F910F91FF90EF90089563E08FE0E7
:1048A00092E081DE81E090915006933009F080E043
:1048B00037CF40914F02429546954695437080E828
:1048C000489FA00111244D57544F23ED34E26BE46F
:1048D00074E180E0BADE26EC34E243E05BE066E5BA
:1048E00074E181E0B2DE29EB34E243E857E06DE5A4
:1048F00074E182E0AADE40914B0280E8489FA0016B
:1049000011244D5F554F29E834E264E674E183E0F9
:104910009CCEEBE4F2E0908181E089278083C9CFCF
:10492000EF92FF920F931F930F2EF7E7EF2EF3E214
:10493000FF2EF02D03E813E222EF34E241E06BE3B7
:1049400074E185E04FDEB5DF23EE32E243E85FE05D
:1049500069ED73E184E079DE60E974E282E192E07E
:104960000FDE80E090E03BDE1F910F91FF90EF9013
:104970000895CF93EDE4F2E0C08181E0C827C083C1
:1049800098DF8C2F0E94F516CF910895CF93EAE41B
:10499000F2E0C08181E0C827C0838BDF8C2F0E94AA
:1049A000EF16CF910895CF93C0914F02C295C6954F
:1049B000C695C370CF5FC43008F0C0E0EFE4F2E00A
:1049C0009C2F9295990F990F907C80818F73892BE2
:1049D00080836FDF85E5C89F802D11240E94EC162F
:1049E000CF910895CF93C1E080915006843009F0B3
:1049F000C0E0C1110E94080F64E082E192E0D3DDC3
:104A00008C2F8EDECF910895EF92FF920F931F931C
:104A10000F2EF7E7EF2EF3E2FF2EF02D03E813E25F
:104A20002CE335E240E06FE674E183E0DBDD24E473
:104A30003DE140E050E06EE774E180E006DE2CE20C
:104A400030E240E050E067E874E181E0FEDD23EE13
:104A500032E240E050E069ED73E182E0F6DD64E0CF
:104A600075E285E192E08CDD80E090E0B8DD1F9199
:104A70000F91FF90EF90089562E085E192E093DD61
:104A800081E04ECEEF92FF920F931F938CE591E25F
:104A90000E94AE1862E371E282E00E944D1367E467
:104AA00071E280E00E944D130F2EF7E7EF2EF3E244
:104AB000FF2EF02D03E813E228EA35E241E061E938
:104AC00074E187E08FDD22E436E243E052E162EAFE
:104AD00074E180E0BADD2AEE3EE043E051E169EAAC
:104AE00074E181E0B2DD25E33EE043E851E164EBAF
:104AF00074E182E0AADD24E035E243E85DE06EEB9C
:104B000074E183E0A2DD2FEA38E243E850E164EC8F
:104B100074E184E09ADD23E234E243E050E16DEC9D
:104B200074E185E092DD27EB32E243E85FE069ED76
:104B300074E186E08ADD62E475E288E192E020DDDE
:104B400080E090E04CDD1F910F91FF90EF90089571
:104B500066E088E192E027DD81E0E2CD60E070E090
:104B600082E00E944D1360E070E080E00E944D13EF
:104B700082E495E231CD80911E02843071F030F4F0
:104B8000823049F080F4813061F409C0853059F0F9
:104B90008D3038F404C082E0089585E0089581E006
:104BA000089581E0089589E00895CF93EFE1F2E060
:104BB000C081C150C083DFDF8C1710F480931F02C7
:104BC000CF910895CF93EFE1F2E0C081CF5FC08332
:104BD000D2DF8C1710F410921F02CF910895A0E13C
:104BE000B0E0E5EFF5E20C942932B82E6B01FB0141
:104BF00081811F928F9380811F928F932DEE34E1DC
:104C00003F932F939E012F5F3F4F3F932F930E941F
:104C10003C34F60182810FB6F894DEBF0FBECDBFE3
:104C2000882314F488E501C080E28983188A7E0114
:104C300039E0E30EF11C00E010E0802FF601228144
:104C400030E0002E02C0359527950A94E2F720FF48
:104C500003C00E94F50B01C08DE2F70181937F0133
:104C60000F5F1F4F0730110541F728E736E240E09C
:104C700050E0BE016F5F7F4F8B2D10DD6096E9E045
:104C80000C944532EF92FF920F931F93CF93DF93D3
:104C90000F2EF7E7EF2EF3E2FF2EF02D03E813E2DD
:104CA00024EA38E240E06EED74E18BE09BDC0E9488
:104CB000EA0BC82FD92F10E0BE01812F90DF1F5FB4
:104CC00023961A30C9F723EE32E240E050E069ED56
:104CD00073E18AE0BADC62E476E28BE192E050DCD8
:104CE00080E090E07CDCCDB7DEB7E6E00C944832A3
:104CF00082EE95E2909369068093680685ED95E2D1
:104D000090936B0680936A068BE098E290936F060F
:104D100080936E06E0911E02F0E0EC30F10508F0A1
:104D200043C1EC5CFF4F0C9457320E94EA0B209178
:104D3000500630E0B901660F771F260F371FBC0100
:104D4000620F731F43E050E080E292E00E9425343E
:104D500081E080931E028091220287FB882780F9E0
:104D600080931F0253C191E080911F02811101C005
:104D700090E0E2E2F2E0808190FB87F9808382E0BC
:104D800080931E02909120028DEC989F812D11241A
:104D900086958695869580931F0238C1A0E2B2E081
:104DA0009C918DEC989F812D1124869586958695F2
:104DB000880F282F220F220F820F981B892FEFE1D7
:104DC000F2E09081990F292F220F220F920F980F56
:104DD0009C9393E090931E02808318C190912002CF
:104DE0008DEC989F812D1124869586958695880F48
:104DF000982F990F990F890F90911F02890F883171
:104E000018F48093200203C087E18093200284E09D
:104E100080931E02909121028DEC989F812D112488
:104E200086958695869580931F02F0C0A1E2B2E038
:104E30009C918DEC989F812D112486958695869561
:104E4000880F282F220F220F820F981B892FEFE146
:104E5000F2E09081990F292F220F220F920F980FC5
:104E60009C9395E090931E028083D0C09091210284
:104E70008DEC989F812D1124869586958695880FB7
:104E8000982F990F990F890F90911F02890F8C33DA
:104E900018F48093210203C08BE38093210286E003
:104EA00080931E0280912202817080931F02AEC007
:104EB00091E080911F02811101C090E0E2E2F2E0F6
:104EC000808190FB80F9808397E090931E02869505
:104ED000817080931F029AC091E080911F0281111E
:104EE00001C090E0E2E2F2E0808190FB81F98083F2
:104EF00098E090931E0282FB882780F980931F021E
:104F000085C091E080911F02811101C090E0E2E232
:104F1000F2E0808190FB82F9808399E090931E02F9
:104F200083FB882780F980931F0270C091E08091F5
:104F30001F02811101C090E0E2E2F2E0808190FB6B
:104F400083F980839AE090931E028295817080930A
:104F50001F025CC091E080911F02811101C090E0AE
:104F6000E2E2F2E0808190FB84F980839BE0909301
:104F70001E0285FB882780F980931F0247C091E0BD
:104F800080911F02811101C090E0E2E2F2E0808195
:104F900090FB85F980839CE090931E0286FB882716
:104FA00080F980931F0232C091E080911F0281112D
:104FB00001C090E0E2E2F2E0808190FB86F980831C
:104FC0000E94EA0B2091500630E0A901440F551FC2
:104FD000240F351F43E050E060E272E0820F931F20
:104FE0000E9425340E94FB0B10921E0283E893E27C
:104FF000909369068093680687E793E290936B0627
:1050000080936A0610926F0610926E0660E272E05C
:1050100080915006E4CDA2E0B0E0E1E1F8E20C942A
:105020002E321A8280911E0290E0FC013197EC3002
:10503000F10508F084C0E05CFF4F0C94573280917A
:105040001F02882311F088E501C080E2898307E010
:105050005DC080911F02805D898305E157C080910A
:105060001F02805D89830CE151C080911F02805D29
:1050700089830AE24BC080911F02805D898301E32E
:1050800045C080911F02882311F08DE401C08DE29C
:1050900089830FE33BC080911F02882311F084E5D0
:1050A00001C08DE2898306E431C080911F0288230C
:1050B00011F087E501C08DE289830DE427C080915E
:1050C0001F02882311F084E501C08DE2898304E585
:1050D0001DC080911F02882311F086E401C08DE27B
:1050E00089830BE513C080911F02882311F083E5AB
:1050F00001C08DE2898302E609C080911F028823E6
:1051000011F083E501C08DE2898309E62091500604
:1051100030E080915106281B31092F5F3F4F122F3D
:10512000110F110F110F45E0612F802F0E94251ADA
:10513000212F402F61E0CE0101960E94BB1980E033
:105140002296E4E00C944A326AE08BE192E02BDA9A
:1051500081E0909150069A3009F080E0E1CAEF9228
:10516000FF920F931F930F2EF7E7EF2EF3E2FF2E20
:10517000F02D03E813E227EF38E241E06EEF74E12F
:1051800085E030DA2DEB3AE243E05FE06EE075E176
:1051900080E05BDA26E039E243E85EE06AE175E14F
:1051A00081E053DA2AEE39E243E05EE060E275E145
:1051B00082E04BDA20E934E243E057E066E275E151
:1051C00083E043DA23EE32E243E85FE069ED73E126
:1051D00084E03BDA6FEA78E283E292E0D1D980E0C2
:1051E00090E0FDD91F910F91FF90EF90089564E03A
:1051F00083E292E0D8D981E093CA809149028F5F1F
:105200008D3008F080E0809349020895EF92FF927C
:105210000F931F930F2EF7E7EF2EF3E2FF2EF02DE3
:1052200003E813E22EE639E241E06EE275E182E046
:10523000D9D98CE399E290936F0680936E062DEF97
:1052400038E243E856E06CE375E180E0FED923EEF6
:1052500032E243E85FE069ED73E181E0F6D966E0B0
:1052600079E286E292E08CD980E090E0B8D91F9193
:105270000F91FF90EF900895A4E0B0E0E2E4F9E22E
:105280000C942E3280915006811123C080914902E6
:1052900090E09C01220F331F220F331F820F931FB8
:1052A0009F938F9384E495E19F938F938E010F5F7B
:1052B0001F4F1F930F930E943C3428E248E360E0A5
:1052C000C8010E94BB190F900F900F900F900F9084
:1052D0000F9080E02496E4E00C944A32CF93C1E032
:1052E00080915006813009F0C0E0C1110E94080F82
:1052F00061E086E292E057D98C2F12DACF910895BF
:10530000CF93DF93CFE4D2E04881437080E8489F99
:10531000A00111244D5F574F2BED39E269E575E18E
:1053200080E093D9488146954695437080E8489F30
:10533000A00111244D5F574F28EC39E26CE575E16F
:1053400081E083D9488142954F70437080E8489F3F
:10535000A00111244D5F574F25EB39E263E675E15B
:1053600082E073D9DF91CF91089580914F028295A9
:105370008F7083708F5F843008F080E0EFE4F2E09C
:1053800083708295807F90819F7C892B8083B8CFAA
:1053900080914F028695869583708F5F843008F0E8
:1053A00080E0EFE4F2E08370880F880F9081937FB4
:1053B000892B8083A5CF80914F0283708F5F8430CB
:1053C00008F080E0EFE4F2E0837090819C7F892B0D
:1053D000808396CFEF92FF920F931F930F2EF7E7E4
:1053E000EF2EF3E2FF2EF02D03E813E223E13AE281
:1053F00041E06AE475E184E0F5D882DF23EE32E231
:1054000043E85FE069ED73E183E01FD96AEE79E27A
:1054100089E292E0B5D880E090E0E1D81F910F9149
:10542000FF90EF900895CF93C1E0809150068330B4
:1054300009F0C0E0C1110E94080F63E089E292E028
:10544000B2D88C2F6DD9CF910895809136028330D8
:1054500059F018F4813071F405C0853039F0873087
:1054600049F406C082E0089585E0089583E0089538
:105470008BE0089589E00895CF93E7E3F2E0C081DF
:10548000C150C083E2DF8C1710F480933702CF91B4
:105490000895CF93E7E3F2E0C081CF5FC083D5DF0B
:1054A0008C1710F410923702CF910895A9E1B0E063
:1054B000EBE5FAE2D3C76091310270E0660F771F27
:1054C000660F771F665B7C4E8E010A5E1F4FC80118
:1054D0000E941E34809132021F928F931F930F936C
:1054E000809130021F928F938DE691E09F938F936E
:1054F0008AE895E19F938F938E010F5F1F4F1F9353
:105500000F930E943C342CEB3BE240E050E0B801AA
:1055100081E0C4D80FB6F894DEBF0FBECDBF699648
:10552000E4E0B8C7ACE0B0E0E7E9FAE297C7809101
:105530002D021F928F9380912E021F928F938DE6E2
:1055400091E09F938F9380EA95E19F938F938E01D3
:105550000F5F1F4F1F930F930E943C342CEF3AE2D2
:1055600040E050E0B80183E099D80FB6F894DEBF70
:105570000FBECDBF2C96E4E08DC7EF92FF920F9344
:105580001F9347E050E064E776E08CE292E00E94EF
:1055900025340F2EF4E4EF2EFDE2FF2EF02D01E571
:1055A0001DE22EE53DE240E06EE675E187E01AD8A7
:1055B0007DDFB8DF21E43DE240E050E060E875E1E6
:1055C00085E043D823EE32E240E050E069ED73E13C
:1055D00086E03BD86DEB7AE283E392E00E94C02242
:1055E00081E08093500680E090E00E94EF221F91BE
:1055F0000F91FF90EF90089589E49AE290936906E5
:10560000809368068CE39AE290936B0680936A0617
:1056100083E19DE290936F0680936E06809136023F
:105620008130B1F030F0823099F1833009F078C0E8
:1056300057C081E08093360290912E028DEC989FA6
:10564000812D11248695869586958093370293C087
:10565000AEE2B2E09C918DEC989F812D112486954D
:1056600086958695880F282F220F220F820F981B70
:10567000892FE7E3F2E09081990F292F220F220F63
:10568000920F980F9C9392E090933602808373C0A0
:1056900090912E028DEC989F812D112486958695F0
:1056A0008695880F982F990F990F890F909137023F
:1056B000890F883118F480932E0203C087E180930C
:1056C0002E0283E08093360290912D028DEC989FFC
:1056D000812D1124869586958695809337024BC03F
:1056E000ADE2B2E09C918DEC989F812D11248695BE
:1056F00086958695880F282F220F220F820F981BE0
:10570000892FE7E3F2E09081990F292F220F220FD2
:10571000920F980F9C9394E09093360280832BC055
:1057200090912D028DEC989F812D11248695869560
:105730008695880F982F990F990F890F90913702AE
:10574000890F8C3318F480932D0203C08BE3809370
:105750002D021092360281E59DE2909369068093B6
:10576000680684E49DE290936B0680936A0610922B
:105770006F0610926E06D6CE89E49AE2909369067F
:10578000809368068CE39AE290936B0680936A0696
:105790008BEB9CE290936F0680936E0680913602AD
:1057A0008630E9F130F4882359F0853009F0B2C031
:1057B00016C0873009F459C0883009F0ABC08AC0E0
:1057C00085E080933602909130028DEC989F812D78
:1057D000112486958695869580933702CBC0A0E3E9
:1057E000B2E09C918DEC989F812D11248695869531
:1057F0008695880F282F220F220F820F981B892F42
:10580000E7E3F2E09081990F292F220F220F920FE8
:10581000980F9C9396E0909336028083ABC0909152
:1058200030028DEC989F812D112486958695869562
:10583000880F982F990F990F890F90913702890F30
:1058400021F481E08093300208C0803218F4809304
:10585000300203C08FE18093300287E080933602EC
:10586000809131028093370285C080913702809306
:105870003102833079F0853079F0883079F08A30E0
:1058800079F0813079F480913202A0D2882361F0DE
:105890008DE10BC08EE109C08EE107C08EE105C02D
:1058A0008EE103C08FE101C08CE190913002891735
:1058B00010F48093300288E0809336029091320297
:1058C0008DEC989F812D11248695869586958093E1
:1058D000370250C0A2E3B2E09C918DEC989F812DDD
:1058E0001124869586958695880F282F220F220FE2
:1058F000820F981B892FE7E3F2E09081990F292FFF
:10590000220F220F920F980F9C9399E090933602EA
:10591000808330C0E2E3F2E090818DEC989F812D8E
:105920001124869586958695880F982F990F990F43
:10593000890F90913702890F8083609131026F5FE8
:1059400090E0409130028053984F72D280932F02A2
:105950001092360281E59DE2909369068093680675
:1059600084E49DE290936B0680936A0610926F0622
:1059700010926E069BCDA4E0B0E0E0ECFCE26FC5B7
:1059800080913602873081F030F4853051F08630D6
:1059900009F045C012C0883051F0893009F03FC08D
:1059A00009C045E01CE10BC041E111E308C045E03E
:1059B0001BE505C045E012E602C045E013E260E1E8
:1059C000812F0E94251A809136028730A9F080919C
:1059D00037021F928F9325E835E13F932F939E0165
:1059E0002F5F3F4F3F932F9347D70F900F900F900C
:1059F0000F900F900F900CC06091370270E0660F0F
:105A0000771F660F771F665B7C4ECE01019616D717
:105A100020E1412F61E0CE0101960E94BB1980E098
:105A20002496E3E038C5A2E0B0E0E8E1FDE217C566
:105A300080913602823079F018F48130F1F405C09B
:105A4000833029F08430C9F404C011E305C016E4A2
:105A500003C01DE401C018E345E060E2812F0E940D
:105A6000251A80913702805D89831A8220E2412FB6
:105A700061E0CE0101960E94BB1980E02296E3E02E
:105A80000AC58CE292E072C10E9477238091500691
:105A9000882321F0823011F0843011F40C947723A4
:105AA00008950E94832380915006882321F082303C
:105AB00011F0843011F40C948323089566E083E39D
:105AC00092E00E94D32281E090915006963009F036
:105AD00080E00C94902382E08093B00093E0909358
