:100000000C94EB0A0C94232D0C94110B0C94110BF3
:100010000C9498210C9498210C94110B0C94130BB4
:100020000C94110B0C94110B0C94110B0C94110BE0
:100030000C94110B0C94A1140C94110B0C94110B37
:100040000C94110B0C94110B0C94110B0C94110BC0
:100050000C94110B0C94110B0C94110B0C94110BB0
:100060000C94110B0C94110B072718272D273227FE
:100070004327482759275D275D275D275D275D2793
:100080005D275D272530326868753A25303268680B
:10009000752563002530326868753A253032686806
:1000A000752563002530326868753A2530326868F6
:1000B000750025732025303268687520257320323D
:1000C00030253032686875008D142000AF2575002A
:1000D00000F8F8F8F80000C3C3C3C300001F1F1FD7
:1000E0001F00FEFFFF0F0707070FFFFFFE7FFFFF49
:1000F000F0E0E0E0F0FFFF7F0000181C1EFFFFFFB4
:100100000000000000000000FFFFFF0000001E1FB5
:100110001F070787C7E7FF7F3EF0F8FCFEEFE7E326
:10012000E1E0E0E00E0F0F070787C7EFFF7F3E70AB
:10013000F0F0E0E0E1E3F7FFFE7CC0E0F0783C1E89
:10014000FFFFFF00001F1F1F1C1C1CFFFFFF1C1CCC
:10015000FFFFFFC7C7C7C7C7C7870771F1F1E1E155
:10016000E1E1F3FF7F3FFEFFFF8F878787878F8F58
:100170000E7FFFFFE3E3E3E3E3FFFF7F0F0F0F07D4
:10018000070787C7FFFF7FE0F0783C1E0F070301DA
:1001900000007EFFFFC7878787C7FFFF7E7EFFFFC8
:1001A000E3E1E1E1E3FFFF7EFEFFFFC7C7C7C7C78B
:1001B000FFFFFE78F9F9E1E1E1E1E1FFFF7FFEFFFA
:1001C000FFFFFF0F0F0F0F0F0F0F0F0FFFFFFFFFAF
:1001D000FEFFFFFFFFFF000000000000000000FF27
:1001E000FFFFFFFF7FFFFFFFFFF0F0F0F0F0F0F008
:1001F000F0F0FFFFFFFF7F000000000000203CFF49
:10020000FFFFFFFF000000000000000000000000F2
:100210000000FFFFFFFFFF000000000000000000E3
:100220000000000000FFFFFFFFFF000000000000D3
:1002300000FEFFFFFFFF0F0F0F0F0F0F0F0FFFFF4E
:10024000FFFFFE00000000000080C0E0F0F8FC7E30
:100250003F1F0F070301E0F0F8FCFEFFFFFFF7F37D
:10026000F1F0F0F0F0F0F0F0F0FEFFFFFFFF0F0F05
:100270000F0F0F0F0F0F0FFFFFFFFFFE000000001B
:10028000000000081C1C3E3E7E7FF7F7F7E3E37F8B
:10029000FFFFFFFFF0F0F0F0F0F0F0F0F0FFFFFFF5
:1002A000FF7F000000000080E0F0FCFF7F1F0F03D5
:1002B000010000000080C0F0FCFEFF3F0F030100C2
:1002C0000000FFFFFFFF00000F0F0F0F0F0F0F0FBA
:1002D0000F0F0F0F0FFFFFFFFF0F0FFFFFFFFFFFBE
:1002E0000F0F0F0F0F0F0F0F0F0F0F0F0F0F1F1FFE
:1002F0001F1F1F1E1E1E1E1E1E1E1E1EFEFEFEFE9B
:10030000FC7FFFFFFFFFF0F0F0F0F0F0F0F0F0FF07
:10031000FFFFFF7FFEFFFFFFFF0F0F0F0F0F0F0FFE
:100320000F0F7F7F7F7F7EFFFFFFFFFF3C3C3C3C4A
:100330003C3C3C3C3CFCFCFCFCF87FFFFFFFFFF03E
:10034000F0F0F0F0F0F0F0F0FFFFFFFF7F7F7F7F35
:100350007F7F0F0F0F0F0F0F0F0FCFFFFFFFFF1F3D
:1003600000000000000000000080F0FCFFFF3F0FD5
:10037000030000000000000080E0F8FEFFFF1F0700
:10038000010000000000FEFFFFFFFF0F0F0F0F0F27
:100390000F0F0F0FFFFFFFFFFEC3E7E7F7FF7E3EE4
:1003A0003E3C1C3C3E3E7EFFF7E7E7C37FFFFFFF7E
:1003B000FFF0F0F0F0F0F0F0F0F0FFFFFFFF7FFE55
:1003C000FFFFFFFF0F0F0F0F0F0F0F0F0FFFFFFFAD
:1003D000FFFE1F3F3F3F3F3C3C3C3C3C3C3C3C3CE9
:1003E000FFFFFFFFFF7EFEFEFEFEF0F0F0F0F0F0FC
:1003F000F0F0F0FFFFFFFF7F0000000000005F0053
:1004000000000007000700147F147F14242A7F2AAD
:100410001223130864623649552250000503000078
:100420001C2241000041221C0000082A1C2A080846
:10043000083E0808A060000000080808080860607E
:1004400000000020100804023E5149453E00427F52
:100450004000625149494622414949361814127FE9
:100460001027454545393C4A494930017109050382
:100470003649494936064949291E003636000000EA
:10048000AC6C00000814224100141414141441220E
:100490001408000201510906324979413E7E0909DA
:1004A000097E7F494949363E414141227F414122EF
:1004B0001C7F494949417F090909013E4141517267
:1004C0007F0808087F417F4100002040413F017FB5
:1004D000081422417F404040407F020C027F7F048D
:1004E00008107F3E4141413E7F090909063E4151C6
:1004F000215E7F09192946264949493201017F01B8
:10050000013F4040403F1F2040201F3F4038403FB8
:100510006314081463030478040361514945437F5D
:1005200041410000020408102041417F0000040204
:100530000102048080808080010204000020545465
:1005400054787F4844443838444428003844444868
:100550007F3854545418087E09020018A4A4A47CBF
:100560007F08040478007D00000080847D00007F07
:1005700010284400417F4000007C041804787C0867
:10058000047C003844443800FC2424180018242437
:10059000FC00007C0804004854542400047F4400FC
:1005A000003C40407C001C2040201C3C4030403C33
:1005B00044281028441CA0A07C004464544C4408E7
:1005C00036410000007F00000041360800000201B3
:1005D000010201020505020060C0F0381C0010187D
:1005E0009C72301000FF81BDBDBDBDBDBDBDBDBD98
:1005F000BDBD81FF3CFF81BDBDBDBDBDBDBDBD81DC
:10060000818181FF3CFF81BDBDBDBD818181818133
:10061000818181FF3CFF81BD8181818181818181D7
:10062000818181FF3C10387C3810101814345656E4
:10063000D0D01038101C0603010101010101010195
:10064000010101010101010101010101010101019A
:1006500001010101010103061C3860C08080808017
:10066000808080808080808080808080808080808A
:1006700080808080808080808080C0603800000022
:100680000000000000C0E03030181808CCCC08187A
:10069000183030E0C0000000000000000000000042
:1006A00000000018FFC30000000000000F1F3060B2
:1006B000C080000083FF1800000000000000000060
:1006C000000000000003070C0C1810103030101050
:1006D000180D0C07030000000000000000000000DF
:1006E000000000000000000000000000000000000A
:1006F000000000000000000000000000000080C0BA
:10070000C0C0C0C0C0C0C0C0C0C0C0C0C0C0C0C0E9
:10071000C0C0C0C0C0C0C0C0C0C0C0800000FFFF1B
:10072000007E1E0E06020200000000000000000015
:1007300000000000000000000000FFFF0000FFFFBD
:1007400000000000000000000000000000000000A9
:1007500000000000006060606000FFFF0000010317
:100760000303030303030303030303030303030359
:100770000303030303030303030303010000000057
:10078000000080C0E0F0F0F878783C3C3C3C3C3C19
:100790007878F8F0F0E0C00000000000000C1C7C4D
:1007A000FCFEFFFFFF7F3C0C00000000000000008B
:1007B000000000000101C0C0C000000000000000F7
:1007C0000003030380800000000000000000000020
:1007D0000000303CFEFFFFFF7F3F3E3C300000004A
:1007E00000000003070F0F1F1E1E3C3C3C3C3C3C1E
:1007F0001E1E1F0F0F070301000000000000000075
:1008000000000000000000000000000000000000E8
:1008100000000000000000000000000000000000D8
:1008200000000000000000000000000000000000C8
:1008300000000000000000000000000000000000B8
:1008400000000000000000000000000000000000A8
:100850000000000000000000000000000000000098
:100860000000000000000000001E3F313D3D313F10
:100870001E0000000000000000000000000000005A
:100880000000000000000000000000000000000068
:100890000000000000000000000000000000000058
:1008A0000000000000000000000000000000000048
:1008B0000000000000000000000000000000000038
:1008C00000000000003C7E627A3A3A3A3A3A3A3AFC
:1008D0003A7A627E3C000000000000000000000048
:1008E0000000000000000000001E3F313D3D313F90
:1008F0001E000000000000000000000000000000DA
:1009000000000000000000000000000000000000E7
:1009100000000000000000000000000000000000D7
:100920000078FCC4F474747474747474747474749F
:100930007474747474F4C4FC780000000000000047
:1009400000000000003C7E627A3A3A3A3A3A3A3A7B
:100950003A7A627E3C0000000000000000000000C7
:100960000000000000000000001E3F313D3D313F0F
:100970001E00000000000000000000000000F0F871
:1009800088E8E8E8E8E8E8E8E8E8E8E8E8E8E8E847
:10099000E8E8E8E8E8E8E8E8E888F8F000000001BE
:1009A0000178FCC4F474747474747474747474741E
:1009B0007474747474F4C4FC7801010000000000C5
:1009C00000000000003C7E627A3A3A3A3A3A3A3AFB
:1009D0003A7A627E3C000000000000000000000047
:1009E0000000000000000000001E3F313D3D313F8F
:1009F0001E00000000000000000000000000008059
:100A0000E0F0F8F8FCFC7C7C3CBC9EDEDEDEDEDE4A
:100A1000FEBC3CF8F8F0F0E0C00000000000E0FF91
:100A2000FFFF7F7F7D0030F8F8F1F1E3C3E7FFFFC0
:100A30007F7F7F7F7F03031FFFFFFEF00000073FE4
:100A4000FFFFF8E0C0E0F0F97F3F1F0F0FF3FDFC60
:100A5000786001071F9FDFFFFFFFFFFF000000001E
:100A6000000103070F1F1F3C3C3C7878787F7F7F95
:100A70007F7F7E7E7F7F7F3F1F0F07030000008008
:100A8000E0F0F8383C3C7C7C389890C0C0C0C0C0D6
:100A9000C08000000000000000000000000000070F
:100AA0001F3F7C7C7C0030F8F8F1F1E3C3870F1F17
:100AB0003F7F7F7E7C0000000000000000000000FF
:100AC000000000000000000103070F0F0FF3FDFC02
:100AD000786001071F1FDFFFFEFCF8F00000000038
:100AE00000000000000000000000000000070F1FD1
:100AF0003F7F7E7E7C7C7F3F1F0F070300FFFFFF51
:100B0000FFFFEFCF8F0F0F0F0F0F0F0F0F0F0F0FF5
:100B10000F0F0F0F0F0F0F0F0FFFFFFFFFFFFFFF55
:100B2000FFFFFFFFFFFFFE040C1C3C7CFCFCFCFCF9
:100B3000FCFCFC000000000000FFFFFFFFFFFFFFC8
:100B4000FFFFFFFFFFFFFFC0C0C0C0C0C0C1C3C7E1
:100B5000CFDFFFC08000000000FFFFFFFFFFFFFFAF
:100B6000FFFFFFFFFFFFFFFFFFFFFFFFFFFFFFFF95
:100B7000FFFFFFFFFFFFFEFCF8FFFFFFFF0000008D
:100B80000000000000000000000000000000000065
:100B90000000000000000000000000000000000055
:100BA00000000000000000C0F0F8381C1C1C1C38BD
:100BB000F8F0C0000000000000000000000000008D
:100BC00000000000000000030F1F1C383838381CDC
:100BD0001F0F0300000000000000000000000000E4
:100BE0000000000000000000000000000000000005
:100BF00000000000000000000000000000000000F5
:100C0000000000000000000000000000FEFE0000E8
:100C100000000000000000000000000000000000D4
:100C200000000000000000C0F0F8381C1C1C1C383C
:100C3000F8F0C0000000000000000000000000000C
:100C40000000000080C0C0030F1F1C383838381C5B
:100C50001F0F03C0C0800000000000000000000063
:100C60000000060703010000000000000000000073
:100C70000000000001030706000000000000000063
:100C8000000060E0C08000000000000000000000E4
:100C90000000000080C0E0600000000000000000D4
:100CA00000000000010303C0F0F8381C1C1C1C38B5
:100CB000F8F0C00303010000000000000000000085
:100CC0000000000080C0C0030F1F1C383838381CDB
:100CD0001F0F03C0C08000000000000000000000E3
:100CE00000000607030100000000000000000000F3
:100CF00000000000010307060000000000000000E3
:100D0000000060E0C080000000000000FEFE000067
:100D10000000000080C0E060000000000000808053
:100D200080808080810303C0F0F8381C1C1C1C38B4
:100D3000F8F0C00303818080808080800000010182
:100D40000101010181C0C0030F1F1C383838381C55
:100D50001F0F03C0C081010101010101000000005B
:100D60000000060703010000000000007F7F000074
:100D70000000000001030706000000000000000062
:100D800000808080808000000000000000000000E3
:100D90000000000080808080800000000000E0F8FB
:100DA0009C9F07079F9FFCFCFCFCFCFCFCFCFCFCE4
:100DB000FCFCFCFC9F9F67679F9CF8E000F8FFFF2E
:100DC000FFFFFE7E3F1F312424311F0F0F0F0F1F27
:100DD000312424311F3F7EFEFFFFFFFFF800010199
:100DE0000101000000000000000000000000000001
:100DF00000000000000000000101010100000000EF
:100E00000000000000000000000080C0E0E00000E2
:100E1000000080000070E0C0800000000000F0F8DA
:100E2000F8F8F8F8F8F8F8FCFEFFFFFFFFFF000005
:100E30003CF8C1071FFCF0031FFEF00000000F1F6D
:100E40001F1F1F1F1F1F1F3F7FFFFFFFFFFF000010
:100E50003C1F83E0F83F0FC0F87F0F000000000048
:100E60000000000000000000000001030707000070
:100E700000000100000E0703010000000000000058
:100E80000000000000000000000000000000000062
:100E900000000000000484E4741C0C00000000004A
:100EA00000000000000000000000000383C3F33BCB
:100EB0001F070300000303020202020000000007F4
:100EC0000787C7E7F77F3F1F0F00000607070606E3
:100ED00006060600000000000000000000003C3E86
:100EE0003F3F3B39383838383800000000000000F8
:100EF000000000000000000000000000000080C0B2
:100F0000C00000F8F8C00000F8F8C0C00000F8F811
:100F1000C0C0C080000000000000000000FFFFFF14
:100F20003F3E3F3F3FBFBFBE3FBFBFBFBEBEFFFF55
:100F3000FF7F7F3FB8307070F0E0C08000FFFFFFA0
:100F4000806C6C6C006D6D6D006D6D6DFFFFF789D1
:100F50000002061C7800000008C3FFFF3E000103EA
:100F6000030303030303030303030303030303074D
:100F70000F0E0E0E0F0E0E0E07070301000080C0AD
:100F8000C0C0C0C0C0C0C0C0C0C0C0C0C0C0C0C061
:100F9000C0C0800000000000000000000000FFFF53
:100FA00001000000000000000000000000808080C0
:100FB000818F8F80808C9CB8F0E0C0800000FFFFA4
:100FC000800000000000000000000000000101019E
:100FD00081F1F1010131391D0F0703010000010307
:100FE00003030303030303030303030303030303D1
:100FF00003030100000000000000000000000000EA
:1010000000000000000000C0F8F000000000000038
:1010100000000000000000000000000000008080D0
:101020008080808080C0FC3F013FFE800000000087
:1010300000000000000000000000000000000101AE
:101040000101010101010100000007FFE080F83CFF
:101050000C0C0C0C0C0C0C0C0C0C0C0C0000000000
:101060000000000000000000000000010F0F03005E
:101070000000000000000000000000000000000070
:101080000040E0F0E0E0C080C0C0E0FEFEFEFEE018
:10109000C0C080C0E0E0F0E0400000000000C0C040
:1010A000C0C0E1FBFF1F07E3F1F97C3C1C1C3C7C4A
:1010B000F9F1E3071FFFFBE1C0C0C0C0000003035C
:1010C000030387DFFFF8E0C78F9F3E3C38383C3E84
:1010D0009F8FC7E0F8FFDF870303030300000000D2
:1010E0000002070F070703010303077F7F7F7F07C6
:1010F0000303010307070F070200000000000000C0
:1011000000000000000000000000000000000000DF
:1011100000000000000000000000000000C0E0F03F
:10112000F0F0F0F0F0F0F0F0F0F0F0F0F0F0F0F0BF
:10113000F8F8FCFCFCFCFCFC00B090988803070F5E
:101140000F0F0F0F0F0F0F0F0F0F0F0F0F0F0F0FAF
:101150001F1F3F3F3F3F3F3F000D09191100000097
:10116000000000000000000000000000000000007F
:10117000000000000000000000000000000000600F
:10118000F0F8F8F0E06060B030181818F8D81818C7
:101190001830B06060E0F0F8F8F06000000000F097
:1011A0007C0F13010000000000000000FFFF0000A2
:1011B00000000000000001130F7CF0000000077F1A
:1011C000F2824000000000000000000003070E1C37
:1011D0003870E0C08000004082F27F07000000000D
:1011E0000103060C1830306860C0C0C0F0C0C0C039
:1011F000C060683131180C060301000000000000D7
:1012000070783C9ECE6F6737331A1818F8D81818C4
:101210001A3337676FCE9E3C78700000000000F0F4
:101220007C0E03010000000000000000FFFF000032
:1012300000000000000001030E7CF0000000077FAA
:10124000F282030303030303030303030303000006
:10125000000000000000000082F27F070000000094
:101260000103060C1830306060C0C0C0F0C0C0C0C0
:10127000C060603030180C06030100000000000060
:10128000000080E0F0F8FCFCFC3E1E1E1E1E1E3E10
:101290007CFCFCF8F0E08000000000000000000092
:1012A00000000101010101010000000080C0E0F028
:1012B000F8FFFFFF7F3F0F0000000000000000006C
:1012C0000000000000000000007C7E7F7F7F7F0F19
:1012D0000301010000000000000000000000000009
:1012E0000000000000000000007E7E7E7E7E7E000A
:1012F000000000000000000000000000000F0102DC
:10130000016F909060011F0100788080780F0402C7
:10131000040FF8A8A8011F0100F82020F81F0505F8
:1013200000F828689012150900F02828F012150915
:1013300000788080783C42819DA181423C060F1F4D
:101340003E1F0F064A616E00466562004D617200E5
:10135000417072004D6179004A756E004A756C00EB
:1013600041756700536570004F6374004E6F7600DF
:10137000446563004D6F6E005475650057656400E9
:1013800054687500467269005361740053756E00AD
:101390004D545754465353006070501030F0F030A5
:1013A00010507060030307070725750057494E2149
:1013B0000047414D454F564552210040F8EC2C2C3A
:1013C00038F010D030E84C4C9CF0021F3734341CFD
:1013D0000F080B0C173232390F0101010101010115
:1013E0000125750047414D454F5645522100536335
:1013F0006F72653A004869676873636F72653A0097
:10140000214E4557204849474853434F52452100F4
:101410002575002575004261636B003C20444941FD
:10142000474E4F5354494353203E004657202020F7
:101430002020312E31203134313032300054656D6E
:10144000706572617475726520256868642E256800
:1014500068754300426174746572792020202025EC
:10146000756D560053686F772046505325396300D9
:101470003C20444953504C4159203E004272696718
:1014800068746E65737300496E7665727400526F8E
:101490007461746500416E696D6174696F6E73008B
:1014A0003C2047414D4553203E00427265616B6FC1
:1014B00075740043617220646F646765003C204D61
:1014C00041494E204D454E55203E00416C61726DA4
:1014D0007300466C6173686C696768740053746F5D
:1014E0007077617463680047616D6573005365745C
:1014F00074696E677300446961676E6F73746963C2
:10150000730045786974003C20414C41524D532092
:101510003E00202530326868753A2530326868759B
:10152000256320003C2053455454494E4753203EE8
:101530000054696D652026206461746500536C65F4
:10154000657000536F756E6400446973706C6179E7
:10155000003C20534C454550203E0025686875539B
:101560000054696D656F7574003C20534F554E44AF
:10157000203E00554900416C61726D7300486F75E3
:1015800072206265657073003C2054494D452026E9
:101590002044415445203E0053617665002568682B
:1015A0007500253373253032686875202573203225
:1015B000302530326868750025367325303268680A
:1015C000753A253032686875001F1C1F1E1F1E1FCC
:1015D0001F1E1F1E1F0011241FBECFEFD8E0DEBF4D
:1015E000CDBF14BE88E10FB6F894809360001092CE
:1015F00060000FBE11E0A0E0B1E0EAE8F8E602C04A
:1016000005900D92A431B107D9F716E0A4E1B1E03D
:1016100001C01D92AB30B107E1F70E9446210C9446
:1016200043340C9400000F928F939F930FB68091D8
:10163000B30086508093B3008091FE059091FF0522
:1016400001969093FF058093FE050FBE9F918F91A9
:101650000F9018952CE3829FC00111249C01260F46
:10166000311D80EA95E0489FB001499F700D11241B
:10167000260F371F822F932F0895AAE1B0E0E3E4ED
:10168000FBE00C94442F0E94622B882394F080E1AD
:101690008B8B8C8B8DEF91E19E8B8D8B80E28F8B72
:1016A000888F198E1A8ECE0143960E9449190E9486
:1016B0004E19809102068B87CE010B960E94F62C64
:1016C0008E01045F1F4FEDB7FEB71283018324E83C
:1016D00030E0348323839B859583168290910106A5
:1016E00097831086818712860E944031C80160E08E
:1016F0004FE424E10E942D1A6091030670E0660F0A
:10170000771F660F771F6C587C4EC8010E942031EE
:10171000C80160E046E524E20E942D1A80E06A9646
:10172000E4E00C94602FCF93CDE18C2F90E08050BB
:10173000904060E00E945833C150B8F7CF910895AF
:10174000282F30E0C901880F991F280F391F20501A
:101750003040CB01B90143E050E00C942C33A3E0BE
:10176000B0E0E5EBFBE00C94382F609101066F5F71
:1017700080910206409103066DDF6C010F2EF9E0A7
:10178000AF2EF02DEE24EA94FE2C55245A940F2E01
:10179000F6E04F2EF02D8A2DBE016F5F7F4FD0DF18
:1017A0008B81882334F5082F10E089809A8070900F
:1017B0001401B42C6A2CC8010B2C02C09595879596
:1017C0000A94E2F780FF0FC0882D692D4B2D42DF70
:1017D0008C199D0912F4815A984D8E159F0518F4A5
:1017E0007B2C7C01562CBA948FEFB812E4CF709208
:1017F0001401AA948FEFA812CECF50921501239610
:10180000E0E10C94542FABDF809117019091180107
:101810000E94CD1760911B0170911C0140911D0128
:1018200050911E018091190190911A0165D7809104
:10183000E3010E94791785E060E00E942D2C83E08F
:101840008FD31092160181E0089589CF0895BC01CD
:10185000809115018F3F19F073DF81E0089580E0DA
:101860000895809114010895282F30E0C901880F50
:10187000991F280F391F20503040CB01B90143E098
:1018800050E00E9449336BCFA3E0B0E0EAE4FCE013
:101890000C94452F10911601CE010196D8DF8823B4
:1018A00009F45BC08B8190E00090030602C095951F
:1018B00087950A94E2F780FF50C0998180910206D3
:1018C00098134BC09A8180910106981346C080916D
:1018D0000006811147C081E08093160143C01111B9
:1018E00029C08DE39BE00E94CD179093180180934F
:1018F000170180E060E070E0EED690931A018093CB
:10190000190181E063E07CE0E6D690931C018093AE
:101910001B0182E060E070E0DED690931E018093B0
:101920001D0185E061E00E942D2C8EE390E062E0D5
:1019300043E006D30E94E116811118C081E0909126
:101940000A01913009F480E080930A0166E94FEFC3
:101950000E94C0160BC057DF09C080911601882372
:1019600029F0F9CF809116018111B9CF2396E3E0D8
:101970000C94612FF4CE089580911F018823E1F12A
:101980008091200190912301992399F0843010F4E3
:101990008F5F09C0883010F48D5F05C0803110F46E
:1019A0008B5F01C0885F8034B0F010921F0180E02F
:1019B00012C08C3F10F08F5F09C0883F10F08D5F20
:1019C00005C0803F10F08B5F01C0885F8A3018F43B
:1019D00010921F0180E08093200180911F018111EE
:1019E0000BC0E0912101F0912201309729F0099577
:1019F000109222011092210108952091E4012223E6
:101A000089F021E020931F01662311F020E001C03E
:101A100020EC209320019093220180932101609378
:101A200023010895009711F0FC0109950895809114
:101A30001F0108959091230181E0892708958091E5
:101A40002001089510922701109228011092290177
:101A500010922A010E94622B909326018093250107
:101A600081E0089585EC97E161E0C7DF81E00895AA
:101A700080912401813039F41092240184E060E0E7
:101A80000E942D2C09C0811107C081E080932401A0
:101A900084E061E00E942D2C0E94622B909326012D
:101AA0008093250181E00895AAE1B0E0EAE5FDE038
:101AB0000C943C2FF4D4C0902701D0902801E090E2
:101AC0002901F0902A01C701B60128EE33E040E079
:101AD00050E00E94142F49015A0180E8C8168EEE8A
:101AE000D80686E3E806F104D0F4C701B60128EE73
:101AF00033E040E050E00E94142F2AE030E040E064
:101B000050E00E94142F122FC501B4012CE330E0E5
:101B100040E050E00E94142FE62EC22E1EC00F2E71
:101B2000FCE3CF2ED12CE12CF12CF02DCA01B90110
:101B3000A70196010E94142F162FCA01B901A7010F
:101B400096010E94142FE62EC501B40120E13EE06B
:101B500040E050E00E94142FC22E81E08B870F2EB0
:101B6000F4E1FF2EF02DFC868C2D0E9430210F2EEB
:101B7000F9E3DF2EF02DD89EC0011124AC014254B0
:101B80005E4F5E874D8783E18F8708E1088B198A56
:101B90001A8ACE010B960E9449190E944E190B8792
:101BA0008C2D0E943821D89EC00111249C01225402
:101BB0003E4F3E872D870E944E198CE38B878E2DDA
:101BC0000E943021D89EC00111249C0122543E4F16
:101BD0003E872D870E944E1983E58B878E2D0E94AC
:101BE0003821D89EC001112482549E4F9E878D8734
:101BF0000E944E1988E68B878CE18C878BE08F875B
:101C000080E1888B812F0E9430210F2EF6E1EF2E8C
:101C1000F02DE89EC00111249C012E513F4F3E87BC
:101C20002D870E944E1984E78B87812F0E943821CF
:101C3000E89EC00111248E519F4F9E878D870E9480
:101C40004E1981E38B87FC8686E08F87088B80EDB9
:101C500090E09E878D870E944E19809102068B8BA3
:101C6000CE0143960E94F62C7E0194E1E90EF11C10
:101C7000EDB7FEB7F282E18224E930E034832383BA
:101C80009B899583168290910106978310868187A0
:101C900012860E944031C70160E040E320E00E94CC
:101CA0002D1A81E06A96ECE00C94582F0E942E23A6
:101CB00084E59DE00E94CD1782E29DE068E37DE02F
:101CC00042E35DE019C581E090912401913009F073
:101CD00080E0089580912401813099F50E94622B63
:101CE0002091250130912601AC01421B530B9A0132
:101CF00040912701509128016091290170912A019A
:101D0000420F531F611D711D4093270150932801FD
:101D10006093290170932A019093260180932501F5
:101D200041155A426547754160F08FEF99E2A5E78A
:101D3000B5E18093270190932801A0932901B093E6
:101D40002A01089540912B0150912C01443F81E0DC
:101D50005807B8F49A0136952795ABE7B4E10E948D
:101D6000E12E96958795019662E3689F9001699FA1
:101D7000300D1124420F531F50932C0140932B011F
:101D800004C010922C0110922B0181E008958091E3
:101D9000E3010E9479170E94C51781E008958091A0
:101DA0002B0190912C01892B19F10E94622B20911B
:101DB0002D0130912E01AC01421B530B20912B01C0
:101DC00030912C014217530700F190932E0180931C
:101DD0002D0190912F0181E0892780932F010E948E
:101DE000791780912F0164E14FEFCAD781E0089500
:101DF00081E00E94791781E064E64FEFC1D780E06F
:101E000064E64FEFBDD780E0089581E008950E9419
:101E10002E2310922C0110922B018FEC9EE00E9439
:101E2000CD1787EC9EE062EA7EE0AC0165C487E0F6
:101E300080937A0080E480937C0080E880BFE4E6B1
:101E4000F0E08081816080830895E4E6F0E0908195
:101E50009E7F90838F70806480937C00EAE7F0E03F
:101E60008081806C8083808186FDFDCF2091780009
:101E700030917900EAE7F0E080818F778083E4E6B3
:101E8000F0E0808181608083822F932F089582EE1D
:101E900091E06FE170E047E050E00C94493381E05D
:101EA0008093E2011092E3018093E4018093E501C5
:101EB0008093E6011092E7018FEF8093E801E7DF5E
:101EC00032CC8EE190E00E943C338E3441F482EEBD
:101ED00091E06FE170E047E050E00C942C338EE12C
:101EE00090E06EE40E946A33DACF0F931F93CF9392
:101EF00040913401842F90E0880F991F2091310187
:101F0000309132014F5F40933401820F931F0E9442
:101F10004433C82F823069F0692F409133012091FA
:101F2000300105E71FE077D4C11106C010923001DF
:101F300003C010923401D9DFCF911F910F91089502
:101F400020913001421758F04093300190933201B4
:101F5000809331016093330110923401C6CF08950C
:101F60000F931F93282F80E060E040E000E010E036
:101F700052D4109230011F910F910895FB0190816E
:101F8000811103C0903428F00895993318F09150CE
:101F900001C09F5FFB01908381E00895A0E0B0E065
:101FA000E4EDFFE00C94402FEC013D81DF800A81DD
:101FB0001B818C81839FC001112499230CF4079607
:101FC0009595879595958795959587957C01FF249F
:101FD000F801869FE00DF11D1124FB83EA83222383
:101FE00029F0DD2019F0FFEFDF1204C01F820E94EC
:101FF0004E1918C0C62ECA948FEFC81201C0C42E45
:102000008D2D8450831B8F830E944E19DF82CE9CBE
:10201000C001CF9C900D1124800F911F9B838A8358
:102020000E944E19DF821B830A83CDB7DEB7E8E03A
:102030000C945C2FA0E3B0E0E0E2F0E10C94402FC0
:102040006E012CE2C20ED11C6091030670E0660F97
:10205000771F660F771F6C587C4EC6010E94203197
:102060007E0188E2E80EF11C6091050670E0660FC3
:10207000771F660F771F6C5B7C4EC7010E94203173
:102080008E01085E1F4FEDB7FEB71283018382EB0E
:1020900090E094838383D682C582809104068783EF
:1020A0001086F286E18680910606838714860E9458
:1020B0004031C80160E04CE020E00E942D1A809180
:1020C000E401882309F4C0C0909100068091350195
:1020D000981709F45EC0109236011092370181E022
:1020E00080933801809102060E943021182F809140
:1020F00039010E94302191E0181301C090E09093C3
:102100003A01809102060E943821182F80913901EE
:102110000E94382191E0181301C090E090933B0198
:10212000809101060E943021182F80913F010E946A
:10213000302191E0181301C090E090933C01809110
:1021400001060E943821182F80913F010E943821FA
:1021500091E0181301C090E090933D01809100063A
:102160000E943021182F809135010E94302191E08A
:10217000181301C090E090933E0180910206809375
:1021800039018091010680933F0180910006809380
:10219000350180913801882309F464C080913601AB
:1021A000843020F48F5F8093360117C0873020F48D
:1021B0008D5F8093360111C0813120F48B5F809355
:1021C00036010BC0873120F48D5F8093360105C046
:1021D0008D3118F48F5F80933601809136018C31F8
:1021E00018F08FEF8093360180913701823020F410
:1021F0008F5F809337010BC08E3020F48D5F80930A
:10220000370105C0853118F48F5F809337018091C5
:102210003701843120F08FEF8093370102C0853180
:1022200008F1809136018D31E8F01092360110925C
:102230003701109238018AE391E060E070E045E0F8
:1022400050E00E9439310EC01092360110923701D1
:10225000109238018AE391E060E070E045E050E0E0
:102260000E94393188E6888F8CE1898F82EE90E078
:102270009B8F8A8F8BE08C8F80E18D8F1E8E80915B
:1022800037018F8FCE0148960E94491900E016E071
:10229000F80180810E943021682FCE01489645E0E8
:1022A00020913E017BDE84E7888FF80180810E94C7
:1022B0003821682FCE01489649E0209138016EDE22
:1022C00084E1898F83E18C8F0F2EF8E1FF2EF02DB2
:1022D000FD8E8EEB91E09B8F8A8F809136018F8FE0
:1022E0008CE3888F01E016E0F80180810E943021A4
:1022F000682FCE01489645E020913C014FDE83E5F2
:10230000888FF80180810E943821682FCE0148967D
:1023100049E020913D0142DE8091020688ABCE016A
:10232000C0960E94F62C182F81E0888F88A90E9401
:102330003021682FCE01489645E020913A012EDEEB
:10234000F88E88A90E943821682FCE01489649E06E
:1023500020913B0123DE4A990CC081E3888F20ED58
:1023600030E03B8F2A8F86E08C8F88E18D8F1F8E27
:1023700095D718A719A6CE01889660E048E624E113
:102380000E942D1AF09038018AD084E18D8787E36E
:102390008E8725E236E0388B2F8780E1898B88E0B5
:1023A0008A8B1B8A1C8ACE010D9673D789B183FB59
:1023B000882780F96BE071E0E1DD882339F08091B6
:1023C0000B018E876BD78D858C5E8D8788E0898B1E
:1023D00089B18295817091E089276CE071E0CEDD52
:1023E000882359F02DED35E0388B2F8780910C0133
:1023F0008E8754D78D85845F8D8788E38E8763DCD5
:10240000882341F025E333E1388B2F8747D78D852B
:10241000845F8D87CE0145961ADA882369F18D890C
:1024200088ABCE01C0960E94F62C8E01085E1F4F2D
:10243000EDB7FEB71283018324EA30E034832383AF
:1024400088A9858316828E89878310860E944031F1
:10245000C80160E04D8528E30E942D1A8D858D5DB1
:102460008D87FFD9F8E08F9FC00111249C01235074
:102470003D4E388B2F8712D78F2DE096E8E00C94D5
:102480005C2F8AE190E189D580E090E06DE072E216
:1024900040E050E031D180E090E060E0AECAA8E0DA
:1024A000B0E0E5E5F2E10C94462F5FD080382CE0F7
:1024B000920750F084372EE0920748F0803A9F4010
:1024C00048F485EF95E008C085E196E005C085E019
:1024D00096E002C085EE95E0198228E32A839C836A
:1024E0008B8380E18D8388E08E831F821886CE01E6
:1024F0000196CFD6D3D62896E2E00C94622F389A74
:102500004098089580934001809100068093410196
:102510000895409A80E991E00197F1F786E095DC13
:1025200040989C01A8E6B0E10E94E12E2BE533E043
:1025300040E050E00E94142F309343012093420169
:1025400008958091000690914101891769F0809368
:10255000410180914001882321F081508093400106
:10256000089585E0CFDFD5CF089580914201909105
:1025700043010895882339F090E0282F2170920FAD
:102580008695D9F701C090E0892F0895A3E0B0E0C7
:10259000ECECF2E10C94422F0E94622B90915F01CF
:1025A000282F291B2A3008F466C080935F0186B16A
:1025B0008270898386B184708A8386B188708B83A8
:1025C0006894FF24F1F8EE24E3942F2D30E0890184
:1025D000000F111F000F111F000F111F020F131FFB
:1025E0000C5B1E4FE1E0F0E0EC0FFD1FE20FF31F6C
:1025F0009081D80113968C911397880F13968C9322
:10260000139791112EC0816013968C93B3DF8430A1
:1026100070F1F8018281811108C00E94622BD801FB
:1026200011969C938E931296EC92F80184818111FD
:102630001EC00580F681E02D3097C9F009958823EA
:10264000B1F0D8011496EC92149717968D919C9145
:1026500018976E2D4E2D74DC8E2D62E34FEF90D3C4
:1026600006C088DF853018F4F80112821482FA94CB
:10267000FFEFFF12AACF2396E6E00C945E2F399865
:102680003A983B98419A429A439A0895F8DF86E334
:1026900090E090934C0180934B018EE290E09093F8
:1026A00055018093540186E290E090935E018093FF
:1026B0005D01ECE6F0E080818E608083E8E6F0E08A
:1026C0008081826080830895419842984398399A26
:1026D0003A9A3B9A089590E0FC01EE0FFF1FEE0F2F
:1026E000FF1FEE0FFF1FE80FF91FEC5BFE4F858108
:1026F000968176836583089590934A01809349017A
:10270000709353016093520150935C0140935B01BD
:1027100008951F93CF93DF932091E201222319F1B3
:1027200088E893E1289FE001299FD00D112412E051
:102730000E94622B212F30E0F901EE0FFF1FEE0FF8
:10274000FF1FEE0FFF1F2E0F3F1FF901EC5BFE4F27
:1027500020813181821B930B8C179D0730F0115023
:1027600038F780E003C081E001C081E0DF91CF91C4
:102770001F910895FF920F931F93CF93DF9312E061
:1027800001E06894FF24F2F8812F90E0EC01CC0F77
:10279000DD1FCC0FDD1FCC0FDD1FC80FD91FCC5B99
:1027A000DE4F0C830A83FB820E94622B998388830D
:1027B000115050F7CDB7DEB7E5E00C945F2FE0E89D
:1027C000F0E080818F738083E4E6F0E080818860B0
:1027D0008083109263011092600180E060E00C94AD
:1027E0002D2C82E08093800081E18093810080E045
:1027F00092E0909389008093880080E094E0909329
:10280000870080938600E4E6F0E080818860808322
:10281000219A29980895EF92FF920F931F93CF93D7
:10282000DF93E82ED62FF42EC22F90916001291746
:1028300008F46CC0611102C0C2DF68C080E061E0D2
:102840000E942D2CC09360011093620100936101DE
:10285000E09263010E94622B80936401D13059F4AD
:10286000E0E8F0E080818F738083E4E6F0E080812F
:10287000886080834BC042E0F41651F053E0F516B7
:1028800069F081E0F81210C06091E80163700DC03A
:102890006091E80166956695637007C06091E801F4
:1028A00062956F70637001C062E06150633070F5D3
:1028B0002D2F30E0220F331F220F331F220F331F23
:1028C00080E290E0AC0102C0559547956A95E2F729
:1028D000BA01C9010E94ED2EC901861B970BE4E6DF
:1028E000F0E04081477F408316BAEFE6F0E0408198
:1028F000416040831092850010928400909389007B
:10290000809388003093870020938600CDB7DEB790
:10291000E6E00C945E2F80916301882389F00E9489
:10292000622B90916401891B90916301891740F09B
:1029300046DFE0916101F0916201309709F009955D
:1029400008951F920F920FB60F9211248F93EF9359
:10295000FF93E0E8F0E08081806C808310926F004C
:10296000FF91EF918F910F900FBE0F901F901895D0
:10297000982F92959F70990F292F220F220F920F57
:102980008F70890F0895EF92FF920F931F93CF934B
:10299000DF93C82F8B01F42E2DD680ED5BD68111ED
:1029A00002C055D629C08C2F55D6811102C04FD6F2
:1029B00023C020D681ED4ED6811102C048D61CC05E
:1029C000FA9479F0E02EC02FD12FCE0161E061D6CC
:1029D000811102C03CD610C021968C2F8E198F1504
:1029E000A0F3C8018F0D911D60E053D6811102C084
:1029F0002ED602C010D681E0CDB7DEB7E6E00C944B
:102A00005E2FCF93DF93C82FD62FF4D580ED22D63B
:102A1000811102C01CD60EC08C2F1CD6811102C0A1
:102A200016D608C08D2F16D6811102C010D602C04E
:102A3000F2D581E0DF91CF910895CF93DF93C82F36
:102A40000E943021D82F8C2F0E94382190E1D99FED
:102A5000800D1124DF91CF910895A1E0B0E0E3E370
:102A6000F5E10C94452F182F8EE0BE016F5F7F4F6C
:102A700041E089DF69816B7B113011F480E401C092
:102A800084E0682B69838EE0BCDF2196E3E00C9440
:102A9000612FA1E0B0E0EFE4F5E10C94462F8EE069
:102AA000BE016F5F7F4F41E06EDF698167766983AA
:102AB0008EE0A7DF8FE0BE016F5F7F4F41E063DFF5
:102AC0006981647F69838FE09CDF81E0C6DF2196A6
:102AD000E2E00C94622F1F93CF93DF93EC0180E030
:102AE000BE0147E050DF888143DF8883898140DF72
:102AF00089838A813DDF8A838C813ADF8C838D8153
:102B000037DF182F8D838E8133DF8E838B8188236F
:102B100011F081508B83112311F011501D83DF912F
:102B2000CF911F910895CF93DF93EC01888185DFCA
:102B3000682F80E066DF898180DF682F81E061DFB8
:102B40008A817BDF682F82E05CDF6B816F5F83E0CF
:102B500058DF8C8172DF682F84E053DF8D818F5FB7
:102B60006CDF682F85E04DDF8E8167DF682F86E0A0
:102B700048DFDF91CF91089581E165E671E042E0A1
:102B800002CF65E671E042E050E00C943031A1E004
:102B9000B0E0EDECF5E10C94452F8FE0BE016F5FE6
:102BA0007F4F41E0F0DE6981162F117060FF04C095
:102BB0006E7F69838FE025DF812F2196E3E00C94FF
:102BC000612FA1E0B0E0E7EEF5E10C94442F8C0119
:102BD000DEDF8EE0BE016F5F7F4F41E0D4DE011586
:102BE0001105C1F087E060E00CDFF801818125DF8D
:102BF000682F88E006DFF80180811FDF682F89E0F9
:102C000000DFF801628160648AE0FBDE8981816017
:102C1000898303C089818E7F89838EE06981F1DE9B
:102C20002196E4E00C94602FA1E0B0E0EAE1F6E147
:102C30000C94452F8FE0BE016F5F7F4F41E0A3DE14
:102C4000698161FB112710F961FF04C06D7F698301
:102C50008FE0D7DE812F2196E3E00C94612FA1E075
:102C6000B0E0E5E3F6E10C94442F8C01DDDF8EE06B
:102C7000BE016F5F7F4F41E086DE01151105C1F097
:102C8000F8018181DADE682F8BE0BBDEF8018081FC
:102C9000D4DE682F60688CE0B4DEF8018281CDDE7E
:102CA000682F60688DE0ADDE89818260898303C012
:102CB00089818D7F89838EE06981A3DE2196E4E09E
:102CC0000C94602F0F931F93CF93DF93EC01162F7B
:102CD000042F8881882371F00E94622B9981891BBF
:102CE0009881891738F08BB108230BB984B5182364
:102CF00014BD18828881DF91CF911F910F910895A3
:102D0000CF92DF92EF920F931F93CF93DF93EC015B
:102D1000142F690168830E94622B8983812F81505F
:102D20008E3F78F084B50095082304BD1F3F21F441
:102D30008BB1E82AEBB80FC08BB1E094E822EBB876
:102D40000AC0E4E6F0E080818F7D808384B5082BA3
:102D500004BDF6011083DF91CF911F910F91EF9089
:102D6000DF90CF90089583E084BD85BDE4E6F0E078
:102D7000808180628083559A569A5D985E98089506
:102D8000EF920F93882319F08130A1F40AC087E6EF
:102D900091E027E430E000E86894EE24E6F8B0DF44
:102DA00009C089E691E028E430E000E26894EE246E
:102DB000E5F8A6DF81E061E00E942D2C0F91EF90F5
:102DC000089580916701811109C081E090E0209110
:102DD0006901211105C080E090E0089581E090E054
:102DE0000895CF9387E691E06FE74FEB6BDFC82F35
:102DF00089E691E06FED4FED65DFC1110BC08111E8
:102E000009C0E4E6F0E080818062808381E060E0D8
:102E10000E942D2CCF91089581E060E040E0B0DF6A
:102E200080E060E040E0ACDFDCCFCF93DF93D82FD1
:102E3000C62F289850D42A98DEBD0DB407FEFDCFCA
:102E4000CEBD0DB407FEFDCF2A9A4BD4DF91CF91B2
:102E50000895CF93C82F28983ED42A98CEBD0DB49C
:102E600007FEFDCF2A9A3DD4CF910895289833D4F8
:102E70002A9882E28EBD0DB407FEFDCF1EBC0DB4B4
:102E800007FEFDCF87E08EBD0DB407FEFDCF81E2CA
:102E90008EBD0DB407FEFDCF1EBC0DB407FEFDCFE9
:102EA0008FE78EBD0DB407FEFDCF2A9A1AD4289A5B
:102EB00012D42A98E9EEF1E089EE95E02081119292
:102EC00032E03A95F1F700C03DB52EBDE817F9079D
:102ED000A9F784E08A95F1F700C08DB52A9A01C45C
:102EE000813011F48FEA01C08EEAB3CF682F81E8F8
:102EF0009CCF882311F087EA01C086EAAACF8823F5
:102F000019F081EA68EC91CF80EA60EC8ECF229ACA
:102F1000209A5F9A579A80ED97E0FC013197F1F77C
:102F20005F98FC013197F1F75F9A0197F1F72898C4
:102F3000D2D32A9880E090E0FC01E853FF4FE4915F
:102F4000EEBD0DB407FEFDCF019685309105A1F7CA
:102F50002A9AC7D38091E501D2DF9091E80192953A
:102F600096959695937085E5989F802D1124BEDFE8
:102F70008091E301BEDF80ED97E00197F1F776CF16
:102F800090936C0180936B010895E0916B01F09137
:102F90006C01309709F00995089530916D012091E9
:102FA0006E0190936E0180936D01832F922F08958F
:102FB000ABE0B0E0EEEDF7E10C943C2F0E94622B09
:102FC000F82E80916F019F2D981B809170019817AA
:102FD00028F482E061E00E942D2C32C1F0926F0152
:102FE0000E94BC0CE0916D01F0916E01309759F098
:102FF00080917601811104C0809172018111D8C045
:103000000995D82E01C0D12C80917601882309F42E
:10301000CDC0E0907101C090740180917301811165
:1030200027C080917201882331F023E0E20E3FE156
:103030003E1538F036C08DEFE80E9FE19E15A0F0EA
:1030400030C081E0809373016894882482F868948A
:10305000EE24E5F800E010E0912C0F2EF0E8AF2E02
:10306000F3E0BF2EF02D23C010927601E12C9AC020
:1030700080917501882321F0EAEFCE0E92F4DAC038
:10308000FAE0CF0E72F4109273016894CC24C7F862
:1030900003C010927601C12C91E0811190E09093D1
:1030A00075018E2C869486948694A1F619C0C80169
:1030B00087519E4F60E070E040E850E00E94393157
:1030C000C501801B910B87519E4F60E070E040E886
:1030D00050E00E943931939400581F4F981438F3F0
:1030E000EE2DE770A9F180E8889E900111248FEF02
:1030F00090E0182F0E2E01C0110F0A94EAF70E2E41
:1031000002C0959587950A94E2F761E070E00E2E73
:1031100001C0660F0A94EAF740E850E002C05595F6
:103120004795EA95E2F7F901E751FE4FA9EEB5E0C0
:10313000A21BB30B27593D4F90819123962B91935E
:103140009E919823942B9C93E217F307A9F72AC02A
:10315000EE2041F120E82C19269580E48E19869501
:1031600086958695E0E88E9FC0011124820F911DFF
:1031700087519E4F61E070E04C2D50E00E94393144
:10318000F0E2EF1679F020E8829EC00111242FE7CB
:10319000FC01E20FF11DE751FE4F308131603083B9
:1031A0002150B0F7E0927101C0927401D11007C0B4
:1031B00080917601811106C00E94170D05C081E043
:1031C00090E002C081E090E0E82E8091E601882343
:1031D000F1F00E94622B8E01095F1F4FEDB7FEB721
:1031E000128301832DEC30E0348323838F19682F01
:1031F0006D5F88EE93E070E00E94012F7683658317
:103200000E944031C80160E04BE628E326D1C6D1D8
:10321000E11008C082E060E00E942D2C88E28093DB
:1032200070010EC082E061E00E942D2C80E180934D
:10323000700106C09091720191112BCFC12C2CCF3F
:103240002B96ECE00C94582F9091E401911103C05F
:10325000109276010895813061F41092720180938A
:10326000730180E2809371011092750110927401D4
:103270000CC081E080937201109273011092710171
:103280008093750180E88093740181E080937601DA
:10329000089590937801809377010895A7E0B0E0B6
:1032A000E4E5F9E10C94362FE0917701F091780193
:1032B0004080B180F280D38084802580E680978032
:1032C0000E941F0DB80E1B2D1919A22CA694A694AE
:1032D000A6940F2EF7E0CF2EF02DC1222B0C2982C1
:1032E000AA2009F4B6C0012F085F682C712C4F2D5D
:1032F0005D2DD12CF82CF40C242C88E090E02C01CE
:103300004C1851083981232F30E03D832C838B2DBD
:1033100090E09B838A83AE2D992049F10B1508F428
:1033200091C0013408F08EC09981911708F48AC0C9
:103330001B1558F48A819B81811B9109EE24EA9424
:1033400001C0EE0C8A95EAF717C02981201790F486
:10335000802F90E02C813D81821B930BEFEFF0E0FA
:1033600002C0F595E7958A95E2F7EE2E05C0EE24AA
:10337000EA9402C0EE24EA94812F8695869586957C
:10338000F0E88F9FC0011124C1101CC01034D0F48C
:10339000882009F457C0FA01222D7A2F222364F0E5
:1033A000349171113095DC01A20FB11DA751BE4FB0
:1033B0003E216C91362B3C932F5F31962F11EECF2F
:1033C000A72F40C0602F66956695669520E8629F9E
:1033D000B00111248820B1F1FA01AE839C012F8243
:1033E0008F81882344F184919E81911180958E2153
:1033F000103478F4D9019F81A90FB11DA751BE4F98
:10340000382E0C2C01C0330C0A94EAF79C919329B6
:103410009C93003480F4DB019F81A90FB11DA7515B
:10342000BE4F90E0042C02C0959587950A94E2F770
:103430009C91892B8C938F818F5F8F8331968F1115
:10344000CFCFAE81D394085F185F460D571DDA10B9
:1034500063CF2796E2E10C94522FA8E0B0E0E3E3BB
:10346000FAE10C943D2F8C01A62EB42EE22EC090D2
:103470007701D090780119822A831C821B8285E013
:103480008D8388E08E836F831886CE01019601DFDD
:10349000D801EC91EE23C1F1E694E694E694B0E80D
:1034A000EB9E700111240F5F1F4F99249A94B982EB
:1034B000E052F0E0CF01880F991F880F991FE80FA5
:1034C000F91FE850FC4FFC83EB83E8DEAA20A9F04B
:1034D000BB2059F08B2D8150F701E80FF11DE7510A
:1034E000FE4F90828AE78B1540F08B2D8B5FF701A2
:1034F000E80FF11DE751FE4F9082D801ED918D014B
:10350000B7E0BB0EE111D3CFD0927801C092770122
:103510002896EBE00C94592FA0E0B0E0E2E9FAE144
:103520000C943D2F7C01962EA42EB22ECDB6DEB685
:103530000E942731992701962DB73EB7281B390BDA
:103540000FB6F8943EBF0FBE2DBF0DB71EB70F5F6D
:103550001F4F802F912FB7010E942031802F912F74
:10356000692D4A2D2B2D79DF0FB6F894DEBE0FBEE4
:10357000CDBEEBE00C94592F66956695669520E8D4
:10358000629FB00111249B01280F311DC901875191
:103590009E4F60E070E050E00C94393167CC0895A4
:1035A000ECEBF0E080818B7F80833C98449A80ED47
:1035B00097E00197F1F734990EC040E420ED37E031
:1035C00050E2C9010197F1F788B1852788B934998C
:1035D00002C04150B1F73C9A3D9A449A459A0895E9
:1035E00082E08093B800DCDFE4E6F0E08081806870
:1035F00080830895E4E6F0E080818F77808382E025
:103600008093B80084EA8093BC00ECEBF0E080810A
:103610008823ECF70895ECEBF0E084E98083808167
:1036200084FD0AC09FEF2DE0822F8A95F1F78081FB
:1036300084FD02C09150C1F7ECEBF0E080818B7FFC
:103640008083E4E6F0E08081806880830895E3DF92
:1036500080E008958093BB0084E88093BC00ECEB8D
:10366000F0E080818823ECF72091B900287F283191
:1036700049F0283251F081E090E0203441F080E0C0
:1036800090E005C081E090E002C081E090E08170B0
:103690000895ECEBF0E02081619560742F7B622B44
:1036A000608320812068208320812223ECF72091F1
:1036B000B900287F203511F0283531F42091BB0066
:1036C000FC01208381E0089580E0089580E58CBDB1
:1036D00081E08DBD0895E4E6F0E080818B7F8083FA
:1036E000F5CFE4E6F0E08081846080830895229A3B
:1036F000239A259A2C9A2A9AE9DFF3CF81E08093C6
:10370000790180E0089582E08093790180E0089556
:10371000A9E1B0E0EEE8FBE10C94362F80918D0139
:1037200090918E01803A910548F481E090E02091DB
:103730008C012F3F29F080E090E002C081E090E012
:10374000282F2170298F10918F018091790181306C
:1037500011F41D5F03C0823009F4135010927901F7
:103760001B3F20F4153718F014E701C010E01F8349
:1037700088E3888788E993E19A8789878CE08B873B
:1037800088E08C871D861E86CE01079682DD86DD49
:1037900010938F01498D41112CC00AE711E0F80107
:1037A00060817181828193812091820130918301B6
:1037B00040918401509185010E94332DF80160836E
:1037C0007183828393830EE711E0F8016081718138
:1037D00082819381209186013091870140918801F7
:1037E000509189010E94332DF80160837183828397
:1037F000938360917A0170917B0180917C0190911B
:103800007D010E94FF2D6F8B60917E0170917F0181
:1038100080918001909181010E94FF2D688FA12CE1
:10382000B12C212C20E06894442443F8512CFF89CA
:103830008F2E912C462F50E05E8B4D8B4DC0C32CAC
:10384000D12CE0918A01F0918B01EC0DFD1D80815E
:10385000811131C08A149B0474F1861497045CF5BD
:103860008D899E898E159F0534F1C7010496ED89D7
:10387000FE89E817F907FCF484E66AEF41E021E0ED
:1038800000E010E00E940B1481E062E34FEF78DA71
:1038900080918A0190918B01FC01EC0DFD1D81E06E
:1038A000808380918D0190918E01019690938E017D
:1038B00080938D0121E03394F4E0EF0EF11C4CE194
:1038C000E416F10409F0BBCF55E0250E84E0A80E04
:1038D000B11C90EA291639F0322C72013501E4E06E
:1038E0006E0E711CACCFFF89FF3710F1F13F48F02D
:1038F00010927A0110927B0110927C0110927D014E
:103900000CC080E090E0ACEFB2E480937A01909339
:103910007B01A0937C01B0937D01E2E8F1E080811E
:103920009181A281B381B05880839183A283B383B4
:10393000498D4111A1C0588D5C3308F42CC1503F12
:1039400008F029C180918F019F89981708F423C13D
:10395000492F50E090E00C96841795070CF41BC19A
:1039600088EC64E641E021E000E010E00E940B14E6
:1039700080E090E0A0E7B2E480937E0190937F0125
:10398000A0938001B0938101C0908601D0908701FF
:10399000E0908801F0908901C701B60120E030E095
:1039A000A9010E94B92E181664F4F7FAF094F7F8FA
:1039B000F094C0928601D0928701E0928801F09243
:1039C00089010E941231BC01882777FD8095982FCC
:1039D0000E942D2E20E03CEF4FE756E40E94972DE9
:1039E00020E030E040E85FE30E94322D60938201E6
:1039F0007093830180938401909385013DC02111D0
:103A0000CFC03AC0E88DE13F88F088EC68EC41E037
:103A100021E000E010E00E940B1410927E01109251
:103A20007F0110928001109281011BC0211119C0E9
:103A300088EC6AEF41E021E000E010E00E940B1406
:103A400080E090E0ACE7B2E480937E0190937F0148
:103A5000A0938001B093810180918C01815080936B
:103A60008C01E6E8F1E080819181A281B381B058B8
:103A700080839183A283B38384EA93E19A878987C1
:103A800082E08B8760917A0170917B0180917C014B
:103A900090917D010E94FF2D6F8360917E01709156
:103AA0007F0180918001909181010E94FF2D6887A4
:103AB000F5DB86EA93E19A87898783E08B87E12C9F
:103AC00000E06894DD24D3F815C0E0918A01F091FC
:103AD0008B01EF0DF11D8081811103C0EF821887EA
:103AE000DDDBF3941C5F1C3181F70B5FF4E0EF0E1C
:103AF000003A19F0F02E1D2DE8CF7E012FE0E20EE6
:103B0000F11CEDB7FEB7F282E18289EA93E194837A
:103B1000838380918D0190918E01968385830E948D
:103B20004031C70160E040E020E097DC80918C01EB
:103B30008F3FC9F08DE393E19A87898787E08B8770
:103B400081E0888780918C01882369F010E0812FC3
:103B5000880F880F880F88598F83A0DB1F5F8091A3
:103B60008C011817A0F380918D0190918E01803AFD
:103B7000910530F08CEA93E160E042E320E2CCDC96
:103B800080918C018F3F89F481EB93E160E042E208
:103B900020E2C2DC0AC0F88DFF3308F033CF2FCF0C
:103BA000288D213F08F45DCF30CF81E06996E2E1B6
:103BB0000C94522F53D50E94622B0E94153188E835
:103BC0009BE1EBD98EE79BE161E37EE143E85BE1BA
:103BD0000E947C131092790180E090E0A0E8B2E4AA
:103BE00080937A0190937B01A0937C01B0937D0137
:103BF00080E090E0A8E5B2E480937E0190937F019D
:103C0000A0938001B093810180E090E0A0E8BFEB39
:103C10008093820190938301A0938401B0938501E6
:103C20008DEC9CECACE8BFEB809386019093870110
:103C3000A0938801B093890180EA90E061E070E090
:103C40000E94732F80938A0190938B0183E080936D
:103C50008C0110928E0110928D018AE380938F0166
:103C6000089580918A0190918B010E942A30809161
:103C70008C018F3F11F49EDF05C085EC97E161E078
:103C80000E94FD0C81E0089582E080939D0181E017
:103C9000089581E080939D010895A4E1B0E0E3E5FB
:103CA000FEE10C943B2F80919D01813041F4809185
:103CB000A001833068F48F5F8093A00109C0823037
:103CC00039F48091A001882319F081508093A001DC
:103CD00010929D019091A0019295907F8091A101F9
:103CE000981720F482508093A10105C0891718F419
:103CF0008E5F8093A10180919E018F3F09F401C1E5
:103D000000E911E00F2EF2E9EF2EF1E0FF2EF02D89
:103D10000F2EF9E9CF2EF1E0DF2EF02D6894BB24B1
:103D2000B7F8D8018C91F7019081891B982F995C85
:103D3000963210F08C931AC0D801BC920E941231B6
:103D4000F701319783709078992324F401978C6F51
:103D50009F6F01968295807F808380919B019091D7
:103D60009C01019690939C0180939B010D5F1F4FD6
:103D7000B3E0EB0EF11C0C151D0599F60F2EF1E9C1
:103D8000EF2EF1E0FF2EF02D80E991E0470100E0F9
:103D9000AE2CBF2CC12C27C00117D1F0D4013C910F
:103DA0002081321315C0DC016C919F012150310933
:103DB000D901DC90D61660F470E02D2D30E0215F43
:103DC0003F4F6217730724F42D2D205FDA012C93E7
:103DD0001F5F3396133001F70F5FB3E08B0E911C1A
:103DE0000396033029F0EA2DFB2D1C2DAC01D4CF16
:103DF00080919F01811185C00F2EFAE9CF2EF1E04D
:103E0000DF2EF02D0F2EF1EAAF2EF1E0BF2EF02DB8
:103E10000F2EFFE98F2EF1E09F2EF02D7724739463
:103E2000F701319780818F3008F064C0F7018081FD
:103E30008E5FD5012C912E5F821748F0682F70E0BD
:103E4000422F50E0445F5F4F461757076CF490E0F5
:103E50000C9630E0821793070CF44CC0245F3F4F60
:103E6000281739070CF446C0F40170820E94622BB7
:103E70009093A3018093A20180919E018150809331
:103E80009E018F3F51F580919B0190919C01209163
:103E9000990130919A012817390778F47092A4019A
:103EA00090939A018093990189E991E06EE770E01F
:103EB00042E050E00E94493302C01092A40180E029
:103EC0006AEF4FEF0E94C0168AEF6AEF472D272D49
:103ED00000E010E00E940B140DC080E06EE14FEF97
:103EE0000E94C01684E66AEF472D272D00E010E0FF
:103EF0000E940B14F3E0EF0EF11CEC14FD0409F02A
:103F00008FCF0E94622B8C0180919F018823E1F06A
:103F10008091A2019091A3019801281B390BC9013E
:103F2000883E33E0930708F4F9C010929F010CC05B
:103F30008091A501823021F48EEF8093A50106C007
:103F400082E08093A50102C01092A5011F8290918A
:103F5000A5018091A101890F88872BEB33E13A8776
:103F600029878FE08B8780E18C871D861E86CE0196
:103F700007968FD980919F01882309F006FD8ED97D
:103F800080919E018F3F09F479C012E0812F90E06B
:103F9000FC01EE0FFF1FE80FF91FE057FE4F808175
:103FA0008F839091A5018181890F888777D91150DE
:103FB00068F789ED93E19A87898788E08B878C87FA
:103FC0000DE011E00F2EF0E1EF2EF1E0FF2EF02DCD
:103FD0006894DD24D7F8F8018081982F9658973798
:103FE00018F08650808301C0D0820F5F1F4F808100
:103FF0008F838091A501805F888750D98091A5012A
:10400000805E88874BD98091A501805D888746D9DD
:104010000E151F0501F78E01015F1F4FEDB7FEB7AB
:104020001283018381EE93E19483838380919B01CA
:1040300090919C01968385830E944031C80160E085
:104040004DE521E00ADA8DE393E19A87898787E0DD
:104050008B8781E0888780919E01882309F463C063
:1040600010E0812F880F880F880F805E8F8316D90C
:104070001F5F80919E011817A0F355C084EE93E155
:1040800060E044E120E048DA8EEE93E160E044E154
:1040900020E142DA85EF93E160E044E120E23CDA9E
:1040A0008091A401882331F080E094E160E044E154
:1040B00020E332DA8E01015F1F4FADB7BEB7129613
:1040C0001C930E93119780E194E114969C938E9328
:1040D000139780919B0190919C0116969C938E93CF
:1040E00015970E944031C80160E040E620E1B5D953
:1040F000EDB7FEB71283018383E194E19483838358
:104100008091990190919A01968385830E94403114
:10411000C80160E040E620E2A0D905C08E3591409C
:1041200008F406CF11CF81E06496EDE00C94572F90
:10413000CF9394D20E94622B0E9415318DE49EE1B0
:104140000E94CD1789E49EE164E47EE144ED50E2F3
:104150000E947C131092910181E08093920180E88B
:104160008093900190E19093940192E09093950157
:104170008093930190E290939701C3E0C0939801DC
:104180008093960189E991E06EE770E042E050E0AB
:104190000E942C3310929C0110929B0110929D0161
:1041A000C0939E01CF91089580919E018F3F11F49D
:1041B000BFDF05C085EC97E161E00E94FD0C81E066
:1041C00008955C9AE8E6F0E0808184608083EDE603
:1041D000F0E08081886080832E9A2F9A0895CF9393
:1041E000DF930E94622B9091A601282F291B26396C
:1041F000A0F18093A601C9B1C3FBCC27C0F9D9B106
:10420000D295D17081E0D8278091A701C81769F0B5
:10421000C093A701CC2319F082E790E002C086E6A4
:1042200090E061E041E00E94A00F8091A801D817C2
:10423000A1F0D093A801D11110C0CC2371F088E572
:1042400090E061E041E00E94A00F89EA91E060E027
:1042500076E047E050E00E943031DF91CF91089541
:104260009DEC899F812D11248695869586950895CC
:104270009DEC899F912D1124969596959695990F71
:10428000292F220F220F920F891B08959ADFE4E64F
:10429000F0E0808182608083589A599A28DAA0D908
:1042A0000E94170F0E94610F0E94B3160E94F11323
:1042B0000E947F120E9446130E94582B0E944915AB
:1042C0000E946C2B0E948E2C0E94250C0E94871746
:1042D000789488EC6DE741E021E000E010E00E9476
:1042E0000B1481E062E34FEF0E94C01681E492E17B
:1042F0000E94C0170E94C5170E940D2D0E94332CEA
:10430000882321F00E94A1120E94C6120E948B14E1
:104310000E94F1160E946A0E62DF0E94332C8823ED
:1043200021F00E94440C0E94D8170E94742BE4CF05
:1043300018958093B1016093B2014093B001E09170
:10434000FA05F091FB05309711F0862F0995089535
:104350005091EC054091EB05242F30E0852F90E043
:1043600007962817390714F0465003C0541708F46D
:10437000452F4093EC05089582EF95E060E070E0F2
:104380004AE050E00C943931E091FC05F091FD05D4
:10439000309711F00995089545C4A8E1B0E0E3ED28
:1043A000F1E20C94422F8E010F5F1F4FC80160E2B3
:1043B00070E048E150E00E943931E090EF05F09064
:1043C000F005C7010E942731969587959801281B13
:1043D000390BC9010996B7010E942031C80160E07C
:1043E00040E020E03AD86896E6E00C945E2FCF9348
:1043F000DF93EC018091EE05882361F00E94170D98
:10440000882321F00E941A0D882321F0209711F0B3
:10441000FE010995DF91CF9108950E94170D882321
:1044200021F00E941A0D882381F08091EE05811100
:1044300005C081E08093EE05F5D307C0E091F40557
:10444000F091F505309709F0099581E00895809184
:10445000F6059091F705CBDF81E008958091F20594
:104460009091F305C4DF81E00895A8E0B0E0EBE3AC
:10447000F2E20C943F2F8091F10581112EC08DDF67
:10448000E090EC058091ED05883008F087E0B82ECB
:10449000BE0CEB1408F0D6C0DE2CF12C0BEE15E0B0
:1044A0004D2D50E04E195F094F5F5F4FC42ECC0C6D
:1044B000CC0CCC0CF8018081D81207C082E191E0CD
:1044C00060E040E02C2D0E942D1A82E06D2D4C2DD5
:1044D00030DFD394DB1420F3B5C02091EB0530ED31
:1044E0003203C0011124805C9F4F2091E4012223FC
:1044F00009F44AC0209110013091110128173907A1
:1045000004F5AC01421B530B12F44D5F5F4F559500
:104510004795559547954F5F413108F040E1240F8D
:10452000311D281739073CF43093110120931001F5
:10453000CC24C39430C09093110180931001C12CFE
:104540002AC08217930734F5A901481B590B12F4AE
:104550004D5F5F4F55954795559547954F5F413155
:1045600008F040E1241B3109821793073CF4309393
:10457000110120931001CC24C3940DC0909311011C
:1045800080931001C12C07C09093110180931001FA
:10459000C12C01C0C12C0091100110911101FDDE50
:1045A0008EE289838EE08A8325E336E03C832B8389
:1045B00084E28D8388E08E831F821886CE01019667
:1045C0000E9449190E944E198AE28A8329E536E041
:1045D0003C832B830E944E198091ED058823C1F006
:1045E000015F1F4FD12C0F2EFDEEEF2EF5E0FF2EB9
:1045F000F02D0F39110528F4402F4F5180E06D2D1B
:1046000098DED394005D1F4FF7019081D91688F38F
:1046100081E06091EB0540E08CDEE091F805F091DF
:10462000F9053097B1F0C11009C0099521E030E0DB
:10463000811102C020E030E0C90102C081E090E0B9
:10464000C82E07C0E091F805F091F905309769F799
:10465000C12C8C2D2896E9E00C945B2F8DDE1092F6
:10466000EE051092FD051092FC050C94C5172091E3
:10467000FC053091FD052617370719F0FC01328340
:104680002183FC0180818093EB057093FD0560938D
:10469000FC0508954091EB0550E02091ED0530E0D8
:1046A0002150310981E04217530709F080E0089555
:1046B000CF93DF93EC01EEDF811104C08091EB0515
:1046C000888307C0188289819A819093FD05809321
:1046D000FC05DF91CF9108951F93CF93DF93EC01F9
:1046E000162F8881C5DDEAEEF5E09081990F292F1C
:1046F000220F220F920F980F988380831093E90561
:10470000DF91CF911F910895FC0150813DEC539FA3
:10471000312D1124369536953695330F532F550F7D
:10472000550F350F5091EA05350F631708F4362FF2
:10473000FC0130832093EA054093E905089561E088
:104740000C94FD0CA8E0B0E0E8EAF3E20C94462FEC
:104750009091B20198133DC08091B1018130F1F088
:1047600028F0823011F18330A1F527C08091B0018B
:10477000898380E18A834115510511F44DE752E1A7
:104780005C834B8380E28D838E831F821886CE01EB
:1047900001960E9449190E944E191BC0CB0160E08E
:1047A00040E028E30E942D1A14C0CB0160E046E0EF
:1047B0002091B0010E942D1A0CC02115310549F03D
:1047C0008091B001882319F0C901B9DF02C0F90155
:1047D00009952896E2E00C94622FA8E1B0E0E3EF9F
:1047E000F3E20C94412F7A018901D090B201D812E2
:1047F0000BC0CE0101960E9420318D2DBE016F5F4E
:104800007F4FA70198019EDF6896E7E00C945D2F2B
:104810008091ED05815066E174E14DE75FE024ECA5
:1048200031E2DBCF60E00C94FD0C0F931F93CF932C
:10483000DF93082F162FEA019FDD1092EC051092EE
:10484000EB050F5F0093ED051093F105D093F00594
:10485000C093EF05DF91CF911F910F910895909331
:10486000F3058093F2057093F5056093F40550937A
:10487000F7054093F6053093FB052093FA0508955C
:10488000EBEEF5E080818F5F80839091ED058917D5
:1048900010F01092EB055CCDEBEEF5E080818150DD
:1048A00080839091ED05891718F091509093EB0556
:1048B0004FCD482F83E06091EB053BCDE6EEF1E074
:1048C000908181E08927808308950E94BC150E9411
:1048D000A11284E060E04BE154E1A7DF80E494E2C0
:1048E0006CE474E24CEF54E22FE734E2B8DF83EB80
:1048F00091E065E674E2BBDE80E090E093CFA2E257
:10490000B0E0E5E8F4E20C94442F813071F120F03E
:10491000823009F061C042C0CE0181960E94C1156B
:104920008AA1882314F020E001C025E086FD2E5FD7
:104930008E01075F1F4FEDB7FEB7128301838DE332
:1049400094E19483838389A1992787FD9095968329
:104950008583278310860E94403180E0B80140E0C3
:1049600050E02CEB35E1EEDE40C00E94B5128E0126
:10497000075F1F4FEDB7FEB71283018324E534E1D3
:1049800034832383968385830E94403181E0B8017C
:1049900040E050E029EF34E2D5DE27C08091E60107
:1049A000882311F029E501C02EE48E01075F1F4F17
:1049B000EDB7FEB71283018384E694E19483838389
:1049C000258316820E94403182E0B80140E050E029
:1049D0002EE534E2B7DE09C083E06BE274E140E02B
:1049E00050E020E030E0F9DE13DFA296E4E00C9422
:1049F000602F0C948912089583EB91E059DE4ADE12
:104A000058CFE4EEF1E0908181E08927808308951A
:104A100084E061E040E754E108DF80E494E26AE783
:104A200075E24CE454E22EE135E219DF86EB91E0C9
:104A300068E075E21CDE80E090E0F4CE4091E80191
:104A4000429546954695437080E8489FA001112401
:104A50004358544F80E06CE774E12FE535E2BDDE4A
:104A600081E067E874E14DEF5AE027E535E2B5DE15
:104A700082E06EE874E14DE757E02FE435E2ADDE09
:104A80004091E40180E8489FA00111244350564F13
:104A900083E065E974E121E035E29FDEB9CEE5EE21
:104AA000F1E0908181E0892780830C947F17E3EE09
:104AB000F1E0908181E0892780830C9479178091BF
:104AC000E80182958695869583708F5F843008F023
:104AD00080E0E8EEF1E0282F2295220F220F207CC3
:104AE00090819F73922B908395E5899F802D11244F
:104AF0000C947617CF93CEDDC82F81110E94470FFB
:104B000086EB91E0D5DD8C2FD4DECF91089582E045
:104B100060E040EA54E189DE80E494E26CE474E20F
:104B20004EEA55E22DE935E29ADE89EB91E067E83D
:104B300075E29DDD80E090E075CE80E06AEA74E188
:104B400040E050E02AED3DE148DE81E063EB74E1B6
:104B500040E050E028E930E240DE5ACE89EB91E0B7
:104B6000A7DD81E0A6CE85E392E20E94CD178EE21A
:104B700092E26DE072E247E252E20E947C1386E02C
:104B800061E04DEB54E151DE80E494E26DE076E2C9
:104B90004CE454E225ED35E262DE8CEB91E063EB10
:104BA00075E265DD80E090E03DCE80E06BEC74E185
:104BB0004DEF51E129E636E210DE81E062ED74E16D
:104BC0004DEF50E127E03FE008DE82E06DED74E15B
:104BD0004DE751E126E53EE000DE83E067EE74E15B
:104BE0004DE75DE027E835E2F8DD84E06DEE74E145
:104BF0004DE750E12AE138E2F0DD85E066EF74E14F
:104C00004DEF5FE025E634E2E8DD86E062E075E145
:104C10004DE75FE02EE233E2E0CD8CEB91E048DD42
:104C200081E047CE80E090E06DE072E240E050E04D
:104C30000E947C1383EB95E282CD8091C2018C307F
:104C400020F4845F8093C20108958C508093C20148
:104C500008958091E905833041F018F4823069F4B9
:104C600006C0843061F0853041F489E00895809178
:104C7000E701811106C082E0089581E0089585E092
:104C8000089581E00895CF938091E905863059F029
:104C9000EAEEF5E0C081CF5FC083DBDF8C1720F444
:104CA0001092EA0501C0C9DFCF910895CF9380919A
:104CB000E905863059F0EAEEF5E0C081C150C083C5
:104CC000C8DF8C1720F48093EA0501C0B6DFCF91CE
:104CD00008958AE060E047E055E1A7DD80E494E2D2
:104CE0006CE474E245E158E22FE736E2B8DD8FEB81
:104CF00091E069E676E2BBDC80E090E093CDAFE145
:104D0000B0E0E5E8F6E20C94452F182F8A3008F061
:104D10005DC08091E905882321F08091EB05811722
:104D200039F0812FBE01645E7F4F0E94A00B08C046
:104D3000CE014C9662EC71E043E050E00E943031CD
:104D40008C8D8F8FCE014F9651D69E01245F3F4FA1
:104D5000EDB7FEB73283218322E135E1348323832B
:104D60009F8D958316829D8D9783108681871286ED
:104D70000E9440318E8D882314F480E801C08EE2B9
:104D80008B871B8E6E8D70E0DE01549620E030E044
:104D9000AB01022E02C0559547950A94E2F740FFF9
:104DA00005C0F901E057FC4EE49101C0EDE2ED933E
:104DB0002F5F3F4F2730310559F7812FBE01655FC7
:104DC0007F4F40E050E02BEE36E2BCDC21DD6F96F9
:104DD000E3E00C94612FCF9386E596E263E476E2FC
:104DE00045E158E22FE736E23ADD8EEA97E290930A
:104DF000F9058093F8054091E905E42FF0E0EE30E5
:104E0000F10508F0A9C0EC5CFF4F0C946D2F809168
:104E1000EB0562EC71E00E94A00B81E08093E90554
:104E20008091C40187FB882780F98093EA0594C0AC
:104E300091E08091EA05811101C090E0E4ECF1E09D
:104E4000808190FB87F9808382E08093E9058091DF
:104E5000C20106DA8093EA057FC082EC91E063E04C
:104E60003BDC7AC08091E701811102C0C7E101C03B
:104E7000CCE08091C301F4D9282F82EC91E06C2F13
:104E800044E042DC69C083EC91E065E025DC64C06D
:104E90008091E701811102C047E001C046E0209106
:104EA000C401217083EC91E06BE32EDC1092C5010C
:104EB00053C087E08093E9054FC08091EA058823BD
:104EC00079F0E4ECF1E081E090E00090C50102C0EF
:104ED000880F991F0A94E2F79081892B80830FC075
:104EE000E4ECF1E081E090E00090C50102C0880FA1
:104EF000991F0A94E2F7809590818923808380919D
:104F0000C5018F5F8093C5012091C40130E0B901D4
:104F100002C0759567958A95E2F7CB018170809301
:104F2000EA054D3021F04F5F4093E90515C08091AF
:104F3000EB0562EC71E00E94340C1092E90580E40C
:104F400094E26CE474E245E158E22FE736E287DC54
:104F50001092F9051092F805CF910895A3E0B0E002
:104F6000E3EBF7E291C71A82E091E905E63030F40D
:104F7000E230A0F4E13009F054C006C0E630E9F0B8
:104F8000EE3008F04EC022C08091EA05882311F06F
:104F900080E801C08EE2898317E02AC08E2F8F5FE0
:104FA000182F110F110F110F181BE43008F0195FA3
:104FB0008091EA05805D89831BC08091C2018B834B
:104FC000CE01039613D5898318E312C0E7501E2F34
:104FD000110F110F110F1E1B1A5B8091EA05882318
:104FE00029F0F0E0E057FC4EE49101C0EDE2E983E6
:104FF0002091EB0530E08091EC05281B31092F5FF3
:105000003F4F022F000F000F000F812F602F45E050
:105010000E94BC1ACE01019661E0412F202F0E9410
:105020002D1A80E02396E4E04BC78FEB91E040DB44
:1050300031DB3FCC84E061E044E255E1F6DB80E423
:1050400094E261E578E24CE454E220E338E207DCE4
:1050500086EC91E06AE178E20ADB80E090E0E2CB66
:1050600080E061E375E14DEF5EE02CE739E2B5DB0E
:1050700081E06DE375E14DE75EE02FE538E2ADDB01
:1050800082E063E475E14DEF5DE022EF38E2A5DBFD
:1050900083E069E475E14DEF56E028E035E29DDB01
:1050A000B7CB86EC91E004DB81E003CC8091E20198
:1050B0008F5F8D3008F080E08093E201089581E0F9
:1050C00061E041E555E1B1DB80E494E260EB78E238
:1050D0004CE454E227EA38E2C2DB8BE798E2909393
:1050E000F9058093F80589EC91E06FE578E2BFDA85
:1050F00080E090E097CBAAE0B0E0E0E8F8E2C4C638
:105100008091EB0581111FC08E01095F1F4FEDB724
:10511000FEB7128301838BE595E1948383838091AD
:10512000E20190E09C01220F331F220F331F820FF8
:10513000931F968385830E944031C80160E048E355
:1051400028E20E942D1A80E02A96E4E0B9C680E0A9
:1051500061E675E14DE756E026E538E23EDB58CBE7
:10516000CF9398DAC82F81110E94470F89EC91E004
:105170009FDA8C2F9EDBCF9108958091E801837098
:105180008F5F843008F080E0E8EEF1E0837090817A
:105190009C7F892B808308958091E8018695869570
:1051A00083708F5F843008F080E0E8EEF1E0837078
:1051B000880F880F9081937F892B80830895809139
:1051C000E80182958F7083708F5F843008F080E0F3
:1051D000E8EEF1E083708295807F90819F7C892B3F
:1051E0008083089583E061E049E655E11EDB80E4B9
:1051F00094E26EE379E24CE454E228E039E22FDBFA
:105200008CEC91E062EF78E232DA80E090E00ACB59
:10521000CF93DF93C8EED1E04881437080E8489F88
:10522000A00111244350584F80E063E775E12DEB56
:1052300038E2D3DA488146954695437080E8489F26
:10524000A00111244350584F81E066E775E12CEC32
:1052500038E2C3DA488142954F70437080E8489F36
:10526000A00111244350584F82E06DE775E12FED06
:1052700038E2B3DACDDADF91CF910895CF930ADA2D
:10528000C82F81110E94470F8CEC91E011DA8C2F0E
:1052900010DBCF9108958091E905833089F018F4EF
:1052A000813061F405C0853029F0873039F404C0BD
:1052B00082E0089583E008958BE0089589E00895E1
:1052C00085E00895CF93EAEEF5E0C081CF5FC0831B
:1052D000E2DF8C1710F41092EA05CF910895CF9376
:1052E000EAEEF5E0C081C150C083D5DF8C1710F421
:1052F0008093EA05CF9108958FEC91E060E076E02D
:1053000047E050E0ADD786E060E048E855E18DDA4F
:105310008DE49BE262E47BE24DE35BE22CE939E25F
:105320009EDA86ED91E06CE779E2A1D981E0809385
:10533000EB0580E090E076CAA5E2B0E0E1EAF9E2B0
:105340009FC56E0182E2C80ED11C6091D40170E04D
:10535000660F771F660F771F6C5B7C4EC60170D798
:105360008E01035F1F4FEDB7FEB71283018382EA00
:1053700095E1948383830F2EF3E1EF2EF1E0FF2E6E
:10538000F02DF682E5828091D30187831086D28644
:10539000C1868091D5018387148672D781E0B801D8
:1053A00040E050E024E43AE2CDD9EDB7FEB71283F5
:1053B000018388EB95E194838383F682E582809173
:1053C000D101878310868091D0018187128658D7BA
:1053D00083E0B80140E050E02BEF39E2B3D985E03B
:1053E00068E975E140E050E02AE33BE2F6D910DAE3
:1053F000A596E8E061C58FE699E262E679E24DE3C1
:105400005BE22CE939E22BDA8CE09BE29093F90520
:105410008093F8058091E905813081F028F0823091
:1054200089F08330E9F418C081E08093E905809128
:10543000D1010E9430218093EA05089581ED91E029
:1054400062E04AC98091D0010E943021282F81ED6D
:1054500091E067E143E058C980ED91E064E03CC928
:1054600080ED91E06BE340E020E04ED98DE49BE2DB
:1054700062E47BE24DE35BE22CE939E2F0D9109281
:10548000F9051092F80508958FE699E262E679E24F
:105490004DE35BE22CE939E2E2D989EB9AE29093A1
:1054A000F9058093F8058091E9058630D9F030F44C
:1054B000882351F0853009F03FC010C0873009F1D2
:1054C000883009F039C034C085E08093E9058091C7
:1054D000D3010E9430218093EA05089583ED91E085
:1054E00066E0FAC883ED91E06FE147E02091D401D6
:1054F0000BD98091D30181113BC081E08093D3010E
:1055000008958091EA058093D4016091D5015BD222
:105510009091D301891710F48093D30188E0809390
:10552000E9058091D5010E9430218093EA05089514
:1055300085ED91E069E0D0C885ED91E063E640E05B
:1055400020E0E2D88091D5016091D4014091D3014F
:1055500005D28093D2018DE49BE262E47BE24DE3CD
:105560005BE22CE939E27BD91092F9051092F8053B
:105570000895AAE0B0E0EEEBFAE287C48091E90575
:10558000873079F030F4853049F0863009F040C03A
:1055900011C0883049F08930D9F509C045E01CE1D7
:1055A0000BC041E111E308C045E01BE505C045E043
:1055B00012E602C045E013E2812F60E10E94BC1AAE
:1055C0008091E905873089F09E01295F3F4FEDB753
:1055D000FEB7328321832DE935E134832383809123
:1055E000EA05858316824CD60CC06091EA0570E00E
:1055F000660F771F660F771F6C5B7C4ECE01079698
:105600001FD6CE01079661E0412F20E10E942D1A9E
:1056100080E02A96E3E055C4A2E0B0E0E1E1FBE2DD
:1056200034C48091E905823079F018F48130F1F4C6
:1056300005C0833029F08430C9F404C011E305C0EB
:1056400016E403C01DE401C018E3812F60E245E0C9
:105650000E94BC1A8091EA05805D89831A82CE017E
:10566000019661E0412F20E20E942D1A80E02296EF
:10567000E3E027C48FEC91E059C186ED91E018D8A2
:1056800009D817C909D98091EB05882321F0823008
:1056900011F0843009F400C90895F2D88091EB0527
:1056A000882321F0823011F0843009F4E9C808958C
:1056B00083E08093B10082E0809370008AEF809352
:1056C000B30008958FB7F8942091FE053091FF053F
:1056D0008FBF822F932F08951092D9011092DA0173
:1056E00083B7817F83BF0895CF930E94B512803F17
:1056F0002AE0920790F54B9930C0892B71F10E94F6
:1057000064138FEF0E94B00F0E940C1780E00E947C
:105710007017E3D083B7817F846083BFF89483B729
:10572000816083BF85B7806685BF8F7D85BF789494
:10573000889583B78E7F83BF0E9489124B9905C0DD
:105740000E94B512803F9A4028F3D5D00E943F13A3
:105750000E94BA1381E00E94701785E0C0E021E04A
:10576000E82FF0E0E552FE4F9081923009F473C0CB
:10577000913009F4C22F815098F70E948913C1110A
:1057800003C0811162C020C09091D901913041F4D1
:10579000882331F081E00E9424191092D9015BC066
:1057A000809164008F3A29F483B7817F866083BF3C
:1057B00003C083B7817F83BF83B7816083BF889530
:1057C00083B78E7F83BF47C08091D901811107C005
:1057D00081E08093D90180E00E9424193CC081308F
:1057E00009F039C08091DA01811106C081E080930F
:1057F000DA0180E00E94701782E08093D90183B7BC
:10580000817F846083BF39D0F89483B7816083BF80
:1058100085B7806685BF8F7D85BF7894889583B76F
:105820008E7F83BF1092D90166D08130A1F0109293
:10583000DA010E94BA1381E00E94241981E00E94DB
:10584000701783E00E94821206C08091D9018130D6
:1058500009F0A6CF9FCFCF910895E82FF0E0E55251
:10586000FE4F6083089581E09091DA01911180E00C
:10587000089580E096E00C946B15A3E0B0E0E2E4BC
:10588000FCE204C380E00E942D15CE0101960E9427
:10589000270C882349F00E94310C8F5F8B83CE0147
:1058A00001960E94E11504C080E090E00E94E1159D
:1058B0008091E801807341F01A8219821B82CE0127
:1058C00001960E942F1604C080E090E00E942F16DF
:1058D0001092E1012396E2E0F5C280E00E942D15CE
:1058E00080E090E00E94E11580E090E00E942F1699
:1058F0001092E1010895CF93BCDF81E00E942D1545
:105900000E94C715C82F0E941416CC2329F08823A3
:1059100011F083E001C082E0CF9108955A9AE9E640
:10592000F0E0808182608083E89AE5CFCF93DF93B7
:10593000EC01188280E096E0BE0147E050E090D490
:10594000CE010E9493150E94BA0CDF91CF91089569
:10595000982F937081E009F080E008956F5F90E0E8
:105960009C012053384F633028F4E22F9C012153CF
:10597000384F02C0E22FE25057E1659FC001112469
:1059800069E070E03ED24E0FFB01E40FF11D34964A
:10599000C9019595879595958795E80FF91FC901D8
:1059A00064E670E02ED2E61BF70BC90160E971E0F6
:1059B00028D2CF01860F971F67E070E022D2815076
:1059C00008F486E00895CF93E82FF0E0E753FA4E0D
:1059D000C491813031F4862FBBDF811104C08C2F3C
:1059E00003C08C2F01C08DE1CF9108952091E70174
:1059F000222379F0FC0120812C3020F02C502083D0
:105A000080E50895211107C02CE0FC01208381E48A
:105A1000089580E2089581E408958091E10188234A
:105A200089F01092E10125DF8091000681110AC002
:105A300080910106811106C080E590E063E042E0BC
:105A40000C94A00F08951F920F920FB60F9211247D
:105A50008F9381E08093E1018F910F900FBE0F90A3
:105A60001F9018955058BB27AA270ED048C139D18E
:105A700030F03ED120F031F49F3F11F41EF42EC1DE
:105A80000EF4E095E7FB24C1E92F4AD180F3BA1761
:105A9000620773078407950718F071F49EF562C1D9
:105AA0000EF4E0950B2EBA2FA02D0B01B901900139
:105AB0000C01CA01A0011124FF27591B99F0593F7D
:105AC00050F4503E68F11A16F040A22F232F342FC5
:105AD0004427585FF3CF469537952795A795F04013
